:020000040800F2
:10000000F0A50020E5030008234600080B40000887
:1000100021460008F12400087D4D00080000000082
:1000200000000000000000000000000025030008A0
:10003000B125000800000000810300087547000892
:10004000FF030008FF030008FF030008FF03000888
:10005000FF030008FF030008FF030008FF03000878
:10006000FF030008FF030008FF030008FF03000868
:10007000FF030008FF030008FF030008FF03000858
:10008000FF030008FF030008FF0300080000000052
:10009000000000000000000000000000FF03000856
:1000A000FF03000831480008FF030008FF030008B1
:1000B000FF030008FF030008FF030008FF03000818
:1000C000FF030008FF030008FF030008FF03000808
:1000D000FF030008714D0008FF0300080000000046
:1000E000FF030008FF030008FF03000800000000F2
:1000F000000000000000000000000000FF030008F6
:1001000000000000FF030008FF030008FF030008D1
:1001100000000000000000000000000000000000DF
:10012000FF030008FF030008F5240008FF03000890
:10013000FF030008000000000000000000000000B5
:10014000000000000000000000000000FF030008A5
:10015000FF030008FF03000801250008FF03000853
:10016000FF030008FF03000800000000000000007B
:10017000000000000000000000000000000000007F
:1001800000000000FF030008000000000000000065
:10019000FF030008FF03000800F002F800F0B2F8C7
:1001A0000AA090E8000C82448344AAF10107DA45D2
:1001B00001D100F0A7F8AFF2090EBAE80F0013F072
:1001C000010F18BFFB1A43F001031847ECB20000FF
:1001D0000CB300000A444FF0000C10F8013B13F080
:1001E000070408BF10F8014B1D1108BF10F8015B90
:1001F000641E05D010F8016B641E01F8016BF9D183
:1002000013F0080F1EBF10F8014BAD1C0C1B09D1D9
:100210006D1E58BF01F801CBFAD505E014F8016B4B
:1002200001F8016B6D1EF9D59142D6D370470000DD
:100230000023002400250026103A28BF78C1FBD8EF
:10024000520728BF30C148BF0B6070476E2900F0CD
:100250000D83702900F05784662908F01C856529F4
:1002600008F01985672908F01685612908F01585B9
:1002700003681B0A28BF41F08001692900F0BA8297
:10028000642900F0B782752900F0B4826F2900F06C
:10029000E483782900F02384E92900F07F83E429AE
:1002A00000F07C83F52900F07983EF2900F0E183E9
:1002B000F82900F022840368DB0928BF41F080019F
:1002C000632901F04B81732901F05081E32901F08A
:1002D0005B81F32901F06081002070471FB508F0B1
:1002E000D5FC01F0ABF904000020002108F0B8FCB7
:1002F000401C60600020002108F09CFCE0601FBDF5
:1003000010B510BD01F06DF91146FFF7E7FF06F0DB
:10031000B5FD01F049FA03B4FFF7F2FF03BC01F0A9
:100320004DFA00002C4B19680868B0E8F04F80F3D4
:100330000988BFF36F8F4FF0000080F3118870477A
:100340000000000008480068006880F308884FF04B
:10035000000080F3148862B661B6BFF34F8FBFF31D
:100360006F8F00DF00BF00BF08ED00E0DFF80C007A
:10037000016841F470010160704700BF88ED00E042
:10038000EFF30980BFF36F8F134B1A681EF0100F45
:1003900008BF20ED108A20E9F04F106009B44FF03B
:1003A000500080F31188BFF34F8FBFF36F8F07F0BA
:1003B000F3FE4FF0000080F3118809BC196808684B
:1003C000B0E8F04F1EF0100F08BFB0EC108A80F3B9
:1003D0000988BFF36F8F704714000020EFF305808A
:1003E000704700000948804709480047FEE7FEE7DC
:1003F000FEE7FEE7FEE7FEE7FEE7FEE7FEE7FEE7D5
:1004000004480549054A064B70470000214800088A
:1004100099010008F0950020F0A50020F09D002033
:10042000F09D002053EA020C00F069802DE9F04BAA
:100430004FF00006002B1FBFB3FA83F503FA05F453
:1004400024FA05F65E4012BF1643B2FA82F502FAAC
:1004500005F4C5F120051EBF22FA05FC44EA0C0490
:10046000203556EA044C4FEA144418BF641C4FF080
:1004700000084FF00009904271EB030C39D30029BA
:1004800019BFB1FA81F701FA07F6B0FA80F700FA5E
:1004900007F6C7F120071EBF20FA07FC46EA0C0644
:1004A0002037B6FBF4FCA7EB0507103F07F01F0B46
:1004B000CBF120060CFA0BFB2CFA06F644BFB34630
:1004C0000026202FA4BF5E464FF0000B5BEA060C0F
:1004D00008BF4FF0010B19EB0B09ABFB027C48EB9B
:1004E0000608C01B06FB02CC0BFB03CC71EB0C0116
:1004F000C1E70B46024641464846BDE8F08B13B5BE
:100500004FF000004FF00001AFF30080BDE81C4049
:10051000704700007CB51D4616460C00009001D0C7
:100520002044401E074B7B442A46694601903046D2
:1005300000F0B5F905461CB10020694600F0C2F98B
:1005400028467CBDA503000040EA010310B59B07C7
:100550000FD1042A0DD310C808C9121F9C42F8D02D
:1005600020BA19BA884201D9012010BD4FF0FF30DE
:1005700010BD1AB1D30703D0521C07E0002010BDF4
:1005800010F8013B11F8014B1B1B07D110F8013B80
:1005900011F8014B1B1B01D1921EF1D1184610BD61
:1005A00010B5431C02E010F8011B71B18107FAD1AC
:1005B0004FF0013202C88C1A8C4314EAC211F9D0F0
:1005C000C01A0A0603D0C01E10BDC01A10BD0A040E
:1005D00001D0801E10BD0902FCD0401E10BD032AB0
:1005E00040F2308010F0030C00F0158011F8013B50
:1005F000BCF1020F624498BF11F801CB00F8013B37
:1006000038BF11F8013BA2F1040298BF00F801CBFA
:1006100038BF00F8013B11F0030300F02580083AD1
:10062000C0F0088051F8043B083A51F804CBA0E828
:100630000810F5E7121D5CBF51F8043B40F8043B7D
:10064000AFF30080D20724BF11F8013B11F801CBB2
:1006500048BF11F8012B24BF00F8013B00F801CB83
:1006600048BF00F8012B704710B5203AC0F00B804E
:10067000B1E81850203AA0E81850B1E81850A0E8A6
:100680001850BFF4F5AF5FEA027C24BFB1E8185000
:10069000A0E8185044BF18C918C0BDE810405FEA70
:1006A000827C24BF51F8043B40F8043B08BF7047EC
:1006B000D20728BF31F8023B48BF11F8012B28BFF1
:1006C00020F8023B48BF00F8012B704702F0FF03FF
:1006D00043EA032242EA024200F0E6BA4FF0000287
:1006E00000B5134694469646203922BFA0E80C5028
:1006F000A0E80C50B1F12001BFF4F7AF090728BF03
:10070000A0E80C5048BF0CC05DF804EB890028BF7E
:1007100040F8042B08BF704748BF20F8022B11F0A7
:10072000804F18BF00F8012B704770477047704723
:1007300070B5044685690068C10601D5302600E021
:100740002026C00707D070BDD4E90121304690476C
:10075000206A401C20626D1EF6D570BD70B504463F
:1007600085690078C00707D170BDD4E90121202038
:100770009047206A401C20626D1EF6D570BD096846
:100780004A0501D540B27047C905FCD500B2704793
:1007900009684A0501D5C0B27047C905FCD580B2C9
:1007A000704770B50C460546012A05D028788006AA
:1007B00000D5EA69002302E0012305E05B1C9342B7
:1007C00002D2E05C0028F9D1A869E618C01AA86135
:1007D000286A184428622846FFF7AAFF04E0D5E9F2
:1007E000012114F8010B9047B442F8D32846FFF7D3
:1007F000B5FF70BD2DE9F04106460024106875294B
:10080000314616A510D0FFF7BAFF002802DA4042A1
:1008100013A507E031688A0701D512A502E0490750
:1008200004D511A5012401E0FFF7B2FF00210A223F
:1008300006F1240709E0B0FBF2FCB0FBF2F302FB87
:100840001C00303078541846491C0028F3D1234648
:100850002A463046BDE8F04100F08FBA00000000A3
:100860002D0000002B00000020000000116802682D
:10087000006A530501D508700AE0D30501D5088048
:1008800006E0130603D5C217C1E9000200E00860C4
:100890000120704701694A1C02610878704700B561
:1008A0008FB0CDE901310021059105497944CDE9A9
:1008B00003101146684600F031F90FB000BD00008A
:1008C000E5FFFFFF0A6802F8010B0A607047D1E9F3
:1008D00000239A4202D2531C0B6010707047000034
:1008E0002DE9FF5F15468A460446DFF8AC80F844E0
:1008F0000027D8E900103E46CDE9001010E03AF894
:1009000016106A4602A800F04BFE411C07D0217861
:10091000890603D5E269391891420DD80744761C3F
:100920002078800602D5E069B84205DDAE42E6DBFC
:100930003AF816000028E2D1A069C01BA061204649
:10094000FFF7F6FED8E90010CDE90010002017E00F
:100950003AF818106A4602A800F022FEB0F1FF3FF4
:1009600081460BD000250DF1080B05E0D4E90121EB
:100970001BF8050090476D1C4D45F7D308F10100A9
:10098000B0428046E4DB206A384420622046FFF70C
:10099000E5FEBDE8FF9F0000BEAA00002DE9F04182
:1009A0008046D21D22F007020025D2E90002F52977
:1009B00015A614D0011E72F1000106DA0023D0EB57
:1009C000030063EB020211A608E0D8F800108B07C1
:1009D00001D50FA602E0490701D50EA60125114653
:1009E000002408F1240704E000F082F930323A557F
:1009F000641C50EA0102F7D12B463246214640469C
:100A0000BDE8F04100F0B9B9000000002D00000081
:100A10002B0000002000000030B4002100F124046D
:100A200008E002F00705D208303542EA4372DB08DD
:100A30006554491C52EA0305F3D10468002310A24F
:100A4000250707D5A40600D421B1C46901230DA24E
:100A5000641EC46130BC00F090B910B50446214654
:100A60001068FFF795FE02462046BDE810400023BF
:100A7000D2E7D21D22F00701D1E90023CCE7000024
:100A80000000000030000000F0B40D4601880905A8
:100A900002D5214C7C4402E01F4C7C440E340021E2
:100AA00000F1240608E002F00F071209E75D42EAB0
:100AB00003721B097754491C52EA0307F3D10278E9
:100AC0000023120704D5702D06D009B1022311347A
:100AD0002246F0BC00F051B901231034F8E770B59C
:100AE00004460D4621461068FFF752FE024629468D
:100AF0002046BDE870400023C6E7D21D22F0070360
:100B0000D3E90023C0E70368126843F020030360C1
:100B10000823C3610023B7E720A900002DE9F05F97
:100B2000894604464FF0000ADFF874B1FB44C0F870
:100B300020A02046E1688847002874D0252806D0E8
:100B4000D4E901219047206A401C2062F1E7002689
:100B50005F462046E16888472028054607DB312D9F
:100B600005D2781910F8200C08B10643F1E7B00758
:100B700001D526F00406C4F81CA00027C4F818A06C
:100B80002A2D09D0284604F083FA38B304EB8708ED
:100B9000303DC8F8185019E059F8041B204604EB02
:100BA00087029161E1688847012F054618D1E06905
:100BB000002820DA26F020061DE0D8F8180000EB07
:100BC000800005EB40003038C8F818002046E16886
:100BD0008847054604F05CFA0028EED1012F0AD0C0
:100BE0002E2D08D12046E16888477F1C0546022F3C
:100BF00046F02006C4DBA069002803DA404246F034
:100C00000106A061F00701D026F010066C2D0BD074
:100C1000682D09D04C2D39D06A2D35D0742D35D0A2
:100C20007A2D33D016E038E0E1682F462046884719
:100C3000B842054609D16C2F26D04FF48060E16898
:100C4000064320468847054604E06C2F1AD04FF42F
:100C5000807006430DB3A5F14100192802D8203554
:100C600046F400664A462946204626604E46FFF76F
:100C7000EDFA80B101280BD0F61D26F0070000F137
:100C8000080956E74020E4E78020D8E70020D6E7AF
:100C900006F104094DE7284652E7206ABDE8F09FB7
:100CA000B0A800004FF000020429C0F0128010F03C
:100CB000030C3FF415ADCCF1040CBCF1020F18BFCE
:100CC00000F8012BA8BF20F8022BA1EB0C01FFF7C5
:100CD00007BD5FEAC17C24BF00F8012B00F8012B9F
:100CE00048BF00F8012B7047004870478C950020E2
:100CF00030B5B0F10A024FEA900E71F100034EEAEE
:100D0000817EB0EB0E0061EB91014FEA101E4EEABE
:100D1000017E10EB0E0041EB11114FEA102E4EEA4E
:100D2000016E10EB0E0041EB11214FEA104E4EEA1E
:100D3000014E10EB0E0041EB1141401841F1000152
:100D40004FEAD00040EA41704FEAD10110EB800534
:100D50004FEA810444EA907444EB01046D1944EBBA
:100D60000404521BA3414FF0000348BF0A3200D5D0
:100D700030BD401C41F1000130BD2DE9F0470D466A
:100D800099469246044600F124080168880604D575
:100D9000E06921F01001216000E00120A84201DD9E
:100DA000471B00E00027A1697A1902EB0900081A25
:100DB000A0612078C00602D42046FFF7B9FC0026C7
:100DC00008E0D4E901211AF806009047206A401C87
:100DD000761C20624E45F4DB2078C0060AD52046FA
:100DE000FFF7A6FC06E0D4E9012130209047206AF5
:100DF000401C2062381EA7F10107F4DC07E0D4E9AB
:100E0000012118F805009047206A401C2062281E26
:100E1000A5F10105F3DC2046FFF7A0FC20780006D1
:100E200002D50220BDE8F0870120FBE770472DE9DD
:100E3000FF4F0C461E464FF0FF378BB0D2E9000142
:100E4000DDF860800A908A46C1F30A5505B93D462F
:100E5000002108464FF00000BAF1000F00F44000F6
:100E600005DA00EB80004FF4400101EA50004FEA40
:100E70009059B9F1010F00DDB9460A9850EA4A00CD
:100E80000ED044F61050A5F2FF3545432F14B8F1AB
:100E9000000F1ED07542291E1EDDC9F100021CE0A4
:100EA000B8F1010F4FF0000001D0302103E0F24310
:100EB00005E02154401CB042FBDB304600220021FB
:100EC00021540B99C1F80880C1E900200FB0BDE89A
:100ED000F08FBD1B6D1CDEE74A4600DA694206A8AA
:100EE00000F0F0FB06AB93E8070003AB83E80700D4
:100EF00050460A9900F0A8FC8DE80700A0F50050C4
:100F00001F3800900398002D0ADD42F21F014A4667
:100F10000844002303A90390684600F011FF09E08C
:100F2000A0F500504A461F38002303A903906846E5
:100F300000F01BFF8DE807000004000C03D04FF009
:100F4000FF30410800E01046B8F1000F03D0002246
:100F5000009215461EE0751E05D4FFF7C9FE30321B
:100F600062556D1EF9D5B3460122084302D0002216
:100F70007F1C04E02078302801D100227F1E002A47
:100F8000099784D01DE0112D07DAFFF7B1FE30324A
:100F900062556D1C50EA0102F5D1084302D0009859
:100FA000C8B10EE00021681E05E0235C625C63545A
:100FB0002254401E491C8142F7DBAB46A81B401E51
:100FC0000990002004F80B000B98099AC0F80880DB
:100FD000C0E9002B7AE711264FF0000857E72DE90A
:100FE000F04F88460446D21D22F0070191B0D1E9A6
:100FF0000001CDE90A0103F0C2FE02460B98C00FC2
:1010000001D02D2007E02068810701D52B2002E0C8
:10101000202101EAC000032A099001D0072A05DB3C
:1010200003464146204600F00DFB0BE12078800688
:1010300001D5E06900E00620B8F1650F814606D0D1
:10104000B8F1660F18D0B8F1670F70D131E0002009
:10105000B9F1110F009001DB112301E009F1010347
:101060000AAA01A90CA8FFF7E2FEDDE90C70002630
:1010700009F10105834647E001204B4600904FF0FF
:1010800000470AAA01A90CA8FFF7D1FEDDE90DB0BF
:101090000C995D46002610B909F101000D18B9EB55
:1010A000050003D4C0F1FF3609F10105A5EB0900E5
:1010B0002BE0B9F1010F01DA4FF001090020B9F17D
:1010C000110F0090484601DD112300E003460AAAF3
:1010D00001A90CA8FFF7ABFEDDE90C704D46002618
:1010E0008346207800070AD4AB4500DA5D4601A8A4
:1010F000012D04DD411911F8011C302907D04F459D
:1011000002DA17F1040F04DA012082460FE06D1EA7
:10111000EEE7002F02DCED1B3E4403E0781CA84202
:1011200000DD7D1CB81B00F1010A4FF0004720785C
:10113000000703D4AA4501DB4FF0FF3A0021B7F1C5
:10114000004F0DF143088DF8431024D002202B23CB
:10115000002F01DA7F422D230A21021EA0F1010097
:1011600000DC5FB197FBF1FC97FBF1F201FB1C7C0B
:1011700017460CF1300C08F801CDEEE7A8F101009C
:1011800003702188090501D5452100E06521A0F102
:10119000010800F8011C09980FA9A1EB0807FF1D21
:1011A00000B10120411901EBEA70A1693844081A25
:1011B000401EA0612078C00602D42046FFF7B8FA8E
:1011C000099828B1D4E901219047206A401C206287
:1011D0002078C00622D52046FFF7AAFA1EE0002E8E
:1011E00004DBB34502DD01A8805D00E03020D4E9D6
:1011F00001219047206A401C2062761CAAF1010060
:101200005FEA000A0AD100F019FAC0680168405C80
:10121000D4E901219047206A401C2062281EA5F1D4
:101220000105DCDC07E0D4E9012118F8010B904747
:10123000206A401C2062381EA7F10107F3DC20461B
:10124000FFF78CFA032011B041E600002DE9F04FC2
:1012500004460D46D21D22F0070089B0D0E9009760
:101260004846394603F08BFD0246F80F01D02D2386
:1012700007E02068810701D52B2302E0202101EA45
:10128000C0038DF820300BB1012000E00020032ABC
:10129000824601D0072A04DB2946204600F0D2F915
:1012A0003FE12078800601D40D2500E0E569C7F311
:1012B0000A560D2D49DA00214FEA175B08464FF018
:1012C0000000002F00F4400007DA00EB80004FF42C
:1012D000400100EBD07001EA60008115012901DDB9
:1012E0004FF0FF3100224FEA850CBCF1180F06D3F6
:1012F0001346ACF118004FF08052C24003E04FF4A7
:10130000801323FA0CF30CF10C0CBCF1200F04D366
:10131000ACF1200C09FA0CF001E007FA0CF00029FE
:101320004FF0004801DD18B90FE00ED140450CD355
:1013300019EB02095F4121B9404502D19F4329EAD7
:101340000209BBEB175F00D0761C2088000502D590
:101350007B48784402E07A487844193808AA302358
:1013600002F80A30037C0AF10101002E0AF1020A98
:1013700053546A4602DC4FF0300101E04FF0310176
:101380004FF001088DF8001002D0A6F2FF3603E0FE
:1013900059EA470100D06B4E002D02DC2178090785
:1013A00004D54FF002082E218DF80110C44600210B
:1013B0000BE0C7F303433F01C35C491C6D1E02F8F9
:1013C0000830052908F1010801DA002DF1DC0021BF
:1013D0000CE000EB1973491C1B786D1E082902F8FC
:1013E00008304FEA091908F1010801DA002DF0DC94
:1013F00021688B0602D516E0A8F10108E04505DD5D
:1014000002EB080313F8013C302BF5D0B8F1000FC4
:1014100009DD02EB080313F8013C2E2B03D1090769
:1014200001D4A8F10108002D05DD3E2102F80810C5
:101430006D1E08F10108407C002E02F8080008F13A
:10144000010804DA2D20764202F8080002E02B2081
:1014500002F808000A214FF47A70864208F1010868
:101460000BDB96FBF0F3303302F8083096FBF0F319
:1014700008F1010800FB136601E0642E0CDB642018
:1014800096FBF0F3303302F8083096FBF0F308F1E6
:10149000010800FB136601E00A2E06DB96FBF1F063
:1014A000303002F8080008F1010896FBF1F001FB6A
:1014B0001060303002F80800A16908F1010808EB5B
:1014C000050202EB0A00081AA0612078C00602D4C7
:1014D0002046FFF72DF9216A08AE01EB0A002062D1
:1014E00004E0D4E9012116F8010B9047BAF1010A92
:1014F000F7D22078C00602D52046FFF719F96E46CC
:1015000009E016F8010B3E280FD0D4E901219047DD
:10151000206A401C2062B8F10108F2D22046FFF791
:101520001DF909B00320BDE8F08F206A284420622D
:1015300003E0D4E90121302090476D1EEBD3F8E79A
:10154000AEA0000002FCFFFF10B5436913B1AFF37A
:10155000008001E0FFF725F9012010BD127800F1AD
:1015600024010A7000224A700122EDE711684FF051
:10157000FF32E9E710B5436913B1AFF3008001E032
:10158000FFF7AEF9012010BD128800F1240182841A
:101590000022C2840122EDE711684FF0FF32E9E733
:1015A00070B516460C46054600F040F8036893F8FF
:1015B0000101012806D0FF2C0FD8185D68B1012069
:1015C0002C7070BDD3F807013246214603F2071391
:1015D00003442846BDE8704018474FF0FF3070BD07
:1015E00070477546FFF780FBAE46050069465346D7
:1015F00020F00700854618B020B5FEF701FFBDE8D2
:1016000020404FF000064FF000074FF000084FF069
:10161000000B21F00701AC46ACE8C009ACE8C009FA
:10162000ACE8C009ACE8C0098D46704710B500F0C1
:1016300005F8001D10BD00BF297600000048704766
:10164000AC9500202DE9F0411F46044603260168B1
:10165000072A01F4006004DB08B116A505E016A511
:1016600003E008B115A500E015A521F010002060E9
:10167000A069C01EA0610FB1401EA0612046FFF707
:1016800057F84FB1D4E9012138469047206A401CF1
:101690002062C01C206206E0206AFAE7D4E901213A
:1016A00015F8010B9047761EF8D22046FFF756F842
:1016B000BDE8F0814E414E006E616E00494E46001D
:1016C000696E66002DE9F047814616468AB03548B6
:1016D00078440DC88DE80D0032487844801C03AC76
:1016E0000DC884E80D0041F69B300844372190FB7B
:1016F000F1F290FBF1F5A5F1800501FB12041B3C12
:1017000002D56442012000E00020DFF898A0804666
:101710000027FA44AAF1BE0A0EE0E0070AD03246DA
:10172000684607EB470101230AEB810100F01DFB2E
:101730008DE8070064107F1C002CEED1194F7F4408
:10174000AE3F19E0E80715D007EB04100DF1180AB9
:1017500090E80E008AE80E00C068F04201D19819A6
:1017600008903246012306A903A800F0FEFA03AB55
:1017700083E807006D10641C002DE3D14FF00103D6
:1017800032466946B8F1000F03A802D000F0D8FA3B
:1017900001E000F0EAFAC9E90001C9F808200AB03E
:1017A000BDE8F087C09D000010B50446AFF300808F
:1017B0002046BDE81040FEF7AEBD000001491820EC
:1017C000ABBEFEE7260002004FF0013C50F8042BB0
:1017D00051F8043B9A4221D1A2EB0C03934313EA44
:1017E000CC1317D150F8042B51F8043B9A4215D171
:1017F000A2EB0C03934313EACC130BD150F8042B48
:1018000051F8043B9A4209D1A2EB0C03934313EA2B
:10181000CC13DBD04FF00000704700BFD01A01BAE4
:10182000B1FA81F101F0180122FA01F0CB40C1F1C7
:101830002001DBB2C0B2C01A2CFA01F3D11A9143D5
:1018400011EAC311E6D170475FEA400C08BF91F07E
:10185000000F4FEA8C234FEAC12243EA51514FEA6D
:101860001C5018BF00F5F0404FEA300018BF41F09F
:1018700000415FEA6C5C00F02980BCF1FF3F08BFCB
:1018800040F080407047130C06BF12044FF0100C5C
:101890004FF0000C130E04BF12020CF1080C130FD2
:1018A00004BF12010CF1040C930F04BF92000CF161
:1018B000020CD30F04BF52000CF1010C11464FF083
:1018C0000002A0F11F00A0EB0C00704711F0004FC8
:1018D00008BF704731F000413FF4D5AF0B0C06BF95
:1018E00009044FF0100C4FF0000C0B0E04BF09025E
:1018F0000CF1080C0B0F04BF09010CF1040C8B0F49
:1019000004BF89000CF1020CCB0F04BF49000CF19D
:10191000010CCCF12003A0EB0C0022FA03F302FA35
:101920000CF241EA030100F10100704720F07F4C06
:1019300080EA030023F07F47ACEB070303F57C53F9
:1019400000F0004003F1FF032DE980494FEA154BF9
:1019500009B44FEA144325EA0B4E24EA03480FF278
:10196000042606EB132749083E785FEA320203FBA0
:101970000667C7F5000707FB06F64FEA54374FEA3C
:10198000D64606F1020607FB066CCCF1005C4FEA76
:101990001C472CEA074C07FB06F40CFB06F504EB8E
:1019A00015464FEA961634BF00204FF000404FEA2C
:1019B000D13706FB07FC4FEA1C4C0CFB0BF7D21B84
:1019C00003FB0CF761EB07010CFB0EF7B0EB0740D4
:1019D00072EB17420CFB08F734BFA2EB0742B2EBE5
:1019E000074261EB17414FEA0C444FEA910706FBAF
:1019F00007FC4FEA1C4C0CFB0BF7B0EBC74072EB3B
:101A0000573203FB0CF734BFA2EBC742B2EBC7421D
:101A100061EB57310CFB0EF7B0EBC70072EB57725E
:101A20000CFB08F734BFA2EBC702B2EBC70261EBB5
:101A30005771039F4FEA816141EA921104EBCC0494
:101A40004FEAD1374FEA826206FB07FC42EA901266
:101A50004FEA80604FEA1C4C0CFB0BF7D21B03FBD8
:101A60000CF761EB07010CFB0EF7B0EB074072EBD4
:101A700017420CFB08F734BFA2EB0742B2EB074258
:101A800061EB17414FEA8C554FEA910704EB9C2418
:101A900006FB07FC4FEA1C4C0CFB0BF7B0EBC740F6
:101AA00072EB573203FB0CF734BFA2EBC742B2EB29
:101AB000C74261EB57310CFB0EF7B0EBC70072EB7E
:101AC00057720CFB08F734BFA2EBC702B2EBC70298
:101AD00061EB577115EB4C254FEA816141EA921198
:101AE0004FEA82624FEAD13742EA901206FB07FCC6
:101AF00044F100044FEA80604FEA1C4C0CFB0BF7EA
:101B0000D21B03FB0CF761EB07010CFB0EF7B0EBEC
:101B1000074072EB17420CFB08F734BFA2EB0742F9
:101B2000B2EB074261EB174115EB1C154FEA81310F
:101B300041EA92414FEA823242EA90424FEA8030D3
:101B40004FEA0C7644F1000448EA03434EEA0B489E
:101B50004FF0000EB2EB080C71EB030724BF624696
:101B600039464EEB0E0E4FF0000B00185241494122
:101B70004BEB0B0BB2EB080C71EB03077BF1000B8B
:101B800024BF624639464EEB0E0E4FF0000B001894
:101B9000524149414BEB0B0BB2EB080C71EB0307C5
:101BA0007BF1000B24BF624639464EEB0E0E51EA24
:101BB000020718BF46F0010616EB0E7655F100023B
:101BC00054F1000103D5BDE88901BDE80088BDE8F6
:101BD0008901BDE80048B619524141EB0101A3F16A
:101BE0000103704780807F7E7D7C7B7A7978777671
:101BF00076757473727171706F6E6E6D6C6C6B6AEA
:101C00006A69686867666665646463636261616087
:101C1000605F5F5E5E5D5D5C5C5B5B5A5A59595804
:101C2000585757565655555554545353525252516E
:101C3000515050504F4F4F4E4E4D4D4D4C4C4C4BC4
:101C40004B4B4A4A4A49494948484847474747460B
:101C50004646454545444444444343434342424247
:101C600042414141002B9C4630D477002BD01CB51B
:101C70004FEA370703B44FF010004FF01001BAF1EC
:101C8000000F06D0BCF1000FDCBF40F0080040F0B0
:101C900008014FF000000FBCBDE810400BF1010B34
:101CA000BBF1010F08BF5FEA170722BF12F1010263
:101CB00011F101014FF0004143F1000300F0004039
:101CC00043EA00007047F9D35708D0E746EA0646D2
:101CD00013F1400F4FEA16461FDD13F1200FDFBF4F
:101CE00016430A46002120335B42BED0C3F12007D1
:101CF00046EA064602FA07F74FEA164646EA07069C
:101D0000C3F1200722FA03F201FA07F721FA03F1DF
:101D10004FF0000342EA0702A7E746EA020646EA56
:101D200006464FEA164646EA0106BCBF46EA0646A4
:101D3000360C4FF000034FF000024FF0000194E723
:101D40002DE9804C9A46934670B491E8380007C854
:101D500031EA400C48BF34EA430C03D5FFF7E6FDF7
:101D6000FFF780FFF0BCBDE8008C2DE9804C9A465F
:101D7000934670B491E8380007C810F0804F08BF50
:101D800013F0804F03D100F005F8FFF76BFFF0BCB4
:101D9000BDE8008C20F07F4780EA030023F07F4CF1
:101DA00007EB0C03A3F57C5300F00040A3F1FE0306
:101DB00092F0000F00F0B38095F0000F00F07780F4
:101DC0002DE901494FEA11404FEA144621EA004843
:101DD00000FB06FC24EA064708FB06F607FB08F8AA
:101DE00000FB07F718EB06484CEB164C4FEA124B7A
:101DF00018EB07484FEA15464CEB174022EA0B4E0A
:101E00000BFB06FC25EA06470EFB06F607FB0EFE5B
:101E10000BFB07F71EEB064E4CEB164C4FF0000683
:101E20001EEB074E4CEB174B18EB0B0840F1000074
:101E300018EB0E0B58EB000840F100008F1A4FF022
:101E400000013CBFC943661B14BFB5EB040C002165
:101E50003CBFC943F61B4FEA17444EEA8E0E27EAF1
:101E600004454FEA1C4704FB07622CEA074C05FBBC
:101E700007F70CFB05F604FB0CFC16EB074642EBE0
:101E8000174216EB0C4642EB1C421BEB060658EBC6
:101E90000202414146EA9E0601D5BDE80189B61914
:101EA000524141EB0101A3F10103BDE801894FEA71
:101EB00014454FEA114724EA054621EA074C05FB81
:101EC00007F406FB07F70CFB06F105FB0CFC11EB16
:101ED000074144EB17444FEA124711EB0C4144EB26
:101EE0001C4422EA074C05FB07F206FB07F70CFB34
:101EF00006F605FB0CFC16EB074642EB174216EB09
:101F00000C4642EB1C456A1854F1000148BF70476B
:101F1000B619524141EB0101A3F10103704795F05D
:101F2000000F37D04FEA11424FEA144721EA024628
:101F300024EA074C02FB07F106FB07F70CFB06F44B
:101F400002FB0CFC14EB074441EB17414FEA154729
:101F500014EB0C4441EB1C4125EA074C02FB07F54E
:101F600006FB07F70CFB06F602FB0CFC16EB07461C
:101F700045EB174516EB0C4645EB1C42121951F187
:101F8000000148BF7047B619524141EB0101A3F16E
:101F9000010370474FEA14454FEA114724EA05460A
:101FA00021EA074C05FB07F106FB07F70CFB06F2DD
:101FB0004FF0000605FB0CFC12EB074241EB17410A
:101FC00012EB0C4251EB1C4148BF7047921841EB99
:101FD0000101A3F10103704738B50D48002269469D
:101FE000006800900B4803F0ADFD10F0FF0F02D029
:101FF0004FF0FF3038BD074C0021206803F014FE7D
:1020000060600021206803F019FEA060002038BD48
:10201000EC8C00089C00002070B5094A05464FF082
:10202000FF34106840B153685D6092685160194692
:1020300003F00EFE012801D0204670BD002070BDC7
:102040009C00002030B5124D9FED121A0022F7EED1
:10205000000A00BF01EB820393ED000A10EE104A64
:10206000AC4201DCB0EE410A00EB820484ED200AB0
:1020700093ED000A00EB0213521C83ED000AC3ED3E
:10208000100A042AE6DB012180F8941030BD00001C
:10209000CDCC4C3DCDCC4C3D2DE9F05F04462DED33
:1020A000028B0F4690F89400002872D004F58060EF
:1020B000D0EDB80A90EDB70A04F010FEDFF8E0901A
:1020C000DFF8E0A0DFF8E080DFF8E0B0B0EE408AB3
:1020D0000025F7EE008A00BF07EB850090ED000AAF
:1020E00010EE100A484501DA9FED310A04EB0510A5
:1020F000064604F0A6FED4ED240A04EB850080EE2B
:10210000801AD0ED201A80EEA10A31EE681A30EE66
:10211000680A10EE100A504502DDC1EE000A01E027
:10212000F7EE000A80EE880A10EE100A404502DA47
:102130009FED200A05E010EE100A584501DDB0EED3
:10214000080A06F1400004F07CFE05EBC50000EB38
:10215000051004EB0011B4F8D8066D1C01EB8000EB
:10216000042D80ED260AB7DBB4F8D8066421401CA4
:10217000B0FBF1F201FB1200A4F8D806B4F8DA06BD
:10218000642805D2401C80B2A4F8DA06642804D37F
:102190000120BDEC028BBDE8F09F0020F9E70000B4
:1021A000CDCC4C3D6F12833A0AD7233C000040400F
:1021B000CDCC4C3D0AD7233CF0B500235FF064063C
:1021C000B0F8D8261A4492FBF6F406FB1425002238
:1021D00001EB031402EBC20707EB021700EB071732
:1021E00007EB850797ED260A04EB8207521C87ED63
:1021F000000A042AEEDB5B1C642BE1DBF0BD00006F
:1022000010B504462DED028BB0EE408A40F2E46139
:10221000FEF764FA04F5806084ED248AB3EE090ABF
:1022200080EDB70A9FED110ADFED110A80EDB80AC3
:1022300000209FED101ADFED101A84F8940001467B
:10224000B7EE000AB6EE002A04EB0110021DC0ED45
:10225000121A80ED132A491C82EC030A042980ED2E
:10226000110AF1DBBDEC028B10BD000000007042D2
:102270000AD7233CCDCCCC3D6F12833A00F2DC6010
:1022800080EC020A70470000642303229021014879
:1022900000F018BDD80B00202DE9FE4F0024274E7A
:1022A000824648F283174FF001084FF081096425F8
:1022B00036F814208DF8048049EA122142EA07001A
:1022C0008DF805108DF80600032301AA90211C4803
:1022D000009500F0A5FE00282ED10C2005F014FE7C
:1022E00000208DF80400012301AA902114480095D4
:1022F00000F096FE00281FD1022302AA9021104868
:10230000009500F095FD002816D1BDF8080040BAF0
:1023100000B2002800DA002000EE100ADFED090A02
:102320000AEB8400B8EEC00A641C042C20EE200ADC
:1023300080ED000ABCDB0020BDE8FE8FE48C0008C5
:10234000D80B0020A69B443964230322882101482E
:1023500000F0B8BCD80B00207FB505462C208DF8C6
:102360000C0006200C468DF80D006426022303AAFB
:1023700088212648009600F053FE00281DD1142025
:1023800005F0C2FD062301AA88212048009600F02E
:102390004FFD002811D1022101A805F01FFC9DF876
:1023A0000610884208D102210DF1070005F016FC45
:1023B0009DF80910884202D0012004B070BDBDF81C
:1023C0000400DFED130A43BA00EE103ABDF807002F
:1023D000B8EE400A42BA002020EE201ADFED0D0AC6
:1023E00081EE200A9FED0C1A30EE010A9FED0B1AC8
:1023F00085ED000A00EE102AB8EE400A20EE010A30
:1024000080EE201A84ED001AD7E70000D80B0020D8
:1024100000002F4300FF7F47000034C20000C84285
:1024200010B500228221082005F078FF0A49486093
:1024300080B10020488009480068C16841F010015F
:10244000C1604FF480720649044801F02FFD002856
:1024500001D0FEE7FEE710BD940000202C0C002008
:10246000507A002010B5040007D0FEF799F881B229
:102470002046BDE8104000F031B810BD0FB48021F7
:1024800000B5A1B023AB6846229AFEF743F80028B6
:1024900003DD81B2684600F021F821B05DF814FB3D
:1024A0000A4601460148406806F0E0B89400002062
:1024B00010B5084C002222700A460146064801F079
:1024C00055FD02E0012004F0A7FD20780028F9D096
:1024D00010BD0000940000202C0C00200A4601468C
:1024E0004FF0FF33014801F0F1BC00002C0C00203C
:1024F000FEE70000014800F0B9B80000740C0020AD
:10250000014800F0B3B80000D40C00200168182383
:10251000CAB2103AB2FBF3F2054B6FF30901032A7A
:102520009B5CC36500D9091D8165084670470000A2
:10253000C48C000810B5014600208B698A6A4FF0F0
:10254000C07453B1B3F5005F15D072B1012A0CD03D
:10255000022A0AD0032A09D104E01AB1012A06D0BE
:10256000022A03D1C96AC90100D5012010BDC96A78
:10257000A142FAD010BD002AF7D0012AF2D0022AD7
:10258000F3D0032AF3D010BD30B50468256825F4D4
:1025900080252560046863608368402B036803D04E
:1025A00099600068C26030BD9A600068C16030BD4B
:1025B000704772B6FEE72DE9F0410446876D00F0E2
:1025C000B7FA064694F835000025022806D0802088
:1025D000606584F834500120BDE8F081206801680E
:1025E00021F0160101602068416921F080014161FC
:1025F000206C08B9A06C20B12068016821F00801A6
:1026000001602068016821F0010101600CE000F028
:102610008FFA801B052807D920206065032084F8E5
:10262000350084F83450D7E720680068C007EED141
:1026300094F85C103F208840B860012084F8350091
:1026400084F834500020C7E790F83510022903D0F1
:102650008021416501207047052180F83510006810
:10266000016821F001010160002070472DE9F84365
:1026700004464FF00009CDF8009063484FF416511E
:10268000A56D0068B0FBF1F72E6894F85C10082087
:1026900000FA01F131420FD021680A6852070BD5C8
:1026A0000A6822F004020A6094F85C108840A8606E
:1026B000606D40F00100606594F85C104FF0010817
:1026C00008FA01F0304208D021684969090604D5AA
:1026D000A860606D40F00200606594F85C10042012
:1026E0008840304208D021680968890704D5A8606D
:1026F000606D40F00400606594F85C101020884024
:10270000304218D021680968090714D5A8602068EC
:102710000168490304D50068000308D5A16C07E0EF
:102720000168C90503D4016821F008010160216C2A
:1027300009B12046884794F85C1020208840304238
:1027400031D021680968C9062DD5A86094F83500F4
:1027500005282068016806D0490347D500680003B2
:102760001DD4616C1CE021F01601016020684169F4
:1027700021F080014161206C08B9A06C20B1206873
:10278000016821F00801016094F85C103F20884046
:10279000A86084F8358084F83490216D1FE0E16BE7
:1027A00009B120468847606D00282BD0606DC007B6
:1027B00014D0052084F835002068016821F001015B
:1027C00001600098401C0090B84203D8206800685F
:1027D000C007F6D184F8358084F83490E16C002984
:1027E00010D001B02046BDE8F04308470168C90594
:1027F000D5D4016821F01001016084F8358084F897
:102800003490CCE7BDE8F883100000202DE9F041BA
:10281000044600F08DF906465CB1022084F83500CC
:10282000002584F834502068016821F0010101601E
:102830000DE00120BDE8F08100F07AF9801B052849
:1028400005D920206065032084F83500F2E7206870
:102850000068C007F0D12268116820480140D4E91F
:1028600001031843D4E9033633431843636918431B
:10287000A3691843E3691843236A18430843616A4C
:10288000042903D1D4E90B131943084310602068CD
:102890004069666A20F0070130460E43012704288C
:1028A0000CD1A06A0643E06A40B12046FFF742FE21
:1028B00020B14020606584F83570BAE72068466131
:1028C0002046FFF723FE94F85C203F219140816071
:1028D000656584F835700020ACE700003F8010F09B
:1028E0002DE9F0410446866D90F83400002501285A
:1028F0000DD0012084F8340094F835700020012FA9
:1029000007D084F8340002252846BDE8F081022073
:10291000FBE7022784F8357060652046FFF734FE38
:1029200094F85C103F208840B0602068016841F056
:1029300016010160206C20B12068016841F0080197
:1029400001602068016841F001010160DCE70000DE
:102950002DE9F84FDFF8B8A10022012403254FF03C
:102960000F090AF1040BAAF1040E00BF0B6804FA68
:1029700002F63340B34273D10F7907F00307012FFA
:1029800001D0022F16D187684FEA420805FA08FCE9
:1029900027EA0C07D1F80CC00CFA08FC4CEA070C2B
:1029A000C0F808C04768B7430E79C6F300169640D2
:1029B0003E4346600E79F643B6070DD0C768560011
:1029C00005FA06FC27EA0C07D1F808C00CFA06FC49
:1029D0004CEA070CC0F80CC00E7906F00306022E74
:1029E00010D1D60800EB8608D8F8206057074FEAC8
:1029F000D76C09FA0CF7BE430F6907FA0CF7374397
:102A0000C8F8207006684FEA420C05FA0CF7BE437E
:102A10000F7907F0030707FA0CF7374307604E6892
:102A200016F4403F6DD03B4E376847F4804737601F
:102A3000366822F0030706F480460096364E07EB10
:102A4000060CDCF8086897073F0F09FA07F826EA32
:102A50000806DFF8C880404503D14FF000081EE0AB
:102A60004FE0DFF8BC80404502D14FF0010816E08E
:102A7000DFF8B080404502D14FF002080FE0DFF8E8
:102A8000A880404502D14FF0030808E0DFF89C80A1
:102A9000404502D14FF0040801E04FF0070808FA62
:102AA00007F848EA0608CCF80888DAF800605746C4
:102AB000D1F804C09E435FEACC2C00D51E433E6093
:102AC000DBF800605F46D1F804C09E435FEA8C2CBF
:102AD00000D51E433E60DEF800607746D1F804C0A2
:102AE0009E435FEA8C3C00D51E433E60084F083F82
:102AF0003E68D1F804C09E435FEACC3C00D51E433B
:102B00003E60521C102AFFF431AFBDE8F88F000080
:102B1000083C0140443802400030014000000240BF
:102B20000004024000080240000C02400010024075
:102B300001488068704700000400002070B5040060
:102B400025D094F83D00002520B984F83C5020465B
:102B500000F0FCFA242084F83D002068016821F090
:102B6000010101602068016841F4004101602068B2
:102B7000016821F40041016000F09AFC4D4A61684F
:102B8000914201D84C4900E04C49884201D20120D1
:102B900070BD4B492368B0FBF1F15E6826F03F063B
:102BA0000E435E606368934206D94FF496735943AF
:102BB0004FF47A73B1FBF3F12368491C1E6A26F0C7
:102BC0003F06314319626168914210D84900401EA6
:102BD000B0FBF1F2521CC2F30B02042A01D2042012
:102BE00022E0B0FBF1F0401CC0F30B001CE0A26837
:102BF000F2B301EBC10303EB0116431EB3FBF6F383
:102C00005B1C43F480431B0549D092B301EBC10226
:102C100002EB0111401EB0FBF1F0401CC0F30B00B1
:102C200040F4804040F400402168CA694CF6FF73CC
:102C30009A431043C861D4E9071001432068026831
:102C400022F0C00211430160D4E90301014320686E
:102C5000826848F2FF339A4311438160D4E9050149
:102C600008432168CA6822F0FF021043C86001E0EF
:102C70000EE016E02068016841F001010160256462
:102C8000202084F83D00256384F83E50002070BD6C
:102C900001EB4106431EB3FBF6F35B1CB3E70120D7
:102CA000C2E701EB4101401EB0FBF1F0401CC0F354
:102CB0000B00B7E7A086010080841E0000093D00DC
:102CC00040420F002DE9FF4F81B089460446FFF7CF
:102CD0002FFF054694F83D004FF0000820287DD1D5
:102CE0001923012250492046009501F097FA002847
:102CF00074D194F83C00012870D0012084F83C0085
:102D000020680168C90703D1016841F00101016031
:102D10002068016821F400610160242084F83D00EE
:102D2000002626644148E0624FF0011B20272068FE
:102D3000016841F4807101600095002259462046E7
:102D4000049B01F06BFA50B120680068C00502D501
:102D50004FF400702064032005B0BDE8F08F2168B7
:102D600009F0FE000861FFF7E3FE216805464869A7
:102D70004969C0F34000C1F380214FF0A00A0FE081
:102D8000FFF7D6FE411B0498814200D808B984F8A9
:102D90003DA0216848694969C0F34000C1F3802122
:102DA00094F83D20A02A02D008B90029E8D084F880
:102DB0003D7020684169C943890716D4016841F410
:102DC0000071016020684169806919230122164958
:102DD0002046009501F022FAB8B900E021E084F81D
:102DE0003D7084F83C600020B6E7016841F4007152
:102DF000016021686FF480604861192301220A494B
:102E00002046009501F00AFA08B10120A4E70398D2
:102E100008F1010880458AD384F83D7084F83C604D
:102E2000F3E7022098E70000020010000000FFFF17
:102E30002DE9F84F1F4690468A460446DDF8289053
:102E4000FFF776FE054694F83D00202871D119233E
:102E5000012270492046009501F0E0F90028F5D1E3
:102E600094F83C00012864D0012084F83C002068DC
:102E70000168C90703D1016841F0010101602068C0
:102E8000016821F400610160222084F83D001020D7
:102E900084F83E0000262664C4F824806785608D8F
:102EA00020855D48E0622B464A465146204601F0A7
:102EB000C5F8002876D1208D584F68B1012814D06C
:102EC00002282068016816D041F480610160206802
:102ED0004169806900908EE02068416981690091B4
:102EE000016841F40071016085E02068016821F407
:102EF00080610160F0E721F4806101602068016871
:102F000041F40061E2E7032846D801280AD00228EC
:102F100010D04B46002239462046009501F07EF93C
:102F2000C8BB25E02A464946204601F01DFA90BB61
:102F300054E06CE04B46002239462046009501F0F3
:102F40006DF940BB2068016841F4007101602068A0
:102F50000069616A0870606A401C6062218D491EC8
:102F60002185618D491E618521680969017039E0FB
:102F70002068016821F48061016020680069616A4D
:102F80000870606A401C6062208D401E2085608D44
:102F9000401E6085CEE705E02A464946204601F0FE
:102FA000E3F910B10120BDE8F88F20680069616A7B
:102FB0000870606A401C6062208D401E81B22185CD
:102FC000608D401E608520684269D243520712D44A
:102FD000032903D1016821F4806101602068006940
:102FE000616A0870606A401C6062208D401E208506
:102FF000608D401E6085208D002884D1202084F8BB
:103000003D0084F83E6084F83C600020CBE702205D
:10301000C9E70000020010000000FFFF04000100EB
:103020002DE9F84F1F4690468A460446DDF8289061
:10303000FFF77EFD054694F83D0020287FD1192337
:10304000012240492046009501F0E8F8002876D199
:1030500094F83C00012872D0012084F83C002068DC
:103060000168C90703D1016841F0010101602068CE
:10307000016821F400610160212084F83D001020E6
:1030800084F83E0000262664C4F824806785608D9D
:1030900020852D48E0622B464A465146204601F0E5
:1030A00043F890B9206841698069009036E02A466B
:1030B0004946204601F090F950B1206C042804D113
:1030C0002068016841F4007101600120BDE8F88FBB
:1030D000606A216800780861606A401C6062618DE6
:1030E000491E6185218D491E89B221852268536957
:1030F000DB435B070BD451B100781061606A401C60
:103100006062608D401E6085208D401E20852A46AD
:103110004946204601F056F80028CED1208D0028DF
:10312000C5D154F83D0B016841F4007101602020C5
:1031300004F81E09E67766770020C7E7FFE702205C
:10314000C4E70000020010000000FFFF10B586B0C9
:10315000044614216846FDF7C1FA134920688842E5
:1031600020D112480021026842F002020260006889
:1031700000F002000590C02000901220CDE901016E
:10318000032003900420049069460948FFF7E0FB00
:1031900006481030016841F400110160006800F435
:1031A0000010059006B010BD0054004030380240B9
:1031B000000402400248816802781144816070472F
:1031C000040000200B4810B5016841F40071016053
:1031D000016841F480610160016841F4807101601F
:1031E000032000F099F80F2000F006F800F04AF8EC
:1031F000002010BD003C024030B505461C4887B099
:103200000024016841F001010160006806A900F096
:103210000100009001A800F02BF900F059F91549C0
:103220004000B0FBF1F11548134A491E026040F21C
:10323000E732C0E90324C0E90114846100F042FBD5
:10324000040012D10D4800F06BFB04000DD11920D1
:1032500000F034F8102D07D200222946192000F082
:103260003BF80748056000E0012407B0204630BD68
:103270004438024040420F0000000140340D00205D
:10328000080000200C4882B0016841F480410160D0
:10329000006800F4804000900748001F016841F07A
:1032A000805101600068002200F0805000900F21E2
:1032B000901E02B000F010B844380240002809DB2C
:1032C00000F01F02012191404009800000F1E02040
:1032D000C0F8001170470000F0B40E4B1B680C469C
:1032E000C3F30223C3F10705042D00D90425191DDA
:1032F000072901D2002300E0DB1E012606FA05F1B2
:10330000491E214099409E40761E16403143F0BC34
:1033100001F04DBD0CED00E0064900F00702086821
:103320004FF6FF03184040EA0220034A10430860AA
:10333000704700000CED00E00000FA052DE9F047B1
:103340000E46050065D0DFF81481D8F80000F7B20A
:1033500000F00700B04207D288F80070D8F80000EB
:1033600000F00700B04254D128683D4C810712D5C7
:10337000400703D5206840F4E0502060287800071B
:1033800003D5206840F4604020602068A96820F0E0
:10339000F000084320602878C0072DD030496868C5
:1033A0000839012812D0022813D0032811D0096847
:1033B000890700292DDA216821F0030101432160EA
:1033C000FFF7B6FB814641F2883A0EE009688903AF
:1033D000EFE709688901ECE7FFF7AAFBA0EB090119
:1033E000514502D90320BDE8F0872068696800F0E4
:1033F0000C00B0EB810FEFD1D8F80010404601F07F
:103400000701B14207D90770006800F00700B04219
:1034100001D00120E7E72878400705D52068E96852
:1034200020F4E050084320602878000706D5206883
:10343000296920F4604040EAC100206000F058F89B
:103440002168084AC1F30311515CC840064908606D
:1034500006480068FFF7D0FE0020C4E7003C0240A9
:1034600008380240CC8C0008100000200800002022
:103470000F2202600C4A136803F0030343601368D1
:1034800003F0F0038360136803F4E053C360126831
:103490004FF4E05303EAD20202610448006800F0EE
:1034A000070008607047000008380240003C0240F6
:1034B0000448054900680968044AC1F38221515C47
:1034C000C84070471000002008380240DC8C00081B
:1034D0000448054900680968044AC1F34231515C57
:1034E000C84070471000002008380240DC8C0008FB
:1034F000154810B5006810F00C02144813D0144998
:10350000042A0FD0082A0ED10F4C241F22682368EA
:1035100002F03F025B0207D52068C0F38810A0FBD1
:10352000010106E0084610BD2168C1F38811A1FB26
:1035300000010023FCF776FF2168C1F30141491C1B
:103540004900B0FBF1F010BD083802400024F4003F
:1035500040787D012DE9F84F04006ED02078DFF827
:103560004C93C007A9F104054AD009F10400016891
:10357000C1F38101012908D00068C0F3810002284D
:103580000AD1D9F80000400206D52868800337D553
:1035900060680028E1D033E06068B0F5803F10D06B
:1035A000B0F5A02F286810D020F48030286028685B
:1035B00020F4802028606068A8B1FFF7B9FA0646B9
:1035C0000DE0286840F48030F4E740F48020286063
:1035D000F7E700BFFFF7ACFA801B642873D82868B0
:1035E0008003F7D50CE0FFF7A3FA064605E000BF1D
:1035F000FFF79EFA801B6428F0D828688003F7D470
:103600002078DFF8AC8280074FF0000A3ED5A7484B
:10361000001D016811F00C0F08D00068C0F3810094
:1036200002280BD1D9F80000400207D4286880078F
:1036300016D5E068012800D112E033E1E068B8B1A6
:103640000120C8F80000FFF773FA064605E000BF46
:10365000FFF76EFA801B0228C0D828688007F7D5CC
:103660002868216920F0F80040EAC10028600DE0D8
:10367000C8F800A0FFF75CFA064604E0FFF758FA26
:10368000801B02281FD828688007F7D420780007FD
:1036900022D5864F87486169703771B10121016079
:1036A000FFF746FA064604E0FFF742FA801B0228BD
:1036B00009D838688007F7D50EE0C0F800A0FFF7FA
:1036C00037FA064605E082E0FFF732FA801B02284F
:1036D0007DD838688007F7D42078400768D5DFF8B0
:1036E000CCB100270BF13C0BDBF80000C0000BD481
:1036F000DBF8001041F08051CBF80010DBF800003F
:10370000012700F0805000906B4E3068C00510D447
:10371000306840F480703060FFF70AFA009005E0EE
:10372000FFF706FA0099401A022850D83068C00501
:10373000F6D55E4EA0686C3601280FD0052830689B
:1037400010D020F001003060306820F004003060BC
:10375000A068B8B1FFF7ECF900900FE0306840F0D6
:103760000100F4E740F004003060F7E7FFF7E0F90C
:103770000099411A41F28830814266D8306880074A
:10378000F4D50EE0FFF7D4F9009007E0FFF7D0F989
:103790000099411A41F28830814256D8306880073A
:1037A000F4D42FB1DBF8001021F08051CBF80010D9
:1037B000A069C8B33D49091D0968C1F38101022907
:1037C0004AD00228504607D0C8F8600000E03CE02C
:1037D000FFF7AEF904463BE04746C8F86000FFF744
:1037E000A7F9064605E000BFFFF7A2F9801B0228F3
:1037F0002BD828688001F7D4D4E907010843A16ACF
:103800002E4A490802EB0141626A41EA82110843EB
:1038100094F82C1040EA0161C9F8001001203866C4
:10382000FFF786F9044606E03EE000BFFFF780F9A7
:10383000001B022809D828688001F7D534E000BFB2
:10384000FFF776F9001B022802D90320BDE8F88FA4
:1038500028688001F4D427E00128F7D0D9F80000C7
:10386000E26900F4800191421CD1226A00F03F011C
:10387000914217D147F6C071626A0140B1EB821FD5
:1038800010D1A26A4FF0FF3300F4403103EB520233
:10389000B1EB024F06D194F82C1000F07060B0EB41
:1038A000016F01D00120D1E70020CFE704380240AA
:1038B00000004742800E4742007000400000FFFFBA
:1038C0007047704710B5040003D094F83D0010B164
:1038D00007E0012010BD002084F83C00204600F0E5
:1038E0001EF8022084F83D00211D206800F0A6FF8C
:1038F000012084F8460084F83E0084F83F0084F8F4
:10390000400084F8410084F8420084F8430084F8C1
:10391000440084F8450084F83D00002010BD704745
:1039200090F83D10012901D001207047022180F854
:103930003D100168CA6842F00102CA6000680E4981
:1039400088420ED0B0F1804F0BD00C49884208D08D
:103950000B49884205D00B49884202D00A49884267
:1039600004D1816801F00701062903D0016841F004
:103970000101016000207047000001400004004088
:1039800000080040000C00400040014070472DE955
:10399000F04104460068C66805694FF00007A907B2
:1039A00013D5B10711D5F91E0161012020772068D8
:1039B00080698007204602D0FFF7E8FF04E000F0AE
:1039C0007EF8204600F07CF82777680716D5700748
:1039D00014D521686FF00400086102202077206868
:1039E000806910F4407F204602D0FFF7CFFF04E04B
:1039F00000F065F8204600F063F82777280715D512
:103A0000300713D521686FF0080008610420207783
:103A10002068C0698007204602D0FFF7B7FF04E0A6
:103A200000F04DF8204600F04BF82777E80616D551
:103A3000F00614D521686FF0100008610820207787
:103A40002068C06910F4407F204602D0FFF79EFF37
:103A500004E000F034F8204600F032F82777E80759
:103A600008D0F00706D021686FF0010008612046F9
:103A700000F028F8280608D5300606D521686FF032
:103A8000800008612046FFF71BFF680608D5700616
:103A900006D521686FF040000861204600F01CF850
:103AA000A8060AD5B00608D521686FF02000086185
:103AB0002046BDE8F041FFF704BFBDE8F081704744
:103AC0007047000000680349884201D1FFF772BBCC
:103AD00070470000000001407047704770470000C9
:103AE000F8B5016804460868CA684B6910F00F0F02
:103AF0004FF0000559D003F0010602F490773743E8
:103B000065D0C10705D0D10503D5616C41F0010135
:103B10006164410705D5D90703D0616C41F002010A
:103B20006164810705D5D90703D0616C41F00401B8
:103B30006164010707D502F02001314303D0616CB5
:103B400041F008016164616C00293AD0800604D517
:103B5000900602D5204600F09AFF20684069616C0B
:103B6000C0F38010090700D460B3204600F05AFF6C
:103B700020684069400621D52068143050E8001FB5
:103B800021F0400140E80012002AF5D1E06BA8B115
:103B900072490165E06BFEF757FD002811D0E06B1C
:103BA000016D01B0BDE8F040084783060FD59306CC
:103BB0000DD52046BDE8F84000F069BF2046FFF76C
:103BC0008DFFF8BD2046FFF789FF6564F8BD266BC1
:103BD0002023012E7ED1C6067CD5D6067AD508686C
:103BE0004868009048694FF0020640064DD5E26BE8
:103BF000106840684FF480770004000C3AD0A18D23
:103C0000814237D9E085D069B8422DD020680C3088
:103C100050E8001F21F4807140E80012002AF5D11D
:103C20002068143050E8001F21F0010140E8001224
:103C3000002AF5D12068143050E8001F21F040011F
:103C400040E80012002AF5D184F84230256320684C
:103C50000C3050E8001F21F0100140E80012002A4B
:103C6000F5D1E06BFEF7A7FC6663A08DE18D401AED
:103C700081B206E0A18D8142A8D1D069B842A5D118
:103C800066632046FFF729FFF8BDA08DE18D401A3D
:103C900081B2E08D0028F7D00029F5D020680C30E3
:103CA00050E8002F22F4907240E80027002FF5D151
:103CB0002068143050E8002F22F0010240E800276D
:103CC000002FF5D184F84230256320680C3050E88D
:103CD000002F00E006E022F0100240E80023002B55
:103CE000F3D1CDE705062BD5150629D594F841006B
:103CF0002128C9D1A068B0F5805F01D12069B0B199
:103D0000206A411C2162216800784860E08C401ED6
:103D10000004000CE084B7D12068C16821F0800164
:103D2000C1602068C16841F04001C160F8BD206AEF
:103D30000088C0F308004860206A801C2062E5E724
:103D40004006F3D55006F1D5CA68204622F040025D
:103D5000CA6084F8413000F04BF9F8BDDD48000836
:103D600070B5040004D094F84100002510B106E0BD
:103D7000012070BD84F84050204600F023F8242034
:103D800084F841002068C16821F40051C1602046D8
:103D900000F0DEFE2068016921F490410161206895
:103DA000416921F02A0141612068C16841F4005154
:103DB000C1606564202084F8410084F84200656396
:103DC000002070BD2DE9F04186B0064614216846FA
:103DD000FCF784FC3049306888425AD12F480024CF
:103DE000016841F010010160006800F010000590CA
:103DF0002A481438016841F00101016000686946F1
:103E000000F0010005904FF4C06000900220CDE961
:103E1000010403200390072004902148FEF798FD39
:103E2000214D20484FF000672860C5E901744FF428
:103E30008068C5E9034880156C61C5E906402C62BD
:103E400028466C62FEF7E2FC08B1FEF7B2FBF563B0
:103E5000AE63154D134860357830E5E80207402021
:103E6000A5E81101104845F814496030AC61EC61D7
:103E70002C626C62FEF7CAFC08B1FEF79AFBB563D0
:103E8000002205212520AE63FFF726FA2520FFF743
:103E900015FA06B0BDE8F081001001404438024038
:103EA0000000024040640240740C002090F8423050
:103EB000202B01D00220704721B11AB100230363E7
:103EC00000F0CCBE01207047704770472DE9F843E1
:103ED000044690F84100984616460D46202802D028
:103EE0000220BDE8F88385B17EB100206064212006
:103EF00084F84100FEF71CFEA6848146E684A06893
:103F00002027B0F5805F02D003E00120E9E72069B7
:103F100010B12E4600250EE000260CE08021204640
:103F200000F0ECFEA8B9C6B116F8010B2168486094
:103F3000E08C401EE084E08C4B464FF00002CDF850
:103F400000800028EAD14FF04001204600F0D6FE64
:103F500040B184F841700320C3E735F8020BC0F389
:103F60000800E3E784F841700020BAE770B5044622
:103F700090F84100202801D0022070BD01B3FAB1B1
:103F80002162A284E28400206064212384F841300D
:103F9000A56B144BEB63A56B134B2B64A56B134BF9
:103FA000EB64A36B186520681346A56B021D2846B9
:103FB000FEF796FC30B110206064202084F84100A8
:103FC000012070BD21686FF0400008602068143047
:103FD00050E8001F41F0800140E80012002AF5D1AE
:103FE000002070BDD94900081B4A0008EB480008B2
:103FF00000680349884202D10249012008707047D5
:1040000000100140940000207047FEE701684A69F3
:10401000D24352050FD46FF480624A61002140F808
:10402000301F202242738173026942F00402026150
:104030000173012070470020704700002DE9F84F00
:104040000446C06A1E4693460D4621680A6842F43B
:1040500080620A60082807D0012805D010F5803F4B
:1040600002D0206B112804D12068016841F48071CE
:1040700001604FF001195B46002249462046009638
:1040800000F0CCF84FF4007840B120680068C0051B
:1040900001D5C4F840800320BDE8F88F2069DFF81F
:1040A00084A0B0F5804F0FD00620216800EAD51714
:1040B00047F0F000086133465A460AF106012046EF
:1040C00000F0F4F858BB03E0E8B240F001001CE057
:1040D0002168E8B2086133465A465146204600F04E
:1040E000E5F8E0B92068416981690091016841F40F
:1040F000807101605B46002249462046009600F030
:104100008DF80028C1D147F0F100216808613346DD
:104110005A465146204600F0C9F80028BCD001207C
:10412000BAE7000002000100F8B50446C06A1E4666
:104130000D461746082807D0012805D010F5803F06
:1041400002D0206B122804D12068016841F48071EC
:104150000160134600224FF001112046009600F046
:104160005DF840B120680068C00502D54FF40070CA
:1041700020640320F8BD2069B0F5804F0ED00620E2
:10418000216800EAD51040F0F000086133463A4655
:104190000B49204600F08AF878B902E005F0FE00ED
:1041A00000E0E8B221680861054933463A46891FB4
:1041B000204600F07BF80028DCD00120F8BD00008C
:1041C0000800010070B516460D4604461EE0204664
:1041D000FFF71CFF08B1012070BD681C16D0FEF768
:1041E000A7FC801BA84200D885B920684069C0435D
:1041F00040070BD5002044F8300F20216173A073D5
:10420000216941F0200121612073E4E720684069C1
:10421000C0434007DBD4002070BD00002DE9F0470B
:10422000984617460D460446C1F30746DDF8209030
:104230002AE000BFB8F1FF3F26D0FEF779FCA0EBE3
:104240000901414502D8B8F1000F1DD12068012EA7
:1042500016D0806925EA00000004000C12D000206E
:10426000B84211D1002044F8300F20216173A073AF
:10427000216941F02001216120730120BDE8F08710
:104280004069E7E70120EBE72068012E0AD080694A
:1042900025EA00000004000C06D00020B842C9D076
:1042A0000020EBE74069F3E70120F7E72DE9F0474D
:1042B000984616460D4604464FF000094FF0200A76
:1042C000C1F3074723E020684069C043400515D487
:1042D0002068016841F40071016021686FF480601A
:1042E0004861C4F8309084F83DA084F83E90216C79
:1042F00041F00401216484F83C9021E0701C06D058
:10430000FEF716FCA0EB0800B04203D816B1012F4F
:104310001FD021E02068012F15D0806925EA000018
:104320000004000C18D000BF44F8309F84F80DA0A2
:1043300084F80E90216941F02001216184F80C90ED
:104340000120BDE8F087406925EA00000004000C68
:10435000EAD12068406901E02068806925EA000010
:104360000004000CAFD1ECE72DE9F04100259046A8
:104370000E460446202728E04069C043C0060CD4FE
:1043800054F8301B6FF01000486144F810596777FB
:10439000A577206A2062257714E0FEF7C9FBA0EB21
:1043A0000800B04200D886B920684069C043400682
:1043B0000BD544F8305F6773A573206940F0200087
:1043C000206125730120BDE8F08120684169C9435F
:1043D0004906D1D40020F6E770B516460D460446CE
:1043E0001EE02046FFF712FE08B1012070BD681CD8
:1043F00016D0FEF79DFB801BA84200D885B9206827
:104400004069C04300060BD5002044F8300F20213E
:104410006173A073216941F0200121612073E4E7F9
:1044200020684069C0430006DBD4002070BD000056
:10443000ADF5C86DFDF7D0FD10B1002003F056FEBC
:10444000204C4FF0FF352A466946606804F00EF9AB
:104450000128F8D11C4B6E46002101EBC10200205F
:1044600002EB011206EB001707EB810797ED000A3C
:1044700000EB820703EB8707401C87ED000A6428E6
:10448000F0DB491C0429E8DB0E490F481431FDF725
:10449000C3FD0028D7D10B48143090ED000A84EDFD
:1044A000030A90ED010A84ED040A94ED040A10EE6B
:1044B000100AB0F17C5F01DB012000E000202070D9
:1044C000C1E70000A8000020D08700201CB5002212
:1044D0004FF4C861012003F021FF06490023486022
:1044E00002200831CDE90001020203A1054804F0D1
:1044F00093F91CBDA8000020496E66657254617373
:104500006B000000314400080D4808B5016841F413
:10451000800101600068002200F480000090052105
:104520003A20FEF7D9FE3A20FEF7C8FE0022052108
:104530004620FEF7D1FEBDE808404620FEF7BEBE8D
:104540003038024010B5064A0021064802F0A0FDAE
:1045500005490860FFF7BAFFBDE8104000F0C8B891
:10456000A08C000821470008000000200D4808B575
:10457000016841F080010160016801F08001009153
:10458000016841F001010160016801F00101009141
:10459000016841F002010160006800F00200009033
:1045A00008BD0000303802400D4810B50B490160CD
:1045B0000C49416000214FF480428160C0E9031240
:1045C00041618161C1610162FEF7B8FA002803D040
:1045D000BDE81040FDF7EDBF10BD000000540040E5
:1045E000D80B0020A08601000C4810B50A490160D4
:1045F0004FF4E1314160002181600C22C160C0E9CB
:1046000004128161C161FFF7ABFB002803D0BDE854
:104610001040FDF7CEBF10BD001001402C0C002053
:10462000FEE7FEE72DED028BADF5CC6DDFED2D8ABB
:10463000B3EE098A00258DEC028A04F053F9CDF817
:104640005806FDF721FE10B1002003F04FFDFDF7E5
:104650007BFE08B18DEC028AB1EE040A2248FDF718
:10466000CFFD01A96846FDF777FE9DEC020A1E48C2
:10467000FDF704FE4EF6602003F046FC01F0EEFC70
:104680001A4F4FF4FA6664210DF5CB6003F062FC1B
:1046900004F028F90446401BB0420AD301A9684639
:1046A000FDF75AFE20B99DEC020A0F48FDF7E6FD22
:1046B00025460DF5C960FDF7EFFD0028E3D10DF5A6
:1046C000C9610948FDF7E8FC0028DCD002A90648CA
:1046D000FDF772FD00231A4602A9386803F0B6FE02
:1046E000D1E7000000007042108E0020AC000020D6
:1046F0001CB506490320CDE9000100234FF40072E8
:1047000003A1064804F088F81CBD0000C400002086
:1047100053656E736F725461736B00002546000819
:10472000A2B0FDF77DFE0BA0FDF79CFE4FF0FF341D
:1047300021466846FDF7B4FE0128F9D1BDF8801086
:104740006846FDF7B5FEBDF8801006A0FDF796FEA1
:10475000EEE700005553415254312072656164798F
:104760000D0A000052583A2025642062797465735E
:104770000D0A000010B54FF0E020006904F0A4F825
:10478000012803D0BDE8104003F0B2BD10BD000009
:1047900030B593B030216846FBF7A0FF14210CA878
:1047A000FBF79CFF1C480025016841F08051016027
:1047B000006800F0805011901848016841F44041B1
:1047C00001600068022400F4404011900120009034
:1047D000000401908001CDE906400C200890602083
:1047E000CDE9090404200B906846FEF7B3FE08B13A
:1047F00072B6FEE70CA90F2081E831004FF480501B
:104800000F90109003210CA8FEF798FD002801D00E
:1048100072B6FEE713B030BD403802400070004071
:104820000248016841F470010160704788ED00E0C2
:104830000148FFF7ACB80000340D0020F0B5026865
:104840001F4B204C204D214E4FF0804C984207D0FA
:10485000604505D0A04203D0A84201D0B04203D1A8
:1048600022F070074A683A43984210D060450ED053
:10487000A0420CD0A8420AD0B04208D0144CA042AA
:1048800005D0144CA04202D0134CA04203D122F414
:104890004074CA6822434C6922F0800222438C682B
:1048A000C4620C688462984201D10969016301689D
:1048B00041F004010160012141610260F0BD00008E
:1048C000000001400004004000080040000C0040CF
:1048D00000400140004401400048014010B5806B99
:1048E0000021C185FFF7FAF810BD70B5846B206810
:1048F000406994F84110C0F3C0100025212904D16B
:1049000018B1E584204600F0B4F82068406994F8B6
:104910004210C0F38010222904D118B1E585204649
:1049200000F080F8606C40F0100060642046FFF7F3
:10493000D5F870BD10B50146806B096809684FF065
:104940000002C9052ED4C28501680C3151E8003F30
:1049500023F4807341E80034002CF5D10168143150
:1049600051E8003F23F0010341E80034002CF5D169
:104970000168143151E8003F23F0400341E800345E
:10498000002CF5D1202180F84210016B012909D1BA
:1049900001680C3151E8003F23F0100341E8003476
:1049A000002CF5D14263016B012902D0FFF78CFA8C
:1049B00010BD818DFFF791F810BD10B5806B0121FE
:1049C0004163016B012902D0FFF77FFA10BD818D91
:1049D0004908FFF782F810BD10B50146806B0968E1
:1049E0000968C90516D40021C1840168143151E851
:1049F000002F22F0800241E80023002BF5D101684E
:104A00000C3151E8002F42F0400241E80023002B16
:104A1000F5D110BDFFF7ECFA10BD10B5806BFFF7B4
:104A2000F3FA10BD01680C3151E8002F22F49072A6
:104A300041E80023002BF5D10168143151E8002F23
:104A400022F0010241E80023002BF5D1016B01297E
:104A500009D101680C3151E8002F22F0100241E821
:104A60000023002BF5D1202180F8421000210163A2
:104A7000704701680C3151E8002F22F0C00241E874
:104A80000023002BF5D1202180F84110704708B594
:104A900090F84210222901D0022008BD82684FF40C
:104AA00080539A4201D1016921B1816A9A421BD097
:104AB0004AB10AE00268816A5268C2F308020A80B9
:104AC000816A891C08E0026972B10268526802F0CA
:104AD0007F020A70816A491C8162C18D491E0904E6
:104AE000090CC18503D01BE002685268F1E7016838
:104AF000CA6822F02002CA600168CA6822F4807283
:104B0000CA6001684A6922F001024A61202180F8E6
:104B1000421000214163026B012A03D0FFF7D4F950
:104B2000002008BD016301680C3151E8002F22F01C
:104B3000100241E80023002BF5D101680A68D20673
:104B400002D50A6849680091818DFEF7C6FFE7E744
:104B500070B5044600680169E26821F440511143D0
:104B600001612169A068E269084361691143084352
:104B70002168CA6849F20C639A430243CA602068FC
:104B80004169A26921F440711143416131492068B2
:104B9000884202D03049884202D1FEF799FC01E0F8
:104BA000FEF786FCE2690023192164253226B2F55E
:104BB000004F626828D0A0FB0101930F9200FBF721
:104BC00031FC0146B0FBF5F06FF01802504301EBE9
:104BD000800006EB0010B0FBF5F000F0F002B1FB36
:104BE000F5F002EB0012B1FBF5F06FF0180358433B
:104BF00001EB800006EB0010B0FBF5F000F00F00B9
:104C000021681044886070BDA0FB010192185B41CF
:104C1000FBF708FC0146B0FBF5F00201B1FBF5F033
:104C20006FF01803584301EB800006EBC000B0FBA7
:104C3000F5F000F0F80002EB4002B1FBF5F058434C
:104C400001EB800006EBC000B0FBF5F000F00700C0
:104C5000D6E70000001001400014014038B5816221
:104C600004468285002013466064222284F8422094
:104C7000E56B1F4AEA63E56B1E4A2A64E56B1E4A30
:104C8000EA64E26B10650A462168E06B091DFDF7D6
:104C900027FE30B110206064202084F842000120FB
:104CA00038BD2068016840680090206948B12068DC
:104CB0000C3050E8001F41F4807140E80012002AD7
:104CC000F5D12068143050E8001F41F0010140E8A0
:104CD0000012002AF5D12068143050E8001F41F07E
:104CE000400140E80012002AF5D1002038BD000044
:104CF00035490008BB490008EB4800082DE9F84396
:104D0000984617460D460446089E24E0701C22D0A3
:104D1000FDF70EFFA0EB0800B0421AD8CEB1206814
:104D2000C168490717D5802D15D0402D13D00168D3
:104D3000C94309070FD40168002540680090204648
:104D4000FFF770FE0820606484F840500120BDE841
:104D5000F8830320FBE72068006835EA000004D0F0
:104D60000020B842D2D00020F1E70120F9E700008E
:104D70000148FEF7B5BE00002C0C0020FEE703B48E
:104D800001984100009850EAC12018BF04204A0D44
:104D900018BF40F0010040F2FF72B2EB515F08BF54
:104DA00040F00200012808BF052002B07047090743
:104DB000090E002804DB00F1E02080F800147047A1
:104DC00000F00F0000F1E02080F8141D7047000093
:104DD0009FED4B0A63E000BFD2ED003A91ED004A2F
:104DE00092ED013A91ED011A04EE230AD2ED021A76
:104DF00091ED022AD2ED032AD1ED030A92ED044A85
:104E000001EE030AD1ED043A91ED053A92ED071A4D
:104E100002EE210A92ED052AD1ED061A00EEA20A51
:104E2000D2ED062AD1ED070A03EE840A92ED084A74
:104E3000D1ED083A03EE020A92ED093A92ED0A2A00
:104E400001EEA20AD1ED092AD1ED0A1A00EE810A7B
:104E500092ED0B1AD1ED0B0A03EE840AD2ED0C3A57
:104E600091ED0C4A02EE830AD2ED0D2A91ED0D3A36
:104E700001EE820A92ED0E2AD1ED0F1A00EE810AA0
:104E8000D1ED0E0A92ED0F1A40314032103B04EE84
:104E9000230A03EE220A00EE820A01EE810A102B99
:104EA0009AD21AE0D1ED000A92ED001A00EE810AC2
:104EB000D1ED010A92ED011A00EE810AD1ED020A4C
:104EC00092ED021A00EE810AD1ED030A92ED031A67
:104ED000103110321B1F00EE810A042BE2D206E0D3
:104EE000F1EC010A5B1EB2EC011A00EE810A002B04
:104EF000F6D1D0ED000A30EE800A80ED000A70474E
:104F00000000000010B54169044688472069A042AE
:104F100000D1002010BD00002DE9F04F002699B00F
:104F20000F4605463446B0464CE0A868C4EBC403BF
:104F30008946426802EB83020E92806810AA00EB59
:104F4000C40A2C480D9251F8082F006A120A62F325
:104F50001F200190D1F804B01C2105A8FBF7BEFB6F
:104F6000D9F81800006800F093FC0590D9F81800F3
:104F7000806806905FEA0A0009D0C0F80080D9F87E
:104F80000010416029B1498819B1012102E0404671
:104F900003E00021016001B900200790D9F8180052
:104FA0001C2205A9406809900198CDE90A0B0D98CB
:104FB000FBF75AFB1C2210A90E98FBF755FB761C39
:104FC000B6B2641C0DB1288800E00020A04205D9CB
:104FD000686818B150F824100029A6D11EB1A8683D
:104FE0004068386001E0C7F8008019B03046BDE87D
:104FF000F08F0000C8B000082DE9F04FB1F9006053
:10500000DDE90ABA0BFB0AF40568DDE90C98744384
:10501000DDF824C0A5EB84049C4201D2674600E081
:10502000002704EB870403EB8C079C4208D94E450C
:1050300004D105E0B4EC010AA5EC010AA742F9D8B5
:105040001488A9EB06032344138006EB080208FB2F
:105050000AF813B208FB0BF805EB880202E000BF68
:10506000A2EB8C029742FBD902600B80BDE8F08F67
:105070000021C0F34342042A01D0082A06D1C0F31C
:10508000C612C0F34150C24001219140084670470A
:1050900030380A2801D201207047002070470000F4
:1050A000F0B50546059C24F0010003EB80069FED5A
:1050B000460AE70856E001C9D3ED002AC0F3031CF5
:1050C00002EB8C0C9CED002A00F00F0C02EB8C0C18
:1050D00002EE220ADCED001A93ED012AC0F3072C40
:1050E0004FEA1C1C02EB8C0C01EE820A9CED001AAC
:1050F000D3ED021AC0F3032C02EB8C0CD3ED042A7F
:1051000001EE210ADCED000A93ED031AC0F3074C0F
:105110004FEA1C1C02EB8C0C00EE810A9CED002A6D
:10512000C0F3034C02EB8C0CDCED001A02EE220AF9
:1051300093ED052A4FEA107C02EB8C0CC0F3036060
:105140009CED001A01EE820AD3ED061A02EB8000F4
:10515000D0ED000A01EE210A93ED071A20337F1EDD
:1051600000EE810A002FA6D116E000BF11F8010B56
:1051700093ED001A070902EB870700F00F00D7ED47
:10518000000A02EB800000EE810AD0ED000A93EDE8
:10519000011A083300EE810AB342E7D3E0070AD0D0
:1051A00011F8010B93ED001A000902EB8000D0ED1D
:1051B000000A00EE810AD5ED000A084630EE800AAA
:1051C00085ED000AF0BD000000000000F0B50446C7
:1051D000059D9FED370AE8084FE040C9D3ED002A4E
:1051E000F7B202EB8707401E97ED002AC6F30727A8
:1051F00002EB870702EE220AD7ED001A93ED012A8F
:10520000C6F3074702EB8707360E01EE820A97EDD9
:10521000001AD3ED021A02EB8606D3ED042AD6ED6E
:10522000000A01EE210A93ED031A40C9F7B200EE1D
:10523000810A02EB870797ED002AC6F3072702EBE6
:10524000870702EE220AD7ED001A93ED052AC6F36E
:10525000074702EB8707360E01EE820A97ED001A28
:10526000D3ED061A02EB8606D6ED000A01EE210AFE
:1052700093ED071A203300EE810A0028ADD105F026
:1052800007000AE011F8015B401E02EB8505B3EC54
:10529000011AD5ED000A00EE810A0028F2D1D4ED02
:1052A000000A084630EE800A84ED000AF0BD0000D6
:1052B0000000000070B505460C46488869888842A1
:1052C00002D9AAB1002070BD92B100260CE000BF47
:1052D0006168C6EBC6006A6801EB800102EB8000E2
:1052E0001C22FBF7C1F9761C6088B042F0D801E0BF
:1052F000606868606088688020882880012070BDB0
:1053000030B500B3F9B1F2B15268E2B10F4C136895
:10531000A34203D00260012913D014E00023121D20
:1053200007E000BF52F82350A54204D040F82350B4
:105330005B1C8B42F6D38B4205D152F82300A0426E
:1053400001D1012030BD002030BD0000DECAFAA12D
:1053500070B50D46060014461AD0CCB1104600F0C8
:105360003FFB00B16088A84212D10023042109E06C
:10537000C3EBC302606801EB8202805820B146F89B
:1053800023005B1CAB42F3D3AB4201D1012070BDC3
:10539000002070BD0349884201D1012070470020E0
:1053A00070470000DECAFAA12DE9FE4F92468946F9
:1053B000040003D0208E20B1656B03E00020BDE81F
:1053C000FE8F0025002060832083207CC04380075F
:1053D00002D030221121DCE0B9F1000F61D0D5B349
:1053E0002888C0B3D9F818000026D0F8008056E00D
:1053F000A868006800EB0610019052D058B3C6EBC5
:10540000C600029009EB80000121009000F0F2FA42
:10541000DBF81830596888421AD80098DBF80C205D
:105420008069D768D0F80CC0674511D19768D0F86B
:1054300008C067450CD152684068824208D118689C
:1054400000F016FA0746584601F034FC874203D2B2
:10545000182212219DE024E0DBF81800006800F01B
:1054600017FA029920F07E4259F8210020F07E4080
:10547000824201D01922ECE70098406888B1009878
:105480008069006878B14146404500D208468046B0
:10549000DDE900105A4600F08FF8761C2DB12888FF
:1054A00004E01722D5E72122D3E70020B04206D935
:1054B000686820B150F826B0BBF1000F98D1BAF15E
:1054C000000F74D0208E012806D9656B0C3503D0EF
:1054D000288808B1002658E0182259E0A86800681A
:1054E00000EB061B3BD0BBF1000F38D0C6EBC6006B
:1054F00001900AEB80000121009000F07BFAD9F8BE
:10550000183059688842E7D80098D9F80C2080698B
:10551000D768D0F80CC06745DED19768D0F808C0CE
:105520006745D9D1526840688242D5D1186800F0E9
:105530009FF90746484601F0BDFB8742CCD3D9F816
:105540001800006800F0A4F920F07E4201985AF893
:10555000200020F07E40824203D0192218E017225A
:1055600016E0009840680028F9D00098806900682B
:1055700068B14146404500D2084680464A465846F2
:10558000009900F019F8761C3DB1288806E0212228
:105590001321204600F004FD10E70020B04206D998
:1055A000686820B150F82690B9F1000F96D1A4F8A0
:1055B00018804FF0010002E770B504460E4615460C
:1055C000104601F077FB0146A060B06900684843CF
:1055D000E06071686160726810442060A8690268C8
:1055E000920007D4D0E90223D21A11448160A9693C
:1055F0006068C86070BD70B50646002521E0B068DF
:10560000006800EB051488690268920005D581687E
:10561000A268606802F0FCFA08E0D0E90223D21A1E
:1056200063681A44826089696068C860D4E90101CE
:10563000084460602168884201D3E068081A6D1C44
:1056400060600EB1308800E00020A84206D9706882
:10565000002803D050F825100029D0D170BD2DE9C5
:10566000F0410646002529E0B1688369096801EB2D
:10567000051419688900D4E901120DD5986802F063
:10568000C7FAD4E90101084460602168884201D367
:10569000E068081A606010E00A44626021688A428B
:1056A00001D3E2688A1A62608169D1E90237DB1BA3
:1056B0001A448A6080696168C1606D1C0EB13088CF
:1056C00000E00020A84206D97068002803D050F8F6
:1056D00025000028C8D1BDE8F08100002DE9F04F79
:1056E000584B93B01B680A9354684369246853F875
:1056F0002430029354684369646853F82430039358
:1057000054684369A46853F8243004935468436987
:10571000E46853F82430059304690523B3EB142F90
:105720000CD8156844690423B3EB152F02D25368D3
:105730001B6900E0012354F8233000E000230693A6
:1057400004690623B3EB142F0CD1156844690523B3
:10575000B3EB152F02D25268526900E0012254F8CF
:10576000222000E000220792806902AD01F10804C6
:10577000826808920088C0F3C610C008019088694A
:10578000D0F808B0002055E000204CE000203CE0BC
:1057900000272DE0002626E0E868AA6800FB0AF052
:1057A00009FB02030A980521B1EB102F01D82869E3
:1057B00000E000200A99062200FB08F0B2EB112F4E
:1057C00001D1696900E0002107FB01006968184404
:1057D00006FB01000899019A0844594602F018FA9C
:1057E0000199761C8B4460684068B042D4D87F1C15
:1057F00021680520B0EB112F02D26168496900E0F1
:105800000121B942C6D808F1010080462168042070
:10581000B0EB112F02D26068006900E00120404522
:10582000B6D809F101008146606881684945ADD864
:105830000AF1010082466068C1685145A4D813B0DE
:10584000BDE8F08F30B1000870B579B1C0F3C6156E
:105850006943C91D21F00704C0F34151CC40FFF753
:1058600007FC00FB0540C01DC00870BD002070BDD6
:1058700059B1C0F3C6125143C91D21F00701C0F34D
:105880004150C140C91DC808704700207047000042
:1058900030B54021C0F34342022A19D03A4A20F0E1
:1058A0007E439C1A4D01934263D028DC374AA3EB18
:1058B000020493425DD018DC402B5BD0403BB3F533
:1058C000802350D0802B3DD0B3F5806F52D134E08F
:1058D000C0F3C051C905C0F3C61241EAC21100F0BD
:1058E0007F02114341F4802144E0A4F54074F93C67
:1058F00026D00F2C3AD0AC423CD125493AE0254B7A
:10590000E21A9C4229D00CDC234AA21813D0B2F52B
:10591000F83F1FD0214BD2181AD0B2F5607F29D1A1
:1059200012E0A2F54072F93A10D00F2A18D0AA421C
:1059300020D11B491EE01B491CE01449C91F19E076
:10594000194917E0194915E0194913E0194911E0FF
:1059500019490FE0184980390CE01549C91D09E0C3
:1059600014490F3106E01149803903E00E490F3127
:1059700000E0114600F080420A4300F0005111435C
:1059800000F00060084330BD4004060047040400F6
:105990004010040007007E0000F483FF800FFEFF2C
:1059A000401084004010820040080400C000040041
:1059B0004004840040088400C000840070B5144690
:1059C0000D46064600F00CF840B17068C5EBC50105
:1059D00010EB810002D04460012070BD002070BD3A
:1059E00028B1416819B1408808B1012070470020F2
:1059F0007047000010B502002AD0164B1068B3EBB8
:105A0000C01F03D0144BB3EBC01F01D1012000E035
:105A1000002008429069406802D01F3020F01F002B
:105A20005369D9B2012900D000211C0A07E00129DD
:105A300007D0936953F821305843491C1AB12346C3
:105A400002E00123F8E700238B42F0DC002800DCB1
:105A5000002010BD006000420060000208B509A1EE
:105A60000968009148B101789DF80020914204D165
:105A700004226946FAF768FD08B1002008BD01203C
:105A800008BD0000038404842DE9F041066C816B9D
:105A900004460025C163CEB1D9B10120626CB04784
:105AA0000CE00220626CB047E06BFFF72BFA074670
:105AB0000320626CE16BB0476D1CE763E16B00296A
:105AC000EFD106E0FFF71EFA6D1CE063E06B0028E3
:105AD000F8D12846BDE8F08103460020996B0029E3
