:020000040800F2
:1000000020520020A5030008BF350008FB3400087B
:10001000BD35000859200008133C0008000000000E
:10002000000000000000000000000000E5020008E1
:1000300019210008000000004103000815360008DF
:10004000BF030008BF030008BF030008BF03000888
:10005000BF030008BF030008BF030008BF03000878
:10006000BF030008BF030008BF030008BF03000868
:10007000BF030008BF030008BF030008BF03000858
:10008000BF030008BF030008BF0300080000000012
:10009000000000000000000000000000BF03000896
:1000A000BF030008D1360008BF030008BF030008E3
:1000B000BF030008BF030008BF030008BF03000818
:1000C000BF030008BF030008BF030008BF03000808
:1000D000BF0300080F3C0008BF0300080000000039
:1000E000BF030008BF030008BF03000800000000B2
:1000F000000000000000000000000000BF03000836
:1001000000000000BF030008BF030008BF03000891
:1001100000000000000000000000000000000000DF
:10012000BF030008BF0300085D200008BF030008EC
:10013000BF030008000000000000000000000000F5
:10014000000000000000000000000000BF030008E5
:10015000BF030008BF03000869200008BF030008B0
:10016000BF030008BF0300080000000000000000FB
:10017000000000000000000000000000000000007F
:1001800000000000BF0300080000000000000000A5
:10019000BF030008BF03000800F002F800F092F867
:1001A0000AA090E8000C82448344AAF10107DA45D2
:1001B00001D100F087F8AFF2090EBAE80F0013F092
:1001C000010F18BFFB1A43F00103184778550000D0
:1001D00098550000103A24BF78C878C1FAD8520761
:1001E00024BF30C830C144BF04680C6070470000B1
:1001F0000023002400250026103A28BF78C1FBD830
:10020000520728BF30C148BF0B6070476E2900F00D
:10021000AF82702900F0F983662905F0E88165292D
:1002200005F0E581672905F0E281612905F0E181AA
:1002300003681B0A28BF41F08001692900F05C8235
:10024000642900F05982752900F056826F2900F068
:100250008683782900F0C583E92900F02183E42909
:1002600000F01E83F52900F01B83EF2900F0838343
:10027000F82900F0C4830368DB0928BF41F080013E
:10028000632901F01B81732901F02081E32901F02A
:100290002B81F32901F03081002070471FB505F054
:1002A000A1F901F07BF904000020002105F084F998
:1002B000401C60600020002105F068F9E0601FBD6F
:1002C00010B510BD01F03CF91146FFF7E7FF03F050
:1002D000D0FC01F019FA03B4FFF7F2FF03BC01F000
:1002E00061FA00002C4B19680868B0E8F04F80F301
:1002F0000988BFF36F8F4FF0000080F311887047BB
:100300000000000008480068006880F308884FF08B
:10031000000080F3148862B661B6BFF34F8FBFF35D
:100320006F8F00DF00BF00BF08ED00E0DFF80C00BA
:10033000016841F470010160704700BF88ED00E082
:10034000EFF30980BFF36F8F134B1A681EF0100F85
:1003500008BF20ED108A20E9F04F106009B44FF07B
:10036000500080F31188BFF34F8FBFF36F8F04F0FD
:10037000BFFB4FF0000080F3118809BC19680868C2
:10038000B0E8F04F1EF0100F08BFB0EC108A80F3F9
:100390000988BFF36F8F704714000020EFF30580CA
:1003A000704700000948804709480047FEE7FEE71C
:1003B000FEE7FEE7FEE7FEE7FEE7FEE7FEE7FEE715
:1003C00004480549054A064B70470000C13600083D
:1003D00099010008204C002020520020204E0020CF
:1003E000204E002053EA020C00F069802DE9F04B0A
:1003F0004FF00006002B1FBFB3FA83F503FA05F494
:1004000024FA05F65E4012BF1643B2FA82F502FAEC
:1004100005F4C5F120051EBF22FA05FC44EA0C04D0
:10042000203556EA044C4FEA144418BF641C4FF0C0
:1004300000084FF00009904271EB030C39D30029FA
:1004400019BFB1FA81F701FA07F6B0FA80F700FA9E
:1004500007F6C7F120071EBF20FA07FC46EA0C0684
:100460002037B6FBF4FCA7EB0507103F07F01F0B86
:10047000CBF120060CFA0BFB2CFA06F644BFB34670
:100480000026202FA4BF5E464FF0000B5BEA060C4F
:1004900008BF4FF0010B19EB0B09ABFB027C48EBDB
:1004A0000608C01B06FB02CC0BFB03CC71EB0C0156
:1004B000C1E70B46024641464846BDE8F08B13B5FE
:1004C0004FF000004FF00001AFF30080BDE81C408A
:1004D000704700007CB51D4616460C00009001D008
:1004E0002044401E074B7B442A4669460190304613
:1004F00000F057F905461CB10020694600F064F988
:1005000028467CBDE902000010B5431C02E010F84B
:10051000011B71B18107FAD14FF0013202C88C1A68
:100520008C4314EAC211F9D0C01A0A0603D0C01EC7
:1005300010BDC01A10BD0A0401D0801E10BD0902F2
:10054000FCD0401E10BD032A40F2308010F0030C96
:1005500000F0158011F8013BBCF1020F624498BF16
:1005600011F801CB00F8013B38BF11F8013BA2F1B3
:10057000040298BF00F801CB38BF00F8013B11F02E
:10058000030300F01183083AC0F0088051F8043BDF
:10059000083A51F804CBA0E80810F5E7121D5CBF3B
:1005A00051F8043B40F8043BAFF30080D20724BF6E
:1005B00011F8013B11F801CB48BF11F8012B24BF02
:1005C00000F8013B00F801CB48BF00F8012B704751
:1005D00002F0FF0343EA032242EA024200F018BBA2
:1005E0004FF0000200B5134694469646203922BFCC
:1005F000A0E80C50A0E80C50B1F12001BFF4F7AF17
:10060000090728BFA0E80C5048BF0CC05DF804EBF8
:10061000890028BF40F8042B08BF704748BF20F866
:10062000022B11F0804F18BF00F8012B7047704764
:100630007047704770B5044685690068C10601D5EA
:10064000302600E02026C00707D070BDD4E9012184
:1006500030469047206A401C20626D1EF6D570BD62
:1006600070B5044685690078C00707D170BDD4E92C
:10067000012120209047206A401C20626D1EF6D583
:1006800070BD09684A0501D540B27047C905FCD55F
:1006900000B2704709684A0501D5C0B27047C90564
:1006A000FCD580B2704770B50C460546012A05D0CE
:1006B0002878800600D5EA69002302E0012305E0DE
:1006C0005B1C934202D2E05C0028F9D1A869E618CD
:1006D000C01AA861286A184428622846FFF7AAFFB2
:1006E00004E0D5E9012114F8010B9047B442F8D396
:1006F0002846FFF7B5FF70BD2DE9F04106460024FE
:1007000010687529314616A510D0FFF7BAFF0028EA
:1007100002DA404213A507E031688A0701D512A525
:1007200002E0490704D511A5012401E0FFF7B2FF5B
:1007300000210A2206F1240709E0B0FBF2FCB0FB1D
:10074000F2F302FB1C00303078541846491C002894
:10075000F3D123462A463046BDE8F04100F0BDBA49
:10076000000000002D0000002B0000002000000011
:1007700011680268006A530501D508700AE0D305C4
:1007800001D5088006E0130603D5C217C1E90002AF
:1007900000E008600120704701694A1C0261087886
:1007A000704700B58FB0CDE90131002105910549B1
:1007B0007944CDE903101146684600F031F90FB0D5
:1007C00000BD0000E5FFFFFF0A6802F8010B0A60A8
:1007D0007047D1E900239A4202D2531C0B6010707B
:1007E000704700002DE9FF5F15468A460446DFF892
:1007F000AC80F8440027D8E900103E46CDE900104F
:1008000010E03AF816106A4602A800F079FE411C82
:1008100007D02178890603D5E269391891420DD8AD
:100820000744761C2078800602D5E069B84205DDD1
:10083000AE42E6DB3AF816000028E2D1A069C01B00
:10084000A0612046FFF7F6FED8E90010CDE90010C0
:10085000002017E03AF818106A4602A800F050FE8F
:10086000B0F1FF3F81460BD000250DF1080B05E0EC
:10087000D4E901211BF8050090476D1C4D45F7D3C5
:1008800008F10100B0428046E4DB206A384420626F
:100890002046FFF7E5FEBDE8FF9F0000464E000042
:1008A0002DE9F0418046D21D22F007020025D2E951
:1008B0000002F52915A614D0011E72F1000106DA16
:1008C0000023D0EB030063EB020211A608E0D8F886
:1008D00000108B0701D50FA602E0490701D50EA62F
:1008E00001251146002408F1240704E000F0B0F9C6
:1008F00030323A55641C50EA0102F7D12B46324699
:1009000021464046BDE8F04100F0E7B90000000094
:100910002D0000002B0000002000000030B400215A
:1009200000F1240408E002F00705D208303542EA5D
:100930004372DB086554491C52EA0305F3D104688D
:10094000002310A2250707D5A40600D421B1C4694D
:1009500001230DA2641EC46130BC00F0BEB910B505
:10096000044621461068FFF795FE02462046BDE882
:1009700010400023D2E7D21D22F00701D1E9002365
:10098000CCE700000000000030000000F0B40D468D
:100990000188090502D5214C7C4402E01F4C7C44AF
:1009A0000E34002100F1240608E002F00F071209BE
:1009B000E75D42EA03721B097754491C52EA0307B8
:1009C000F3D102780023120704D5702D06D009B1A7
:1009D000022311342246F0BC00F07FB90123103409
:1009E000F8E770B504460D4621461068FFF752FE41
:1009F000024629462046BDE870400023C6E7D21DC6
:100A000022F00703D3E90023C0E70368126843F02C
:100A1000200303600823C3610023B7E7A84C00004C
:100A20002DE9F05F894604464FF0000ADFF874B103
:100A3000FB44C0F820A02046E1688847002874D015
:100A4000252806D0D4E901219047206A401C206265
:100A5000F1E700265F462046E168884720280546E2
:100A600007DB312D05D2781910F8200C08B10643A8
:100A7000F1E7B00701D526F00406C4F81CA0002752
:100A8000C4F818A02A2D09D0284603F0EBF838B393
:100A900004EB8708303DC8F8185019E059F8041BDA
:100AA000204604EB87029161E1688847012F0546E3
:100AB00018D1E069002820DA26F020061DE0D8F8D9
:100AC000180000EB800005EB40003038C8F8180033
:100AD0002046E1688847054603F0C4F80028EED1B7
:100AE000012F0AD02E2D08D12046E16888477F1CAF
:100AF0000546022F46F02006C4DBA069002803DA71
:100B0000404246F00106A061F00701D026F0100631
:100B10006C2D0BD0682D09D04C2D39D06A2D35D0D5
:100B2000742D35D07A2D33D016E038E0E1682F46A9
:100B300020468847B842054609D16C2F26D04FF48D
:100B40008060E168064320468847054604E06C2F34
:100B50001AD04FF4807006430DB3A5F14100192857
:100B600002D8203546F400664A46294620462660CB
:100B70004E46FFF74BFB80B101280BD0F61D26F047
:100B8000070000F1080956E74020E4E78020D8E795
:100B90000020D6E706F104094DE7284652E7206A0F
:100BA000BDE8F09F384C000010B5203AC0F00B8033
:100BB000B1E81850203AA0E81850B1E81850A0E861
:100BC0001850BFF4F5AF5FEA027C24BFB1E81850BB
:100BD000A0E8185044BF18C918C0BDE810405FEA2B
:100BE000827C24BF51F8043B40F8043B08BF7047A7
:100BF000D20728BF31F8023B48BF11F8012B28BFAC
:100C000020F8023B48BF00F8012B70474FF000026C
:100C10000429C0F0128010F0030C3FF4E3ACCCF1D7
:100C2000040CBCF1020F18BF00F8012BA8BF20F87C
:100C3000022BA1EB0C01FFF7D5BC5FEAC17C24BFFE
:100C400000F8012B00F8012B48BF00F8012B70477A
:100C500030B5B0F10A024FEA900E71F100034EEA8E
:100C6000817EB0EB0E0061EB91014FEA101E4EEA5F
:100C7000017E10EB0E0041EB11114FEA102E4EEAEF
:100C8000016E10EB0E0041EB11214FEA104E4EEABF
:100C9000014E10EB0E0041EB1141401841F10001F3
:100CA0004FEAD00040EA41704FEAD10110EB8005D5
:100CB0004FEA810444EA907444EB01046D1944EB5B
:100CC0000404521BA3414FF0000348BF0A3200D571
:100CD00030BD401C41F1000130BD2DE9F0470D460B
:100CE00099469246044600F124080168880604D516
:100CF000E06921F01001216000E00120A84201DD3F
:100D0000471B00E00027A1697A1902EB0900081AC5
:100D1000A0612078C00602D42046FFF78BFC002695
:100D200008E0D4E901211AF806009047206A401C27
:100D3000761C20624E45F4DB2078C0060AD520469A
:100D4000FFF778FC06E0D4E9012130209047206AC3
:100D5000401C2062381EA7F10107F4DC07E0D4E94B
:100D6000012118F805009047206A401C2062281EC7
:100D7000A5F10105F3DC2046FFF772FC20780006A0
:100D800002D50220BDE8F0870120FBE770472DE97E
:100D9000FF4F0C461E464FF0FF378BB0D2E90001E3
:100DA000DDF860800A908A46C1F30A5505B93D46D0
:100DB000002108464FF00000BAF1000F00F4400097
:100DC00005DA00EB80004FF4400101EA50004FEAE1
:100DD0009059B9F1010F00DDB9460A9850EA4A006E
:100DE0000ED044F61050A5F2FF3545432F14B8F14C
:100DF000000F1ED07542291E1EDDC9F100021CE045
:100E0000B8F1010F4FF0000001D0302103E0F243B0
:100E100005E02154401CB042FBDB3046002200219B
:100E200021540B99C1F80880C1E900200FB0BDE83A
:100E3000F08FBD1B6D1CDEE74A4600DA694206A84A
:100E400000F0F0FB06AB93E8070003AB83E8070074
:100E500050460A9900F0ADFC8DE80700A0F500505F
:100E60001F3800900398002D0ADD42F21F014A4608
:100E70000844002303A90390684600F016FF09E028
:100E8000A0F500504A461F38002303A90390684686
:100E900000F020FF8DE807000004000C03D04FF0A5
:100EA000FF30410800E01046B8F1000F03D00022E7
:100EB000009215461EE0751E05D4FFF7C9FE3032BC
:100EC00062556D1EF9D5B3460122084302D00022B7
:100ED0007F1C04E02078302801D100227F1E002AE8
:100EE000099784D01DE0112D07DAFFF7B1FE3032EB
:100EF00062556D1C50EA0102F5D1084302D00098FA
:100F0000C8B10EE00021681E05E0235C625C6354FA
:100F10002254401E491C8142F7DBAB46A81B401EF1
:100F20000990002004F80B000B98099AC0F808807B
:100F3000C0E9002B7AE711264FF0000857E72DE9AA
:100F4000F04F88460446D21D22F0070191B0D1E946
:100F50000001CDE90A0102F05DFE02460B98C00FC8
:100F600001D02D2007E02068810701D52B2002E069
:100F7000202101EAC000032A099001D0072A05DBDD
:100F800003464146204600F00DFB0BE12078800629
:100F900001D5E06900E00620B8F1650F814606D072
:100FA000B8F1660F18D0B8F1670F70D131E00020AA
:100FB000B9F1110F009001DB112301E009F10103E8
:100FC0000AAA01A90CA8FFF7E2FEDDE90C700026D1
:100FD00009F10105834647E001204B4600904FF0A0
:100FE00000470AAA01A90CA8FFF7D1FEDDE90DB060
:100FF0000C995D46002610B909F101000D18B9EBF6
:10100000050003D4C0F1FF3609F10105A5EB090085
:101010002BE0B9F1010F01DA4FF001090020B9F11D
:10102000110F0090484601DD112300E003460AAA93
:1010300001A90CA8FFF7ABFEDDE90C704D460026B8
:101040008346207800070AD4AB4500DA5D4601A844
:10105000012D04DD411911F8011C302907D04F453D
:1010600002DA17F1040F04DA012082460FE06D1E48
:10107000EEE7002F02DCED1B3E4403E0781CA842A3
:1010800000DD7D1CB81B00F1010A4FF000472078FD
:10109000000703D4AA4501DB4FF0FF3A0021B7F166
:1010A000004F0DF143088DF8431024D002202B236C
:1010B000002F01DA7F422D230A21021EA0F1010038
:1010C00000DC5FB197FBF1FC97FBF1F201FB1C7CAC
:1010D00017460CF1300C08F801CDEEE7A8F101003D
:1010E00003702188090501D5452100E06521A0F1A3
:1010F000010800F8011C09980FA9A1EB0807FF1DC2
:1011000000B10120411901EBEA70A1693844081AC5
:10111000401EA0612078C00602D42046FFF78AFA5C
:10112000099828B1D4E901219047206A401C206227
:101130002078C00622D52046FFF77CFA1EE0002E5C
:1011400004DBB34502DD01A8805D00E03020D4E976
:1011500001219047206A401C2062761CAAF1010000
:101160005FEA000A0AD100F019FAC0680168405C21
:10117000D4E901219047206A401C2062281EA5F175
:101180000105DCDC07E0D4E9012118F8010B9047E8
:10119000206A401C2062381EA7F10107F3DC2046BC
:1011A000FFF75EFA032011B041E600002DE9F04F91
:1011B00004460D46D21D22F0070089B0D0E9009701
:1011C0004846394602F026FD0246F80F01D02D238D
:1011D00007E02068810701D52B2302E0202101EAE6
:1011E000C0038DF820300BB1012000E00020032A5D
:1011F000824601D0072A04DB2946204600F0D2F9B6
:101200003FE12078800601D40D2500E0E569C7F3B1
:101210000A560D2D49DA00214FEA175B08464FF0B8
:101220000000002F00F4400007DA00EB80004FF4CC
:10123000400100EBD07001EA60008115012901DD59
:101240004FF0FF3100224FEA850CBCF1180F06D396
:101250001346ACF118004FF08052C24003E04FF447
:10126000801323FA0CF30CF10C0CBCF1200F04D307
:10127000ACF1200C09FA0CF001E007FA0CF000299F
:101280004FF0004801DD18B90FE00ED140450CD3F6
:1012900019EB02095F4121B9404502D19F4329EA78
:1012A0000209BBEB175F00D0761C2088000502D531
:1012B0007B48784402E07A487844193808AA3023F9
:1012C00002F80A30037C0AF10101002E0AF1020A39
:1012D00053546A4602DC4FF0300101E04FF0310117
:1012E0004FF001088DF8001002D0A6F2FF3603E09F
:1012F00059EA470100D06B4E002D02DC2178090726
:1013000004D54FF002082E218DF80110C4460021AB
:101310000BE0C7F303433F01C35C491C6D1E02F899
:101320000830052908F1010801DA002DF1DC00215F
:101330000CE000EB1973491C1B786D1E082902F89C
:1013400008304FEA091908F1010801DA002DF0DC34
:1013500021688B0602D516E0A8F10108E04505DDFD
:1013600002EB080313F8013C302BF5D0B8F1000F65
:1013700009DD02EB080313F8013C2E2B03D109070A
:1013800001D4A8F10108002D05DD3E2102F8081066
:101390006D1E08F10108407C002E02F8080008F1DB
:1013A000010804DA2D20764202F8080002E02B2022
:1013B00002F808000A214FF47A70864208F1010809
:1013C0000BDB96FBF0F3303302F8083096FBF0F3BA
:1013D00008F1010800FB136601E0642E0CDB6420B9
:1013E00096FBF0F3303302F8083096FBF0F308F187
:1013F000010800FB136601E00A2E06DB96FBF1F004
:10140000303002F8080008F1010896FBF1F001FB0A
:101410001060303002F80800A16908F1010808EBFB
:10142000050202EB0A00081AA0612078C00602D467
:101430002046FFF7FFF8216A08AE01EB0A002062A0
:1014400004E0D4E9012116F8010B9047BAF1010A32
:10145000F7D22078C00602D52046FFF7EBF86E469B
:1014600009E016F8010B3E280FD0D4E9012190477E
:10147000206A401C2062B8F10108F2D22046FFF732
:10148000EFF809B00320BDE8F08F206A28442062FD
:1014900003E0D4E90121302090476D1EEBD3F8E73B
:1014A000DA43000002FCFFFF10B5436913B1AFF34C
:1014B000008001E0FFF7F7F8012010BD127800F17D
:1014C00024010A7000224A700122EDE711684FF0F2
:1014D000FF32E9E710B5436913B1AFF3008001E0D3
:1014E000FFF780F9012010BD128800F124018284E9
:1014F0000022C2840122EDE711684FF0FF32E9E7D4
:1015000070B516460C46054600F040F8036893F89F
:101510000101012806D0FF2C0FD8185D68B1012009
:101520002C7070BDD3F807013246214603F2071331
:1015300003442846BDE8704018474FF0FF3070BDA7
:10154000754600F0EBF8AE4605006946534620F0BC
:101550000700854618B020B5FEF732FFBDE82040F1
:101560004FF000064FF000074FF000084FF0000B5F
:1015700021F00701AC46ACE8C009ACE8C009ACE812
:10158000C009ACE8C0098D467047000010B500F0F6
:1015900005F8001D10BD00BF214000000048704745
:1015A000E04B00202DE9F0411F4604460326016868
:1015B000072A01F4006004DB08B116A505E016A5B2
:1015C00003E008B115A500E015A521F0100020608A
:1015D000A069C01EA0610FB1401EA0612046FFF7A8
:1015E00029F84FB1D4E9012138469047206A401CC0
:1015F0002062C01C206206E0206AFAE7D4E90121DB
:1016000015F8010B9047761EF8D22046FFF728F810
:10161000BDE8F0814E414E006E616E00494E4600BD
:10162000696E66002DE9F047814616468AB0354856
:1016300078440DC88DE80D0032487844801C03AC16
:101640000DC884E80D0041F69B300844372190FB1B
:10165000F1F290FBF1F5A5F1800501FB12041B3CB2
:1016600002D56442012000E00020DFF898A0804607
:101670000027FA44AAF1BE0A0EE0E0070AD032467B
:10168000684607EB470101230AEB810100F022FBCA
:101690008DE8070064107F1C002CEED1194F7F44A9
:1016A000AE3F19E0E80715D007EB04100DF1180A5A
:1016B00090E80E008AE80E00C068F04201D1981947
:1016C00008903246012306A903A800F003FB03ABF0
:1016D00083E807006D10641C002DE3D14FF0010377
:1016E00032466946B8F1000F03A802D000F0DDFAD7
:1016F00001E000F0EFFAC9E90001C9F808200AB0DA
:10170000BDE8F087EC40000010B50446AFF3008060
:101710002046BDE81040FEF7DEBD000000487047DF
:10172000C04B00204FF0013C50F8042B51F8043B13
:101730009A4221D1A2EB0C03934313EACC1317D1A5
:1017400050F8042B51F8043B9A4215D1A2EB0C033C
:10175000934313EACC130BD150F8042B51F8043BFC
:101760009A4209D1A2EB0C03934313EACC13DBD0CA
:101770004FF00000704700BFD01A01BAB1FA81F1F2
:1017800001F0180122FA01F0CB40C1F12001DBB2D7
:10179000C0B2C01A2CFA01F3D11A914311EAC31155
:1017A000E6D1704701491820ABBEFEE726000200D3
:1017B00070475FEA400C08BF91F0000F4FEA8C239E
:1017C0004FEAC12243EA51514FEA1C5018BF00F5BD
:1017D000F0404FEA300018BF41F000415FEA6C5C16
:1017E00000F02980BCF1FF3F08BF40F08040704707
:1017F000130C06BF12044FF0100C4FF0000C130E28
:1018000004BF12020CF1080C130F04BF12010CF1FB
:10181000040C930F04BF92000CF1020CD30F04BF11
:1018200052000CF1010C11464FF00002A0F11F0014
:10183000A0EB0C00704711F0004F08BF704731F06B
:1018400000413FF4D5AF0B0C06BF09044FF0100C5C
:101850004FF0000C0B0E04BF09020CF1080C0B0F2B
:1018600004BF09010CF1040C8B0F04BF89000CF1BB
:10187000020CCB0F04BF49000CF1010CCCF120038A
:10188000A0EB0C0022FA03F302FA0CF241EA030186
:1018900000F10100704720F07F4C80EA030023F044
:1018A0007F47ACEB070303F57C5300F0004003F1E6
:1018B000FF032DE980494FEA154B09B44FEA144361
:1018C00025EA0B4E24EA03480FF2042606EB132701
:1018D00049083E785FEA320203FB0667C7F5000756
:1018E00007FB06F64FEA54374FEAD64606F10206E2
:1018F00007FB066CCCF1005C4FEA1C472CEA074C56
:1019000007FB06F40CFB06F504EB15464FEA9616AA
:1019100034BF00204FF000404FEAD13706FB07FCF0
:101920004FEA1C4C0CFB0BF7D21B03FB0CF761EBD3
:1019300007010CFB0EF7B0EB074072EB17420CFBF4
:1019400008F734BFA2EB0742B2EB074261EB174145
:101950004FEA0C444FEA910706FB07FC4FEA1C4C88
:101960000CFB0BF7B0EBC74072EB573203FB0CF7E5
:1019700034BFA2EBC742B2EBC74261EB57310CFB5D
:101980000EF7B0EBC70072EB57720CFB08F734BFD1
:10199000A2EBC702B2EBC70261EB5771039F4FEA9C
:1019A000816141EA921104EBCC044FEAD1374FEA4E
:1019B000826206FB07FC42EA90124FEA80604FEA1F
:1019C0001C4C0CFB0BF7D21B03FB0CF761EB070164
:1019D0000CFB0EF7B0EB074072EB17420CFB08F75D
:1019E00034BFA2EB0742B2EB074261EB17414FEA6B
:1019F0008C554FEA910704EB9C2406FB07FC4FEA49
:101A00001C4C0CFB0BF7B0EBC74072EB573203FBDF
:101A10000CF734BFA2EBC742B2EBC74261EB5731C0
:101A20000CFB0EF7B0EBC70072EB57720CFB08F71C
:101A300034BFA2EBC702B2EBC70261EB577115EBE3
:101A40004C254FEA816141EA92114FEA82624FEAE6
:101A5000D13742EA901206FB07FC44F100044FEA3A
:101A600080604FEA1C4C0CFB0BF7D21B03FB0CF7FE
:101A700061EB07010CFB0EF7B0EB074072EB17426E
:101A80000CFB08F734BFA2EB0742B2EB074261EB55
:101A9000174115EB1C154FEA813141EA92414FEA9B
:101AA000823242EA90424FEA80304FEA0C7644F1AB
:101AB000000448EA03434EEA0B484FF0000EB2EB35
:101AC000080C71EB030724BF624639464EEB0E0E3D
:101AD0004FF0000B0018524149414BEB0B0BB2EB9E
:101AE000080C71EB03077BF1000B24BF62463946FB
:101AF0004EEB0E0E4FF0000B0018524149414BEBDC
:101B00000B0BB2EB080C71EB03077BF1000B24BF4E
:101B1000624639464EEB0E0E51EA020718BF46F0F8
:101B2000010616EB0E7655F1000254F1000103D5C3
:101B3000BDE88901BDE80088BDE88901BDE800482D
:101B4000B619524141EB0101A3F1010370478080B6
:101B50007F7E7D7C7B7A7978777676757473727107
:101B600071706F6E6E6D6C6C6B6A6A6968686766BF
:101B700066656464636362616160605F5F5E5E5D51
:101B80005D5C5C5B5B5A5A595958585757565655C5
:101B900055555454535352525251515050504F4F27
:101BA0004F4E4E4D4D4D4C4C4C4B4B4B4A4A4A4977
:101BB00049494848484747474746464645454544BA
:101BC0004444444343434342424242414141002B47
:101BD0009C4630D477002BD01CB54FEA370703B4AE
:101BE0004FF010004FF01001BAF1000F06D0BCF119
:101BF000000FDCBF40F0080040F008014FF000008B
:101C00000FBCBDE810400BF1010BBBF1010F08BF89
:101C10005FEA170722BF12F1010211F101014FF033
:101C2000004143F1000300F0004043EA0000704728
:101C3000F9D35708D0E746EA064613F1400F4FEABA
:101C400016461FDD13F1200FDFBF16430A460021A1
:101C500020335B42BED0C3F1200746EA064602FAB3
:101C600007F74FEA164646EA0706C3F1200722FAAD
:101C700003F201FA07F721FA03F14FF0000342EAF9
:101C80000702A7E746EA020646EA06464FEA164674
:101C900046EA0106BCBF46EA0646360C4FF0000392
:101CA0004FF000024FF0000194E72DE9804C9A4676
:101CB000934670B491E8380007C831EA400C48BF39
:101CC00034EA430C03D5FFF7E6FDFFF780FFF0BCD5
:101CD000BDE8008C2DE9804C9A46934670B491E89B
:101CE000380007C810F0804F08BF13F0804F03D1B1
:101CF00000F005F8FFF76BFFF0BCBDE8008C20F0AA
:101D00007F4780EA030023F07F4C07EB0C03A3F529
:101D10007C5300F00040A3F1FE0392F0000F00F0AE
:101D2000B38095F0000F00F077802DE901494FEA6C
:101D300011404FEA144621EA004800FB06FC24EA61
:101D4000064708FB06F607FB08F800FB07F718EB49
:101D500006484CEB164C4FEA124B18EB07484FEA7B
:101D600015464CEB174022EA0B4E0BFB06FC25EA0E
:101D700006470EFB06F607FB0EFE0BFB07F71EEBF6
:101D8000064E4CEB164C4FF000061EEB074E4CEB8C
:101D9000174B18EB0B0840F1000018EB0E0B58EB3B
:101DA000000840F100008F1A4FF000013CBFC9430A
:101DB000661B14BFB5EB040C00213CBFC943F61BE6
:101DC0004FEA17444EEA8E0E27EA04454FEA1C47B5
:101DD00004FB07622CEA074C05FB07F70CFB05F632
:101DE00004FB0CFC16EB074642EB174216EB0C46C5
:101DF00042EB1C421BEB060658EB0202414146EA4D
:101E00009E0601D5BDE80189B619524141EB010199
:101E1000A3F10103BDE801894FEA14454FEA1147D8
:101E200024EA054621EA074C05FB07F406FB07F701
:101E30000CFB06F105FB0CFC11EB074144EB1744CE
:101E40004FEA124711EB0C4144EB1C4422EA074CC9
:101E500005FB07F206FB07F70CFB06F605FB0CFC7F
:101E600016EB074642EB174216EB0C4642EB1C45BD
:101E70006A1854F1000148BF7047B619524141EB4E
:101E80000101A3F10103704795F0000F37D04FEA2D
:101E900011424FEA144721EA024624EA074C02FBAA
:101EA00007F106FB07F70CFB06F402FB0CFC14EB36
:101EB000074441EB17414FEA154714EB0C4441EB43
:101EC0001C4125EA074C02FB07F506FB07F70CFB54
:101ED00006F602FB0CFC16EB074645EB174516EB26
:101EE0000C4645EB1C42121951F1000148BF7047E6
:101EF000B619524141EB0101A3F1010370474FEACA
:101F000014454FEA114724EA054621EA074C05FB30
:101F100007F106FB07F70CFB06F24FF0000605FB86
:101F20000CFC12EB074241EB174112EB0C4251EB58
:101F30001C4148BF7047921841EB0101A3F1010316
:101F40007047000008B5002000900D480068016847
:101F5000C90605D5C068C00602D5684602F06AFB0E
:101F6000074801F035F80098002807D005494FF0E0
:101F700080500860BFF34F8FBFF36F8F08BD000024
:101F80009C00002004ED00E010B500228221082012
:101F900002F070FE0A49486080B10020488009487C
:101FA0000068C16841F01001C1604FF480720649B9
:101FB000044801F0F3F9002801D0FEE7FEE710BD68
:101FC000940000209C000020C04A002010B50400AE
:101FD00007D0FEF799FA81B22046BDE8104000F024
:101FE00031B810BD0FB4802100B5A1B023AB684655
:101FF000229AFEF76FFA002803DD81B2684600F0EE
:1020000021F821B05DF814FB0A46014601484068FA
:1020100002F0D8BF9400002010B5084C00222270B6
:102020000A460146064801F019FA02E0012001F0D3
:1020300031FE20780028F9D010BD00009400002067
:102040009C0000200A4601464FF0FF33014801F092
:10205000B5B900009C000020FEE70000014800F038
:10206000B9B80000E4000020014800F0B3B8000057
:102070004401002001681823CAB2103AB2FBF3F2FF
:10208000054B6FF30901032A9B5CC36500D9091D49
:1020900081650846704700001C56000810B50146CF
:1020A00000208B698A6A4FF0C07453B1B3F5005FAA
:1020B00015D072B1012A0CD0022A0AD0032A09D104
:1020C00004E01AB1012A06D0022A03D1C96AC90163
:1020D00000D5012010BDC96AA142FAD010BD002A66
:1020E000F7D0012AF2D0022AF3D0032AF3D010BD90
:1020F00030B50468256825F4802525600468636090
:102100008368402B036803D099600068C26030BDCB
:102110009A600068C16030BD704772B6FEE72DE975
:10212000F0410446876D00F0B7FA064694F8350092
:102130000025022806D08020606584F834500120F4
:10214000BDE8F0812068016821F016010160206877
:10215000416921F080014161206C08B9A06C20B177
:102160002068016821F0080101602068016821F001
:10217000010101600CE000F08FFA801B052807D9EF
:1021800020206065032084F8350084F83450D7E7B8
:1021900020680068C007EED194F85C103F208840AA
:1021A000B860012084F8350084F834500020C7E777
:1021B00090F83510022903D0802141650120704735
:1021C000052180F835100068016821F001010160E7
:1021D000002070472DE9F84304464FF00009CDF880
:1021E000009063484FF41651A56D0068B0FBF1F7FD
:1021F0002E6894F85C10082000FA01F131420FD0EB
:1022000021680A6852070BD50A6822F004020A60A6
:1022100094F85C108840A860606D40F00100606533
:1022200094F85C104FF0010808FA01F0304208D031
:1022300021684969090604D5A860606D40F0020074
:10224000606594F85C1004208840304208D0216812
:102250000968890704D5A860606D40F004006065D6
:1022600094F85C1010208840304218D0216809682A
:10227000090714D5A86020680168490304D50068DF
:10228000000308D5A16C07E00168C90503D4016803
:1022900021F008010160216C09B12046884794F8BB
:1022A0005C1020208840304231D021680968C9067E
:1022B0002DD5A86094F8350005282068016806D05F
:1022C000490347D5006800031DD4616C1CE021F070
:1022D000160101602068416921F080014161206C94
:1022E00008B9A06C20B12068016821F008010160E4
:1022F00094F85C103F208840A86084F8358084F80A
:102300003490216D1FE0E16B09B120468847606D74
:1023100000282BD0606DC00714D0052084F835004C
:102320002068016821F0010101600098401C0090C4
:10233000B84203D820680068C007F6D184F8358019
:1023400084F83490E16C002910D001B02046BDE83B
:10235000F04308470168C905D5D4016821F0100190
:10236000016084F8358084F83490CCE7BDE8F883C8
:10237000100000202DE9F041044600F08DF90646DA
:102380005CB1022084F83500002584F834502068C0
:10239000016821F0010101600DE00120BDE8F0813C
:1023A00000F07AF9801B052805D9202060650320FC
:1023B00084F83500F2E720680068C007F0D1226891
:1023C000116820480140D4E901031843D4E90336D9
:1023D0003343184363691843A3691843E3691843F7
:1023E000236A18430843616A042903D1D4E90B1313
:1023F00019430843106020684069666A20F00701AD
:1024000030460E43012704280CD1A06A0643E06A37
:1024100040B12046FFF742FE20B14020606584F8BD
:102420003570BAE7206846612046FFF723FE94F82E
:102430005C203F2191408160656584F83570002003
:10244000ACE700003F8010F02DE9F0410446866DB6
:1024500090F83400002501280DD0012084F83400C4
:1024600094F835700020012F07D084F8340002253D
:102470002846BDE8F0810220FBE7022784F835708A
:1024800060652046FFF734FE94F85C103F208840DA
:10249000B0602068016841F016010160206C20B135
:1024A0002068016841F0080101602068016841F07E
:1024B00001010160DCE700002DE9F84FDFF8B8A169
:1024C0000022012403254FF00F090AF1040BAAF1A1
:1024D000040E00BF0B6804FA02F63340B34273D116
:1024E0000F7907F00307012F01D0022F16D187685B
:1024F0004FEA420805FA08FC27EA0C07D1F80CC09D
:102500000CFA08FC4CEA070CC0F808C04768B7434F
:102510000E79C6F3001696403E4346600E79F643A8
:10252000B6070DD0C768560005FA06FC27EA0C0767
:10253000D1F808C00CFA06FC4CEA070CC0F80CC035
:102540000E7906F00306022E10D1D60800EB86089D
:10255000D8F8206057074FEAD76C09FA0CF7BE434A
:102560000F6907FA0CF73743C8F8207006684FEA7E
:10257000420C05FA0CF7BE430F7907F0030707FA80
:102580000CF7374307604E6816F4403F6DD03B4E62
:10259000376847F480473760366822F0030706F44F
:1025A00080460096364E07EB060CDCF80868970765
:1025B0003F0F09FA07F826EA0806DFF8C880404509
:1025C00003D14FF000081EE04FE0DFF8BC8040452B
:1025D00002D14FF0010816E0DFF8B080404502D18B
:1025E0004FF002080FE0DFF8A880404502D14FF01D
:1025F000030808E0DFF89C80404502D14FF0040852
:1026000001E04FF0070808FA07F848EA0608CCF896
:102610000888DAF800605746D1F804C09E435FEAA4
:10262000CC2C00D51E433E60DBF800605F46D1F83D
:1026300004C09E435FEA8C2C00D51E433E60DEF84A
:1026400000607746D1F804C09E435FEA8C3C00D519
:102650001E433E60084F083F3E68D1F804C09E43C9
:102660005FEACC3C00D51E433E60521C102AFFF4AA
:1026700031AFBDE8F88F0000083C0140443802400B
:102680000030014000000240000402400008024007
:10269000000C0240001002400148806870470000B2
:1026A000040000200248816802781144816070476C
:1026B000040000200B4810B5016841F4007101606E
:1026C000016841F480610160016841F4807101603A
:1026D000032000F099F80F2000F006F800F04AF807
:1026E000002010BD003C024030B505461C4887B0B4
:1026F0000024016841F001010160006806A900F0B2
:102700000100009001A800F02BF900F059F91549DB
:102710004000B0FBF1F11548134A491E026040F237
:10272000E732C0E90324C0E90114846100F042FBF0
:10273000040012D10D4800F06BFB04000DD11920EC
:1027400000F034F8102D07D200222946192000F09D
:102750003BF80748056000E0012407B0204630BD83
:102760004438024040420F0000000140A401002014
:10277000080000200C4882B0016841F480410160EB
:10278000006800F4804000900748001F016841F095
:10279000805101600068002200F0805000900F21FD
:1027A000901E02B000F010B844380240002809DB47
:1027B00000F01F02012191404009800000F1E0205B
:1027C000C0F8001170470000F0B40E4B1B680C46B7
:1027D000C3F30223C3F10705042D00D90425191DF5
:1027E000072901D2002300E0DB1E012606FA05F1CD
:1027F000491E214099409E40761E16403143F0BC50
:1028000001F020BA0CED00E0064900F0070208686C
:102810004FF6FF03184040EA0220034A10430860C5
:10282000704700000CED00E00000FA052DE9F047CC
:102830000E46050065D0DFF81481D8F80000F7B225
:1028400000F00700B04207D288F80070D8F8000006
:1028500000F00700B04254D128683D4C810712D5E2
:10286000400703D5206840F4E05020602878000736
:1028700003D5206840F4604020602068A96820F0FB
:10288000F000084320602878C0072DD030496868E0
:102890000839012812D0022813D0032811D0096862
:1028A000890700292DDA216821F003010143216005
:1028B000FFF7F2FE814641F2883A0EE0096889038B
:1028C000EFE709688901ECE7FFF7E6FEA0EB0901F5
:1028D000514502D90320BDE8F0872068696800F0FF
:1028E0000C00B0EB810FEFD1D8F80010404601F09A
:1028F0000701B14207D90770006800F00700B04235
:1029000001D00120E7E72878400705D52068E9686D
:1029100020F4E050084320602878000706D520689E
:10292000296920F4604040EAC100206000F058F8B6
:102930002168084AC1F30311515CC8400649086088
:1029400006480068FFF7D0FE0020C4E7003C0240C4
:10295000083802402456000810000020080000201B
:102960000F2202600C4A136803F0030343601368EC
:1029700003F0F0038360136803F4E053C36012684C
:102980004FF4E05303EAD20202610448006800F009
:10299000070008607047000008380240003C024011
:1029A0000448054900680968044AC1F38221515C62
:1029B000C840704710000020083802403456000814
:1029C0000448054900680968044AC1F34231515C72
:1029D000C8407047100000200838024034560008F4
:1029E000154810B5006810F00C02144813D01449B3
:1029F000042A0FD0082A0ED10F4C241F2268236806
:102A000002F03F025B0207D52068C0F38810A0FBEC
:102A1000010106E0084610BD2168C1F38811A1FB41
:102A200000010023FDF7DEFC2168C1F30141491CD0
:102A30004900B0FBF1F010BD083802400024F4005A
:102A400040787D012DE9F84F04006ED02078DFF842
:102A50004C93C007A9F104054AD009F104000168AC
:102A6000C1F38101012908D00068C0F38100022868
:102A70000AD1D9F80000400206D52868800337D56E
:102A800060680028E1D033E06068B0F5803F10D086
:102A9000B0F5A02F286810D020F480302860286876
:102AA00020F4802028606068A8B1FFF7F5FD064695
:102AB0000DE0286840F48030F4E740F4802028607E
:102AC000F7E700BFFFF7E8FD801B642873D828688C
:102AD0008003F7D50CE0FFF7DFFD064605E000BFF9
:102AE000FFF7DAFD801B6428F0D828688003F7D44C
:102AF0002078DFF8AC8280074FF0000A3ED5A74867
:102B0000001D016811F00C0F08D00068C0F38100AF
:102B100002280BD1D9F80000400207D428688007AA
:102B200016D5E068012800D112E033E1E068B8B1C1
:102B30000120C8F80000FFF7AFFD064605E000BF22
:102B4000FFF7AAFD801B0228C0D828688007F7D5A8
:102B50002868216920F0F80040EAC10028600DE0F3
:102B6000C8F800A0FFF798FD064604E0FFF794FDC3
:102B7000801B02281FD828688007F7D42078000718
:102B800022D5864F87486169703771B10121016094
:102B9000FFF782FD064604E0FFF77EFD801B02285A
:102BA00009D838688007F7D50EE0C0F800A0FFF715
:102BB00073FD064605E082E0FFF76EFD801B0228EC
:102BC0007DD838688007F7D42078400768D5DFF8CB
:102BD000CCB100270BF13C0BDBF80000C0000BD49C
:102BE000DBF8001041F08051CBF80010DBF800005A
:102BF000012700F0805000906B4E3068C00510D463
:102C0000306840F480703060FFF746FD009005E0CA
:102C1000FFF742FD0099401A022850D83068C005DD
:102C2000F6D55E4EA0686C3601280FD005283068B6
:102C300010D020F001003060306820F004003060D7
:102C4000A068B8B1FFF728FD00900FE0306840F0B1
:102C50000100F4E740F004003060F7E7FFF71CFDE7
:102C60000099411A41F28830814266D83068800765
:102C7000F4D50EE0FFF710FD009007E0FFF70CFD24
:102C80000099411A41F28830814256D83068800755
:102C9000F4D42FB1DBF8001021F08051CBF80010F4
:102CA000A069C8B33D49091D0968C1F38101022922
:102CB0004AD00228504607D0C8F8600000E03CE047
:102CC000FFF7EAFC04463BE04746C8F86000FFF720
:102CD000E3FC064605E000BFFFF7DEFC801B022890
:102CE0002BD828688001F7D4D4E907010843A16AEA
:102CF0002E4A490802EB0141626A41EA8211084307
:102D000094F82C1040EA0161C9F8001001203866DF
:102D1000FFF7C2FC044606E03EE000BFFFF7BCFC44
:102D2000001B022809D828688001F7D534E000BFCD
:102D3000FFF7B2FC001B022802D90320BDE8F88F80
:102D400028688001F4D427E00128F7D0D9F80000E2
:102D5000E26900F4800191421CD1226A00F03F0137
:102D6000914217D147F6C071626A0140B1EB821FF0
:102D700010D1A26A4FF0FF3300F4403103EB52024E
:102D8000B1EB024F06D194F82C1000F07060B0EB5C
:102D9000016F01D00120D1E70020CFE704380240C5
:102DA00000004742800E4742007000400000FFFFD5
:102DB0007047704710B5040003D094F83D0010B17F
:102DC00007E0012010BD002084F83C00204600F000
:102DD0001EF8022084F83D00211D206800F07EFCD2
:102DE000012084F8460084F83E0084F83F0084F80F
:102DF000400084F8410084F8420084F8430084F8DD
:102E0000440084F8450084F83D00002010BD704760
:102E100090F83D10012901D001207047022180F86F
:102E20003D100168CA6842F00102CA6000680E499C
:102E300088420ED0B0F1804F0BD00C49884208D0A8
:102E40000B49884205D00B49884202D00A49884282
:102E500004D1816801F00701062903D0016841F01F
:102E600001010160002070470000014000040040A3
:102E700000080040000C00400040014070472DE970
:102E8000F04104460068C66805694FF00007A907CD
:102E900013D5B10711D5F91E0161012020772068F3
:102EA00080698007204602D0FFF7E8FF04E000F0C9
:102EB0007EF8204600F07CF82777680716D5700763
:102EC00014D521686FF00400086102202077206883
:102ED000806910F4407F204602D0FFF7CFFF04E066
:102EE00000F065F8204600F063F82777280715D52D
:102EF000300713D521686FF008000861042020779F
:102F00002068C0698007204602D0FFF7B7FF04E0C1
:102F100000F04DF8204600F04BF82777E80616D56C
:102F2000F00614D521686FF01000086108202077A2
:102F30002068C06910F4407F204602D0FFF79EFF52
:102F400004E000F034F8204600F032F82777E80774
:102F500008D0F00706D021686FF001000861204614
:102F600000F028F8280608D5300606D521686FF04D
:102F7000800008612046FFF71BFF680608D5700631
:102F800006D521686FF040000861204600F01CF86B
:102F9000A8060AD5B00608D521686FF020000861A0
:102FA0002046BDE8F041FFF704BFBDE8F08170475F
:102FB0007047000000680349884201D1FFF772BBE7
:102FC00070470000000001407047704770470000E4
:102FD000F8B5016804460868CA684B6910F00F0F1D
:102FE0004FF0000559D003F0010602F49077374303
:102FF00065D0C10705D0D10503D5616C41F0010151
:103000006164410705D5D90703D0616C41F0020125
:103010006164810705D5D90703D0616C41F00401D3
:103020006164010707D502F02001314303D0616CD0
:1030300041F008016164616C00293AD0800604D532
:10304000900602D5204600F072FC20684069616C51
:10305000C0F38010090700D460B3204600F032FCB2
:1030600020684069400621D52068143050E8001FD0
:1030700021F0400140E80012002AF5D1E06BA8B130
:1030800072490165E06BFFF793F8002811D0E06BFF
:10309000016D01B0BDE8F040084783060FD59306E7
:1030A0000DD52046BDE8F84000F041BC2046FFF7B2
:1030B0008DFFF8BD2046FFF789FF6564F8BD266BDC
:1030C0002023012E7ED1C6067CD5D6067AD5086887
:1030D0004868009048694FF0020640064DD5E26B03
:1030E000106840684FF480770004000C3AD0A18D3E
:1030F000814237D9E085D069B8422DD020680C30A4
:1031000050E8001F21F4807140E80012002AF5D138
:103110002068143050E8001F21F0010140E800123F
:10312000002AF5D12068143050E8001F21F040013A
:1031300040E80012002AF5D184F842302563206867
:103140000C3050E8001F21F0100140E80012002A66
:10315000F5D1E06BFEF7E3FF6663A08DE18D401AC9
:1031600081B206E0A18D8142A8D1D069B842A5D133
:1031700066632046FFF729FFF8BDA08DE18D401A58
:1031800081B2E08D0028F7D00029F5D020680C30FE
:1031900050E8002F22F4907240E80027002FF5D16C
:1031A0002068143050E8002F22F0010240E8002788
:1031B000002FF5D184F84230256320680C3050E8A8
:1031C000002F00E006E022F0100240E80023002B70
:1031D000F3D1CDE705062BD5150629D594F8410086
:1031E0002128C9D1A068B0F5805F01D12069B0B1B4
:1031F000206A411C2162216800784860E08C401EF2
:103200000004000CE084B7D12068C16821F080017F
:10321000C1602068C16841F04001C160F8BD206A0A
:103220000088C0F308004860206A801C2062E5E73F
:103230004006F3D55006F1D5CA68204622F0400278
:10324000CA6084F8413000F04BF9F8BD7D370008C2
:1032500070B5040004D094F84100002510B106E0D8
:10326000012070BD84F84050204600F023F824204F
:1032700084F841002068C16821F40051C1602046F3
:1032800000F0B6FB2068016921F4904101612068DB
:10329000416921F02A0141612068C16841F400516F
:1032A000C1606564202084F8410084F842006563B1
:1032B000002070BD2DE9F04186B006461421684615
:1032C000FDF78EF93049306888425AD12F480024E2
:1032D000016841F010010160006800F010000590E5
:1032E0002A481438016841F001010160006869460C
:1032F00000F0010005904FF4C06000900220CDE97D
:10330000010403200390072004902148FFF7D4F81C
:10331000214D20484FF000672860C5E901744FF443
:103320008068C5E9034880156C61C5E906402C62D8
:1033300028466C62FFF71EF808B1FEF7EEFEF56353
:10334000AE63154D134860357830E5E8020740203C
:10335000A5E81101104845F814496030AC61EC61F2
:103360002C626C62FFF706F808B1FEF7D6FEB56373
:10337000002205212520AE63FFF726FA2520FFF75E
:1033800015FA06B0BDE8F081001001404438024053
:103390000000024040640240E400002090F8423007
:1033A000202B01D00220704721B11AB10023036302
:1033B00000F0A4BB01207047704770472DE9F84327
:1033C000044690F84100984616460D46202802D043
:1033D0000220BDE8F88385B17EB100206064212021
:1033E00084F84100FFF758F9A6848146E684A06876
:1033F0002027B0F5805F02D003E00120E9E72069D3
:1034000010B12E4600250EE000260CE0802120465B
:1034100000F0C4FBA8B9C6B116F8010B21684860DA
:10342000E08C401EE084E08C4B464FF00002CDF86B
:1034300000800028EAD14FF04001204600F0AEFBAA
:1034400040B184F841700320C3E735F8020BC0F3A4
:103450000800E3E784F841700020BAE770B504463D
:1034600090F84100202801D0022070BD01B3FAB1CC
:103470002162A284E28400206064212384F8413028
:10348000A56B144BEB63A56B134B2B64A56B134B14
:10349000EB64A36B186520681346A56B021D2846D4
:1034A000FEF7D2FF30B110206064202084F8410084
:1034B000012070BD21686FF0400008602068143062
:1034C00050E8001F41F0800140E80012002AF5D1C9
:1034D000002070BD79380008BB3800088B37000821
:1034E00000680349884202D10249012008707047F0
:1034F00000100140940000207047FEE70D4808B519
:10350000016841F4800101600068002200F480003D
:10351000009005213A20FFF757F93A20FFF746F9C6
:10352000002205214620FFF74FF9BDE8084046205C
:10353000FFF73CB93038024010B5044A0021044876
:1035400000F0E4FB0349086010BD0000F8550008D6
:10355000C135000800000020094808B5016841F0A5
:1035600080010160016801F080010091016841F073
:1035700001010160006800F00100009008BD00003A
:10358000303802400C4810B50A4901604FF4E1316F
:103590004160002181600C22C160C0E90412816198
:1035A000C161FFF755FE002803D0BDE81040FEF7CB
:1035B000B4BD10BD001001409C000020FEE7FEE7F6
:1035C000A2B0FEF7E1FC0BA0FEF700FD4FF0FF34C8
:1035D00021466846FEF718FD0128F9D1BDF8801094
:1035E0006846FEF719FDBDF8801006A0FEF7FAFC4C
:1035F000EEE7000055534152543120726561647901
:103600000D0A000052583A202564206279746573CF
:103610000D0A000010B54FF0E020006901F000FE37
:10362000012803D0BDE8104001F00EBB10BD000022
:1036300030B593B030216846FCF7D2FF14210CA8B6
:10364000FCF7CEFF1C480025016841F08051016065
:10365000006800F0805011901848016841F4404122
:1036600001600068022400F44040119001200090A5
:10367000000401908001CDE906400C2008906020F4
:10368000CDE9090404200B906846FFF7DBF908B187
:1036900072B6FEE70CA90F2081E831004FF480508C
:1036A0000F90109003210CA8FFF7C0F8002801D05C
:1036B00072B6FEE713B030BD4038024000700040E3
:1036C0000248016841F470010160704788ED00E034
:1036D0000148FFF7D4BB0000A4010020F0B5026848
:1036E0001F4B204C204D214E4FF0804C984207D06C
:1036F000604505D0A04203D0A84201D0B04203D11A
:1037000022F070074A683A43984210D060450ED0C4
:10371000A0420CD0A8420AD0B04208D0144CA0421B
:1037200005D0144CA04202D0134CA04203D122F485
:103730004074CA6822434C6922F0800222438C689C
:10374000C4620C688462984201D10969016301680E
:1037500041F004010160012141610260F0BD0000FF
:10376000000001400004004000080040000C004040
:1037700000400140004401400048014010B5806B0A
:103780000021C185FFF722FC10BD70B5846B206855
:10379000406994F84110C0F3C0100025212904D1DC
:1037A00018B1E584204600F0B4F82068406994F828
:1037B0004210C0F38010222904D118B1E5852046BB
:1037C00000F080F8606C40F0100060642046FFF765
:1037D000FDFB70BD10B50146806B096809684FF0AC
:1037E0000002C9052ED4C28501680C3151E8003FA2
:1037F00023F4807341E80034002CF5D101681431C2
:1038000051E8003F23F0010341E80034002CF5D1DA
:103810000168143151E8003F23F0400341E80034CF
:10382000002CF5D1202180F84210016B012909D12B
:1038300001680C3151E8003F23F0100341E80034E7
:10384000002CF5D14263016B012902D0FFF7B4FDD2
:1038500010BD818DFFF7B9FB10BD10B5806B012144
:103860004163016B012902D0FFF7A7FD10BD818DD7
:103870004908FFF7AAFB10BD10B50146806B096827
:103880000968C90516D40021C1840168143151E8C2
:10389000002F22F0800241E80023002BF5D10168BF
:1038A0000C3151E8002F42F0400241E80023002B88
:1038B000F5D110BDFFF714FE10BD10B5806BFFF7FA
:1038C0001BFE10BD01680C3151E8002F22F49072EC
:1038D00041E80023002BF5D10168143151E8002F95
:1038E00022F0010241E80023002BF5D1016B0129F0
:1038F00009D101680C3151E8002F22F0100241E893
:103900000023002BF5D1202180F842100021016313
:10391000704701680C3151E8002F22F0C00241E8E5
:103920000023002BF5D1202180F84110704708B505
:1039300090F84210222901D0022008BD82684FF47D
:1039400080539A4201D1016921B1816A9A421BD008
:103950004AB10AE00268816A5268C2F308020A802A
:10396000816A891C08E0026972B10268526802F03B
:103970007F020A70816A491C8162C18D491E090457
:10398000090CC18503D01BE002685268F1E70168A9
:10399000CA6822F02002CA600168CA6822F48072F4
:1039A000CA6001684A6922F001024A61202180F858
:1039B000421000214163026B012A03D0FFF7FCFC97
:1039C000002008BD016301680C3151E8002F22F08E
:1039D000100241E80023002BF5D101680A68D206E5
:1039E00002D50A6849680091818DFFF7EEFAE7E792
:1039F00070B5044600680169E26821F44051114342
:103A000001612169A068E2690843616911430843C3
:103A10002168CA6849F20C639A430243CA6020686D
:103A20004169A26921F44071114341613149206823
:103A3000884202D03049884202D1FEF7C1FF01E03E
:103A4000FEF7AEFFE2690023192164253226B2F5A4
:103A5000004F626828D0A0FB0101930F9200FCF791
:103A6000C1FC0146B0FBF5F06FF01802504301EBCA
:103A7000800006EB0010B0FBF5F000F0F002B1FBA7
:103A8000F5F002EB0012B1FBF5F06FF018035843AC
:103A900001EB800006EB0010B0FBF5F000F00F002A
:103AA00021681044886070BDA0FB010192185B4141
:103AB000FCF798FC0146B0FBF5F00201B1FBF5F014
:103AC0006FF01803584301EB800006EBC000B0FB19
:103AD000F5F000F0F80002EB4002B1FBF5F05843BE
:103AE00001EB800006EBC000B0FBF5F000F0070032
:103AF000D6E70000001001400014014038B5816293
:103B000004468285002013466064222284F8422005
:103B1000E56B1F4AEA63E56B1E4A2A64E56B1E4AA1
:103B2000EA64E26B10650A462168E06B091DFEF746
:103B30008BFC30B110206064202084F8420001200A
:103B400038BD2068016840680090206948B120684D
:103B50000C3050E8001F41F4807140E80012002A48
:103B6000F5D12068143050E8001F41F0010140E811
:103B70000012002AF5D12068143050E8001F41F0EF
:103B8000400140E80012002AF5D1002038BD0000B5
:103B9000D53700085B3800088B3700082DE9F8435B
:103BA000984617460D460446089E24E0701C22D015
:103BB000FEF772FDA0EB0800B0421AD8CEB1206823
:103BC000C168490717D5802D15D0402D13D0016845
:103BD000C94309070FD401680025406800902046BA
:103BE000FFF770FE0820606484F840500120BDE8B3
:103BF000F8830320FBE72068006835EA000004D062
:103C00000020B842D2D00020F1E70120F9E7FEF70A
:103C100099B9FEE703B401984100009850EAC12029
:103C200018BF04204A0D18BF40F0010040F2FF7297
:103C3000B2EB515F08BF40F00200012808BF052029
:103C400002B070470907090E002804DB00F1E020EC
:103C500080F80014704700F00F0000F1E02080F8B9
:103C6000141D704730380A2801D201207047002007
:103C70007047FEF71FFDFFF7DBFCFFF76DFCFFF75A
:103C80003DFCFFF77FFC00F013F8FFF755FC00F058
:103C900021F8FEE710B5EFF3058111B16FF00504CF
:103CA00003E0002408B100F06FFE204610BD0000C4
:103CB000EFF3058010B16FF005007047044801680C
:103CC00011B14FF0FF3070470121016000207047B3
:103CD0006400002010B5EFF3058010B16FF005000F
:103CE00010BD08480168012902D04FF0FF3010BD17
:103CF000054A002182F8141D0221016000F0ACFE8B
:103D0000002010BD640000200BE000E02DE9FF4121
:103D10004FEA01034FF00005EFF30581039549BB1E
:103D200040B38027182100244AB3166806B13446F0
:103D300096691EB13146761E382E02D21679F607E4
:103D400003D0002004B0BDE8F081566906B1B70881
:103D5000D2F808C0BCF1000F0DD0D5685C2D18D387
:103D600012693AB136B18DE806103A46214601F0A3
:103D70002CFA03900DE0D6685EB912694AB903AA1D
:103D8000CDE90012BAB2214601F0F2F9012800D0C3
:103D900003950398D6E700002DE9F041134C0F4638
:103DA0000546E6682068001D00F0BAFC681C07D1D3
:103DB00037B12168BDE8F0410D48091D00F000BD94
:103DC00020683544B5424560216805D2A06BBDE846
:103DD000F041091D00F0DCBC606B091D00F0D8FC4F
:103DE000A06A854200D2A562BDE8F08114000020DF
:103DF000DC0600202DE9F041054600F0EDFC2D4CDD
:103E0000A068401CA06020682B4F10B1606930B3DF
:103E10002BE02560A068012827D1002606EB86004C
:103E200007EB800000F0A6FC761C382EF6D3234862
:103E300000F0A0FC2148143000F09CFC1F48283002
:103E400000F098FC1D483C3000F094FC1B485030BA
:103E500000F090FC194860631430A06305E020680E
:103E6000E96AC06A884200D82560606A401C6062C6
:103E70006864E86A2169884200D9206100EB80000B
:103E800007EB8000291D00F09BFC00F0C5FC606979
:103E900000280CD02068E96AC06A884207D2084925
:103EA0004FF080500860BFF34F8FBFF36F8FBDE8B6
:103EB000F0810000140000202C0200208C0600205D
:103EC00004ED00E038B500F087FC104C2068C8B95C
:103ED0000F4800F04FFC0E48143000F04BFC0C482B
:103EE000E060143020610A4B0020F03B009003F1A9
:103EF000500210210A2000F0DEFE206010B105A162
:103F000000F00CFDBDE8384000F086BC50000020F9
:103F1000E0070020546D72510000000030B4026CC4
:103F20000B46002A0BD0C1681144C1608468A142CD
:103F300001D30168C16030BC1846FCF704BB30BC3B
:103F400070472DE9F041856B174604460026026C48
:103F500082B1C7B1E068FCF7F6FAE168206C091A93
:103F6000E1602268914202D2A168081AE060022F43
:103F700016D017E02068A8B9A06801F0C9F9064674
:103F80000020A0600EE06068FCF7DDFA216C60683C
:103F900008446060A168884204D32068606001E042
:103FA00005B16D1E6D1CA5633046BDE8F08110B5EE
:103FB000044690F8590058B101280CD002280FD0BF
:103FC000502080F31188BFF34F8FBFF36F8FFEE750
:103FD000206B00F035FC2046BDE8104000F030BCFE
:103FE00010BD000010484FF47051420706D0C01DAC
:103FF0000D4920F00700411AC1F570510B4A00230A
:104000000144C2E900030839183A21F007011160A0
:104010004B600B600B1AC0E9001393604FF0004037
:104020005360506170470000C00E002080000020E7
:10403000144E154CA6F29C474FF08058DFF84C9078
:1040400012E000BF00F0C8FBF068C568281D00F052
:1040500067FBA068401EA0606068401E606000F0C2
:10406000DBFB2846FFF7A3FF60680028EAD1386829
:104070000128F9D9C9F80080BFF34F8FBFF36F8FC4
:10408000F2E70000C80600201400002004ED00E064
:1040900070B51D46049C51B1C4F80020C4E90F015D
:1040A0000121204600F03AFE84F84C5070BD246097
:1040B000F4E700002DE9F05F8846DDE90B94154632
:1040C000834691009A460A9EA522206BFCF780FA4F
:1040D0006FF00301206B01EB8501084420F0070716
:1040E000780707D0502080F31188BFF34F8FBFF3BC
:1040F0006F8FFEE70025B8F1000F0FD05FF00000D2
:10410000221818F8001082F8341018F8001011B1B5
:10411000401C1028F4D384F8435001E084F8345054
:10412000382E00D33726E662C4E91365201D00F05F
:104130002CFB04F1180000F028FB2461C6F13800C4
:104140006462A061656584F8585052465946384605
:1041500000F05AFA2060B9F1000F01D0C9F8004010
:10416000BDE8F09F30B5114900E011460A6882426F
:10417000FBD34B685C18844203D140681844486004
:10418000084643681C18944209D1084C183C24681E
:10419000A24209D052681A4442600A68126802605A
:1041A000814200D0086030BD0460F9E78000002043
:1041B00070B5002441600B4D0061914206D8D11AC0
:1041C0008269914206D2011D286907E09A4203D212
:1041D000994201D3012403E0011DE86800F0D8FAF8
:1041E000204670BD5000002010B5044600F0F4FADF
:1041F000A06B28B15FF0000400F00EFB204610BD5C
:104200000124F9E730B589B03C4D6EE004980028F0
:1042100006DADDE90601059A90470498002864DB78
:10422000069C606910B1201D00F07AFA03A800F026
:10423000D7F8024604980A2857D2DFE800F00505AF
:10424000052D334A05052D3394F8280040F0010070
:1042500084F828000599A069059B01442046FFF7D2
:10426000A7FF68B3216A2046884794F828004007D2
:104270003BD5002000900598A169002342181946FB
:10428000204601F04FF9D8B9502080F31188BFF3D0
:104290004F8FBFF36F8FFEE714F8280F20F0010057
:1042A000207022E094F8280040F0010084F82800F3
:1042B0000598A06128B1811813462046FFF778FFC2
:1042C00013E0502080F31188BFF34F8FBFF36F8F3F
:1042D000FEE794F82800810703D4204600F0B0FAE6
:1042E00003E020F0010084F82800002204A92868D7
:1042F00000F068FE002889D109B030BD50000020D0
:104300002DE9FC410F46054600F0EAFB01A800F04C
:1043100067F80446019818B101F072F8BDE8FC8115
:10432000254EAFB130690068D0B30027291B3A464B
:10433000306800F007FB01F063F80028EED11F4958
:104340004FF080500860BFF34F8FBFF36F8FE5E7EA
:10435000A542EBD801F054F8F0682746C068C4685D
:10436000201D00F0DDF994F82800410719D5A06957
:104370002B4641193A462046FFF71AFFA8B1002004
:104380000346014600902A46204601F0CBF860B96A
:10439000502080F31188BFF34F8FBFF36F8FFEE77C
:1043A00007E020F0010084F82800216A20468847B1
:1043B000B4E70127BAE700005000002004ED00E058
:1043C0000648416B096829B1416BC968C9684968E9
:1043D000816270474FF0FF31FAE7000014000020BF
:1043E00070B5054600F02AFF064E0446B0688442C8
:1043F00003D200F009F8012000E0002028602046E8
:10440000B46070BD50000020F8B5194D20E0C068C0
:10441000C4680668201D00F083F9216A2046884799
:1044200094F82800400713D5A0693044B04206D95B
:1044300024616060211DE86800F0AAF908E000200E
:104440000346014600903246204601F06BF838B131
:10445000E86801680029DAD12969C5E90310F8BDC7
:10446000502080F31188BFF34F8FBFF36F8FFEE7AB
:104470005000002008484068401C4FF0500080F376
:10448000118804D0BFF34F8FBFF36F8FFEE7BFF3E8
:104490004F8FBFF36F8FFEE788000020074CE06866
:1044A000016841B1C0680021D0F80000FFF728FF83
:1044B000FFF7A8FEF3E701210020F7E750000020F6
:1044C0002DE9F041044600F087F994F9455004F1D4
:1044D000240609E0606A48B1304600F059FF08B18F
:1044E00000F080FA6D1E6DB2002DF3DC4FF0FF3648
:1044F00084F8456000F090F900F06EF994F94450AA
:1045000004F1100709E0206948B1384600F040FF87
:1045100008B100F067FA6D1E6DB2002DF3DC84F86F
:104520004460BDE8F04100F077B900002DE9F041AA
:104530000546002700F0D4FA324E306808B9FFF77C
:1045400051FD706905424ED1C5B3083568070ED0DC
:1045500005F00700C0F108000544680707D05020A7
:1045600080F31188BFF34F8FBFF36F8FFEE72DB33A
:104570007068854237D82348183001460C6801E03E
:1045800020460C466168A94202D221680029F7D171
:1045900031688C4227D0076821680160606808375D
:1045A000411B10290FD96019420708D0502080F311
:1045B0001188BFF34F8FBFF36F8FFEE713E04160A9
:1045C0006560FFF7CFFD61687068401A7060B2687F
:1045D000904200D2B060706901430020C4E900013C
:1045E000F068401CF06000F00BFF780707D0502007
:1045F00080F31188BFF34F8FBFF36F8FFEE738460C
:10460000BDE8F0816800002010B5031F4FF08074F2
:104610001C601B1F21F001011960191F044B0B6066
:1046200014390A60091F6FF0020244380A6010BD95
:10463000754400082DE9F04782463648A2B001686B
:104640000A6849682191C06B00684068324CC0F527
:10465000807085B26088854259D084216846FBF716
:10466000BFFF60882D49854260884FF080080DD9D2
:10467000281A80B2ADF88000802802D94046ADF8F3
:10468000808082B260880144684633E0C0F5807063
:1046900086B2701980B2ADF88000E94680281FD933
:1046A000803880B2A8420ED22A1A014417464846E2
:1046B000FBF749FF07EB090032461849FBF743FFB8
:1046C000ADF8808018E0401B80B26288361A104432
:1046D000014432464846FBF736FFADF880600BE0F8
:1046E0006088324601444846FBF72DFF09EB06007F
:1046F0002A460A49FBF727FF6580BDF8800000289D
:1047000005D0002352466946606800F0FBFB22B0EA
:10471000BDE8F0879C00002094000020C04A0020E3
:10472000D0E9013201699A60D0E901235A604A68F0
:10473000824201D182684A60002202610868401EFC
:104740000860086870470000034B036003F15C00D9
:10475000086080201060704708080020044B036048
:1047600003F15C0008604FF4807010607047000037
:10477000640A002000F108014FF0FF32C0E9011285
:10478000C160016100210160704700210161704733
:1047900030B50B685A1C02D000F1080202E0026931
:1047A00004E02246546825689D42FAD953684B605C
:1047B00099608A60516008610168491C016030BDE0
:1047C00042684A6093688B609368596091600861A1
:1047D0000168491C01607047502080F31188BFF3C5
:1047E0004F8FBFF36F8F0A494868401C486001280B
:1047F0000CD10848006810F0FF0F07D0502080F35C
:104800001188BFF34F8FBFF36F8FFEE77047000033
:104810008800002004ED00E00849486828B1401EE7
:10482000486001D180F311887047502080F31188CF
:10483000BFF34F8FBFF36F8FFEE7000088000020AB
:1048400070B500282AD0164DA0F108046068696987
:10485000084207D1502080F31188BFF34F8FBFF378
:104860006F8FFEE722683AB1502080F31188BFF3C2
:104870004F8FBFF36F8FFEE78843606000F030F921
:1048800060686968084468602046FFF76BFC286927
:10489000401C2861BDE8704000F0B2BD70BD000052
:1048A000680000204FF0E02000210161816105498E
:1048B0004FF47A720968B1FBF2F1491E4161072198
:1048C000016170471000002010B5FBF767FD11492A
:1048D00010280ED300F1E02090F8F0030A789042FF
:1048E00007D2502080F31188BFF34F8FBFF36F8F33
:1048F000FEE709480068896800F4E060884207D94B
:10490000502080F31188BFF34F8FBFF36F8FFEE706
:1049100010BD0000880000200CED00E010B5084B31
:10492000002200BF53F832401CB1521C082AF9D3B0
:1049300010BD43F8321003EBC201486010BD000007
:10494000EC01002070B515460E460446FFF744FF03
:1049500094F944100020491C01D184F8440094F9D2
:104960004510491C01D184F84500FFF755FFA06BA5
:1049700028B92A46314604F1240000F051F82046B7
:10498000BDE87040FFF79CBD10B5020014D00F4881
:10499000006B38B1502080F31188BFF34F8FBFF305
:1049A0006F8FFEE700F09CF800211046FFF7F4F946
:1049B00000F026FD002807D105494FF0805008601F
:1049C000BFF34F8FBFF36F8F10BD000014000020A6
:1049D00004ED00E002490A6A0260C968416070475C
:1049E0001400002001490120C86170471400002014
:1049F00010B50C4650B1094909681831FFF7C8FED7
:104A00002046BDE810400121FFF7C6B9502080F3D1
:104A10001188BFF34F8FBFF36F8FFEE714000020A4
:104A200070B514460D4668B10A4909681831FFF798
:104A3000C7FE0CB14FF0FF3521462846BDE8704057
:104A4000FFF7AAB9502080F31188BFF34F8FBFF34F
:104A50006F8FFEE71400002030B587B00024039468
:104A600005AA04A903A80494FFF76EFEDDE903017B
:104A70000094CDE90110002315A11748059A00F014
:104A8000A4FB164D0028E8621FD000F01BFD012892
:104A900009D0401C19D1502080F31188BFF34F8FEB
:104AA000BFF36F8FFEE7502080F31188BFF34F8F65
:104AB000BFF36F8F4FF0FF30A86201206861EC6098
:104AC00007B0BDE8304000F045B807B030BD000089
:104AD00049444C450000000031400008140000200B
:104AE0000248016B491C016370470000140000205C
:104AF000164810B5016B11B10121C16110BD002133
:104B0000C1610169124A01E0B9B1491E01EB81039B
:104B100052F82330002BF7D001EB810302EB830224
:104B200002F1080453685B685360A34201D15B68DB
:104B30005360DA680260016110BD502080F3118873
:104B4000BFF34F8FBFF36F8FFEE70000140000200C
:104B50002C0200201CB537480168374A914207D122
:104B6000502080F31188BFF34F8FBFF36F8FFEE7A4
:104B700000683149491E884207D1502080F31188CE
:104B8000BFF34F8FBFF36F8FFEE72C49087801907A
:104B9000FF20087008788DF800009DF800009DF84F
:104BA000002000F0F000904207D0502080F31188E0
:104BB000BFF34F8FBFF36F8FFEE79DF80000204CCF
:104BC00000F0500020700720A06005E09DF8002054
:104BD00052008DF80020401E9DF800201206F5D4EA
:104BE000A060032807D0502080F31188BFF34F8FB7
:104BF000BFF36F8FFEE74FF44070A060019808701C
:104C00000C482030016841F470010160016841F0F6
:104C100070410160FFF746FE00206060FBF786FBF5
:104C20000848016841F040410160FBF76BFB002040
:104C30001CBD000000ED00E071C20F4100E400E087
:104C40008800002034EF00E010B5502080F3118878
:104C5000BFF34F8FBFF36F8F00F0F6FA18B104491E
:104C60004FF080500860002080F3118810BD0000D4
:104C700004ED00E0F8B517460E46050013D005FB1D
:104C800006F05030FFF752FC04000AD0002084F8F0
:104C9000460004F150023B46314628460094FFF797
:104CA000F7F92046F8BD502080F31188BFF34F8FED
:104CB000BFF36F8FFEE738B5049D18B153B1CAB189
:104CC00081B120E0502080F31188BFF34F8FBFF3F4
:104CD0006F8FFEE7502080F31188BFF34F8FBFF333
:104CE0006F8FFEE7502080F31188BFF34F8FBFF323
:104CF0006F8FFEE739B1502080F31188BFF34F8FDB
:104D0000BFF36F8FFEE750241C46012384F8463022
:104D10002B460094FFF7BCF9204638BD70B50D4610
:104D2000040025D0FFF758FDD4E90F20216802FBCD
:104D30000011A1600021A163216861600A46D4E9E5
:104D40000F01401E00FB0121E16021464FF0FF30C2
:104D500001F8440F487004F110008DB1FFF70AFD0F
:104D600004F12400FFF706FDFFF756FD012070BD9A
:104D7000502080F31188BFF34F8FBFF36F8FFEE792
:104D800021690029F0D000F003FB0028ECD0044991
:104D90004FF080500860BFF34F8FBFF36F8FE3E792
:104DA00004ED00E02DE9FF4782B01D468A464FF032
:104DB0000008040003D0BAF1000F08D011E0502021
:104DC00080F31188BFF34F8FBFF36F8FFEE7206C26
:104DD00038B1502080F31188BFF34F8FBFF36F8F2E
:104DE000FEE7022D0AD1E06B012807D0502080F3A6
:104DF0001188BFF34F8FBFF36F8FFEE700F010FAFB
:104E00003F4F4FF000094FF0805648B9049838B131
:104E1000502080F31188BFF34F8FBFF36F8FFEE7F1
:104E2000FFF7DAFCA06BE16B884207D3022D05D0B7
:104E30000498D0B1B8F1000F1AD01EE02A465146AE
:104E40002046FFF77EF8616A19B104F1240000F0F2
:104E50009FFA20B13E60BFF34F8FBFF36F8FFFF714
:104E6000DBFC012006B0BDE8F087FFF7D5FC22E0AF
:104E70006846FFF7AFFD4FF00108FFF7CDFCFFF7E5
:104E80002FFEFFF7A9FC94F94400401C01D184F8DF
:104E9000449094F94500401C01D184F84590FFF7F7
:104EA000BBFC04A9684600F029F930B12046FFF7A1
:104EB00007FB00F0A5FA0020D4E7FFF78DFCA06BFC
:104EC000E16B884213D1FFF7A7FC04F110000499AD
:104ED000FFF78EFD2046FFF7F3FA00F091FA002865
:104EE0009ED13E60BFF34F8FBFF36F8F98E7FFF700
:104EF00093FC2046FFF7E4FA00F082FA90E7000006
:104F000004ED00E02DE9F0471F4690468946040075
:104F100003D0B9F1000F08D011E0502080F31188C0
:104F2000BFF34F8FBFF36F8FFEE7206C38B1502077
:104F300080F31188BFF34F8FBFF36F8FFEE7022F0F
:104F40000AD1E06B012807D0502080F31188BFF30D
:104F50004F8FBFF36F8FFEE7FFF7B6FC5020EFF3E4
:104F6000118680F31188BFF34F8FBFF36F8FA06B53
:104F7000E16B884206D3022F04D0002086F311880B
:104F8000BDE8F08794F94550A06B3A464946204663
:104F9000FEF7D7FF681C04D06D1C84F84550012033
:104FA000ECE7606A0028FAD004F1240000F0F0F980
:104FB0000028F4D0B8F1000FF1D00121C8F800109A
:104FC000EDE700002DE9F747002683B08A4604008C
:104FD00003D0BAF1000F08D011E0502080F31188FF
:104FE000BFF34F8FBFF36F8FFEE7206C38B15020B7
:104FF00080F31188BFF34F8FBFF36F8FFEE700F090
:105000000FF9DFF8F4804FF000094FF0805748B9EE
:10501000059838B1502080F31188BFF34F8FBFF34C
:105020006F8FFEE7FFF7D8FBA56BC5B15146204651
:10503000FEF774FF6D1EA563206950B104F11000E6
:1050400000F0A6F928B1C8F80070BFF34F8FBFF386
:105050006F8FFFF7E1FB012006B0BDE8F0870598F0
:1050600008B11EB106E0FFF7D7FB27E06846FFF75F
:10507000B1FC0126FFF7D0FBFFF732FDFFF7ACFBD9
:1050800094F94400401C01D184F8449094F94500FF
:10509000401C01D184F84590FFF7BEFB05A9684686
:1050A00000F02CF8002820460AD0FFF709FA00F09B
:1050B000A7F92046FFF798F80028B3D00020CBE7E7
:1050C000FFF792F890B104F124000599FFF790FCE6
:1050D0002046FFF7F5F900F093F90028A2D1C8F8AF
:1050E0000070BFF34F8FBFF36F8F9BE72046FFF732
:1050F000E7F900F085F995E704ED00E02DE9F041CE
:105100000C46050011D0C4B1FFF766FB174BDA68F7
:105110006E682068911B471C17D02F681B6A9F423E
:1051200019D0964217D8012410E0502080F311883E
:10513000BFF34F8FBFF36F8FFEE7502080F31188CE
:10514000BFF34F8FBFF36F8FFEE70024FFF764FBC1
:105150002046BDE8F081884205D9401A20602846E3
:10516000FFF738FCF1E700202060DCE714000020A6
:105170002DE9FF5F8346DDE90E87994616468A468C
:105180009000FFF7D3F905001CD05C20FFF7CEF9A3
:10519000040014D00020256384F85900CDE90240B2
:1051A000CDE900874B46324651465846FEF782FF0E
:1051B0002046FEF71FFE012004B0BDE8F09F284600
:1051C000FFF73EFB4FF0FF30F6E7F0B585B0DDE9C5
:1051D0000B640A9DA6B1DCB15C270097266302260A
:1051E00084F85960002604AFCDE90246CDE90057A6
:1051F000FEF760FF2046FEF7FDFD049805B0F0BD08
:10520000502080F31188BFF34F8FBFF36F8FFEE7FD
:10521000502080F31188BFF34F8FBFF36F8FFEE7ED
:105220000548416919B1006B18B100207047012091
:105230007047022070470000140000200148C06839
:1052400070470000140000202DE9F0412E4C00278B
:10525000206B28B1A069401CA0613846BDE8F081F0
:10526000E668761CE66013D1606B006838B15020A8
:1052700080F31188BFF34F8FBFF36F8FFEE7606B32
:10528000A16B6163A063206A401C2062FFF798F85D
:10529000A06ADFF87880864209D3606B0068A0B10D
:1052A000606BC068C5686868864211D2A0622068D9
:1052B000C06A00EB800158F82100012800D90127BD
:1052C000E0690028C9D00127C7E74FF0FF30EDE7BC
:1052D000281DFFF725FAA86A18B105F11800FFF795
:1052E0001FFAE86A2169884200D9206100EB800139
:1052F00008EB8100291DFFF763FAE86A2168C96A93
:105300008842CAD30127C8E7140000202C020020DD
:1053100070B504004FF0000133D01B4D2868844263
:1053200007D0502080F31188BFF34F8FBFF36F8FEA
:10533000FEE7206D38B1401E2065E36CE26A9A42B8
:105340001FD040B11DE0502080F31188BFF34F8F74
:10535000BFF36F8FFEE7201DFFF7E2F9E06CE0621C
:10536000C0F13800A061E06A2969884200D928614B
:10537000064900EB800001EB8000211DFFF720FAB9
:105380000121084670BD0000140000202C020020FE
:1053900070B5C068C46854B104F118000646FFF740
:1053A000BFF9144D286B50B13146134815E0502019
:1053B00080F31188BFF34F8FBFF36F8FFEE7201D7F
:1053C000FFF7AEF9E06A2969884200D928610B49E4
:1053D00000EB800001EB8000211DFFF7F1F9E06A8E
:1053E0002968C96A884202D90120E86170BD00209D
:1053F00070BD000014000020B40600202C02002024
:105400002DE9F0472C4D00242746286B38B1FFF7D3
:10541000E3F9286B401E2863286B40B146E050201A
:1054200080F31188BFF34F8FBFF36F8FFEE7A9683A
:10543000224E0120D1B3A6F5916980463068E0B1D3
:10544000F068C46804F11800FFF76AF9201DFFF73F
:1054500067F9E06A2969884200D9286100EB800178
:1054600009EB8100211DFFF7ABF9E06A2968C96AE1
:105470008842E3D3C5F81C80E0E70CB1FEF7A0FF3B
:10548000AC694CB14FEA0806FFF7DEFE00B1EE61F1
:10549000641EF9D10020A861E86938B108490127E4
:1054A00038070860BFF34F8FBFF36F8FFFF7B4F972
:1054B0003846BDE8F087000014000020B406002044
:1054C00004ED00E010B586B0FEF7FCFC114C20683E
:1054D000B8B100200390049005AA04A903A8FFF71F
:1054E0003DF9DDE9032102208DE8070000230AA130
:1054F0000B48059AFFF769FE606010B106B0012005
:1055000010BD502080F31188BFF34F8FBFF36F8F12
:10551000FEE7000050000020546D722053766300B7
:105520009D4400082DE9FF411E46134602000A9DD6
:105530004FF0000016D0144C2768002F0FD0CDE993
:1055400000130292062917DAFFF76AFE02284FF0CD
:1055500000030FD0002269462068FFF723FC04B047
:10556000BDE8F081502080F31188BFF34F8FBFF367
:105570006F8FFEE72A46EEE700233246694638463B
:10558000FFF7C0FCEBE700005000002010B5002939
:105590000AD00878002807D005487844FCF7C2F8FC
:1055A000002801D0002010BD0248784410BD000042
:1055B000CA010000C201000010B500290AD0087815
:1055C000002807D005487844FCF7ACF8002801D043
:1055D000002010BD0248784410BD0000BA01000050
:1055E000B20100004FF04070E1EE100A7047FBF787
:1055F000A6BCFBF7DBBD0000385700080000000028
:105600000000000000000000000000000002000098
:105610001800000000000000000000000006101646
:105620000006101600000000000000000102030444
:105630000607080900000000010203040000000042
:1056400000000000303132333435363738394142CA
:1056500043444546403058003031323334353637D4
:105660003839616263646566403078000400000880
:105670000000000000000002000100001030313284
:105680003334353637383961626364656678700063
:105690003031323334353637383941424344454668
:1056A0005850000002400000000000A00000000070
:1056B00005400000000000C8000000000C40000091
:1056C0000000409C00000000194000000020BCBE0B
:1056D0000000000034400000BFC91B8E0000000421
:1056E000B5400000504BCFD06607E2CF010000006C
:1056F0006C4100003E8251AADFEEA7340100000099
:10570000D9420000DCB5A0E23A301F97FFFFFFFF4F
:10571000B4450000FD25A0C8E9A3C14FFFFFFFFF6E
:10572000FF3F00000000008000000000FF3F00007D
:10573000000000800000000064656661756C7454B0
:1057400061736B0090580008000000209C0000006E
:10575000D40100082C5900089C000020845100004E
:10576000F00100081C00000043000000F8FFFFFFEC
:105770000C0000000E0000000F0000002E000000D2
:105780001001000043000000F8FFFFFF0040404010
:105790004040404040404141414141404040404004
:1057A00040404040404040404040404040050202B0
:1057B000020202020202020202020202022020206F
:1057C00020202020202020020202020202029090CB
:1057D00090909090101010101010101010101010C9
:1057E000101010101010101002020202020288881D
:1057F0008888888808080808080808080808080829
:105800000808080808080808020202024000000010
:105810000000000000000000000000000000000088
:105820000000000000000000000000000000000078
:105830000000000000000000000000000000000068
:105840000000000000000000000000000000000058
:105850000000000000000000000000000000000048
:105860000000000000000000000000000000000038
:105870000000000000000000000000000000000028
:105880000000000000000000000000000000000018
:1058900000000000010000001000000000000000F7
:1058A0000024F400000000000000000000000000E0
:1058B00000000000000000000000000000000000E8
:1058C00000000000000000000000000000000000D8
:1058D00000000000000000000000000000000000C8
:1058E00000000000000000000000000000000000B8
:1058F00000000000000000000000000000000000A8
:105900000000000000000000000000000000000097
:10591000000000000000000000000000AAAAAAAADF
:0C5920000000000001000000000000007A
:040000050800019955
:00000001FF
