:020000040800F2
:1000000000B10220A5030008834000086B3E0008F1
:100010007F400008390D0008E54600080000000098
:10002000000000000000000000000000B102000815
:100030003D0D0008000000000D030008E14000082D
:10004000BF030008BF030008BF030008BF03000888
:10005000BF030008BF030008BF030008BF03000878
:10006000BF030008BF030008BF030008BF03000868
:10007000BF030008BF030008BF030008BF03000858
:10008000BF030008BF030008BF030008BF03000848
:10009000BF030008BF030008BF030008BF03000838
:1000A000BF030008BF030008BF030008BF03000828
:1000B000BF030008BF03000809410008BF03000890
:1000C000BF030008BF030008BF030008BF03000808
:1000D000BF03000895460008BF030008BF030008DF
:1000E000BF030008BF030008BF030008BF030008E8
:1000F000BF030008BF030008BF030008BF030008D8
:10010000BF030008BF030008BF030008BF030008C7
:10011000BF030008BF030008BF030008BF030008B7
:10012000BF030008BF030008BF030008BF030008A7
:10013000BF0300084D0E0008BF030008BF030008FE
:10014000BF030008BF030008BF030008BF03000887
:10015000BF030008BF030008BF030008BF03000877
:10016000BF030008BF030008BF030008BF03000867
:10017000BF030008BF030008BF0300080000000021
:10018000BF030008BF030008BF030008BF03000847
:10019000BF030008BF030008BF030008BF03000837
:1001A000BF030008BF030008BF03000800F002F807
:1001B00000F06FF80AA090E8000C82448344AAF192
:1001C0000107DA4501D100F064F8AFF2090EBAE890
:1001D0000F0013F0010F18BFFB1A43F0010318477B
:1001E000F4520200145302000A444FF0000C10F8BD
:1001F000013B13F0070408BF10F8014B1D1108BFA5
:1002000010F8015B641E05D010F8016B641E01F844
:10021000016BF9D113F0080F1EBF10F8014BAD1C94
:100220000C1B09D16D1E58BF01F801CBFAD505E0B2
:1002300014F8016B01F8016B6D1EF9D59142D6D30C
:10024000704700000023002400250026103A28BF34
:1002500078C1FBD8520728BF30C148BF0B60704738
:10026000642900F0A781752900F0A481782900F0A5
:10027000DD81632900F0CD84732900F0D284002051
:1002800070471FB520F046F800F0D5FA1FBD10B535
:1002900010BD00F023FD1146FFF7F3FF10F062FAE6
:1002A00000F041FD03B4FFF7F2FF03BC04F03FFA96
:1002B0002C4B19680868B0E8F04F80F30988BFF349
:1002C0006F8F4FF0000080F311887047000000002E
:1002D00008480068006880F308884FF0000080F349
:1002E000148862B661B6BFF34F8FBFF36F8F00DF24
:1002F00000BF00BF08ED00E0DFF80C00016841F42A
:1003000070010160704700BF88ED00E0EFF30980E5
:10031000BFF36F8F134B1A681EF0100F08BF20ED4C
:10032000108A20E9F04F106009B44FF0500080F3BC
:100330001188BFF34F8FBFF36F8F1EF091FC4FF00A
:10034000000080F3118809BC19680868B0E8F04F14
:100350001EF0100F08BFB0EC108A80F30988BFF3BD
:100360006F8F70478C030020EFF30580704700000B
:100370000B49D1F800C04A685CF8043B1068184487
:1003800042F8040B8C4528BFA1F1DC0C8A4228BF3F
:10039000A1F1DC02C1F800C04A6020F000407047C3
:1003A00098A602200948804709480047FEE7FEE773
:1003B000FEE7FEE7FEE7FEE7FEE7FEE7FEE7FEE715
:1003C00004480549054A064B70470000F5400008FF
:1003D000AD01000800A7022000B1022000A9022000
:1003E00000A90220704753EA020C00F069802DE951
:1003F000F04B4FF00006002B1FBFB3FA83F503FA52
:1004000005F424FA05F65E4012BF1643B2FA82F5EF
:1004100002FA05F4C5F120051EBF22FA05FC44EAE4
:100420000C04203556EA044C4FEA144418BF641CEF
:100430004FF000084FF00009904271EB030C39D3E4
:10044000002919BFB1FA81F701FA07F6B0FA80F76F
:1004500000FA07F6C7F120071EBF20FA07FC46EA9C
:100460000C062037B6FBF4FCA7EB0507103F07F09E
:100470001F0BCBF120060CFA0BFB2CFA06F644BF3F
:10048000B3460026202FA4BF5E464FF0000B5BEA68
:10049000060C08BF4FF0010B19EB0B09ABFB027CFC
:1004A00048EB0608C01B06FB02CC0BFB03CC71EB30
:1004B0000C01C1E70B46024641464846BDE8F08BB9
:1004C00013B54FF000004FF00001AFF30080BDE81E
:1004D0001C4070470FB4044910B503AA029800F0FD
:1004E000A5FB10BC5DF814FB140000200FB41CB574
:1004F000074B06AA7B4469460090059800F067FB0D
:100500000020694600F076FB1CBC5DF814FB00007F
:10051000FD06000070B5044685690068C10601D576
:10052000302600E02026C00707D070BDD4E90121A5
:1005300030469047206A401C20626D1EF6D570BD83
:1005400070B5044685690078C00707D170BDD4E94D
:10055000012120209047206A401C20626D1EF6D5A4
:1005600070BD70B50C460546012A05D02878800676
:1005700000D5EA69002302E0012305E05B1C9342F9
:1005800002D2E05C0028F9D1A869E618C01AA86177
:10059000286A184428622846FFF7BCFF04E0D5E922
:1005A000012114F8010B9047B442F8D32846FFF715
:1005B000C7FF70BD2DE9F04106460024106875297B
:1005C000314616A510D0AFF30080002802DA404271
:1005D00013A507E031688A0701D512A502E0490793
:1005E00004D511A5012401E0AFF3008000210A2207
:1005F00006F1240709E0B0FBF2FCB0FBF2F302FBCA
:100600001C00303078541846491C0028F3D123468A
:100610002A463046BDE8F04100F07BBA00000000F9
:100620002D0000002B0000002000000070B50446E3
:100630000D4621461068AFF300802188090502D5D8
:100640000F4A7A4402E00E4A7A440E32002104F145
:10065000240305E000F00F060009965D5E54491C76
:100660000028F7D120780023000704D5702D02D090
:1006700009B1022311322046BDE8704000F049BAAA
:100680002C4602002DE9F05F894604464FF0000A2F
:10069000DFF874B1FB44C0F820A02046E168884729
:1006A000002874D0252806D0D4E901219047206A7B
:1006B000401C2062F1E700265F462046E16888473B
:1006C0002028054607DB312D05D2781910F8200CBB
:1006D00008B10643F1E7B00701D526F00406C4F8D7
:1006E0001CA00027C4F818A02A2D09D0284604F021
:1006F00017F838B304EB8708303DC8F8185019E0F4
:1007000059F8041B204604EB87029161E168884791
:10071000012F054618D1E069002820DA26F02006CE
:100720001DE0D8F8180000EB800005EB40003038E1
:10073000C8F818002046E1688847054603F0F0FF36
:100740000028EED1012F0AD02E2D08D12046E168D5
:1007500088477F1C0546022F46F02006C4DBA069AF
:10076000002803DA404246F00106A061F00701D0FC
:1007700026F010066C2D0BD0682D09D04C2D39D0E9
:100780006A2D35D0742D35D07A2D33D016E038E06F
:10079000E1682F4620468847B842054609D16C2FAC
:1007A00026D04FF48060E16806432046884705461E
:1007B00004E06C2F1AD04FF4807006430DB3A5F1FE
:1007C0004100192802D8203546F400664A462946D9
:1007D000204626604E46FFF743FD80B101280BD02E
:1007E000F61D26F0070000F1080956E74020E4E76F
:1007F0008020D8E70020D6E706F104094DE7284617
:1008000052E7206ABDE8F09F024602000B4910B58E
:10081000A1F17C020A4CC2E93712372106E000EB55
:10082000104342F82130074B00FB03400B1EA1F19F
:100830000101F4DC10BD0120E8E7000038A6022029
:10084000E119D666CD0D010040EA010310B59B0702
:100850000FD1042A0DD310C808C9121F9C42F8D02A
:1008600020BA19BA884201D9012010BD4FF0FF30DB
:1008700010BD1AB1D30703D0521C07E0002010BDF1
:1008800010F8013B11F8014B1B1B07D110F8013B7D
:1008900011F8014B1B1B01D1921EF1D1184610BD5E
:1008A00010B5431C02E010F8011B71B18107FAD1A9
:1008B0004FF0013202C88C1A8C4314EAC211F9D0ED
:1008C000C01A0A0603D0C01E10BDC01A10BD0A040B
:1008D00001D0801E10BD0902FCD0401E10BD421E7A
:1008E00012F8013F002BFBD111F8013B002B02F85D
:1008F000013BF9D17047032A40F2308010F0030C1D
:1009000000F0158011F8013BBCF1020F624498BF62
:1009100011F801CB00F8013B38BF11F8013BA2F1FF
:10092000040298BF00F801CB38BF00F8013B11F07A
:10093000030300F06780083AC0F0088051F8043BD8
:10094000083A51F804CBA0E80810F5E7121D5CBF87
:1009500051F8043B40F8043BAFF30080D20724BFBA
:1009600011F8013B11F801CB48BF11F8012B24BF4E
:1009700000F8013B00F801CB48BF00F8012B70479D
:10098000431A28BF9A427FF6B6AF032A1044114497
:1009900040F2268010F0030F1EBF11F8013D521ED9
:1009A00000F8013D10F0030F7FF4F6AF11F00303E0
:1009B00000F06181083AC0F00B8051F8043D083A1C
:1009C00051F804CD40F8043D40F804CDFFF7F3BFE3
:1009D000121D5CBF51F8043D40F8043DAFF30080A8
:1009E000D20724BF11F8013D11F801CD48BF11F81D
:1009F000012C24BF00F8013D00F801CD48BF00F8EC
:100A0000012C704710B5203AC0F00B80B1E81850A7
:100A1000203AA0E81850B1E81850A0E81850BFF4E8
:100A2000F5AF5FEA027C24BFB1E81850A0E8185087
:100A300044BF18C918C0BDE810405FEA827C24BFDB
:100A400051F8043B40F8043B08BF7047D20728BF69
:100A500031F8023B48BF11F8012B28BF20F8023BB8
:100A600048BF00F8012B704702F0FF0343EA03225E
:100A700042EA024200F002B84FF000020429C0F03E
:100A8000128010F0030C00F01B80CCF1040CBCF1C0
:100A9000020F18BF00F8012BA8BF20F8022BA1EB12
:100AA0000C0100F00DB85FEAC17C24BF00F8012BF7
:100AB00000F8012B48BF00F8012B70474FF00002EF
:100AC00000B5134694469646203922BFA0E80C5044
:100AD000A0E80C50B1F12001BFF4F7AF090728BF1F
:100AE000A0E80C5048BF0CC05DF804EB890028BF9B
:100AF00040F8042B08BF704748BF20F8022B11F0C4
:100B0000804F18BF00F8012B70477047704770473F
:100B100070472DE9F0470D4699469246044600F18C
:100B200024080168880604D5E06921F010012160DD
:100B300000E00120A84201DD471B00E00027A16979
:100B40007A1902EB0900081AA0612078C00602D4C5
:100B50002046FFF7DFFC002608E0D4E901211AF85F
:100B600006009047206A401C761C20624E45F4DB4C
:100B70002078C0060AD52046FFF7CCFC06E0D4E971
:100B8000012130209047206A401C2062381EA7F1C6
:100B90000107F4DC07E0D4E9012118F805009047CB
:100BA000206A401C2062281EA5F10105F3DC2046C6
:100BB000FFF7C6FC2078000602D50220BDE8F087CA
:100BC0000120FBE701694A1C02610878704700B503
:100BD0008FB0CDE901310021059105497944CDE976
:100BE000031011466846FFF74DFD0FB000BD000031
:100BF000E5FFFFFF0A6802F8010B0A60704710B5B5
:100C0000436913B1AFF3008001E0FFF7AAFC0120B4
:100C100010BD127800F124010A7000224A700122EE
:100C2000EDE711684FF0FF32E9E70000074B70B5C0
:100C30000D467B44FFF7CBFF0446284600F04AF8F8
:100C400010B14FF0FF3070BD204670BD0775000039
:100C5000431A28BF9A427FF6D5AE104410F0030F16
:100C600011441EBF11F8013D521E00F8013D10F065
:100C7000030F7FF4F6AF103AC0F00A8010B531E9E7
:100C80001850103A20E91850BFF4F9AFBDE81040F1
:100C9000530724BF31E9081020E9081044BF51F878
:100CA000043D40F8043D12F0030F08BF7047D2071F
:100CB00028BF31F8023D48BF11F8012C28BF20F8A9
:100CC000023D48BF00F8012C704700000048704703
:100CD000A0A60220007B00F0800070477546FFF759
:100CE000F5FFAE4605006946534620F007008546ED
:100CF00018B020B5FFF764FBBDE820404FF00006B8
:100D00004FF000074FF000084FF0000B21F00701F3
:100D1000AC46ACE8C009ACE8C009ACE8C009ACE836
:100D2000C0098D46704710B50446AFF300802046D9
:100D3000BDE81040FFF7B6BA00BFFEE7704710B538
:100D40000146002226E002EB82040B6903EBC4009B
:100D50000023036043608360C360036243624FF01B
:100D60000043036044F2F8534360436823F00043B8
:100D7000436001F1480343F82200032A07D202EB43
:100D800082040B6903EBC4032833C36001E00B69E1
:100D9000C360521C042AD6D30024CC650C668C6632
:100DA000CC668C650B6803F580530C69DC6010BD64
:100DB00010B50146002222E002EB8204CB6803EB6F
:100DC000C4000023036043608360C36001F1180323
:100DD00043F82200036843F480130360032A07D218
:100DE00002EB8204CB6803EBC4032833C36001E049
:100DF000CB68C360036843F440030360521C042AB9
:100E0000DAD300248C620B6803F58053CC681C6134
:100E100010BD38B5044600200090206800F58050D1
:100E2000806940F48011206800F58050816120685D
:100E300000F5805080690090012000F067FC009967
:100E4000206800F58050816138BD000010B502486F
:100E500000F010FD10BD0000B406002030B50346C0
:100E60001479557944EA0520084C0C442064D47860
:100E70002406957844EA0544557844EA0524157813
:100E800044EA0500014C0C44606430BD008002401F
:100E900010B5A4B0044601208DF83C008DF83D004B
:100EA00000200D908DF84B0001208DF84A000020A5
:100EB0008DF8480001208DF8300000208DF84C009E
:100EC0008DF83B0014908DF854001D908DF878003B
:100ED0001F908DF882008DF880004FF480401090B4
:100EE000C010119000208DF85C000BA9204600F086
:100EF00095F901208DF80C008DF80D008DF81D007E
:100F00008DF80E00002005908DF81C008DF81E0055
:100F1000089001208DF824008DF804000004029050
:100F2000800106904012049001208DF825000020D9
:100F30000A9000906946204600F010F924B010BDD8
:100F40000020704710B501F0F3FA10BD10B502484B
:100F500001F046F8002010BDB406002070B504462C
:100F60000D46164633462A462146044800F058FFEF
:100F700010B14FF0FF3070BD0020FCE7B406002038
:100F800070B504460D46164633462A4621460448A7
:100F900001F073F910B14FF0FF3070BD0020FCE795
:100FA000B40600202DE9F04F80460C46164608F1A5
:100FB00018031A69D3F810904FF0000C53F8221060
:100FC000A568E246086800F00040B0F1004F04D088
:100FD00003F1140050F8220010B10220BDE8F08F98
:100FE0000CF1010C2868886048686FF30C00D5F894
:100FF00004B040EA0B004860207800F0010038B1EE
:10100000086820F44000D4F814B040EA0B000860EF
:10101000207800F0200038B1086820F04060D4F853
:1010200010B040EA0B000860207800F0040018B10E
:10103000086840F080000860086840F08050086050
:1010400000BF00BF00BFBFF35F8F00BF00BF00BF86
:10105000086840F0004008605DE0086820F000503B
:10106000086026B1086840F08040086003E0086826
:1010700020F08040086000BF521C042A00D3121FD9
:1010800000BF53F82210086820F0805008600868FC
:1010900000F00040B0F1004F04D003F1140050F80C
:1010A0002200E8B14A4653F82210002714E000BF9E
:1010B00000BF00BFBFF35F8F00BF00BF00BF086865
:1010C00020F00040086000BF521C042A00D3121F09
:1010D00000BF53F822107F1C6745E8D302207DE74C
:1010E0000CF1010CAD682868886048686FF30C004B
:1010F000D5F804B040EA0B0048600AF1010A00BFCD
:1011000000BF00BFBFF35F8F00BF00BF00BF086814
:1011100040F000400860A86800289ED126B1086809
:1011200040F08040086003E0086820F080400860DC
:10113000086840F00050086003F11400D3F824B0B0
:1011400040F822B01A6172B60AF10100D3F828B053
:101150005844986262B6002040E7000070B505462A
:101160000C46286800F5805086692B480640207B95
:1011700008B9012000E000208006617B40EA416060
:10118000617F09B9012100E0002140EA0150A17B03
:1011900040EA415061690843217F40EAC110A17FC4
:1011A00040EA8110216A084394F8241040EA810043
:1011B0000643286800F580508661286800F5805055
:1011C0008669012000F0A2FA286800F58050866147
:1011D0002179A06840EA4160A16908432169084378
:1011E00094F8251040EAC110A16A40EA8100216804
:1011F000084340F40001286800F580500160286829
:1012000000F580500668012000F080FA286800F59B
:101210008050066070BD0000233FDEF870B50546C3
:101220000C462868066830480640207C08B9012032
:1012300000E00020C005617C09B9012100E0002127
:1012400040EA8150A1680843E17F40EA01406169BA
:101250000843A17F09B9012100E0002140EA4130A3
:10126000217F40EA0130A1690843217940EA8120C9
:1012700094F8201009B9012100E0002140EA412042
:10128000E17B40EAC110616A084394F8281040EA03
:10129000011006432868066028680668012000F0EF
:1012A00035FA28680660286886694FF6417006405E
:1012B00094F84C00B4F8481040EA0140216D08430E
:1012C00094F83010084394F85610084394F85410DA
:1012D000084306432868866128688669012000F073
:1012E00015FA2868866170BD0F8120FF2DE9F8434B
:1012F0000446002000904FF00108A56E04F148005C
:1013000050F82560E76E2EE0306A58B9684600F064
:10131000F9FD009810B94FF0000803E00098306222
:101320000098B060B8F1000F1DD000BF00BF00BF33
:10133000BFF35F8F00BF00BF00BF4FF000403060C1
:10134000A06D10B91048706002E044F2E83070609F
:1013500000BF6D1C042D00D32D1F00BF04F14800F9
:1013600050F825607F1E17B1B8F1000FCCD1E06EA8
:10137000B84206D00021206800F580508160A56643
:10138000E766BDE8F8830000E843008070B50446D6
:10139000B3F5804F13D1D1E9000540EA05108D68FF
:1013A00040EA05208D6928438D8940EA054054F8BC
:1013B0002250064E3540284344F8220003E06FF0E7
:1013C000704044F82200002070BD00000000F0CF03
:1013D00070B50246086852F8200020F001000E683F
:1013E00042F826008868082801D1402500E0002541
:1013F000486828438E683043CE6830430E693043D6
:101400004E693043CE6930430E6A30434E6A3043F2
:101410008E6A3043CE6A30430E6B40EA0603886919
:101420000343486B0343C86B03430E4C44F480648E
:1014300044F4801444F4E024086852F82000A043E7
:1014400018430E6842F82600486BB0F5801F07D19C
:10145000086828B1106820F480104E6B304310608B
:10146000002070BD7FFB080030B50346D1E90005C0
:1014700040EA05108D6840EA05208D8940EA05455F
:10148000088A401E45EA0055087D801E45EA006036
:101490008D692843551C53F8255005F040452843D5
:1014A000551C43F82500186800F48010B0F5801F23
:1014B0000BD1586820F47004088A401E44EA005496
:1014C000586820F4700020435860002030BD024668
:1014D0000868B0B9D1E901031843CB6818430B6918
:1014E00018434B6918438B691843CB6918430B6A3F
:1014F00018434B6A184313686FF30E0318431060C8
:1015000019E0D1E9070318434B6A1843136823F421
:10151000F84318431060D1E901031843CB6818431E
:101520000B6918434B6918438B69184353686FF371
:101530000E0318435060002070470246506943F67E
:10154000FE73984340EA41005061002070472DE946
:10155000F04105460C4616460027D4E90001084331
:10156000A168491E40EA4110E16840EA412029692A
:101570006FF315010843286100F0DAFF07460AE01F
:10158000701C40B126B100F0D3FFC01BB04202D99D
:101590000320BDE8F081A86900F020002028EFD0EA
:1015A0000020F6E730B50346FAB90868401E4C68DB
:1015B000641E40EA04148868401E44EA0024C86897
:1015C000401E44EA0034088A401E44EA0044888AE7
:1015D000401E44EA0054087E401E44EA00609C68B5
:1015E00004F070442043986022E0C868401E040361
:1015F000888A401E44EA00509C680E4D2C402043CF
:1016000098600868401E4C68641E40EA04148868AC
:10161000401E44EA0024088A401E44EA0044087E32
:10162000401E44EA0060DC6804F070442043D86047
:10163000002030BDFF0F0FFF70B50446A56D00F010
:1016400077FF064694F83500022808D080206065B0
:1016500000BF002084F8340000BF012070BD206866
:10166000006820F01600216808602068406920F0BA
:10167000800021684861206C08B9A06C28B12068FE
:10168000006820F00800216808602068006820F0E9
:1016900001002168086010E000F04AFF801B052867
:1016A0000BD920206065032084F8350000BF00209E
:1016B00084F8340000BF0320D0E72068006800F001
:1016C00001000028E8D194F85C103F208840A86011
:1016D000012084F8350000BF002084F8340000BFEA
:1016E00000BFBBE7014691F83500022803D08020F7
:1016F000486501207047052081F8350008680068BA
:1017000020F001000A6810600020F3E770B504467D
:1017100000F00EFF06462546681C10B1044800780C
:10172000054400BF00F004FF801BA842FAD370BD3F
:101730002800002038B50446204600F01FF800F0CD
:101740008000802815D10020009069460948006873
:101750001DF09EFD01280BD100BF009838B14FF05D
:10176000805005490860BFF34F8FBFF36F8F00BFF4
:1017700000BF38BD6403002004ED00E00146D1F84D
:101780008C007047024609B9012070471068006854
:10179000C0F3001081F828001068006800F06000B5
:1017A000486210680068C0F3402080F0010081F8B2
:1017B000200010680068C0F30040C8771068006817
:1017C000C0F3403080F00100887710680068C0F3F3
:1017D000003008771068006800F4006088611068C5
:1017E000006800F48040486110680068C0F38050D1
:1017F00080F00100487410680068C0F3C05080F0A9
:101800000100087410680068C0F3C010C873106845
:10181000006800F46020886010680068002008718B
:1018200010688069C0F3400081F854001068806936
:10183000C0F3C01080F0010081F84C00106880698E
:1018400000F03000086510688069000C886410683A
:101850008069C0F3800081F856001068806900F04C
:101860000800400808B1012000E0002081F8550080
:1018700000208AE710B50446206800F580504069D2
:1018800000F0400040280FD1206800F58050C0696A
:1018900000F04000402807D14249206800F5805000
:1018A0004161204600F052FB206800F580504069FD
:1018B00000F0010078B1206800F58050C06900F0A8
:1018C000010040B14FF00111206800F580504161E6
:1018D000204600F0AFFC206800F58050406900F41D
:1018E0000040B0F5004F3DD1206800F58050C06940
:1018F00000F40040B0F5004F34D1D4F8880040F037
:101900000800C4F88800206800F58050406900F4A1
:101910000050B0F5005F15D1206800F58050406997
:1019200021490840C4F88C00206800F58050C06947
:1019300020F4C031206800F58050C161E020C4F877
:1019400084000CE0206800F58050406948F2806116
:101950000840C4F88C00206800F5805041612046A2
:10196000FFF7E8FE2068806B00F0080008280BD124
:101970002068C06A00F06000C4F89400204600F0BF
:10198000CDF90020C4F894000848006800F4002055
:1019900030B14FF4002005490860204600F06CFC8F
:1019A00010BD00004000010000207E00143C0140FA
:1019B00038B504460CB9012038BDD4F8840028B9E4
:1019C0002320C4F88400204600F05CF800BF00200B
:1019D00000902A48006840F4804028490860084682
:1019E000006800F48040009000BF00BF24480068F9
:1019F00020F400002249086008460068A1680843F6
:101A00001F49086008460068206800F5805000689B
:101A100040F00101206800F58050016000F088FD71
:101A200005460DE000F084FD401BB0F5FA7F07D9B4
:101A30000420C4F88800E020C4F884000120BBE73B
:101A4000206800F58050006800F001000028E9D10E
:101A50002046FFF71DFA2046FFF7AAF92046FFF7B8
:101A60006EF9002120466268FFF7F8F90020C4F8FB
:101A700088001020C4F8840000209DE7443802400C
:101A80000438014010B588B0044600BF00BF0020F4
:101A900001909C48006840F001009A49086008469F
:101AA000006800F00100019000BF00BF00BF00BF50
:101AB00000BF002001900846006840F00100086067
:101AC0000846006800F00100019000BF00BF00BFA1
:101AD00000BF00BF002001900846006840F00100F0
:101AE00008600846006800F00100019000BF00BFD8
:101AF00000BF00BF00BF002001900846006840F012
:101B0000040008600846006800F00400019000BF6F
:101B100000BF00BF00BF00BF002001900846006862
:101B200040F0040008600846006800F004000190DE
:101B300000BF00BF00BF00BF00BF002001900846EB
:101B4000006840F0040008600846006800F00400E7
:101B5000019000BF00BF00BF00BF00BF0020019088
:101B60000846006840F0400008600846006800F041
:101B70004000019000BF00BF00BF00BF00BF0020B9
:101B800001900846006840F0400008600846006880
:101B900000F04000019000BF00BF00BF00BF00BFC9
:101BA000002001900846006840F0400008600846A8
:101BB000006800F04000019000BF00BF00BF00BF00
:101BC00000BF002001900846006840F000700860E7
:101BD0000846006800F00070019000BF00BF00BF21
:101BE000002001900846006840F0806008600846C8
:101BF000006800F08060019000BF00BF00BF0020BF
:101C000001900846006840F00060086008460068DF
:101C100000F00060019000BF00BF00BF02200390F1
:101C2000049000200590032006900B20079003A944
:101C3000354800F057FB0420039003A9324800F018
:101C400051FB8020039003A92F4800F04BFB02209A
:101C5000039003A92D4800F045FB1020039003A931
:101C60002A4800F03FFB2020039003A9274800F0FA
:101C700039FB4FF40060039003A9254800F032FBC4
:101C80004FF40050039003A9224800F02BFB4FF4BF
:101C90008040039003A91F4800F024FB13F0B5FB1C
:101CA00002AB022200211C4800F0BAF8029878B179
:101CB00000BF0121072011F0A4FD642002F0ACFE5A
:101CC0000021072011F09DFD642002F0A5FE0DE02B
:101CD0000021072011F095FD642002F09DFE0121F6
:101CE000072011F08EFD642002F096FE13F08FFBAA
:101CF000002207213D2000F058FE3D2000F045FE67
:101D000008B010BD30380240000002400008024018
:101D10000004024000180240B406002070472DE97C
:101D2000F05F04460F464FF00008C34647B9D4F8A9
:101D3000880040F00100C4F888000120BDE8F09F51
:101D4000D4F88400232801D00120F7E7E66D04F1E0
:101D5000480050F82650E06EC0F1040942E02868BF
:101D600000F4807018B1A969A167E9696167286802
:101D700000F4007008B9E06F40B3286800F4007008
:101D800010B1002121666166D4F814A0286800F41F
:101D9000807040B12868C0F30D40A0F1040A2968A2
:101DA00021674FF0010BA86828621FFA8AF304F13B
:101DB0008001081F2A6A00F0E5F8206E401C2066AA
:101DC000606E00EB0A0161660020286200BF761C8D
:101DD000042E00D3361F00BF04F1480050F82650EF
:101DE00008F10108286800F0004020B9C84502D277
:101DF000BBF1000FB3D0E06E00EB0801E166E06ECE
:101E000010B12046FFF772FAE665BBF1010F05D16C
:101E1000E06F38600021E16700208FE701208DE747
:101E20002DE9F04705460E4617469846286804698E
:101E300004F01C044FF4784000EAC62004434FF439
:101E4000F86000EA8710044324F0020444F001041F
:101E50002868046100F06CFB81460BE000F068FB31
:101E6000A0EB0900B0F5803F02D30120BDE8F08768
:101E70002868046904F001000028EFD1286840694F
:101E800080B2C8F800000020F0E72DE9F0470646D0
:101E900006F11804A76AE56A4FF001082AE04FF03E
:101EA00001097F1E04F1140050F8250020B9681CB8
:101EB00000F003054FF00009B9F1000F1AD005EB4F
:101EC0008501F06850F8310000F0004080B904F15D
:101ED000140151F8250000F0C9F9002104F11400A3
:101EE00040F82510681C00F00305A762E56201E0D8
:101EF0004FF0000817B1B8F1000FD0D10020BDE8B5
:101F0000F08700007CB504460D480FF05DF90546EA
:101F100085B105F1200020600A48286140F2F451A3
:101F200020682B464122CDE900010021084610F02F
:101F30007BFD04E0012004490870002020607CBD86
:101F40005C4C02082D3001085C03002038B50446C3
:101F5000002000906946094800681DF099F90128A1
:101F60000BD100BF009838B14FF080500449086091
:101F7000BFF34F8FBFF36F8F00BF38BD64030020E6
:101F800004ED00E0F0B504460D4621462E46002043
:101F9000A2F1200000270760078143810F680FB975
:101FA000086001E0376838603060086803E007893E
:101FB0001F44078100680028F9D1F0BD70B50446C0
:101FC0000D460DB9012070BDD4F88400102805D14C
:101FD00029462046FFF722F90020F4E70120F2E726
:101FE00070B506463068056925F01C0500F0BAFF9B
:101FF00004461348844205D31248844202D245F075
:1020000008051AE00F48844205D30F48844202D2E3
:1020100045F00C0511E00C48844203D30B48844280
:1020200000D20AE00948844205D30948844202D21A
:1020300045F0040501E045F010053068056170BD0C
:10204000002D3101C00E16020087930300E1F50553
:1020500080D1F00810B50446D4F88400102851D17E
:102060002320C4F884000121A1652068C06B40F4DE
:1020700002702168C8632068D0F80C012249084327
:102080002168C1F80C012068D0F8100140F4031059
:102090002168C1F810010421E1662046FFF726F906
:1020A0002068006840F00800216808602068006827
:1020B00040F00400216808602046FEF7AAFE206870
:1020C00000F58050806940F40051206800F5805090
:1020D0008161206800F58050806940F0020120682D
:1020E00000F580508161206800F58050C069074983
:1020F0000843216801F58051C8612320C4F8840099
:10210000002010BD0120FCE760000200C1A001001A
:1021100070B50446D4F8840023283ED1C4F8840066
:10212000206800F58050C0691D490840216801F50C
:102130008051C8612068006820F0080021680860AC
:10214000206800F58050806920F00201206800F5C9
:10215000805081612068006820F0040021680860D8
:102160002046FEF756FE2068006820F0080021682F
:102170000860002508E004F1480050F82560706808
:1021800040F0004070606D1C042DF4D30021A16567
:102190001020C4F88400002070BD0120FCE700007E
:1021A0003E5FFEFF70B504460D463DB9D4F8880089
:1021B00040F00100C4F88800012070BDD4F884000C
:1021C000232835D1696BE163012229462046FEF7B9
:1021D000E9FE38B1D4F8880040F00200C4F8880065
:1021E0000120EAE700BF00BF00BFBFF34F8F00BF71
:1021F00000BF00BF00BFA06A401CA062A06A042804
:1022000002D3A06A001FA06200BF206800F58050C2
:10221000406900F0040048B10421206800F58050B6
:1022200041610021206800F5805041600020C4E732
:102230000120C2E738B504460020009069460948ED
:1022400000681DF025F801280BD100BF009838B1B7
:102250004FF0805004490860BFF34F8FBFF36F8F7A
:1022600000BF38BD6003002004ED00E010B5044657
:10227000204610F00DFE10BD70472DE9F0470546D1
:102280000E46174698462868046904F01C044FF46B
:10229000784000EAC62004434FF4F86000EA871053
:1022A000044344F0020444F001041FFA88F0296852
:1022B00048612868046100F03BF981460BE000F0BA
:1022C00037F9A0EB0900B0F5803F02D30120BDE84B
:1022D000F0872868046904F001000028EFD100BFEE
:1022E000F5E70000F8B502460B4600250024002063
:1022F0000021E0E0012606FA01F51E6806EA050461
:10230000AC4274D11E7906F00306012E04D01E796A
:1023100006F00306022E13D190684F000326BE403C
:10232000B0434F00DE68BE403043906050680126E5
:102330008E40B0431E79C6F300168E403043506085
:102340001E7906F00306032E09D0D0684F0003263D
:10235000BE40B0434F009E68BE403043D0601E79FF
:1023600006F00306022E13D1CF0802F1200656F81C
:1023700027004E07F70E0F26BE40B0434F07FF0E53
:102380001E69BE403043CF0802F1200646F8270000
:1023900010684F000326BE40B0431E7906F00306C6
:1023A0004F00BE40304310605E6806F44036002E99
:1023B0001DD000BF00260096414E366846F4804688
:1023C0003F4F3E603E46366806F48046009600BFAA
:1023D00000BF3C4E8F0856F827008E07370F0F2698
:1023E000BE40B043384EB24202D100262EE061E03A
:1023F000364EB24201D1012628E0354EB24201D11B
:10240000022623E0334EB24201D103261EE0324EB3
:10241000B24201D1042619E0304EB24201D1052664
:1024200014E02F4EB24201D106260FE02D4EB242EB
:1024300001D107260AE02C4EB24201D1082605E060
:102440002A4EB24201D1092600E00A268F073F0F2B
:10245000BE4030431B4E8F0846F82700244E30689C
:10246000A0435E6806F4801606B12043204E30601B
:10247000361D3068A0435E6806F4001606B120439E
:102480001B4E361D30601A4E361F3068A0435E6802
:1024900006F4003606B12043154E361F3060361F55
:1024A0003068A0435E6806F4803606B12043104EC3
:1024B000083E3060491C1029FFF41CAFF8BD000035
:1024C0004438024008380140000002400004024045
:1024D00000080240000C02400010024000140240BC
:1024E00000180240001C024000200240002402406C
:1024F000083C0140024613690B400BB1012000E08B
:102500000020704710B5426921EA020302EA010483
:1025100043EA0443836110BD0AB1816101E00B0409
:102520008361704701480068000C7047002004E098
:102530000148006870470000200000200348006840
:1025400003490978084401490860704720000020C9
:102550002800002010B50D48006840F400700B49B9
:1025600008600846006840F480600860084600681B
:1025700040F480700860032000F056FA0F2000F04D
:1025800007F800F001FA002010BD0000003C0240F6
:1025900070B504460E4800784FF47A71B1FBF0F044
:1025A0000C490968B1FBF0F5284601F039F908B18A
:1025B000012070BD102C07D200222146501E00F0D1
:1025C000F4F90548046001E00120F2E70020F0E79B
:1025D00028000020000000202400002070B50446E0
:1025E0000E46154600BF94F8A000012801D1022034
:1025F00070BD012084F8A00000BF022084F8A10073
:1026000005EB850101EBC50204F1380101EB820005
:1026100034223146FEF7F6F92A463146204601F0CB
:1026200026FC01202168486284F8A10000BF002038
:1026300084F8A00000BF00BFDAE7000070B50446D0
:102640000CB9012070BD94F8A10028B9002084F8CD
:10265000A000204600F07EF8022084F8A100206847
:10266000806920F0704021688861D4E90101084345
:10267000E1680843216908432168896908432168A2
:102680008861206880683249084021688860A08A93
:10269000050420688068A16929430843216888608F
:1026A0002068C0682A4908402168C860A08B0504DA
:1026B0002068C068216A294308432168C8602068EF
:1026C00000692349084021680861A08C050420683E
:1026D0000069A16A294308432168086120684069AC
:1026E0001B49084021684861A08D050420684069A5
:1026F000216B294308432168486194F8350005029D
:1027000094F8360006042068C06A00F07F40216813
:10271000C86246EA050094F8341008432168C96A83
:1027200008432168C8622068406B40F006002168B9
:1027300048632068806940F00100216888610020BA
:10274000C4F8A400012084F8A10000207AE700006A
:1027500000F800F010B586B0044600BF00200090DD
:102760004D48006840F080604B49086008460068AA
:1027700000F08060009000BF00BF00BF002000900C
:1027800045481438006840F4000043491439086093
:102790000846006800F40000009000BF00BF00BFC2
:1027A000002000900846006840F0020008600846DB
:1027B000006800F00200009000BF00BF00BF0020D2
:1027C00000900846006840F0200008600846006855
:1027D00000F02000009000BF00BF00BF002000906C
:1027E0000846006840F0400008600846006800F0B5
:1027F0004000009000BF00BF00BF002000900846CE
:10280000006840F0800008600846006800F0800022
:10281000009000BF00BF00BF002000900846006885
:1028200040F4807008600846006800F480700090F2
:1028300000BF00BF202001900120029003900320E0
:10284000049001A91548FFF74DFD4FF480600190F9
:102850000220029000200390032004900E20059097
:1028600001A90F48FFF73EFD4FF40C60019001A94C
:102870000C48FFF737FD4FF47E40019001A90A484C
:10288000FFF730FD40F2F760019001A90748FFF71C
:1028900029FD06B010BD000044380240000402408B
:1028A0000014024000180240001C024000200240B8
:1028B0002DE9F04104460E461746984600BF94F8AD
:1028C000A000012802D10220BDE8F081012084F897
:1028D000A00000BF022084F8A10008EB880000EBF4
:1028E000C80104F1380000EB81052E60A86A30446D
:1028F0006860AF60E86A3844E8604246294620468E
:1029000001F0B5FA01202168486284F8A10000BFF7
:10291000002084F8A00000BF00BFD5E72DE9F041FA
:1029200004460E461746984600BF94F8A0000128BA
:1029300002D10220BDE8F081012084F8A00000BF90
:10294000022084F8A10008EB880000EBC80104F124
:10295000380000EB8105286830446860A868384476
:10296000E860AE62EF6242462946204601F07FFAF7
:1029700001202168486284F8A10000BF002084F88B
:10298000A00000BF00BFD5E77047014608460028F9
:1029900009DB00F01F0301229A4043099B0003F169
:1029A000E023C3F8002100BF70472DE9F05F8046A7
:1029B0000D461646002701F097FE074639462A467F
:1029C000334601F00700C0F1070ABAF1040F02D93B
:1029D0004FF0040A01E0C0F1070AD14600F1040AF1
:1029E000BAF1070F02D24FF0000A01E0A0F1030A8A
:1029F000D4464FF0010A0AFA09FAAAF1010A0AEAD2
:102A0000020A0AFA0CFA4FF0010B0BFA0CFBABF1BD
:102A1000010B0BEA030B4AEA0B042146404601F086
:102A20006BFEBDE8F09F000000BF00F00702064B00
:102A300019684FF6FF031940044B0B4343EA022188
:102A4000014B196000BF70470CED00E00000FA0573
:102A500038B5002400BF002000901D48006840F0F9
:102A600080501B4908600846006800F080500090C4
:102A700000BF00BF012017490864FFF759FD044655
:102A800007E0FFF755FD001BB0F57A7F01D9032061
:102A900038BD1148406800F48030B0F5803FF0D177
:102AA00001200C494864FFF743FD044607E0FFF7A7
:102AB0003FFD001BB0F57A7F01D90320E8E7064807
:102AC000406800F40030B0F5003FF0D10020DFE7AF
:102AD0004038024000000E4200700040F8B5044645
:102AE00000250026207800F0010048B9207800F089
:102AF0000200022804D0207800F04000402862D173
:102B00000020B1498866FFF713FD054606E0FFF790
:102B10000FFD401B022801D90320F8BDAB48006817
:102B2000C0F3C0600028F2D1207800F0010038B175
:102B300060688101207A41EA0070A449843108600C
:102B4000207800F00200022819D1A04884300068E3
:102B5000C0F3027660688101207B41EA006040EAB0
:102B600006709A498431086098488C30006820F0DB
:102B70001F00E169491E084394498C3108602078A0
:102B800000F0400040280AD160688101207B41EAC2
:102B90000061207A41EA00708C498431086001208C
:102BA00089498866FFF7C4FC054606E0FFF7C0FCCC
:102BB000401B022801D90320AFE784480068C0F316
:102BC000C0600028F2D0207800F00400042804D06F
:102BD000207800F00800082863D100207A490867AF
:102BE000FFF7A6FC054606E0FFF7A2FC401B022803
:102BF00001D9032091E775480068C0F340700028B0
:102C0000F2D1207800F00400042819D16F488830F0
:102C10000068C0F3027620698101207D41EA0060EE
:102C200040EA0670694988310860081D006820F490
:102C3000F851206A401E41EA002064498C31086046
:102C4000207800F00800082817D160488830006814
:102C5000C0F303662069800140EA0661207E41EAF4
:102C600000705A4988310860081D006820F440301F
:102C7000616A084355498C31086001205249086750
:102C8000FFF756FC054606E0FFF752FC401B022802
:102C900001D9032041E74D480068C0F34070002887
:102CA000F2D0207800F0200020287DD100BF002045
:102CB000009046484030006840F080504349403121
:102CC00008600846006800F08050009000BF00BF18
:102CD0003F48006840F480703D490860FFF728FCD9
:102CE000054606E0FFF724FC401B022801D903201B
:102CF00013E73748006800F480700028F2D03348AA
:102D00007030006800F440764EB3208D00F44070BF
:102D1000B04224D02D487030006820F44076012065
:102D20002C49086000200860284870300660006860
:102D300000F0010098B1FFF7FBFB054608E0FFF744
:102D4000F7FB401B41F28831884201D90320E4E6B9
:102D50001E4870300068C0F340000028EFD000BF6C
:102D6000208D00F44070B0F5407F0CD1174808303A
:102D7000006820F4F810184AA16A1140084313496A
:102D80000831086007E011480830006820F4F810A6
:102D90000E49083108600D4870300068218DC1F37C
:102DA0000B010843094900E002E07031086000BFF0
:102DB000207800F01000102803D194F82C00074967
:102DC00008600020A9E600000000474200380240E9
:102DD00000700040400E4742FFFCFF0FE0114742E9
:102DE00070B504460D460CB9012070BD5848006806
:102DF00000F00F00A84209D255490D70084600683E
:102E000000F00F00A84201D00120EEE7207800F08A
:102E1000020002281DD1207800F00400042805D10A
:102E20004C48006840F4E0504A490860207800F0BF
:102E30000800082805D14748006840F4604045492B
:102E400008604448006820F0F000A1680843414948
:102E50000860207800F00100A8B36068012807D15D
:102E60003C4808380068C0F34040B8B90120BCE7CE
:102E70006068022802D06068032807D13548083806
:102E80000068C0F3406048B90120AEE73148083817
:102E90000068C0F3400008B90120A6E72D4800688B
:102EA00020F00300616808432A490860FFF740FBEF
:102EB000064609E0FFF73CFB801B41F2883188425F
:102EC00002D9032091E707E02248006800F00C00D7
:102ED0006168B0EB810FEDD11D48006800F00F0074
:102EE000A84209D91A490D700846006800F00F0081
:102EF000A84201D0012078E7207800F004000428DF
:102F000007D11448006820F4E050E16808431149F3
:102F10000860207800F00800082808D10D480068F3
:102F200020F46040216940EAC1000A49086000F0CD
:102F30003FF808490968C1F30311074A515CC840CA
:102F40000649086006480068FFF722FB00204CE7AE
:102F5000003C0240083802401E0302080000002026
:102F60002400002001480068704700000000002095
:102F700000B5FFF7F7FF04490968C1F38221034A4E
:102F8000515CC84000BD0000083802402E03020812
:102F900000B5FFF7E7FF04490968C1F34231034A6E
:102FA000515CC84000BD0000083802402E030208F2
:102FB0002DE9F047002400250026A1462548006899
:102FC00000F00C0020B1042805D008283AD105E013
:102FD000DFF8849039E0DFF8849036E01D48001F68
:102FE000006800F03F041B48001F006800F48000E8
:102FF00078B11A481749091F0968C1F38811A0FB65
:1030000001700146224600233846FDF7ECF90546DB
:103010000EE011480F49091F0968C1F38811A0FB90
:1030200001700146224600233846FDF7DCF90546CB
:103030000848001F0068C0F30140401C4600B5FB73
:10304000F6F902E0DFF8109000BF00BF4846BDE887
:10305000F0870000083802400024F40040787D0129
:10306000F8B504460CB90120F8BD207800F0010045
:10307000002874D0F948006800F00C0004280DD036
:10308000F648006800F00C00082813D1F348001F30
:10309000006800F48000B0F5800F0BD1EF480838CD
:1030A0000068C0F34040002859D06068002856D11D
:1030B0000120D9E700BF6068B0F5803F08D1E7483C
:1030C0000838006840F48030E449083908601EE0A0
:1030D0006068B0F5A02F0DD1E0480838006840F4D2
:1030E0008020DE49083908600846006840F48030D6
:1030F00008600CE0D9480838006820F48030D749CF
:10310000083908600846006820F48020086000BF85
:10311000606890B1FFF70CFA054606E0FFF708FA81
:10312000401B642801D903209EE7CC48083800687A
:10313000C0F340400028F1D011E0FFF7F9F905464F
:1031400006E0FFF7F5F9401B642801D903208BE75F
:10315000C24808380068C0F340400028F1D1207808
:1031600000F0020002285FD1BC48006800F00C00AB
:1031700058B1BA48006800F00C0008281CD1B748C4
:10318000001F006800F48000B0B9B4480838006837
:10319000C0F3400020B1E068012801D0012063E7BE
:1031A000AE480838006820F0F800216940EAC10004
:1031B000AA490839086037E0E06800B30120A8494F
:1031C0000860FFF7B5F9054606E0FFF7B1F9401BC7
:1031D000022801D9032047E7A04808380068C0F357
:1031E00040000028F1D09D480838006820F0F80021
:1031F000216940EAC10099490839086014E00020BB
:1032000097490860FFF794F9054606E0FFF790F943
:10321000401B022801D9032026E79048083800689F
:10322000C0F340000028F1D1207800F00800082801
:103230002CD16069A8B101208A490860FFF778F9AC
:10324000054606E0FFF774F9401B022801D9032068
:103250000AE782486C300068C0F340000028F1D0D3
:1032600014E000207F490860FFF762F9054606E098
:10327000FFF75EF9401B022801D90320F4E67748E6
:103280006C300068C0F340000028F1D1207800F0D5
:103290000400042870D1002770483830006800F01E
:1032A000805090B900BF002000906C483830006812
:1032B00040F080506949383108600846006800F0E5
:1032C0008050009000BF00BF01276748006800F4ED
:1032D0008070B0B96448006840F48070624908604A
:1032E000FFF726F9054606E0FFF722F9401B022802
:1032F00001D90320B8E65C48006800F4807000281B
:10330000F2D000BFA068012808D154486830006896
:1033100040F001005149683108601DE0A0680528AF
:103320000DD14E486830006840F004004B496831C8
:1033300008600846006840F0010008600CE047485B
:103340006830006820F00100444968310860084690
:10335000006820F00400086000BFA068A8B1FFF773
:10336000E7F8054609E0FFF7E3F8401B41F2883132
:10337000884202D9032077E626E0384868300068A2
:10338000C0F340000028EED013E0FFF7D1F8054667
:1033900008E0FFF7CDF8401B41F28831884201D99F
:1033A000032061E62D4868300068C0F34000002823
:1033B000EFD1012F07D129483830006820F0805024
:1033C00026493831086000BFA069002845D023484D
:1033D000006800F00C0008285DD0A069022845D1E3
:1033E00000201F490866FFF7A3F8054606E0FFF72F
:1033F0009FF8401B022801D9032035E617480838FA
:103400000068C0F340600028F1D1D4E90701084307
:10341000616A40EA81110122A06AC2EB500041EAD0
:1034200000412C20005D41EA00600C49091F086042
:1034300001200B490866FFF77BF8054606E0FFF719
:1034400077F8401B022801D903200DE6034808380D
:103450000068C0F340600028F1D049E0083802401D
:1034600000004742800E4742007000400020214982
:103470000866FFF75DF8054606E0FFF759F8401BC0
:10348000022801D90320EFE51B480068C0F3406023
:103490000028F2D12CE0A069012800D1E4E516480B
:1034A000001D0668A069012820D006F48001E069AB
:1034B00081421BD106F03F01206A814216D147F6B6
:1034C000C0703040616AB0EB811F0FD106F440310B
:1034D0000122A06AC2EB5000B1EB004F06D106F00A
:1034E00070612C20005DB1EB006F01D00120BBE5C5
:1034F0000020B9E5000047420038024070B504469C
:103500000D460CB9012070BD94F82C0028B900209C
:1035100084F82D00204600F011F8022084F82C00D9
:10352000211D2068FDF7D3FF2946D4E90002FEF7EC
:1035300039F8012084F82C000020E4E710B586B0AB
:10354000044600BF002000904348006840F001009E
:10355000414908600846006800F00100009000BF83
:1035600000BF00BF002000903B480838006840F0D2
:1035700004003949083908600846006800F0040072
:10358000009000BF00BF00BF002000900846006808
:1035900040F0080008600846006800F0080000904D
:1035A00000BF00BF00BF002000900846006840F048
:1035B000100008600846006800F01000009000BF8E
:1035C00000BF00BF002000900846006840F02000C7
:1035D00008600846006800F02000009000BF00BFAF
:1035E00000BF002000900846006840F040000860DE
:1035F0000846006800F04000009000BF00BF0D20AA
:1036000001900220029001200390032004900C20DE
:10361000059001A91148FEF765FE4CF20370019078
:1036200001A90F48FEF75EFE4FF68370019001A9D5
:103630000C48FEF757FE4FF63F00019001A90A48DB
:10364000FEF750FE48F23710019001A90748FEF737
:1036500049FE06B010BD00003838024000080240A4
:10366000000C02400010024000140240001802400A
:1036700070B504460D4694F82C00022800D170BDA8
:1036800094F82C0001280AD1022084F82C00294645
:103690002068FDF752FF012084F82C0001E0012092
:1036A000EDE70020EBE72DE9F04104460E46174612
:1036B00094F82C50022D02D10220BDE8F081012D9A
:1036C00001D0052D12D1022084F82C003A46314653
:1036D0002068FDF73CFF3068022803D1052084F8FC
:1036E0002C0005E0012084F82C0001E00120E4E733
:1036F0000020E2E770B504460E4615460CB90120DD
:1037000070BD94F8490028B9002084F8480020468C
:1037100000F020F804F108012068FDF759FE314659
:10372000A2682068FDF7A0FE2946236BD4E90102B8
:10373000FDF72CFEA168206850F8210040F0010040
:10374000A268216841F82200012084F84900002085
:10375000D6E7000010B586B0044600BF00200090F8
:103760002248006840F001002049086008460068CF
:1037700000F00100009000BF00BF00BF00200090DB
:103780001A480838006840F00800184908390860ED
:103790000846006800F00800009000BF00BF00BFAE
:1037A000002000900846006840F0100008600846BD
:1037B000006800F01000009000BF00BF4EF2B37030
:1037C00001900220029001200390022004900C201E
:1037D000059001A90648FEF785FD4FF6807001901F
:1037E00001A90448FEF77EFD06B010BD383802403E
:1037F000000C024000100240042808D14FF0E021E4
:10380000096941F004014FF0E022116107E04FF037
:10381000E021096921F004014FF0E02211617047B5
:1038200070B504462546681EB0F1807F01D30120A3
:103830000FE0681E4FF0E02148610F214FF0FF308C
:1038400000F05AFF00204FF0E02188610720086156
:10385000002070BD10B504460CB9012010BD94F8CD
:103860003D0028B9002084F83C00204600F025F8EF
:10387000022084F83D00211D206800F067FC012033
:1038800084F8460000BF84F83E0001213F20015526
:10389000402001554120015500BF00BF012084F8A0
:1038A000420043200155442001554520015500BFE9
:1038B000012084F83D000020D0E77047014691F8D0
:1038C0003D00012801D001207047022081F83D0011
:1038D0000868C06840F001000B68D8601A4B08689F
:1038E00098421BD00868B0F1804F17D0174B08687A
:1038F000984213D0164B086898420FD0154B0868B1
:1039000098420BD0144B0868984207D0134B0868B4
:10391000984203D0124B086898420CD1086880681E
:1039200000F00702062A0CD00868006840F0010089
:103930000B68186005E00868006840F001000B683B
:1039400018600020C0E700000000014000040040B3
:1039500000080040000C004000040140004001400D
:10396000001800407047704701460022002391F87C
:103970003D2091F83E3042EA030070472DE9F84FB0
:103980000446206805682068C668206847694FF0CB
:103990000009CA4605F00F09B9F1000F0AD105F078
:1039A000200038B106F0200020B1204600F08AFC4B
:1039B000BDE8F88FB9F1000F7CD007F0010018B90D
:1039C00006F49070002875D005F0010030B106F4BF
:1039D000807018B1206C40F00100206405F00400F4
:1039E00030B107F0010018B1206C40F002002064F3
:1039F00005F0020030B107F0010018B1206C40F072
:103A00000400206405F0080048B106F0200010B959
:103A100007F0010018B1206C40F008002064206C11
:103A2000002846D005F0200028B106F0200010B193
:103A3000204600F047FC20684069C0F3801A206CE3
:103A400000F0080010B9BAF1000F2DD0204600F0A8
:103A5000F3FB2068406900F04000402820D100BFFF
:103A600000BF2168143151E8001F21F04000216897
:103A7000143141E80002002AF3D100BFA06B50B11D
:103A80007548A16B0865A06BFDF72CFE88B1A06B93
:103A9000016D88470DE02046FFF765FF09E009E06A
:103AA0002046FFF760FF04E02046FFF75CFF0020A0
:103AB00020647DE7206B012876D105F010000028F6
:103AC00072D006F010000028FAD000BF002000904D
:103AD00020680068009020684068009000BF00BF28
:103AE0002068406900F0400040285ED1A06B00686B
:103AF00040681FFA80F8B8F1000F54D0A08D4045FF
:103B000051DDA4F82E80A06BC069B0F5807F43D052
:103B100000BF00BF21680C3151E8001F21F4807004
:103B200021680C3141E80002002AF3D100BF00BF38
:103B300000BF2168143151E8001F21F00100216805
:103B4000143141E80002002AF3D100BF00BF00BFDA
:103B50002168143151E8001F21F040002168143120
:103B600041E80002002AF3D100BF202084F83E0083
:103B70000020206300BF00BF21680C3151E8001F06
:103B800021F0100021680C3141E80002002AF3D135
:103B900000BFA06BFDF750FDA08DE28D801A81B2B1
:103BA0002046FFF7DFFE03E740E0A08DE18D401ADD
:103BB0001FFA80F8E08DC0B3B8F1000F35D000BF18
:103BC00000BF21680C3151E8001F21F4907021687A
:103BD0000C3141E80002002AF3D100BF00BF00BF52
:103BE0002168143151E8001F21F0010021681431CF
:103BF00041E80002002AF3D100BF202084F83E00F3
:103C00000020206300BF00BF21680C3151E8001F75
:103C100021F0100021680C3141E80002002AF3D1A4
:103C200000BF41462046FFF79DFEC1E605F080003B
:103C300030B106F0800018B1204600F0FAFCB7E67B
:103C400005F0400030B106F0400018B1204600F009
:103C500029FBADE600BFABE62542000810B50446DF
:103C60000CB9012010BDA06900B100E000BF94F8BC
:103C70003D0028B9002084F83C00204600F028F8D8
:103C8000242084F83D002068C06820F4005021689A
:103C9000C860204600F092FB2068006920F4904044
:103CA000216808612068406920F02A002168486185
:103CB0002068C06840F400502168C860002020647B
:103CC000202084F83D0084F83E000020CAE7000070
:103CD00010B586B004462E492068884255D100BFF1
:103CE00000BF002000902B48006840F010002949D8
:103CF00008600846006800F01000009000BF00BF98
:103D000000BF00BF00BF00200090224814380068A8
:103D100040F001001F49143908600846006800F0AF
:103D20000100009000BF00BF00BF00BF00BF002027
:103D300000900846006840F00100086008460068EE
:103D400000F00100009000BF00BF00BF48150190C7
:103D50000220029001200390022004900720059089
:103D600001A90D48FEF7BEFA4FF4806001900720CC
:103D7000059001A90848FEF7B5FA2520FEF705FED3
:103D8000032211462520FEF710FE06B010BD0000EC
:103D900000100140443802400000024070B5044663
:103DA0000D46164694F83E00202816D105B10EB9EE
:103DB000012070BD00BF94F83C00012801D1022011
:103DC000F7E7012084F83C0000BF00202063324662
:103DD0002946204600F008FCEBE70220E9E7000056
:103DE0001D4A0168914236D11C49098801F40041FD
:103DF00089BB1A49098801F4804171B118490978D1
:103E00000A2903D00021154A118024E013490988AA
:103E100041F40041114A11801DE0114909780D2932
:103E200006D10E49098841F480410C4A118012E004
:103E30000B490978094A1288C2F30D02094B9954BB
:103E400006490988491C054A118011460988C72975
:103E500001DD002111807047001001401800002092
:103E60001A0000200C040020704700BFFEE7F0B5E8
:103E70008E880768FF68C7F30B473E443304066823
:103E80008436802707FB0266766806F4704706686A
:103E900084364FF0800C0CFB026677600E68076872
:103EA000FF68C7F30B473E44761C1E430768843700
:103EB0000CFB02777E608E890768FF68C7F30A07EC
:103EC0003E44330406688436802707FB0266B668E2
:103ED00006F47047066884360CFB0266B7608E688D
:103EE0000768FF68C7F30A073E44761C46EA0307E3
:103EF000066884360CFB0266B76006688436802745
:103F000007FB0266366926F00707066884360CFB55
:103F1000026637610F69066884360CFB02663761FA
:103F20003126765C33023226765C34040E7E35060A
:103F300006688436802707FB0266B6690027066894
:103F400084360CFB0266B76191F830601E4326434D
:103F500046EA0507066884360CFB0266B761066808
:103F60008436802707FB0266766926F0FF0706681D
:103F700084360CFB026677614F69066884360CFB59
:103F80000266776106688436802707FB0266F66959
:103F900040F20777BE43076884370CFB0277FE6167
:103FA000D1E907763743066884360CFB0266F76171
:103FB00006688436802707FB0266B66A0027066813
:103FC00084360CFB0266B7624F6A066884360CFBC7
:103FD0000266B7620E690EB9042313E00E69012E62
:103FE00001D103230EE00E69042E08D00E69022EC3
:103FF00005D00E69032E02D00E69072E01D10223CF
:1040000000E0012306688436802707FB0266F66A13
:1040100006F0E027066884364FF0800C0CFB026641
:10402000F762D1E90076F61B5E43F61C0F8D5F4305
:1040300046EA0747066884360CFB0266F7620668A4
:104040008436802707FB0266366BF70AFF02066894
:1040500084360CFB02663763CF6A066884360CFB35
:104060000266376306688436D701F65946F00107C1
:10407000066884364FEAC21C46F80C70F0BD00BFDB
:10408000FEE7704727E014480068D0F8C40118B173
:1040900000201AF0C3FB1EE00F480068D0F894011E
:1040A0000A2815D90D48006820F400000B49086063
:1040B0000846006840F40000086007480068D0F82F
:1040C000000140F0010004490968C1F8000102E064
:1040D000C8201AF061FBD6E7B4060020043801407E
:1040E00010B5FEF72BFA1BF019FC012801D01AF0CD
:1040F000EBFE10BD0348006840F470000149086001
:104100007047000088ED00E010B50E480068C068F8
:1041100000F0010078B10C49086980470020094986
:104120000968486200BF642006490968C8626421C2
:104130000448C16000BF6FF00100024909680861CE
:1041400010BD0000B40800205401002010B5026822
:10415000294B98420ED0B0F1804F0BD0274B98429C
:1041600008D0274B984205D0264B984202D0264BC8
:10417000984203D122F070024B681A431E4B9842BA
:1041800020D0B0F1804F1DD01C4B98421AD01C4B50
:10419000984217D01B4B984214D01B4B984211D019
:1041A0001A4B98420ED01A4B98420BD0194B98429A
:1041B00008D0194B984205D0184B984202D0184BA2
:1041C000984203D122F44072CB681A4322F0800354
:1041D0004C6943EA040202608B68C3620B68836225
:1041E000054B984202D0084B984201D10B690363FA
:1041F0000123436110BD00000000014000040040A5
:1042000000080040000C0040000401400040014054
:10421000004401400048014000180040001C0040DC
:104220000020004070B50546AC6B0020E085E084BE
:104230002046FFF798FB70BD00BF00BF02680C323C
:1042400052E8002F22F4907102680C3242E8001309
:10425000002BF3D100BF00BF00BF0268143252E848
:10426000002F22F001010268143242E80013002BF3
:10427000F3D100BF016B01290ED100BF00BF02685E
:104280000C3252E8002F22F0100102680C3242E892
:104290000013002BF3D100BF202180F83E10002135
:1042A0000163704710B504462068C06820F04000E4
:1042B0002168C860202084F83D002046FFF7D4FD27
:1042C000002010BDF8B5044694F83E00222873D1B2
:1042D000A068B0F5805F0CD1206950B90025A66AAE
:1042E00020684068C0F308003080A06A801CA0628B
:1042F00015E0A56A0026A068B0F5805F03D0A0682D
:1043000028B9206918B920684068287004E020683E
:10431000406800F07F002870A06A401CA062E08D19
:10432000401E80B2E085002844D12068C06820F09B
:1043300020002168C8602068C06820F4807021686F
:10434000C8602068406920F0010021684861202091
:1043500084F83E00206B012826D10020206300BF96
:1043600000BF21680C3151E8001F21F010002168C6
:104370000C3141E80002002AF3D100BF2068006838
:1043800000F0100010280AD100BF00200090206823
:104390000068009020684068009000BF00BFA18DB9
:1043A0002046FFF7DFFA02E02046FFF719FD002064
:1043B000F8BD01E00020FBE70220F9E72DE9F84F06
:1043C00004462068006920F44050E16808432168F1
:1043D00008612169A068084361690843E1690843ED
:1043E00000902068C06849F20C6188430099084336
:1043F0002168C8602068406920F44070A1690843C2
:104400002168486176492068884203D07549206850
:10441000884203D1FEF7BCFD814602E0FEF7A8FD0D
:104420008146E069B0F5004F6CD102206168A0FBC5
:10443000015003461920A9FB007001462A46384660
:10444000FBF7D1FF6421B0FBF1F04FEA001A022024
:104450006168A0FB01510B461920A9FB00712A4697
:104460003846FBF7C0FF834602206168A0FB01507D
:1044700003461920A9FB00712A463846FBF7B3FF13
:104480006421B0FBF1F000EBC00101EB0010ABEBDD
:104490008000322101EBC0006421B0FBF1F000F09C
:1044A000F8000AEB400A02206168A0FB01500346B5
:1044B0001920A9FB007001462A463846FBF793FFF6
:1044C000834602206168A0FB015003461920A9FB26
:1044D00000712A463846FBF786FF6421B0FBF1F0F5
:1044E00000EBC00101EB0010ABEB8000322101EBCF
:1044F000C0006421B0FBF1F000F0070050442168D7
:1045000088606AE004206168A0FB0150034619201E
:10451000A9FB007001462A463846FBF764FF824635
:1045200004206168A0FB015003461920A9FB00701C
:1045300001462A463846FBF756FF6421B0FBF1F0EE
:1045400000EBC00101EB0010AAEB8000322101EB6F
:1045500000106421B0FBF1F000F0F00A0420616863
:10456000A0FB017003461920A9FB00513A462846DA
:10457000FBF739FF6421B0FBF1F00AEB001A0420CD
:104580006168A0FB01510B461920A9FB00712A4666
:104590003846FBF728FF834604206168A0FB0150E2
:1045A00003461920A9FB007001462A463846FBF74E
:1045B0001AFF6421B0FBF1F000EBC00101EB001029
:1045C000ABEB8000322101EB00106421B0FBF1F075
:1045D00000F00F00504421688860BDE8F88F0000AB
:1045E000001001400014014010B5034699629A85FD
:1045F000DA8500201864222083F83E0000BF0020E6
:1046000083F83C0000BF186928B11868C06840F4FE
:1046100080701C68E0601868406940F001001C6808
:1046200060611868C06840F020001C68E0600020ED
:1046300010BD014691F83D00212828D18868B0F5C9
:10464000805F0BD1086948B90A6A1088C0F3080076
:104650000B685860086A801C086205E00B6A581CE9
:10466000086218780B685860C88C401E80B2C884F5
:1046700058B90868C06820F080000B68D8600868E6
:10468000C06840F040000B68D860002070470220EE
:10469000FCE7000070B500240F4D1048FFF76EF9DD
:1046A00000BF03E0641CAC4200D904E00B48FFF7F4
:1046B0005BF92028F6D100BF002403E0641CAC4263
:1046C00000D906E0012206490448FFF767FB0028ED
:1046D000F4D100BF70BD0000FFFF0100D404002032
:1046E0001A00002000BFFEE702480068C0F3022065
:1046F000704700000CED00E010B5002804DB0A074D
:10470000130E054A135406E00A07140E034A00F07C
:104710000F031B1FD45410BD00E400E018ED00E0AF
:1047200030380A2801D2012070470020704700BFAE
:10473000704700002DE9F04706460F469046344684
:104740001CB96FF00500BDE8F08704F1140008B152
:10475000606910B96FF00500F5E7A7B96FF00C00BC
:104760000AF028FF8146494604F1140010F00CFFBE
:1047700030B9A06A20B1002211462046A36A9847AA
:104780006FF00500DFE700BFB8F1000F08D000BFF1
:104790002DA340F22A2237A140A0FBF79BFE00BFC9
:1047A00000BF2078A16A0CF0E7FE0546A5B96FF0BE
:1047B0000C000AF0FFFE8146494604F1140010F097
:1047C000E3FE30B9A06A20B1002211462046A36A58
:1047D00098474FF0FF30B6E76F60284610F074FB43
:1047E000294604F1140010F0CFFE20B3D5F8049050
:1047F0000021484611F0B4FD0021484615F064FC44
:104800000021484616F08EF900221146484614F061
:1048100035FC0021484612F02FFA0020686005F1AF
:10482000100010F0F7FD0020286128460CF0ECFF86
:104830004FF0FF3087E7A06A20B1002211462046E2
:10484000A36A984700207EE72E2E5C2E2E5C4D69D1
:1048500064646C6577617265735C6C7769705C73B6
:1048600072635C6170695C6170695F6D73672E6310
:1048700000000000657870656374206E6577706372
:1048800062203D3D204E554C4C206F722065727267
:10489000203D3D204552525F4F4B000041737365F0
:1048A0007274696F6E2022257322206661696C65BF
:1048B00064206174206C696E6520256420696E2017
:1048C00025730A002DE9F04105460E46002445E017
:1048D00010F0D4FC0746244800EB041000680028C0
:1048E00038D1214800EB04100560384610F05CFD1B
:1048F00000201D4901EB0411486000BF1A4800EB7D
:104900000410807B002808D000BF18A340F20E22BC
:1049100021A129A0FBF7DEFD00BF00BF0020124946
:1049200001EB04110881287800F0F000102804D170
:104930000EB1012002E0002000E001200A4901EB55
:10494000041148810020084901EB041188812046A8
:10495000BDE8F081384610F027FD641C042CB7DB5D
:104960004FF0FF30F4E7000080DD00202E2E5C2E9B
:104970002E5C4D6964646C6577617265735C6C77FD
:1049800069705C7372635C6170695C736F636B65A3
:1049900074732E6300000000736F636B6574735B48
:1049A000695D2E73656C6563745F77616974696EA8
:1049B00067203D3D20300000417373657274696F5C
:1049C0006E2022257322206661696C656420617403
:1049D000206C696E6520256420696E2025730A00AD
:1049E00070B504460420FEF707FF0A480460254618
:1049F0004FF47A7045434FF0E020006940F0020028
:104A00004FF0E021086108464561006940F001006F
:104A1000086170BD1C00002030B50446002504E08C
:104A20004FF47A7000F004F86D1CA542F8D330BD45
:104A300070B5034600224FF0E02675690D4E3668CA
:104A400003FB06F44FF0E026B16910E04FF0E026DA
:104A5000B06988420BD0884202D20E1A324402E07A
:104A60002E1A0E4432440146A24200D300E0EDE784
:104A700000BF70BD1C00002070B505460E4600BF8B
:104A800005B970BD00BF6C6A4CB16079082806D1C9
:104A90003068E169884202D1284600F0FFF900BF82
:104AA000EFE77CB5064600BF06B97CBD00BF746A5F
:104AB00000BF04B9F9E700BF00206082A06A401C73
:104AC00070B1A06A1E303C21B0FBF1F5B5F5803F16
:104AD00001D34FF6FF75A582A08A08B90120A082F4
:104AE000E06A401C80B1E06A1E303C21B0FBF1F569
:104AF000B5F5803F01D34FF6FF756581608908B930
:104B0000012060816089E081206B401C80B1206BB6
:104B10001E303C21B0FBF1F5B5F5803F01D34FF6D7
:104B2000FF75A581A08908B90120A081A0892082F4
:104B30006089A189884204DBA089002801DD00206A
:104B40006081E07910B1206A01900FE0207F7F281A
:104B500002DCFF21019108E0C02803DB6FF07F41F8
:104B6000019102E04FF6FF71019100BF606A009071
:104B70000A21204601F0C4FA6B4601AA04F11C0187
:104B800030460DF085FC00BF8FE72DE9F04105466A
:104B90006C6A0821204601F0B3FA002204F11C01DE
:104BA000284602F0E3FC0746A079FF2802DAA07944
:104BB000401CA0714FF4FA7606F2F310314690FBD8
:104BC000F1F02081BDE8F08170B51848056829E052
:104BD0006C6A34B3607920B3A08A68B1608A401CE3
:104BE00080B26082A18A884206D1284601F0EEF8A0
:104BF000284601F08DFA14E0208A40B1218A481E2F
:104C00002082012903D1284601F004FB09E0E08954
:104C100038B1E189481EE081012902D1284601F01E
:104C2000D8FA2D68002DD3D170BD0000D402002029
:104C30002DE9F05F07460D4616469A4600BF17B9A4
:104C40000020BDE8F09F00BF00BF0DB90020F8E7CD
:104C500000BF4FF420724FF49A7136200DF040FDE2
:104C60008146B9F1000F01D10020EAE700BFB9F891
:104C70000A00B0F59A7F08D200BF31A340F27272E9
:104C80003AA14AA0FBF726FC00BF00BF032E02D1C9
:104C90006879032808D1A87918B9FBF769FB4D4951
:104CA00008604C4800682860D9F804404FF49A71B5
:104CB0002046FBF7E1FE01202070607097F830007D
:104CC000A070286809F054FB6060082E0BD0042EF9
:104CD00009D0072E07D0032E07D16879052802D006
:104CE0006879042801D17868E0604FF000080BE093
:104CF00007F12A0010F8081004F11C0000F8081051
:104D000008F101001FFA80F8B8F1060FF0D332481D
:104D1000C4F8EC000123352204F1F001002000F07A
:104D200021FB8346324604F1F001584600F066FB51
:104D30008346BAF1000F01D0AAF800B0484680E7D8
:104D40002E2E5C2E2E5C4D6964646C6577617265F5
:104D5000735C6C7769705C7372635C636F72655CC3
:104D6000697076345C646863702E63006468637095
:104D70005F6372656174655F6D73673A2063686530
:104D8000636B20746861742066697273742070624A
:104D900075662063616E20686F6C64207374727531
:104DA000637420646863705F6D736700417373653B
:104DB0007274696F6E2022257322206661696C65AA
:104DC00064206174206C696E6520256420696E2002
:104DD00025730A00480300206382536310B500BFA7
:104DE0000E480078002808DC00BF0DA34FF4827243
:104DF00016A11FA0FBF76EFB00BF00BF074800789D
:104E0000401E064908700846007830B922480068FC
:104E100017F0C4FF00202049086010BD44030020A3
:104E20002E2E5C2E2E5C4D6964646C657761726514
:104E3000735C6C7769705C7372635C636F72655CE2
:104E4000697076345C646863702E630064686370B4
:104E50005F7063625F726566636F756E7428293A6E
:104E600020726566636F756E74206572726F720072
:104E7000417373657274696F6E20222573222066F8
:104E800061696C6564206174206C696E65202564BD
:104E900020696E2025730A00400300202DE9FE4F93
:104EA0000646746A0C21204601F02AF902AB04225E
:104EB00021463046FFF7BCFE054665B3D5F80480B1
:104EC0000423322208F1F001BDF8080000F04AFA8C
:104ED0000290E06909F04CFA8246524608F1F0016E
:104EE000BDF8080000F0E8FA02902A4608F1F00147
:104EF000BDF8080000F0B8FB11484323114A2946C9
:104F0000CDE900601048006817F0F4FF0746284616
:104F10000DF0BEFF01E04FF0FF37A079FF2802DA65
:104F2000A079401CA07142F2107909F2F3104FF4FD
:104F3000FA7190FBF1F020813846BDE8FE8F000049
:104F4000484C02084C4C0208400300202DE9FE4F5B
:104F500007467C6A4FF0000A0020E06106212046E7
:104F600001F0CEF802AB012221463846FFF760FE81
:104F70000546002D42D06E680223392206F1F00169
:104F8000BDF8080000F0EEF902903A8D06F1F0014C
:104F9000BDF8080000F002FB02900423372206F15E
:104FA000F001BDF8080000F0DDF90290D0460DE0F8
:104FB000224810F8082006F1F001BDF8080000F0C2
:104FC0001DFA029008F1010000F0FF08B8F1040F8B
:104FD000EED32A4606F1F001BDF8080000F044FBCC
:104FE00017484323174A2946CDE900701648006840
:104FF00017F080FF28460DF04BFF00BFA079FF2877
:1050000002DAA079401CA071A079062803DAA17900
:105010000120884000E03C2000EB4001C1EBC010C3
:105020004FF6FF7101EAC00909F2F3104FF4FA716B
:1050300090FBF1F020815046BDE8FE8F3C0300203C
:10504000484C02084C4C02084003002070B50C4844
:10505000056812E06C6A7CB12089012803DD208993
:10506000401E208108E02089012805D12089401EAA
:105070002081284601F0F2F82D68002DEAD170BD9C
:10508000D4020020F8B506460F46746A002020625C
:1050900060622648C07810B12548C068A0622348E5
:1050A000007918B122480069E06202E0A06A400875
:1050B000E0621E48407918B11D484069206304E051
:1050C000A06AC0EBC000C00820633869E0611748DF
:1050D000807938B11649886909F04AF920620120BF
:1050E000E07101E00020E0711048C07920B1104962
:1050F000C86909F03DF9606200250DE005F108017D
:105100000B4A52F8210009F033F90090694628460D
:1051100001F046FB681CC5B2022D05DA05F1080056
:105120000249085C0028E9D1F8BD000074E30120C1
:105130004CE3012070B50446656A0C21284600F056
:10514000DFFF054B1A46114620460DF0A1F9204617
:10515000FFF7FCFE70BD0000484C020870B5054624
:105160000E466C6A0748807858B1002020810649B5
:10517000886809F0FDF8A0613069E061284600F018
:1051800007FF70BD74E301204CE3012010B51E48F9
:105190000078002831D100BF1C480068002807D0E3
:1051A00000BF1BA3EA2225A12EA0FBF793F900BFA5
:1051B00000BF17F0A9FD154908600846006810B93E
:1051C0004FF0FF3010BD11480068407A40F02000D9
:1051D0000E490968487244222C490C48006817F0AF
:1051E00027FB432229490948006817F073FB002276
:1051F00027490648006817F0C9FD03480078401C9D
:10520000014908700020DDE744030020400300202E
:105210002E2E5C2E2E5C4D6964646C657761726520
:10522000735C6C7769705C7372635C636F72655CEE
:10523000697076345C646863702E630064686370C0
:105240005F696E635F7063625F726566636F756EE0
:105250007428293A206D656D6F7279206C65616BD9
:1052600000000000417373657274696F6E2022251F
:105270007322206661696C6564206174206C696EBC
:105280006520256420696E2025730A00484C0208B9
:10529000A55C000870B505466C6A04B970BD6079FC
:1052A000042809D003DC80B103280FD107E00528CA
:1052B00003D00A280AD101E000BF00BF00BF0020D0
:1052C000A071284600F062FC14E013E000BF607992
:1052D0000C2808DD00BF09A340F2723212A117A00A
:1052E000FBF7F8F800BF00BF0020A0712846FFF7C9
:1052F0002DFE00BF00BF00BFD0E700002E2E5C2EA9
:105300002E5C4D6964646C6577617265735C6C7763
:1053100069705C7372635C636F72655C697076342C
:105320005C646863702E6300696E76616C696420EA
:10533000646863702D3E73746174650041737365B6
:105340007274696F6E2022257322206661696C6514
:1053500064206174206C696E6520256420696E206C
:1053600025730A002DE9F04104460D4617461E46F6
:1053700000BFA01C3044442808D900BF09A340F254
:105380009952134913A0FBF7A5F800BF00BF2046B0
:10539000611C8CB22F542046611C8CB22E542046C6
:1053A000BDE8F0812E2E5C2E2E5C4D6964646C6528
:1053B00077617265735C6C7769705C7372635C6350
:1053C0006F72655C697076345C646863702E63002C
:1053D0003C540208417373657274696F6E20222514
:1053E0007322206661696C6564206174206C696E4B
:1053F0006520256420696E2025730A0070B5044677
:105400000D46164600BF442C08D300BF07A340F248
:10541000A55211A11EA0FBF75DF800BF00BF2046FA
:10542000611C8CB22E54204670BD00002E2E5C2EC6
:105430002E5C4D6964646C6577617265735C6C7732
:1054400069705C7372635C636F72655C69707634FB
:105450005C646863702E6300646863705F6F70746F
:10546000696F6E5F627974653A206F7074696F6EF0
:10547000735F6F75745F6C656E203C2044484350C9
:105480005F4F5054494F4E535F4C454E0000000053
:10549000417373657274696F6E20222573222066D2
:1054A00061696C6564206174206C696E6520256497
:1054B00020696E2025730A0070B504460D46164615
:1054C00000BF201D442808D900BF10A340F2B652E7
:1054D00019A128A0FAF7FEFF00BF00BF320E204638
:1054E000611C8CB22A54C6F307422046611C8CB260
:1054F0002A54C6F307222046611C8CB22A54204647
:10550000611C8CB22E54204670BD00002E2E5C2EE5
:105510002E5C4D6964646C6577617265735C6C7751
:1055200069705C7372635C636F72655C697076341A
:105530005C646863702E6300646863705F6F70748E
:10554000696F6E5F6C6F6E673A206F7074696F6E13
:10555000735F6F75745F6C656E202B2034203C3D4B
:1055600020444843505F4F5054494F4E535F4C4581
:105570004E000000417373657274696F6E202225BE
:105580007322206661696C6564206174206C696EA9
:105590006520256420696E2025730A0070B50446D5
:1055A0000D46164600BFA01C442808D900BF0AA318
:1055B00040F2AD5213A122A0FAF78CFF00BF00BF4A
:1055C000320A2046611C8CB22A542046611C8CB2DF
:1055D0002E54204670BD00002E2E5C2E2E5C4D6990
:1055E00064646C6577617265735C6C7769705C7319
:1055F00072635C636F72655C697076345C64686367
:10560000702E6300646863705F6F7074696F6E5FA3
:1056100073686F72743A206F7074696F6E735F6F26
:1056200075745F6C656E202B2032203C3D20444811
:1056300043505F4F5054494F4E535F4C454E00000E
:10564000417373657274696F6E2022257322206620
:1056500061696C6564206174206C696E65202564E5
:1056600020696E2025730A0070B504460D46164663
:10567000FF222046611C8CB22A5404E000222046FE
:10568000611C8CB22A54442C02D304F0030008B1EC
:10569000442CF3D304F1F00081B230460DF050FDFC
:1056A00070BD00002DE9F04F8BB0814600200690C0
:1056B00005900A21DC48FBF701FAB9F80A002C280A
:1056C00004D26FF001000BB0BDE8F08FD9F80400F0
:1056D00004904FF0F00AB9F80800079000BF4C465C
:1056E000CDF820A00AE06089AAEB00001FFA80FA3A
:1056F00061890798401A80B20790246814B16089C4
:105700005045F0DD14B96FF00100DCE7564607980C
:10571000099060680A9052E10A98805D0390002722
:105720004FF0FF38B01C1FFA80FBB34501DAB81EFA
:10573000C9E76189701C814203DD711C0A98455CD0
:1057400007E0206818B120684068007800E0002079
:1057500005462F460398342854D00BDC032820D06C
:1057600003DC80B101286FD111E0062824D0332852
:105770006AD13DE0352857D036285FD03A2868D026
:105780003B287AD16FE000200546074679E000BF4C
:10579000042D02D06FF0050095E700BF4FF006081A
:1057A0006FE0042700BFBD4202DA6FF005008AE710
:1057B00000BF4FF0070864E000BFE91705EB9171E7
:1057C0008910A5EB810111B16FF005007BE700BFE7
:1057D000082D01DA284600E00820074600BFBD4238
:1057E00002DA6FF005006EE700BF4FF0080848E0EE
:1057F00000BF042D02D06FF0050064E700BF4FF03A
:1058000003083EE000BF012D02D06FF005005AE70B
:1058100000BF00BF0898F02802D06FF0050052E7E3
:1058200000BF4FF000082CE000BF012D02D06FF048
:10583000050048E700BF4FF0010822E000BF042D3B
:1058400003D06FF005003EE717E000BF4FF00208FD
:1058500017E000BF042D02D06FF0050033E700BF52
:105860004FF004080DE000BF042D02D06FF00500DA
:1058700029E700BF4FF0050803E0002700BF00BF85
:1058800000BF00BF039810B9701C86B27BE070198E
:10589000801CB0F5803F02DB6FF0010013E7701948
:1058A000801C86B2002F6EDD0020029000BF00BF7A
:1058B000B8F1000F02DBB8F10A0F08DB00BF5BA3F1
:1058C00040F2796264A169A0FAF704FE00BF00BF4C
:1058D000554810F80800B0BB042F01DA384600E044
:1058E000042001905B4602A92046019A0DF0BCF904
:1058F00001460198814202D06FF00100E3E6042FD7
:1059000027DD00BFF91707EB91718910A7EB810123
:1059100011B16FF00500D6E600BF0120424901F841
:105920000800029808F024FD5A4941F82800381F61
:10593000C7B20BF1040080B200900098584503DA1A
:105940006FF00100BFE61DE0DDF800B008F10108CE
:10595000ADE7042F04D1029808F00AFD029009E097
:1059600000BF012F02D06FF00500ACE600BF9DF82C
:105970000800029001202C4901F8080045490298CE
:1059800041F8280000BF6089B04217DC6089301AF6
:1059900086B261890998401A80B2099009988642B6
:1059A00009DA246800BF14B96FF005008BE600BF68
:1059B00060680A9002E06FF0010084E600BF3CB12D
:1059C0000998864204DA0A98805DFF287FF4A4AE25
:1059D00015480078A0B12F4908680021124A1170BB
:1059E000012802D10121069109E0022802D10121FA
:1059F000059104E0032802D101210591069100BF21
:105A0000069830B1002006904FF06C0AEC20079009
:105A100065E6059830B1002005904FF02C0A6C2007
:105A200007905CE600204EE674E301202E2E5C2EEB
:105A30002E5C4D6964646C6577617265735C6C772C
:105A400069705C7372635C636F72655C69707634F5
:105A50005C646863702E6300636865636B206465D3
:105A6000636F64655F69647800000000417373656B
:105A70007274696F6E2022257322206661696C65DD
:105A800064206174206C696E6520256420696E2035
:105A900025730A004CE301202DE9FC4707467C6A88
:105AA0000421204600F02CFB01AB0322214638469E
:105AB000FFF7BEF80546002D42D06E68022339225A
:105AC00006F1F001BDF80400FFF74CFC01903A8D9F
:105AD00006F1F001BDF80400FFF760FD019004231A
