:020000040800F2
:100000004882002071020008D1220008B5220008B1
:10001000CD220008010B0008452D0008000000005B
:10002000000000000000000000000000B101000816
:100030002F0C0008000000000D020008D522000867
:100040008B0200088B0200088B0200088B0200085C
:100050008B0200088B0200088B0200088B0200084C
:100060008B0200088B0200088B0200088B0200083C
:100070008B0200088B0200088B0200088B0200082C
:100080008B0200088B0200088B02000800000000B1
:100090000000000000000000000000008B020008CB
:1000A0008B0200088B0200088B0200088B020008FC
:1000B0008B0200088B0200088B0200088B020008EC
:1000C0008B0200088B0200088B0200088B020008DC
:1000D0008B020008412B00088B0200080000000082
:1000E0008B0200088B0200088B0200080000000051
:1000F0000000000000000000000000008B0200086B
:10010000000000008B0200089D2300088B020008FD
:1001100000000000000000000000000000000000DF
:100120008B0200088B020008050B00088B020008F8
:100130008B0200080000000000000000000000002A
:100140000000000000000000000000008B0200081A
:100150008B0200088B020008150B00088B020008B8
:100160008B0200088B020008000000000000000065
:10017000000000000000000000000000000000007F
:10018000000000008B0200080000000000000000DA
:100190008B0200088B020008DFF810D000F0C4FAD0
:1001A0000048004715380008AFF30080488200205F
:1001B0002C4B19680868B0E8F04F80F30988BFF34A
:1001C0006F8F4FF0000080F311887047000000002F
:1001D00008480068006880F308884FF0000080F34A
:1001E000148862B661B6BFF34F8FBFF36F8F00DF25
:1001F00000BF00BF08ED00E0DFF80C00016841F42B
:1002000070010160704700BF88ED00E0EFF30980E6
:10021000BFF36F8F134B1A681EF0100F08BF20ED4D
:10022000108A20E9F04F106009B44FF0500080F3BD
:100230001188BFF34F8FBFF36F8F04F02BFD4FF08A
:10024000000080F3118809BC19680868B0E8F04F15
:100250001EF0100F08BFB0EC108A80F30988BFF3BE
:100260006F8F704720000020EFF30580704700007B
:100270000648804706480047FEE7FEE7FEE7FEE740
:10028000FEE7FEE7FEE7FEE7FEE7FEE7892300085C
:10029000990100082DE9F05F0546002092469B4633
:1002A00088460646814640241BE02846414647468C
:1002B000224600F070F853465A46C01A914110D3B6
:1002C00011461846224600F057F82D1A67EB010830
:1002D0004F4622460120002100F04EF817EB00099E
:1002E0004E41201EA4F10104DFDC484631462A4677
:1002F0004346BDE8F09F40EA01039B0703D009E0B5
:1003000008C9121F08C0042AFAD203E011F8013B01
:1003100000F8013B521EF9D27047D2B201E000F85A
:10032000012B491EFBD270470022F6E710B5134699
:100330000A4604461946FFF7F0FF204610BD421C4E
:1003400010F8011B0029FBD1801A704730B50B460D
:10035000014600202022012409E021FA02F59D42F5
:1003600005D303FA02F5491B04FA02F52844151EC9
:10037000A2F10102F1DC30BD202A04DB203A00FAB0
:1003800002F1002070479140C2F1200320FA03F3EC
:10039000194390407047202A04DB203A21FA02F0EA
:1003A0000021704721FA02F3D040C2F120029140AF
:1003B0000843194670472DE9FE4F804681EA030045
:1003C000C00F0C46009021F0004123F00045B8EB2F
:1003D0000200A94105D24046214690461C460B46E4
:1003E000024623F00040104347D0270DC7F30A0010
:1003F000C3F30A510290401A019040286BDAC3F30C
:10040000130040F4801B0098924620B10023D2EBE9
:10041000030A63EB0B0B01985946C0F140025046AA
:10042000FFF7AAFF06460D4650465946019A00F0CE
:100430008DF910EB08006141002487EA115284EA2B
:10044000E7731A4340D0009A62B3019A012A4FEA37
:10045000075215DC001B61EB02014FF0004202EA7B
:100460000752CDE90042001C41F5801132462B466F
:1004700000F08DF903B0BDE8F08F40462146F9E762
:10048000001B61EB0201001C41F5801300185B4169
:100490002018A2F5001747EB030140EAD570B61902
:1004A0006D4111E06D084FEA360645EAC0754FEA26
:1004B0000752001B61EB0201001C41F58011490845
:1004C0004FEA30000019514132462B4603B0BDE8D7
:1004D000F04F00F04DB90098012240000023D0EB0E
:1004E000020263EBE073009821464FEAE074B8EB38
:1004F000000061EB0401E9E783F000435BE781F072
:10050000004158E72DE9FE4F81EA030404F000445E
:1005100021F0004100944FF0000B23F0004350EA1B
:1005200001045ED052EA03045BD0C3F30A54C1F362
:100530000A552C44A4F2F3340194A0FB0254C1F3F5
:10054000130141F48011C3F3130343F4801301FB3F
:10055000024400FB034E840A970A44EA815447EAA6
:100560008357A4FB076802958D0A05FB07854FEAB0
:10057000932C04FB0C542705029D4FEA065847EACA
:100580001637B5EB08056EEB070C870E920E47EA9F
:10059000811742EA8312A7FB0201B6EB0B0164EB61
:1005A00000042B0D43EA0C335E1844EB1C50DA4672
:1005B0005146E7FB0201C5F313044FEA0B3343EA4C
:1005C00014534FEA0432019C43EA0603A4F10C04DD
:1005D0000294009CCDE900B400F0D9F803B0BDE866
:1005E000F08F00200146F9E72DE9F04D81EA030480
:1005F00004F0004B21F0004514464FF0000A23F0B0
:10060000004150EA050220D054EA01021DD0C5F392
:100610000A570246C5F31303C1F31300C1F30A5688
:1006200040F4801543F48013A7EB0608101BD64650
:1006300008F2FD3873EB050002D308F1010801E070
:1006400092185B41B8F1000F03DA00200146BDE8C3
:10065000F08D00204FF48011064684460EE0171BF3
:1006600073EB050705D3121B63EB050306434CEA46
:10067000010C49084FEA300092185B4150EA01072B
:10068000EDD152EA030012D082EA040083EA0501A8
:10069000084305D0101BAB4106D20122002306E01F
:1006A00000224FF0004302E06FF0010253101AEBFA
:1006B00006004CEB085110EB0A0041EB0B01BDE8C2
:1006C000F04D00F055B8C1F30A52C1F3130140F2E6
:1006D000FF3341F480119A4202DA0020014670474C
:1006E00040F233439A42A2F2334202DC5242FFF715
:1006F00052BEFFF741BE000030B5041E71F1000488
:1007000004DB4FF00044404264EB0101141E73F11E
:10071000000405DB1C464FF00043524263EB040328
:10072000994208BF904230BD064C074D06E0E06894
:1007300040F0010394E8070098471034AC42F6D328
:10074000FFF72EFDA4580008C4580008202A06DB35
:10075000CB17203A41FA02F043EAE07306E041FA8F
:1007600002F3D040C2F1200291400843194670477D
:1007700010B5141E73F1000408DA401C41F10001A9
:1007800092185B411A4301D120F0010010BD2DE900
:10079000F04D92469B4611B1B1FA81F202E0B0FAF7
:1007A00080F220329046FFF7E7FD04460F4640EA0C
:1007B0000A0041EA0B0153465A46084313D011463A
:1007C00053EA010019D0C8F140025046FFF7E3FD9B
:1007D00005460E46504659464246FFF7CDFD0843B2
:1007E00005D0012004E020463946BDE8F08D002008
:1007F000054346EAE0762C4337430A986305E40A4A
:10080000A0EB08000022FD0A44EA47540A3002D552
:1008100000200146E9E7010510196941DDE90845B5
:1008200000196941BDE8F04DA2E7000000B587B0AE
:10083000142102A8FFF778FD00BF002001901048A6
:10084000006840F004000E4908600846006800F0A7
:100850000400019000BF00BF4FF40050029001203F
:10086000039000200490059002A9064800F02EFC99
:1008700001225103034800F017FD07B000BD00003E
:10088000303802400008024008B500BF0020009048
:100890001548006840F008001349086008460068E1
:1008A00000F00800009000BF00BF10481049086029
:1008B0006320486000210E48816040F2E731C1604A
:1008C00000210161816101F045F910B100E000BF34
:1008D000FDE701F06BFD064801F0B2F910B100E050
:1008E00000BFFDE708BD000040380240000C00409A
:1008F000B004002008B500BF002000901348006835
:1009000040F00100114908600846006800F001004D
:10091000009000BF00BF08060D49086063204860D2
:1009200000210B488160491EC16000210161816185
:1009300001F010F910B100E000BFFDE7044801F03C
:100940003DF910B100E000BFFDE708BD40380240AE
:10095000F804002000B587B0142102A8FFF7E4FCDA
:1009600000BF002001905E48006840F010005C4924
:1009700008600846006800F01000019000BF00BF4A
:1009800000BF0020019056481438006840F0010074
:100990005349143908600846006800F001000190CE
:1009A00000BF00BF00BF002001900846006840F46F
:1009B000800008600846006800F48000019000BFD5
:1009C00000BF4FF4C060029002200390002004900A
:1009D000032005900720069002A9424800F076FB0C
:1009E0004148424908604FF4E130486000213F48E7
:1009F0008160C16001610C21416100218161C1619F
:100A000001F0A4FB08B100F013F939483949086036
:100A10004FF0006048604021364881600021C1608D
:100A20004FF480610161002141618161C161016216
:100A300000F08CFA08B100F0FBF800BF2D482B49FC
:100A4000886308462B49886300BF294878382A49BB
:100A500008604FF000604860002127488160C16055
:100A60004FF4806101610021416181614FF4807127
:100A7000C1610021016200F069FA08B100F0D8F804
:100A800000BF1D481949C86308461B49886300BF59
:100A900000220621252000F07BFC002207214620B1
:100AA00000F076FC002207213A2000F071FC25209E
:100AB00000F05AFC462000F057FC3A2000F054FCAD
:100AC0004FF480720D49094801F07CFB074800682B
:100AD000C06840F0100005490968C86007B000BD53
:100AE000443802400000024000100140A8000020ED
:100AF000B8640240F000002050010020B001002046
:100B000000BFFEE710B5024800F000F910BD00007C
:100B10005001002010B5024800F0F8F810BD0000A8
:100B2000F00000200146087810381823B0FBF3F2DB
:100B30000848805CC865032A05D908686FF3090076
:100B4000001D886503E008686FF309008865886DFB
:100B5000704700009C580008014600208A6A8B6993
:100B6000CBB932B1012A0DD0022A03D0032A10D109
:100B70000EE000BFCB6A03F08073B3F1807F00D139
:100B8000012007E0CB6AB3F1C07F00D1012001E072
:100B900000E000BF34E08B69B3F5005F1AD132B1D9
:100BA000012A07D0022A03D0032A11D10AE000BF8C
:100BB00001200EE0CB6A03F08073B3F1807F00D197
:100BC000012006E0CB6AB3F1C07F00D1012000E034
:100BD00000BF15E032B1012A05D0022A04D0032A51
:100BE0000CD103E000BF00BF012008E0CB6A03F096
:100BF0008073B3F1807F00D1012000E000BF00BF0F
:100C0000704730B50468246824F4802405682C609B
:100C1000046863608468402C04D10468A26004689E
:100C2000E16003E00468A1600468E26030BD7047E1
:100C300072B600BFFEE770B50446A56D00F03AFB42
:100C4000064694F83500022808D08020606500BF71
:100C5000002084F8340000BF012070BD20680068C7
:100C600020F01600216808602068406920F08000AC
:100C700021684861206C08B9A06C28B12068006820
:100C800020F00800216808602068006820F001005A
:100C90002168086010E000F00DFB801B05280BD9CF
:100CA00020206065032084F8350000BF002084F810
:100CB000340000BF0320D0E72068006800F0010086
:100CC0000028E8D194F85C103F208840A8600120FB
:100CD00084F8350000BF002084F8340000BF00BF56
:100CE000BBE7014691F83500022803D08020486513
:100CF00001207047052081F835000868006820F061
:100D000001000A6810600020F3E70000F8B504460F
:100D1000002000908C4800684FF41651B0FBF1F7AA
:100D2000A56D2E6894F85C1008208840304098B17A
:100D30002068006800F0040070B12068006820F0AE
:100D400004002168086094F85C1008208840A860BE
:100D5000606D40F00100606594F85C1001208840EF
:100D6000304068B12068406900F0800040B194F8DC
:100D70005C1001208840A860606D40F00200606552
:100D800094F85C1004208840304068B12068006806
:100D900000F0020040B194F85C1004208840A86084
:100DA000606D40F00400606594F85C10102088408D
:100DB000304078B32068006800F0080050B394F821
:100DC0005C1010208840A8602068006800F4802033
:100DD00080B12068006800F4002028B9206CC8B1F8
:100DE0002046216C884715E0A06C98B12046A16C84
:100DF00088470FE02068006800F4807028B92068F8
:100E0000006820F0080021680860206C10B12046BE
:100E1000216C884794F85C102020884030400028DE
:100E200065D02068006800F0100000285FD094F8BA
:100E30005C1020208840A86094F83500052828D14F
:100E40002068006820F0160021680860206840696A
:100E500020F0800021684861206C08B9A06C28B19E
:100E60002068006820F008002168086094F85C1091
:100E70003F208840A860012084F8350000BF002092
:100E800084F8340000BF206D10B12046216D8847E2
:100E9000F8BD2068006800F4802080B120680068F8
:100EA00000F4002028B9606C10B12046616C8847BE
:100EB0001DE0E06BD8B12046E16B884717E0206861
:100EC000006800F4807068B92068006820F01000A5
:100ED00021680860012084F8350000BF002084F8F4
:100EE000340000BFE06B10B12046E16B8847606DB5
:100EF00038B3606D00F00100F0B1052084F83500D2
:100F00002068006820F001002168086000BF009898
:100F1000401C0090B84200D905E02068006800F04D
:100F200001000028F3D100BF012084F8350000BF84
:100F3000002084F8340000BFE06C10B12046E16C62
:100F4000884700BFA4E70000000000202DE9F04121
:100F50000446002500F0AEF9074614B90120BDE8AB
:100F6000F081606A00B100BF022084F8350000BF44
:100F7000002084F8340000BF2068006820F00100E1
:100F8000216808600AE000F095F9C01B052805D922
:100F900020206065032084F83500E0E720680068C1
:100FA00000F001000028EED12068056821480540C6
:100FB000D4E901010843E1680843216908436169F4
:100FC0000843A1690843E1690843216A08430543CE
:100FD000606A042803D1D4E90B0108430543206863
:100FE00005602068456925F00705606A0543606A69
:100FF00004280DD1A06A0543E06A48B12046FFF7F6
:10100000ABFD28B140206065012084F83500A6E7DB
:10101000206845612046FFF785FD064694F85C1080
:101020003F208840B06000206065012084F83500D2
:10103000002094E73F8010F02DE9F04704460D466C
:1010400016461F464FF00008D4F8589000BF94F899
:101050003400012802D10220BDE8F087012084F885
:10106000340000BF94F83500012825D1022084F80F
:101070003500002060653B46324629462046FFF792
:10108000C0FD94F85C103F208840C9F80800206833
:10109000006840F0160021680860206C28B12068C4
:1010A000006840F00800216808602068006840F08F
:1010B00001002168086006E000BF002084F83400C9
:1010C00000BF4FF002084046C6E70000F8B50246F0
:1010D0000B460025002400200021C7E0012606FA67
:1010E00001F51E6806EA0504AC4274D11E7906F0CB
:1010F0000306012E04D01E7906F00306022E13D13A
:1011000090684F000326BE40B0434F00DE68BE40EB
:1011100030439060506801268E40B0431E79C6F37C
:1011200000168E40304350601E7906F00306032EF1
:1011300009D0D0684F000326BE40B0434F009E68E0
:10114000BE403043D0601E7906F00306022E13D154
:10115000CF0802F1200656F827004E07F70E0F269B
:10116000BE40B0434F07FF0E1E69BE403043CF085C
:1011700002F1200646F8270010684F000326BE4003
:10118000B0431E7906F003064F00BE4030431060A6
:101190005E6806F44036002E67D000BF0026009639
:1011A000344E366846F48046324F3E603E463668DE
:1011B00006F48046009600BF00BF2F4E8F0856F8F9
:1011C00027008E07370F0F26BE40B0432B4EB2428A
:1011D00002D1002615E048E0294EB24201D1012695
:1011E0000FE0284EB24201D102260AE0264EB2425A
:1011F00001D1032605E0254EB24201D1042600E0CC
:1012000007268F073F0FBE4030431B4E8F0846F81E
:1012100027001F4E3068A0435E6806F4801606B1B2
:1012200020431B4E3060361D3068A0435E6806F4D4
:10123000001606B12043164E361D3060144E361F80
:101240003068A0435E6806F4003606B12043104EB5
:10125000361F3060361F3068A0435E6806F4803663
:1012600006B120430A4E083E3060491C1029FFF4A5
:1012700035AFF8BD44380240083801400000024054
:101280000004024000080240000C0240001002402E
:10129000083C014010B5426921EA020302EA010458
:1012A00043EA0443836110BD0AB1816101E00B048C
:1012B00083617047014800687047000014000020F7
:1012C00003480068034909780844014908607047E9
:1012D000140000201C00002010B50D48006840F4E8
:1012E00000700B4908600846006840F480600860A0
:1012F0000846006840F480700860032000F086F81B
:101300000F2000F007F800F00BF8002010BD0000DF
:10131000003C024010B50446FFF7B6FA002010BDAD
:1013200008B500BF002000900E48006840F48040DF
:101330000C4908600846006800F48040009000BF37
:1013400000BF00BF00200090081F006840F08050E0
:10135000091F08600846006800F08050009000BF38
:1013600000BF08BD443802400146084600280DDB96
:1013700000BF00BF00F01F0301229A4043099B00F9
:1013800003F1E023C3F8002100BF00BF00BF704796
:101390002DE9F05F80460D461646002701F0EEFC71
:1013A000074639462A46334601F00700C0F1070ACE
:1013B000BAF1040F02D94FF0040A01E0C0F1070AA4
:1013C000D14600F1040ABAF1070F02D24FF0000A29
:1013D00001E0A0F1030AD4464FF0010A0AFA09FA23
:1013E000AAF1010A0AEA020A0AFA0CFA4FF0010B02
:1013F0000BFA0CFBABF1010B0BEA030B4AEA0B04F3
:101400002146404601F0C2FCBDE8F09F00BF00F05D
:101410000702064B19684FF6FF031940044B0B43B4
:1014200043EA0221014B196000BF70470CED00E058
:101430000000FA0570B504460D460CB9012070BDD8
:101440005848006800F00700A84209D255490D70BD
:101450000846006800F00700A84201D00120EEE72E
:10146000207800F0020002281DD1207800F004004E
:10147000042805D14C48006840F4E0504A4908600F
:10148000207800F00800082805D14748006840F49B
:101490006040454908604448006820F0F000A168B9
:1014A000084341490860207800F00100A8B3606853
:1014B000012807D13C4808380068C0F34040B8B95B
:1014C0000120BCE76068022802D06068032807D1C9
:1014D000354808380068C0F3406048B90120AEE7DD
:1014E000314808380068C0F3400008B90120A6E779
:1014F0002D48006820F00300616808432A4908600D
:10150000FFF7D8FE064609E0FFF7D4FE801B41F244
:101510008831884202D9032091E707E02248006819
:1015200000F00C006168B0EB810FEDD11D48006840
:1015300000F00700A84209D91A490D700846006852
:1015400000F00700A84201D0012078E7207800F0E1
:101550000400042807D11448006820F4E050E16832
:10156000084311490860207800F00800082808D1D5
:101570000D48006820F46040216940EAC1000A4932
:10158000086000F03FF808490968C1F30311074AF1
:10159000515CC8400649086006480068FFF7BAFE7B
:1015A00000204CE7003C0240083802408458000804
:1015B000000000201800002001480068704700006B
:1015C0000000002000B5FFF7F7FF04490968C1F3E8
:1015D0008221034A515CC84000BD00000838024027
:1015E0009458000800B5FFF7E7FF04490968C1F304
:1015F0004231034A515CC84000BD00000838024037
:10160000945800082DE9F047002400250026A14643
:101610002548006800F00C0020B1042805D00828F7
:101620003AD105E0DFF8849039E0DFF8849036E0C5
:101630001D48001F006800F03F041B48001F0068A1
:1016400000F4800078B11A481749091F0968C1F3EE
:101650008811A0FB01700146224600233846FEF7A0
:1016600019FE05460EE011480F49091F0968C1F32C
:101670008811A0FB01700146224600233846FEF780
:1016800009FE05460848001F0068C0F30140401CE1
:101690004600B5FBF6F902E0DFF8109000BF00BF8E
:1016A0004846BDE8F0870000083802400024F400F6
:1016B00040787D01F8B504460CB90120F8BD2078CA
:1016C00000F00100002874D0F948006800F00C0018
:1016D00004280DD0F648006800F00C00082813D14B
:1016E000F348001F006800F48000B0F5800F0BD1B4
:1016F000EF4808380068C0F34040002859D06068BF
:10170000002856D10120D9E700BF6068B0F5803FBE
:1017100008D1E7480838006840F48030E4490839C7
:1017200008601EE06068B0F5A02F0DD1E0480838D1
:10173000006840F48020DE490839086008460068E7
:1017400040F4803008600CE0D9480838006820F484
:101750008030D749083908600846006820F48020A6
:10176000086000BF606890B1FFF7A4FD054606E081
:10177000FFF7A0FD401B642801D903209EE7CC4859
:1017800008380068C0F340400028F1D011E0FFF7AE
:1017900091FD054606E0FFF78DFD401B642801D949
:1017A00003208BE7C24808380068C0F34040002897
:1017B000F1D1207800F0020002285FD1BC48006817
:1017C00000F00C0058B1BA48006800F00C0008287E
:1017D0001CD1B748001F006800F48000B0B9B448BD
:1017E00008380068C0F3400020B1E068012801D04B
:1017F000012063E7AE480838006820F0F80021694E
:1018000040EAC100AA490839086037E0E06800B33F
:101810000120A8490860FFF74DFD054606E0FFF7E7
:1018200049FD401B022801D9032047E7A04808389A
:101830000068C0F340000028F1D09D4808380068D7
:1018400020F0F800216940EAC10099490839086090
:1018500014E0002097490860FFF72CFD054606E0DC
:10186000FFF728FD401B022801D9032026E79048F6
:1018700008380068C0F340000028F1D1207800F05B
:10188000080008282CD16069A8B101208A490860A5
:10189000FFF710FD054606E0FFF70CFD401B022890
:1018A00001D903200AE782486C300068C0F3400089
:1018B0000028F1D014E000207F490860FFF7FAFC0F
:1018C000054606E0FFF7F6FC401B022801D903207D
:1018D000F4E677486C300068C0F340000028F1D18E
:1018E000207800F00400042870D1002770483830B8
:1018F000006800F0805090B900BF002000906C4854
:101900003830006840F08050694938310860084636
:10191000006800F08050009000BF00BF01276748BA
:10192000006800F48070B0B96448006840F48070CA
:1019300062490860FFF7BEFC054606E0FFF7BAFC07
:10194000401B022801D90320B8E65C48006800F477
:1019500080700028F2D000BFA068012808D1544848
:101960006830006840F001005149683108601DE0AE
:10197000A06805280DD14E486830006840F004008A
:101980004B49683108600846006840F00100086073
:101990000CE047486830006820F001004449683195
:1019A00008600846006820F00400086000BFA068D6
:1019B000A8B1FFF77FFC054609E0FFF77BFC401B61
:1019C00041F28831884202D9032077E626E0384880
:1019D00068300068C0F340000028EED013E0FFF745
:1019E00069FC054608E0FFF765FC401B41F28831C1
:1019F000884201D9032061E62D4868300068C0F3B1
:101A000040000028EFD1012F07D129483830006865
:101A100020F0805026493831086000BFA0690028B6
:101A200045D02348006800F00C0008285DD0A0696C
:101A3000022845D100201F490866FFF73BFC0546F8
:101A400006E0FFF737FC401B022801D9032035E6EA
:101A5000174808380068C0F340600028F1D1D4E985
:101A600007010843616A40EA81110122A06AC2EBC2
:101A7000500041EA00412C20005D41EA00600C4921
:101A8000091F086001200B490866FFF713FC054693
:101A900006E0FFF70FFC401B022801D903200DE6EA
:101AA000034808380068C0F340600028F1D049E0DE
:101AB0000838024000004742800E47420070004054
:101AC000002021490866FFF7F5FB054606E0FFF711
:101AD000F1FB401B022801D90320EFE51B480068F9
:101AE000C0F340600028F2D12CE0A069012800D1A9
:101AF000E4E51648001D0668A069012820D006F418
:101B00008001E06981421BD106F03F01206A8142D9
:101B100016D147F6C0703040616AB0EB811F0FD11B
:101B200006F440310122A06AC2EB5000B1EB004F35
:101B300006D106F070612C20005DB1EB006F01D082
:101B40000120BBE50020B9E5000047420038024013
:101B50007047704710B504460CB9012010BD94F8C9
:101B60003D0028B9002084F83C00204600F025F80C
:101B7000022084F83D00211D206800F021FC012096
:101B800084F8460000BF84F83E0001213F20015543
:101B9000402001554120015500BF00BF012084F8BD
:101BA000420043200155442001554520015500BF06
:101BB000012084F83D000020D0E77047014691F8ED
:101BC0003D00012801D001207047022081F83D002E
:101BD000164B0868984213D00868B0F1804F0FD0B8
:101BE000134B086898420BD0124B0868984207D0F4
:101BF000114B0868984203D0104B086898420CD1EA
:101C00000868806800F00702062A0CD0086800689F
:101C100040F001000B68186005E00868006840F0BB
:101C200001000B6818600020CEE7000000000140B2
:101C30000004004000080040000C0040004001404B
:101C4000014691F83D00012801D001207047022093
:101C500081F83D000868C06840F001000B68D8605A
:101C6000164B0868984213D00868B0F1804F0FD027
:101C7000134B086898420BD0124B0868984207D063
:101C8000114B0868984203D0104B086898420CD159
:101C90000868806800F00702062A0CD0086800680F
:101CA00040F001000B68186005E00868006840F02B
:101CB00001000B6818600020C8E700000000014028
:101CC0000004004000080040000C004000400140BB
:101CD000704770B504462068C5682068066906F03C
:101CE0000200022819D105F00200022815D1401F78
:101CF00021680861012020772068806900F00300D6
:101D000018B12046FFF7E4FF05E0204600F097F801
:101D1000204600F095F80020207706F00400042803
:101D200019D105F00400042815D1C04321680861C9
:101D3000022020772068806900F4407018B12046A6
:101D4000FFF7C6FF05E0204600F079F8204600F0D6
:101D500077F80020207706F00800082819D105F050
:101D60000800082815D1C0432168086104202077A5
:101D70002068C06900F0030018B12046FFF7A8FFF3
:101D800005E0204600F05BF8204600F059F80020FE
:101D9000207706F01000102819D105F01000102847
:101DA00015D1C04321680861082020772068C069E8
:101DB00000F4407018B12046FFF78AFF05E0204686
:101DC00000F03DF8204600F03BF80020207706F0B8
:101DD000010048B105F0010030B16FF00100216849
:101DE0000861204600F02EF806F08000802809D116
:101DF00005F08000802805D1C04321680861204695
:101E0000FFF7A6FE06F04000402809D105F040008B
:101E1000402805D1C04321680861204600F01EF823
:101E200006F02000202809D105F02000202805D147
:101E3000C043216808612046FFF78BFE70BD7047E4
:101E40007047000010B5044603492068884201D15C
:101E5000FFF736FA10BD0000000C004070477047D5
:101E6000704700002DE9F84F044620680568206897
:101E7000C668206847694FF00009CA4605F00F0997
:101E8000B9F1000F0AD105F0200038B106F02000AA
:101E900020B1204600F0E5FBBDE8F88FB9F1000F56
:101EA0007CD007F0010018B906F49070002875D0B6
:101EB00005F0010030B106F4807018B1606C40F09C
:101EC0000100606405F0040030B107F0010018B1B2
:101ED000606C40F00200606405F0020030B107F071
:101EE000010018B1606C40F00400606405F0080067
:101EF00048B106F0200010B907F0010018B1606C7D
:101F000040F008006064606C002846D005F02000B6
:101F100028B106F0200010B1204600F0A2FB206896
:101F20004069C0F3801A606C00F0080010B9BAF183
:101F3000000F2DD0204600F03BFB2068406900F0E8
:101F40004000402820D100BF00BF2168143151E873
:101F5000001F21F040002168143141E80002002AEE
:101F6000F3D100BFE06B50B17748E16B0865E06BDF
:101F7000FEF7B7FE88B1E06B016D88470DE02046A3
:101F8000FFF76EFF09E009E02046FFF769FF04E074
:101F90002046FFF765FF002060647DE7206B012885
:101FA00078D105F01000002874D006F01000002849
:101FB000FAD000BF002000902068006800902068E0
:101FC0004068009000BF00BF2068406900F04000FA
:101FD000402860D1E06B006840681FFA80F8B8F1D3
:101FE000000F56D0A08D404553DDA4F82E80E06B45
:101FF000C069B0F5807F43D000BF00BF21680C31BD
:1020000051E8001F21F4807021680C3141E8000282
:10201000002AF3D100BF00BF00BF2168143151E88E
:10202000001F21F001002168143141E80002002A5C
:10203000F3D100BF00BF00BF2168143151E8001F79
:1020400021F040002168143141E80002002AF3D158
:1020500000BF202084F842000020206300BF00BFA2
:1020600021680C3151E8001F21F0100021680C316B
:1020700041E80002002AF3D100BFE06BFEF7DBFD70
:1020800002206063A08DE28D801A81B22046FFF7A6
:10209000E6FE01E742E0A08DE18D401A1FFA80F8CC
:1020A000E08DD0B3B8F1000F37D000BF00BF21687A
:1020B0000C3151E8001F21F4907021680C3141E887
:1020C0000002002AF3D100BF00BF00BF2168143115
:1020D00051E8001F21F001002168143141E800029D
:1020E000002AF3D100BF202084F8420000202063A2
:1020F00000BF00BF21680C3151E8001F21F0100023
:1021000021680C3141E80002002AF3D100BF02200F
:10211000606341462046FFF7A2FEBDE605F0800061
:1021200030B106F0800018B1204600F093FCB3E611
:1021300005F0400030B106F0400018B1204600F034
:102140006DFAA9E600BFA7E67524000810B504469D
:102150000CB9012010BDA06900B100E000BF94F8E7
:10216000410028B9002084F84000204600F029F8FA
:10217000242084F841002068C06820F400502168C1
:10218000C860204600F0ECFA2068006920F4904016
:10219000216808612068406920F02A0021684861B0
:1021A0002068C06840F400502168C8600020606466
:1021B000202084F8410084F842000020606300BFC2
:1021C000C8E7704770B504460D46164694F84200BD
:1021D00020280BD105B10EB9012070BD002020636D
:1021E00032462946204600F0D1FBF6E70220F4E70C
:1021F000704770472DE9F84F04460E46174699463A
:102200004FF0000A94F84100202850D106B117B9C8
:102210000120BDE8F88F00206064212084F841008F
:10222000FFF748F88246A784E784A068B0F5805F8E
:1022300004D1206910B90025B04602E035464FF0C0
:1022400000081EE05346002280212046CDF8009071
:1022500000F030FC20B1202084F841000320D8E7B2
:1022600045B9B8F80000C0F308002168486008F1DB
:10227000020803E02878216848606D1CE08C401E4D
:10228000E084E08C0028DDD1534600224021204626
:10229000CDF8009000F00EFC20B1202084F8410021
:1022A0000320B6E7202084F841000020B1E7022097
:1022B000AFE7704700BFFEE710B54FF4005102488A
:1022C000FEF7E8FF10BD00000008024000BFFEE777
:1022D00000BFFEE77047000000B593B0302107A8AB
:1022E000FEF722F8142102A8FEF71EF800BF002016
:1022F00001902348006840F080502149086008465A
:10230000006800F08050019000BF00BF00BF0020B7
:1023100001901C48006840F440401A490860084693
:10232000006800F44040019000BF00BF012007900A
:102330000004089002200D9041050E9119210F9183
:10234000C8211091022111910421129107A8FFF7D1
:10235000B1F908B1FEF76CFC0F2002900220039047
:10236000002004904FF48050059000200690032137
:1023700002A8FFF75FF808B1FEF75AFC13B000BDE2
:1023800040380240007000400348006840F470008C
:10239000014908607047000088ED00E010B5024870
:1023A000FFF797FC10BD0000B004002010B500221C
:1023B0000F213220FEF7ECFF3220FEF7D5FF10BDD3
:1023C00010B50268244B98420BD0B0F1804F08D072
:1023D000224B984205D0224B984202D0214B984282
:1023E00003D122F070024B681A431B4B984214D061
:1023F000B0F1804F11D0194B98420ED0184B984233
:102400000BD0184B984208D0174B984205D0174B69
:10241000984202D0164B984203D122F44072CB6806
:102420001A4322F080034C6943EA040202608B687D
:10243000C3620B688362084B984201D10B69036346
:1024400001234361036903F001031BB1036923F016
:102450000103036110BD00000000014000040040C2
:1024600000080040000C00400040014000440140D2
:102470000048014070B50546AC6B0020E085E08463
:102480002046FFF7EDFC70BD70B506460025B46B25
:1024900020684069C0F3C01594F84100212805D197
:1024A00025B10020E084204600F0C8F8206840698B
:1024B000C0F3801594F84200222805D125B10020F0
:1024C000E085204600F074F8606C40F01000606415
:1024D0002046FFF7C5FC70BD70B50546AC6B28689B
:1024E000006800F48070002842D1E08500BF00BF82
:1024F00021680C3151E8001F21F4807021680C31F3
:1025000041E80002002AF3D100BF00BF00BF2168EC
:10251000143151E8001F21F001002168143141E815
:102520000002002AF3D100BF00BF00BF21681431B0
:1025300051E8001F21F040002168143141E80002F9
:10254000002AF3D100BF202084F84200206B01282C
:102550000ED100BF00BF21680C3151E8001F21F0EF
:10256000100021680C3141E80002002AF3D100BFBD
:1025700000206063206B012804D1A18D2046FFF765
:102580006EFC02E02046FFF733FE70BD70B50546D5
:10259000AC6B01206063206B012805D1A08D410840
:1025A0002046FFF75CFC02E02046FFF722FE70BDEC
:1025B00000BF00BF02680C3252E8002F22F4907175
:1025C00002680C3242E80013002BF3D100BF00BFB9
:1025D00000BF0268143252E8002F22F001010268A5
:1025E000143242E80013002BF3D100BF016B012924
:1025F0000ED100BF00BF02680C3252E8002F22F05B
:10260000100102680C3242E80013002BF3D100BF26
:10261000202180F8421000210163704710B5044664
:102620002068C06820F040002168C860202084F83D
:1026300041002046FFF73DFE002010BD00BF00BF57
:1026400002680C3252E8002F22F0C00102680C32FE
:1026500042E80013002BF3D100BF202180F8411085
:102660007047F8B5044694F84200222875D1A06856
:10267000B0F5805F0CD1206950B90025A66A2068AA
:102680004068C0F308003080A06A801CA06215E09A
:10269000A56A0026A068B0F5805F03D0A06828B9BD
:1026A000206918B920684068287004E020684068F4
:1026B00000F07F002870A06A401CA062E08D401EE0
:1026C00080B2E085002846D12068C06820F0200054
:1026D0002168C8602068C06820F480702168C860E4
:1026E0002068406920F0010021684861202084F8BA
:1026F000420000206063206B012826D10020206367
:1027000000BF00BF21680C3151E8001F21F010000C
:1027100021680C3141E80002002AF3D100BF206893
:10272000006800F0100010280AD100BF00200090BF
:1027300020680068009020684068009000BF00BFDB
:10274000A18D2046FFF78BFB02E02046FFF750FDEE
:102750000020F8BD01E00020FBE70220F9E70000BF
:102760002DE9F84F04462068006920F44050E168E4
:102770000843216808612169A0680843616908432A
:10278000E169084300902068C06849F20C61884301
:10279000009908432168C8602068406920F44070AF
:1027A000A16908432168486176492068884203D0BE
:1027B00075492068884203D1FEF714FF814602E084
:1027C000FEF700FF8146E069B0F5004F6CD10220B2
:1027D0006168A0FB015003461920A9FB0070014667
:1027E0002A463846FDF756FD6421B0FBF1F04FEA6A
:1027F000001A02206168A0FB01510B461920A9FBB9
:1028000000712A463846FDF745FD8346022061687F
:10281000A0FB015003461920A9FB00712A46384647
:10282000FDF738FD6421B0FBF1F000EBC00101EBD6
:102830000010ABEB8000322101EBC0006421B0FB43
:10284000F1F000F0F8000AEB400A02206168A0FBFA
:10285000015003461920A9FB007001462A4638465C
:10286000FDF718FD834602206168A0FB0150034676
:102870001920A9FB00712A463846FDF70BFD64219B
:10288000B0FBF1F000EBC00101EB0010ABEB8000FE
:10289000322101EBC0006421B0FBF1F000F0070031
:1028A0005044216888606AE004206168A0FB015000
:1028B00003461920A9FB007001462A463846FDF759
:1028C000E9FC824604206168A0FB01500346192000
:1028D000A9FB007001462A463846FDF7DBFC64215F
:1028E000B0FBF1F000EBC00101EB0010AAEB80009F
:1028F000322101EB00106421B0FBF1F000F0F00A8E
:1029000004206168A0FB017003461920A9FB005157
:102910003A462846FDF7BEFC6421B0FBF1F00AEB15
:10292000001A04206168A0FB01510B461920A9FB85
:1029300000712A463846FDF7ADFC834604206168E5
:10294000A0FB015003461920A9FB007001462A464E
:102950003846FDF79FFC6421B0FBF1F000EBC001AD
:1029600001EB0010ABEB8000322101EB0010642181
:10297000B0FBF1F000F00F00504421688860BDE822
:10298000F88F0000001001400014014077B581B0BD
:10299000044615460298A062A585002060642220A6
:1029A00084F842002848E16BC8632848E16B08645A
:1029B0002748E16BC8640020E16B086502AE32680D
:1029C0002368191D2B46E06BFEF736FB00BF002085
:1029D000009020680068009020684068009000BF68
:1029E00000BF206970B100BF00BF21680C3151E801
:1029F000001F41F4807021680C3141E80002002A78
:102A0000F3D100BF00BF00BF2168143151E8001F9F
:102A100041F001002168143141E80002002AF3D19D
:102A200000BF00BF00BF2168143151E8001F41F012
:102A300040002168143141E80002002AF3D100BFB0
:102A4000002004B070BD0000D92400088D250008C6
:102A500089240008014691F84100212828D188687E
:102A6000B0F5805F0BD1086948B90A6A1088C0F3D5
:102A700008000B685860086A801C086205E00B6A51
:102A8000581C086218780B685860C88C401E80B2C9
:102A9000C88458B90868C06820F080000B68D86006
:102AA0000868C06840F040000B68D860002070479C
:102AB0000220FCE72DE9F84304460D4617469846E8
:102AC000089E31E0701C70B3FEF7F4FBA0EB080029
:102AD000B04200D816B90320BDE8F8832068C0686A
:102AE00000F00400F8B1802D1ED0402D1CD02068CD
:102AF0000068C0F3C000B0B100BF002000902068A3
:102B00000068009020684068009000BF00BF204629
:102B1000FFF74EFD0820606400BF002084F84000ED
:102B200000BF0120D8E7FFE7206800682840A842DE
:102B300001D1012000E00020B842C3D00020CBE743
:102B40007CB5002001902F480068006800F010005C
:102B5000102807D12B480068C06800F0100008B1A9
:102B6000012000E0002005462648FFF77BF9002DF4
:102B700046D000BF00200090224800680068009006
:102B8000204800684068009000BF00BF1E480068F1
:102B90004068C0F5807084B21C480088844205DD1E
:102BA00021461A48008800F065FD0DE017480088AE
:102BB000844209DA4FF480711448008800F05AFD0D
:102BC0002146002000F056FD1048008884420AD0BB
:102BD0000E4804800E48006828B101AA00210C4864
:102BE000006801F0D9FE00BF019838B14FF0805065
:102BF00008490860BFF34F8FBFF36F8F00BF00BF5E
:102C00007CBD0000A8000020500100200C00002026
:102C10001000002004ED00E070B5044604B970BD5A
:102C20002046FDF78CFB85B22946204601F096FC34
:102C300000BFF4E70FB410B5A2B025A80190802121
:102C400002A8019B249A00F07FF80446002001901E
:102C5000002C03DDA1B202A801F080FC22B010BC60
:102C60005DF814FB2DE9F04107460E4616B9002029
:102C7000BDE8F08101F0D4FC00BF2C4800882C494D
:102C80000988884206DB2948008829490988401AB2
:102C900080B207E026480088C0F500702349098803
:102CA000084480B28046B04501DA404600E0304634
:102CB00004461CB901F0DEFC0020D9E71C4800885E
:102CC000C0F5007085B2AC4213DC1A48184A12886D
:102CD000811822463846FDF70EFB15490988081968
:102CE000C11700EBD1514912A0EB4121104A1180CC
:102CF00017E010480E4A128881182A463846FDF718
:102D0000FAFA621B78190B49FDF7F5FA08490988A8
:102D10000819C11700EBD1514912A0EB4121044A17
:102D2000118001F0A7FC2046A2E700000A00002065
:102D300008000020B0020020014908607047000030
:102D40001000002000BFFEE77CB50C001D461646B3
:102D5000014601D0601E00E00020CDE90010064BC6
:102D60006A462946304600F0F7F8002C02D0009A57
:102D7000002111707CBD00005F3600080248006829
:102D8000C0F30220704700000CED00E010B50028F1
:102D900004DB0A07130E054A135406E00A07140E53
:102DA000034A00F00F031B1FD45410BD00E400E0E1
:102DB00018ED00E002E008C8121F08C1002AFAD18D
:102DC00070477047002001E001C1121F002AFBD1AB
:102DD000704700002DE9FF5F82B00021DDE904307B
:102DE000020DDDF840B0034318D044F61050A2F2B3
:102DF000FF3242431514119801281FD0A5EB0B0098
:102E0000401C5FEA000A4FF000064E4FDFF8389191
:102E1000B046504615D5CAF1000413E011980124BC
:102E20004AA3012801D16FEA0B010298119AC0E967
:102E30000031C0E9024206B0BDE8F09FCBF10000CE
:102E4000DFE704460021404A491842EB0450CDE92F
:102E5000001012E0E00707D032463B4640464946A4
:102E6000FDF750FB8046894632463B4610461946E0
:102E7000FDF748FB06460F466410002CEAD1DDE959
:102E80000401DDE90023BAF1000F06DAFDF73AFB91
:102E900042464B46FDF736FB05E0FDF7A5FB4246F3
:102EA0004B46FDF7A1FB04460E460022284BFDF7DA
:102EB00023FC03D84FF0FF30014607E00022254BEA
:102EC00020463146FDF777FAFDF7FDFB102409E0B7
:102ED000002C0ADB0A220023FDF7DCF9039B3032C9
:102EE0001A55641E50EA0102F2D1641C039AC4F11F
:102EF00011031444119A012A03D0012208430DD171
:102F00000AE0084304D000204FF0110B119072E743
:102F1000A3EB0B056D1E0DE05B4504DD4FF00002D9
:102F200005F1010504E003DA4FF00002A5F1010507
:102F3000002AECD002981199C0E90231C0E900459D
:102F400079E70000000014400000F03F300000006E
:102F50000000F0430000E03F2DE9FF4F95B09A4696
:102F6000884606460025EEE1252877D1002427462D
:102F7000F94A0121039400E0044316F8013F203B85
:102F800001FA03F01042F7D130782A2811D06FF0FF
:102F90002F033078A0F13002092A16D8039A44F0A2
:102FA000020402EB820203EB42021044761C0390FF
:102FB000EFE758F8042B0392002A03DA504244F456
:102FC0000054039044F00204761C30782E2816D169
:102FD00016F8010F44F004042A280DD06FF02F02D8
:102FE0003078A0F13003092B09D807EB870302EBF7
:102FF0004303C718761CF3E758F8047B761C307837
:103000006C280FD006DC4C2817D068280DD06A2811
:1030100014D104E0742810D07A280FD10DE044F4C4
:1030200000140AE044F4801401E044F4401472787F
:10303000824202D104F58014761C761C3078662812
:103040000BD013DC582877D009DC002875D0452830
:10305000F6D04628F4D047281AD193E118E0632827
:1030600035D0642879D0652812D18BE1702873D0CF
:1030700008DC6728F1D069286FD06E280DD06F2842
:1030800006D1ACE073282CD0752874D0782853D0A2
:103090005246179990476D1C54E1C4F30250022820
:1030A00009D003280DD0D8F8001004280DD00D60E9
:1030B00008F1040846E1D8F80010EA17C1E9005207
:1030C000F6E7D8F800100D80F2E70D70F0E718F879
:1030D000041B8DF8001000208DF80100EB46012044
:1030E00003E058F804BB4FF0FF3061074FF00001D8
:1030F00002D40DE009F101018946B9420FDA814598
:10310000F8DB1BF809100029F4D108E009F10101EE
:1031100089468142FADB1BF809100029F6D1039891
:103120005346A0EB090721463846179A00F080FA6B
:10313000284400EB090507E044E008E10DE01BF836
:10314000010B524617999047B9F10109F7D253463E
:1031500021463846179AF2E039E00A21C4F30252B8
:103160004FF0000B0091022A06D058F8040BC1174B
:10317000032A09D00AE023E008F1070020F0070243
:10318000F2E80201904605E000B2C117042A01D11D
:1031900040B2C117002906DA0A460021404261EB1D
:1031A00002012D2202E0220504D52B228DF80420F5
:1031B000012203E0E20701D02022F7E7914657E021
:1031C0000A2100E010214FF0000B00910BE01021CC
:1031D0004FF0000B44F004040827009103E008209E
:1031E0004FF0000B0090C4F30252022A05D058F8A9
:1031F000040B0021032A08D008E008F1070020F0A2
:103200000702F2E80201904603E080B2042A00D1EE
:10321000C0B24FF0000922072AD53278702A07D0B1
:10322000DDF800C08CF0100C5CEA0B0C05D00EE051
:1032300040228DF80420012208E050EA010306D064
:1032400030238DF804308DF8052002229146009B32
:1032500083F0080353EA0B030AD150EA010201D1BB
:10326000620705D530228DF804204FF001097F1E3A
:103270003278582A04D039A20C920CAA02920BE0A0
:103280003BA2F9E75B46009AFDF704F80C9B9B5CB8
:10329000029A521E0292137050EA0102F2D1029871
:1032A00004A9081A00F1200B600702D524F4803429
:1032B00000E001275F4502DDA7EB0B0000E00020E6
:1032C00000EB0B01009003984944401A0390E0037F
:1032D00006D453462146179A039800F0A9F90544ED
:1032E000002706E001A85246C05D179990476D1C63
:1032F0007F1C4F45F6DBE0030CD553462146179A59
:10330000039800F095F9054404E0302052461799DF
:1033100090476D1C0099481E00900029F5DC08E0DC
:103320000298029952460078491C029117999047D9
:103330006D1CBBF10001ABF1010BF1DC5BE100F0B6
:1033400065F90544761C307800287FF40DAE19B07D
:103350002846BDE8F08F00000928010030313233E3
:1033600034353637383961626364656600000000C1
:1033700030313233343536373839414243444546AB
:1033800000000000600700D4062708F1070020F0C5
:103390000700F0E80223804603F0004C5FEA0C00CF
:1033A00001D097A009E0200501D596A005E0E0072F
:1033B00001D095A001E0AFF24C001390307823F0DB
:1033C000004365280CD006DC452809D046281DD0CE
:1033D00047287FD13BE0662818D067287AD136E0AD
:1033E0000021112F01DB112000E0781CCDE9000144
:1033F00004A90CA8FFF7EEFCDDE90D010C9A4FF0D3
:10340000000B07F10109109200914EE04FF00040CF
:103410000097CDE9011004A90CA8FFF7DBFCDDE95A
:103420000D020C9B0F994FF0000B914610930092E8
:1034300011B9791C00EB0109B7EB090003D4C0F105
:10344000FF3B07F10109A9EB0700019042E0012FC2
:1034500000DA01270021112F01DD112000E038469C
:10346000CDE9000104A90CA8FFF7B4FCDDE90D01CA
:103470000C9A00914FF0000BB946109221070FD41F
:10348000009A4A4503DA914601E0A9F10109B9F130
:10349000010F05DD109AA9F10101515C3029F4D02A
:1034A000B84202DA10F1040F03DA0121CDE901106C
:1034B00010E0002803DC8344A9EB000102E0411C7A
:1034C000494500DD8946A0EB0B00401C01904FF000
:1034D00000400290200705D40198484502DB4FF0D8
:1034E000FF30019000208DF84B0002980DF14B0742
:1034F000B0F1004F25D002200C902B200D900298A7
:1035000000280CDA404202902D200D9007E00A219D
:103510000298FCF71BFF3031029007F8011D0C994F
:10352000481E0C900029F2DC02980028EFD1791E89
:103530000D980870307800F0200040F0450007F842
:10354000020D11A8C01BC01D02901398007800B195
:10355000012000EB0901019801EBE07102980144A0
:103560000398401A401E0390E00306D453462146B8
:10357000179A039800F05CF805441398007818B186
:103580005246179990476D1CE00323D553462146B8
:10359000179A039800F04CF805441BE0BBF1000FAC
:1035A00007DB0098584504DD1098179910F80B00B8
:1035B00001E0179930205246904701980BF1010B1A
:1035C000401E05F10105019004D12E2052461799A5
:1035D00090476D1CB9F10001A9F10109DEDC05E09D
:1035E00017F8010B5246179990476D1C0299481E17
:1035F00002900029F4DC53462146179A03989EE670
:103600002D0000002B000000200000002DE9F041FB
:10361000044600251E461746880404D405E03946B2
:103620002020B0476D1C641EF9D52846BDE8F08106
:103630002DE9F041044600251E469046C80301D5F9
:10364000302700E02027880404D505E041463846AD
:10365000B0476D1C641EF9D52846BDE8F0814A6864
:10366000002A06D00A68531C0B6010704868401E80
:10367000486070472DE9F04104460F46381B85B27B
:103680001C480088C0F5007086B2B54214DC1A4AA6
:1036900011191A4A174B1B88D0182A46FCF72BFE23
:1036A000144909884819C11700EBD1514912A0EB00
:1036B0004121104A11801AE00F4A11190F4A0D4B8F
:1036C0001B88D0183246FCF716FEAA1BA0190A4B1D
:1036D000C1180A48FCF70FFE064909884819C117A6
:1036E00000EBD1514912A0EB4121024A1180BDE803
:1036F000F08100000A000020B0010020B00200208C
:1037000090B00EA0FFF788FA17E04FF47A7201210B
:10371000002000F0CFFE0AE0214615A0FFF78AFA4C
:103720002146684600F01AFF1AA0FFF775FA4021FB
:103730006846FFF797FA041EEEDCE6E75B45636830
:103740006F205461736B5D205461736B206973202B
:1037500072756E6E696E672E2057616974696E6747
:1037600020666F7220646174612E2E2E0D0A000097
:103770000D0A5B4563686F205461736B5D20526571
:103780006365697665642025752062797465733A8E
:10379000205B00005D0D0A001CB5002003210346DC
:1037A0004FF40072CDE9001003A1064801F056FD68
:1037B00001F018FA1CBD000073746172745F7461CB
:1037C000736B00001D44000806A0FFF725FA08E00F
:1037D000FEF772FD0BA0FFF71FFA4CF2503001F01C
:1037E0002FF8F5E75B4C4544205461736B5D205422
:1037F00061736B2069732072756E6E696E672E0D32
:103800000A0000004C454420546F67676C65640DE6
:103810000A000000FDF760FDFEF75EFDFDF706F80B
:10382000FDF798F8FDF766F8FFF7B6FF00BFFEE773
:103830002DE9F04105460E462648076826480068EF
:10384000001D00F097FE50B92348006890F82C1036
:103850000120884021490968814320480160681C93
:10386000D8B9D6B11E4948681B49096888601A4909
:1038700082680968CA6018490968091D8268516030
:1038800015490968091D8160154A134909684A618B
:1038900011460968491C11601AE07C190E4800683D
:1038A0004460BC4207D20C480168091D0D480068FD
:1038B00000F090FE0CE008480168091D0A48006805
:1038C00000F088FE09480068844201D2074804607D
:1038D000BDE8F081340000202000002038000020E6
:1038E00008060020280000202400002050000020AE
:1038F00010B5044600F094FE31480068401C304981
:1039000008603048006840B92E48046008460068E6
:1039100001280DD100F0FAF90AE02B48006838B907
:1039200028480068C06AE16A884201D825480460D6
:1039300026480068401C2549086008460068A064C5
:1039400094F82C1001208840214909680843204937
:103950000860E16A01EB81011E4A02EB81014868BF
:10396000A0608268E260211D826851608160E16A26
:1039700001EB8101174A02EB81026261E16A01EB0E
:103980008101144A52F82110491CE26A02EB8202BA
:10399000104B43F8221000F06DFE0B48006868B130
:1039A00008480068C06AE16A884207D24FF0805038
:1039B00009490860BFF34F8FBFF36F8F10BD000040
:1039C00030000020200000203C0000204C0000209F
:1039D000380000204005002004ED00E010B500F0A4
:1039E0001FFE0C48006890B90B4800F0E3FD0B483F
:1039F00000F0E0FD08480A490860084809490860E5
:103A000000220C21052001F08BFA0249086000F029
:103A100031FE10BD700000201C0600203006002082
:103A2000680000206C00002010B516E000F0F8FDE2
:103A30000C48C068C468201D00F09CFD0A4800685E
:103A4000401E0949086009480068401E074908608F
:103A500000F010FE204600F05FF8044800680028DF
:103A6000E4D110BDF4050020300000202C0000201F
:103A700070B504460D46206C70B1216CE0680144BD
:103A8000E160D4E90210884201D32168E160284650
:103A9000226CE168FCF72FFC70BD2DE9F041044673
:103AA0000F4615464FF00008A66B206C48B92068F9
:103AB00000282CD1A06801F0F5FC80460020A06011
:103AC00025E07DB93946226C6068FCF714FC216C56
:103AD000606808446060D4E90101884217D3206817
:103AE000606014E03946226CE068FCF704FC216C4D
:103AF000E068411AE1602168E068884203D2216CE5
:103B0000A068411AE160022D01D106B1761E701C39
:103B1000A0634046BDE8F08110B50446206B00F07C
:103B2000C7FD204600F0C4FD10BD00000146084A54
:103B3000126812680AB9012200E000220A600A68CD
:103B400022B9034A1268D268106800E0002070476A
:103B50006800002030B54FF4F043174800F0070428
:103B60002CB1C01D20F00700134C041B1B1B024688
:103B7000124C22600024114D6C60D018083820F0DF
:103B800007000F4C206000240D4D2D686C600C4D1B
:103B90002D682C601146441A4C60094C24680C6056
:103BA000084D4C682C60084D4C682C604FF0004468
:103BB000064D2C6030BD0000440600207C00002033
:103BC000840000208C000020880000209800002045
:103BD00000BFFFF729FF064800680128F9D94FF018
:103BE000805004490860BFF34F8FBFF36F8FF0E739
:103BF0004005002004ED00E02DE9F04106460D46A9
:103C000017469846069C0DB9246000E02760E663DD
:103C100025640121204601F0B7F984F85080002086
:103C2000A064BDE8F0812DE9F05F82460F46914621
:103C30009B460A9E0C9C4FEA8901A522206BFCF74B
:103C40006CFBA9F10100216B01EB800828F007084B
:103C500008F0070008B9012000E0002050B900BFBB
:103C6000502080F31188BFF34F8FBFF36F8F00BFD9
:103C700000BFFEE7C4F8448087B1002507E0795D06
:103C800004F134004155785D00B902E06D1C102D3F
:103C9000F5D300BF00214320015502E0002084F845
:103CA0003400062E01D2012000E0002050B900BFF0
:103CB000502080F31188BFF34F8FBFF36F8F00BF89
:103CC00000BFFEE7062E00D30526E662266500202B
:103CD0006065201D00F07BFC04F1180000F077FC0B
:103CE0002461C6F10600A06164620020A065E06561
:103CF00084F860005A465146404600F079FB206047
:103D00000B9808B10B980460BDE8F09F10B5002433
:103D100007E004EB84010F4A02EB810000F04AFC4B
:103D2000641C062CF5D30C4800F044FC0B4800F052
:103D300041FC0B4800F03EFC0A4800F03BFC0A48FE
:103D400000F038FC04480949086004480849086044
:103D500010BD000040050020B8050020CC05002063
:103D6000E0050020F40500200806002024000020C3
:103D70002800002010B50146164800E000680368DE
:103D80008B42FBD30246436813448B4204D1436801
:103D90004C682344436001460A464B681344046858
:103DA000A34211D10C4C03682468A34208D04B688D
:103DB0000468646823444B6003681B680B6005E07B
:103DC000054B1B680B6001E003680B60884200D064
:103DD000016010BD7C000020840000202DE9F0412E
:103DE00004460D4616461F464FF0000865602461E4
:103DF000B5420CD8F01BA169884202D34FF00108EC
:103E000011E0211D0948006800F0E4FB0BE0BE4210
:103E100004D2BD4202D34FF0010804E0211D044842
:103E2000006800F0D7FB4046BDE8F0816C00002040
:103E30006800002070B5054600F0F2FBA86B08B9D9
:103E4000012400E0002400F015FC204670BDF1B50F
:103E50000098846C002654B900BF502080F311886C
:103E6000BFF34F8FBFF36F8F00BF00BFFEE7A06BA4
:103E7000E16B884201D2012000E0002050B900BF70
:103E8000502080F31188BFF34F8FBFF36F8F00BFB7
:103E900000BFFEE7A06BE16B88422CD294F945503D
:103EA000002269462046FFF7F8FD0646681C60B907
:103EB000606A08B9012000E00020D8B904F12400AC
:103EC00001F068FBB0B1012614E07F2D01D0012084
:103ED00000E0002050B900BF502080F31188BFF3EC
:103EE0004F8FBFF36F8F00BF00BFFEE7681C40B26B
:103EF00084F8450000BF3046F8BD000070B50546A7
:103F00000E460E480068C068C468201D00F032FBF1
:103F100094F8280000F0040028B1324629462046D3
:103F200000F0D6F805E094F8280000F0FE0084F8D0
:103F300028002046216A884770BD000068000020E4
:103F40007FB57FE0019800287CDB039C606908B99D
:103F5000012000E0002010B9201D00F00BFB684696
:103F600000F0E2F8054601980A2869D2DFE800F07F
:103F70006805072E365806082F3700BF00BF00BF60
:103F800094F8280040F0010084F828000298A26903
:103F9000811803462A462046FFF720FFA8B194F86F
:103FA000280000F0040038B10298A26981182A465E
:103FB000204600F08DF805E094F8280000F0FE009F
:103FC00084F828002046216A88473AE000BF94F828
:103FD000280000F0FE0084F8280032E000BF94F8CA
:103FE000280040F0010084F828000298A061A06930
:103FF00008B1012000E0002050B900BF502080F33C
:104000001188BFF34F8FBFF36F8F00BF00BFFEE774
:10401000A06941192B462A462046FFF7DFFE10E033
:1040200094F8280000F0020018B9204600F040FB88
:1040300005E094F8280000F0FE0084F8280000E075
:1040400000BF00BF002201A90348006801F00AF880
:1040500000287FF477AF7FBD70000020F8B50546DB
:104060000C4600F00FFE684600F05EF80646009829
:1040700020BB44B9B54206D801F01CFB31462846A6
:10408000FFF73CFF1CE03CB10E480068006808B92F
:10409000012000E000200446A91B22460A480068CF
:1040A00000F0A8FB01F006FB50B94FF08050074923
:1040B0000860BFF34F8FBFF36F8F01E001F0FAFA92
:1040C000F8BD00006C0000207000002004ED00E04E
:1040D00070B504460D46164604E0A0690544204626
:1040E000216A8847A06941192B4632462046FFF7CE
:1040F00075FE0028F1D170BD09480068006808B954
:10410000012000E0002020B14FF0FF300549086099
:1041100005E003480068C06800680249086070470D
:10412000240000205000002070B5044601F0D6F8AD
:10413000054607480068854204D200F00BF80120CC
:10414000206001E00020206001480560284670BD25
:104150007800002070B508E00D480068C068046869
:104160004FF0FF312046FFF7C9FE0948006800689C
:1041700008B9012000E000200028EDD004480568BF
:1041800004480068024908600248056070BD0000EC
:10419000680000206C0000200E480068401C08B930
:1041A000012000E0002050B900BF502080F31188AA
:1041B000BFF34F8FBFF36F8F00BF00BFFEE700BF9D
:1041C000502080F31188BFF34F8FBFF36F8F00BF74
:1041D00000BFFEE79C00002008B500BF6846FFF75F
:1041E000A5FC044620460099FFF738FFFFF7A8FE1C
:1041F000F4E770B5044600F013FA94F9455019E05D
:10420000A06C30B12046FFF722FE88B100F096FC8A
:104210000EE0606A08B9012000E0002038B904F11E
:10422000240001F0B7F918B100F088FC00E003E0C9
:10423000681E45B2002DE3DC00BFFF2084F8450076
:1042400000F018FA00F0ECF994F9445010E02069FD
:1042500008B9012000E0002048B904F1100001F085
:1042600099F908B100F06AFC681E45B200E001E06F
:10427000002DECDC00BFFF2084F8440000F0FAF9C8
:1042800070BD00002DE9F04104464FF0000800F039
:10429000F9FC5148006808B9FFF75CFC4F4800681A
:1042A000204000287ED13CB304F10800A04223D96D
:1042B000083404F0070000B304F00700C0F1080060
:1042C0002044A04216D904F00700C0F108000444BD
:1042D00004F0070008B9012000E0002068B900BF21
:1042E000502080F31188BFF34F8FBFF36F8F00BF53
:1042F00000BFFEE7002400E00024002C54D0384822
:104300000068844250D8374E3046056801E02E469A
:104310002D686868A04202D228680028F7D12E488C
:104320000068854240D0306800F108082868306095
:104330006868001B102819D92F1907F0070008B961
:10434000012000E0002050B900BF502080F3118808
:10435000BFF34F8FBFF36F8F00BF00BFFEE76868EA
:10436000001B78606C603846FFF704FD1C496868E4
:104370000968081A1A490860084600681A49096855
:10438000884203D2164800681749086013496868D4
:104390000968084368600020286014480068401CD1
:1043A000124900E000E0086001F084F908F007001D
:1043B00008B9012000E0002050B900BF502080F370
:1043C0001188BFF34F8FBFF36F8F00BF00BFFEE7B1
:1043D0004046BDE8F08100008400002098000020E5
:1043E000880000207C0000208C000020900000202D
:1043F000001F4FF080730360001F21F00103036072
:10440000001F054B036014380260001F6FF00203A9
:104410000360203870470000994100081CB504462D
:1044200000F0FEF80020012103464FF4C072CDE9F0
:1044300000100EA1104800F011FF104802210023C7
:104440004FF4C072CDE900100DA1104800F006FF36
:104450000A480068FEF770FC00F00CF90CA0FEF7AB
:10446000DBFB002000F01AFA1CBD00006C65645FE5
:104470007461736B00000000C9370008040000205D
:104480006563686F5F7461736B000000013700083B
:104490005374617274205461736B3A20616C6C20A8
:1044A0007461736B7320637265617465642E0D0AA9
:1044B000000000002DE9F04104460F4616460CB9F5
:1044C000012000E0002050B900BF502080F3118887
:1044D000BFF34F8FBFF36F8F00BF00BFFEE700F049
:1044E0009FF81C4800685C3050F8240080B9012116
:1044F000184800686030015556B13046FFF798F90A
:104500004FF0805014490860BFF34F8FBFF36F8F97
:1045100000F0B0F800F084F80E4800685C3050F805
:1045200024506DB137B100210A4800685C3040F872
:10453000241005E0681E074909685C3141F8240031
:104540000021044800686030015500F093F82846C7
:10455000BDE8F0812000002004ED00E070B50446C5
:104560000D46C8232A4621460148FDF743FE70BD8B
:10457000A800002001460A69D1E901309860D1E91C
:10458000010358605068884201D18868506000205B
:1045900008611068401E10601068704700BF50200E
:1045A00080F31188BFF34F8FBFF36F8F00BF00E020
:1045B00000BFFDE700F1080141604FF0FF3181606D
:1045C00000F10801C1600161002101607047002114
:1045D0000161704710B502460B685C1C0CB910698C
:1045E00007E002F1080000E04068446824689C424B
:1045F000FAD944684C604C68A160886041600A61E7
:104600001468641C146010BD42684A6093688B6033
:10461000936859609160086103685B1C0360704790
:1046200000BF502080F31188BFF34F8FBFF36F8F0F
:1046300000BF0E480068401C0C490860084600682E
:10464000012812D10A480068C0B208B9012000E070
:10465000002050B900BF502080F31188BFF34F8F66
:10466000BFF36F8F00BF00BFFEE770479C000020C4
:1046700004ED00E00D48006850B900BF502080F301
:104680001188BFF34F8FBFF36F8F00BF00BFFEE7EE
:1046900006480068401E054908600846006820B9C1
:1046A000002080F3118800BF00BF70479C000020ED
:1046B00070B506463546002E44D0083D2C462249AA
:1046C00060680968084008B1012000E0002050B986
:1046D00000BF502080F31188BFF34F8FBFF36F8F5F
:1046E00000BF00BFFEE7206808B9012000E00020FD
:1046F00050B900BF502080F31188BFF34F8FBFF334
:104700006F8F00BF00BFFEE70F496068096808406F
:10471000C0B12068B0B90C4960680968884360601E
:1047200000F0B0FA09496068096808440749086060
:104730002046FFF71FFB06480068401C044908603C
:1047400000F0B8FF70BD0000980000208800002035
:104750009400002000204FF0E021086188610648A5
:1047600000684FF47A71B0FBF1F0401E4FF0E02189
:1047700048610720086170470000002070B5FBF712
:1047800073FD0446102C16D304F1E02090F8F0538A
:1047900015480078854201DB012000E0002050B977
:1047A00000BF502080F31188BFF34F8FBFF36F8F8E
:1047B00000BF00BFFEE70D48006800F4E0600C4950
:1047C0000968884201D8012000E0002050B900BFEC
:1047D000502080F31188BFF34F8FBFF36F8F00BF5E
:1047E00000BFFEE770BD0000A00000200CED00E05F
:1047F000A40000202DE9F04105460E4617462C4640
:10480000FFF70EFF94F94400401C10B9002084F813
:10481000440094F94500401C10B9002084F845007C
:10482000FFF728FFA06B28B93A46314604F124006F
:1048300000F0A6F92046FFF7DCFCBDE8F08100009F
:1048400070B504460025D4B11248006808B90120AB
:1048500000E0002050B900BF502080F31188BFF362
:104860004F8FBFF36F8F00BF00BFFEE700F00AFA63
:1048700000212046FEF7DCFF00F01CFF05463DB995
:104880004FF0805004490860BFF34F8FBFF36F8F24
:1048900070BD00005C00002004ED00E070B505462E
:1048A000FFF7BEFE15B93248006800E0284604460E
:1048B000201DFFF75FFE78B9E06A00EB80002D490C
:1048C00051F8200040B994F82C10012088402A4962
:1048D0000968814328480160A06A18B104F11800F2
:1048E000FFF748FE25480068401C2449086020481E
:1048F0000068844209D1211D2148FFF785FE214827
:104900000068401C1F49086006E01F480068401E00
:104910001D490860FFF7F0FBFFF7ACFE1448006884
:10492000844202D02046FFF7F7F818480068E8B143
:104930000F480068844219D11548006808B9012061
:1049400000E0002050B900BF502080F31188BFF371
:104950004F8FBFF36F8F00BF00BFFEE74FF0805057
:104960000C490860BFF34F8FBFF36F8F70BD00001D
:104970002000002040050020380000204C000020CE
:10498000F40500202C000020300000203C00002016
:104990005C00002004ED00E02DE9F04705460E46DE
:1049A000904655B900BF502080F31188BFF34F8F58
:1049B000BFF36F8F00BF00BFFEE70EB9012000E01C
:1049C000002050B900BF502080F31188BFF34F8FF3
:1049D000BFF36F8F00BF00BFFEE7FFF7CFFE2C468F
:1049E00000BF5021EFF3118081F31188BFF34F8F87
:1049F000BFF36F8F00BF074604F1600010F8069008
:104A000002218155001F50F82600401C04F15C0172
:104A100041F82600B9F1010F72D1A06A08B901204E
:104A200000E0002050B900BF502080F31188BFF390
:104A30004F8FBFF36F8F00BF00BFFEE733480068A2
:104A400000283DD16069D4E902128A60D4E90221CC
:104A50004A60211D42688A4201D1E168416000221A
:104A600062610168491E016094F82C1001208840A1
:104A700027490968084326490860E16A01EB81017A
:104A8000244A02EB81014868A0608268E260211D2F
:104A9000826851608160E16A01EB81011D4A02EB8D
:104AA00081026261E16A01EB81011A4A52F8211028
:104AB000491CE26A02EB8202164B43F8221010E016
:104AC00015494868E0618268226204F11801826831
:104AD00051608160104AA26211460968491C116048
:104AE00000BF0E49E06A0968C96A884208D9B8F16E
:104AF000000F02D00120C8F800000120084908601A
:104B000000BF87F3118800BFBDE8F0875C0000207C
:104B10003800002040050020E00500202000002093
:104B200044000020034909680160034909684160A5
:104B30007047000048000020340000200120014997
:104B4000086070474400002070B504460D4654B913
:104B500000BF502080F31188BFF34F8FBFF36F8FDA
:104B600000BF00BFFEE70548016818312046FFF787
:104B700031FD01212846FEF75BFE70BD20000020BC
:104B800070B504460E46154654B900BF502080F358
:104B90001188BFF34F8FBFF36F8F00BF00BFFEE7D9
:104BA00060680F490968C8610D49826809680A622E
:104BB0000B49096818318268516009490968183140
:104BC0008160074909688C622168491C21600DB128
:104BD0004FF0FF3629463046FEF72AFE70BD000032
:104BE000200000201CB51F4800210B468022CDE983
:104BF00000101DA11E4800F031FB0446012C02D11B
:104C000000F014FE0446012C17D100BF502080F3A1
:104C10001188BFF34F8FBFF36F8F00BF4FF0FF308E
:104C200014490860012014490860002013490860F5
:104C3000FBF760FE00F0AEF810E0601C08B1012048
:104C400000E0002050B900BF502080F31188BFF36E
:104C50004F8FBFF36F8F00BF00BFFEE708480068AB
:104C60001CBD00005400002049444C4500000000D9
:104C7000D13B0008500000203C0000203400002000
:104C80005800002002480068401C01490860704735
:104C90005C00002070B53848006818B10120374921
:104CA000086068E00020354908604FF08040406AA5
:104CB00033490860084600683249096888420BD9C0
:104CC0003149096801F15800896D2D4A12682D4B50
:104CD0001B68D21A114401602948006829490860FC
:104CE00029480068046B4FF0A5352068B0F1A53F56
:104CF0000BD16068B0F1A53F07D1A068B0F1A53F26
:104D000003D1E068B0F1A53F05D01F4801683431F8
:104D10000068FFF743FC1D480068B0FA80F0C0F15E
:104D20001F0101EB81001A4A52F8200008B101204E
:104D300000E0002050B900BF502080F31188BFF37D
:104D40004F8FBFF36F8F00BF00BFFEE701EB810203
:104D50000F4B03EB820042685268426000F1080288
:104D60004368934202D14268526842604268D26806
:104D7000054B1A6000BF70BD5C000020440000209D
:104D80006400002060000020200000203800002087
:104D9000400500201CB55B4800685B49884201D093
:104DA000012000E0002050B900BF502080F311889E
:104DB000BFF34F8FBFF36F8F00BF00BFFEE75148B7
:104DC00000685149491E884201D0012000E00020BE
:104DD00050B900BF502080F31188BFF34F8FBFF34D
:104DE0006F8F00BF00BFFEE748490846007801907A
:104DF000FF200A4610700846007800909DF80000D9
:104E00009DF80020904201D1012000E0002050B91F
:104E100000BF502080F31188BFF34F8FBFF36F8F17
:104E200000BF00BFFEE79DF8000000F05000384AC8
:104E300010700720374A106009E036480068401EAD
:104E4000344A10609DF800004006000E00909DF866
:104E5000000000F080008028EFD02E480068C0F1EC
:104E60000700042801D1012000E0002050B900BF54
:104E7000502080F31188BFF34F8FBFF36F8F00BFB7
:104E800000BFFEE723480068C0F10700042801D1F5
:104E9000012000E0002050B900BF502080F31188AD
:104EA000BFF34F8FBFF36F8F00BF00BFFEE71948FE
:104EB00000680002174A10601046008800F4E060A5
:104EC0001060124A019810700E482030006840F4BB
:104ED0007F000C49203108600846006840F07F40A0
:104EE0000860FFF737FC00200B490860FBF784F9E6
:104EF0000A48006840F0404008490860FBF768F93C
:104F000000201CBD00ED00E071C20F4100E400E094
:104F1000A0000020A40000209C00002034EF00E04E
:104F20002DE9F84305460E4617460024E5B1601EFC
:104F3000B0FBF5F0B04217D305FB06F010F1550FAA
:104F400012D805FB06F808F15400FFF79BF9044658
:104F5000B4B1A14609F154093B464A4631462846B8
:104F60000094FEF749FE0BE054B900BF502080F3D7
:104F70001188BFF34F8FBFF36F8F00BF00BFFEE7F5
:104F80002046BDE8F88300002DE9F04105460E46B5
:104F900001272C4654B900BF502080F31188BFF37D
:104FA0004F8FBFF36F8F00BF00BFFEE7002C42D0D2
:104FB000E06B00283FD04FF0FF31E06BB1FBF0F029
:104FC000216C884237D3FFF72BFBD4E90F122068FE
:104FD00001FB0200A0600020A06320686060E06B1D
:104FE000401E226C216800FB0211E160FF2084F862
:104FF000440084F845009EB9206908B9012000E00A
:105000000020A8B904F1100000F0C4FA80B14FF0FC
:10501000805013490860BFF34F8FBFF36F8F07E0D5
:1050200004F11000FFF7C6FA04F12400FFF7C2FAFA
:10503000FFF720FB00E000270FB1012000E0002077
:1050400050B900BF502080F31188BFF34F8FBFF3DA
:105050006F8F00BF00BFFEE73846BDE8F08100005B
:1050600004ED00E02DE9F74183B005460E464FF010
:1050700000082C4654B900BF502080F31188BFF3BC
:105080004F8FBFF36F8F00BF00BFFEE70EB9206CDC
:1050900008B9012000E0002050B900BF502080F383
:1050A0001188BFF34F8FBFF36F8F00BF00BFFEE7C4
:1050B00000F004F908B9059808B9012000E00020C3
:1050C00050B900BF502080F31188BFF34F8FBFF35A
:1050D0006F8F00BF00BFFEE700BFFFF7A1FAA76B0D
:1050E000F7B131462046FEF7C3FC781EA063206965
:1050F00008B9012000E0002060B904F1100000F0C0
:1051000049FA38B14FF080502F490860BFF34F8FF4
:10511000BFF36F8FFFF7AEFA012006B0BDE8F08154
:10512000059818B9FFF7A6FA0020F6E7B8F1000FC6
:1051300004D101A8FFF7F6FC4FF00108FFF79AFA37
:10514000FFF7A0FDFFF76CFA94F94400401C10B97A
:10515000002084F8440094F94500401C10B9002058
:1051600084F84500FFF786FA05A901A800F02EF89B
:10517000F0B92046FEF75EFEA0B104F124000599C7
:10518000FFF7E2FC2046FFF734F800F093FA00281E
:10519000A3D14FF080500C490860BFF34F8FBFF38D
:1051A0006F8F9AE72046FFF724F800F083FA94E720
:1051B0002046FFF71EF800F07DFA2046FEF73AFE83
:1051C00000288AD00020A8E704ED00E070B505466D
:1051D0000C4655B900BF502080F31188BFF34F8FA4
:1051E000BFF36F8F00BF00BFFEE754B900BF502070
:1051F00080F31188BFF34F8FBFF36F8F00BF00BFE5
:10520000FEE7FFF70DFA134802686868131A206872
:10521000401C08B9002619E00F492868096888422F
:1052200006D06868904203D80126002020600DE077
:105230002068984207D92068C01A20602846FFF7E6
:1052400071FC002602E0002020600126FFF712FA20
:10525000304670BD34000020480000202DE9FF4F8B
:1052600085B0804689461746DDE912ABB800FFF7E6
:1052700009F8064656B16420FFF704F804460CB15D
:10528000266304E03046FFF713FA00E000247CB107
:105290000020CDE900ABCDE902403A464946404600
:1052A000089BFEF7C0FC2046FEF722FB012501E02B
:1052B0004FF0FF35284609B0BDE8F08F0549096871
:1052C00009B9012005E00449096809B9022000E094
:1052D000002070473C0000205C0000200149086865
:1052E00070470000340000202DE9F0414FF0000825
:1052F0006148006800287DD160480068451C5F480F
:10530000056015BB5E480068006808B9012000E030
:10531000002050B900BF502080F31188BFF34F8F99
:10532000BFF36F8F00BF00BFFEE7554807685548C1
:105330000068534908605348076053480068401CA0
:1053400051490860FEF7D8FE00BF5048006885420A
:1053500077D300BF4A480068006808B9012000E020
:10536000002020B14FF0FF304849086068E0444811
:105370000068C068C4686668B54202D243480660E7
:105380005EE06069D4E902128A60D4E902214A60D1
:10539000211D42688A4201D1E168416000226261B8
:1053A0000168491E0160A06A98B1A06AD4E9071299
:1053B0008A60D4E907214A6004F1180142688A42F0
:1053C00001D1216A41600022A2620168491E016088
:1053D00000BF94F82C10012088402D49096808432B
:1053E0002B490860E16A01EB81012A4A02EB810145
:1053F000486800E037E0A0608268E260211D8268B2
:1054000051608160E16A01EB8101224A02EB810275
:105410006261E16A01EB81011E4A52F82110491CC8
:10542000E26A02EB82021B4B43F822101A49E06A3F
:105430000968C96A88428DD34FF001088AE700E005
:1054400000BF15480068C06A00EB8000114951F8A0
:105450002000012801D94FF001081048006808B168
:105460004FF0010804E00E480068401C0C49086039
:105470004046BDE8F08100005C00002034000020C0
:1054800024000020280000204800002050000020B8
:1054900038000020400500202000002044000020AB
:1054A0004000002070B505462C460026002D68D02F
:1054B00035480068844201D1012000E0002050B945
:1054C00000BF502080F31188BFF34F8FBFF36F8F61
:1054D00000BF00BFFEE7606D50B900BF502080F3F1
:1054E0001188BFF34F8FBFF36F8F00BF00BFFEE780
:1054F000606D401E6065216DE06A884241D0606D3C
:1055000000283ED1201DFFF735F840B994F82C1043
:10551000012088401D49096881431C480160206DB5
:10552000E062E06AC0F10600A06194F82C1001204E
:10553000884016490968084314490860E16A01EB8C
:105540008101134A02EB81014868A0608268E26031
:10555000211D826851608160E16A01EB81010C4A82
:1055600002EB81026261E16A01EB8101084A52F8B3
:105570002110491CE26A02EB8202054B43F822101B
:105580000126304670BD00002000002038000020B9
:105590004005002070B50346D868C16851B900BF06
:1055A000502080F31188BFF34F8FBFF36F8F00BF80
:1055B00000BFFEE7886AD1E90745A560D1E9075435
:1055C000656001F118044568A54201D10C6A446088
:1055D00000258D620468641E04603048006800285D
:1055E0003DD14869D1E90245A560D1E90254656021
:1055F0000C1D4568A54201D1CC68446000254D6171
:105600000468641E046091F82C400120A040244CE2
:1056100024682043224C2060CC6A04EB8404214D92
:1056200005EB8404606888608568CD600C1D856822
:105630006C608460CC6A04EB84041A4D05EB84052D
:105640004D61CC6A04EB8404164D55F82440641C6B
:10565000CD6A05EB8505134E46F8254010E0124C47
:105660006068C86185680D6201F1180485686C6026
:1056700084600D4D8D622C462468641C2C6000BF34
:105680000A4CC86A2468E46AA04204D901220120B5
:10569000074C206000E00022104670BD5C00002036
:1056A0003800002040050020E005002020000020F8
:1056B0004400002070B5002400265348006850B90B
:1056C00000BF502080F31188BFF34F8FBFF36F8F5F
:1056D00000BF00BFFEE7FEF7A3FF4B480068401E77
:1056E000494908600846006800287DD1474800689D
:1056F000002879D05BE04648C068C468A06AD4E955
:1057000007128A60D4E907214A6004F1180142684F
:105710008A4201D1216A41600022A2620168491EC9
:1057200001606069D4E902128A60D4E902214A600A
:10573000211D42688A4201D1E16841600022626114
:105740000168491E016094F82C10012088403149FD
:10575000096808432F490860E16A01EB81012E4A7C
:1057600002EB81014868A0608268E260211D8268C6
:1057700051608160E16A01EB8101274A02EB8102FD
:105780006261E16A01EB8101234A52F82110491C50
:10579000E26A02EB8202204B43F822101F49E06AC2
:1057A0000968C96A884202D301201D490860184867
:1057B000006808B9012000E0002000289BD00CB14F
:1057C000FEF79AFC1748056865B100BFFFF78CFD2E
:1057D00010B10120124908606D1E002DF6D1002085
:1057E000104908600E4800E009E0006838B1012661
:1057F00030070D490860BFF34F8FBFF36F8FFEF77F
:1058000039FF304670BD00005C00002030000020F1
:10581000E005002038000020400500202000002086
:10582000440000204000002004ED00E01CB50024EE
:10583000FEF7D4F80E48006858B10E480521002341
:105840004FF48072CDE900100BA10D48FFF706FD63
:10585000044654B900BF502080F31188BFF34F8F26
:10586000BFF36F8F00BF00BFFEE720461CBD0000E6
:105870007000002074000020546D72205376630085
:10588000D9410008000000000000000001020304EC
:1058900006070809000000000102030400061016B4
:1058A00000061016C458000800000020A8000000E0
:1058B000B42D00086C590008A8000020A081000049
:1058C000C42D00080024F4000000000000000000C7
:1058D00000000000000000000000000010000000B8
:1058E00001000000000000000000000000000000B7
:1058F00000000000000000000000000000000000A8
:105900000000000000000000000000000000000097
:105910000000000000000000000000000500000082
:105920000000000000000000000000000000000077
:105930000000000000000000000000000000000067
:105940000000000000000000000000000000000057
:105950000000000000000000000000000000000047
:0C596000AAAAAAAA000000000000000093
:040000050800019955
:00000001FF
