:020000040800F2
:1000000088B10220C9030008ED5300081B4E000808
:100010002F500008E91C0008515A00080000000099
:10002000000000000000000000000000D5020008F1
:10003000ED1C000800000000310300084D540008CA
:10004000E3030008E3030008E3030008E3030008F8
:10005000E3030008E3030008E3030008E3030008E8
:10006000E3030008E3030008E3030008E3030008D8
:10007000E3030008E3030008E3030008E3030008C8
:10008000E3030008E3030008E3030008E3030008B8
:10009000E3030008E3030008E3030008E3030008A8
:1000A000E3030008E3030008E3030008E303000898
:1000B000E3030008E303000875540008E3030008A5
:1000C000E3030008E3030008E3030008E303000878
:1000D000E3030008015A0008E3030008E3030008F3
:1000E000E3030008E3030008E3030008E303000858
:1000F000E3030008E3030008E3030008E303000848
:10010000E3030008E3030008E3030008E303000837
:10011000E3030008E3030008E3030008E303000827
:10012000E3030008E3030008E3030008E303000817
:10013000E3030008FD1D0008E3030008E3030008D3
:10014000E3030008E3030008E3030008E3030008F7
:10015000E3030008E3030008E3030008E3030008E7
:10016000E3030008E3030008E3030008E3030008D7
:10017000E3030008E3030008E303000800000000B5
:10018000E3030008E3030008E3030008E3030008B7
:10019000E3030008E3030008E3030008E3030008A7
:1001A000E3030008E3030008E303000800F002F89B
:1001B00000F080F80AA090E8000C82448344AAF181
:1001C0000107DA4501D100F075F8AFF2090EBAE87F
:1001D0000F0013F0010F18BFFB1A43F0010318477B
:1001E00038810200588102000A444FF0000C10F8D8
:1001F000013B13F0070408BF10F8014B1D1108BFA5
:1002000010F8015B641E05D010F8016B641E01F844
:10021000016BF9D113F0080F1EBF10F8014BAD1C94
:100220000C1B09D16D1E58BF01F801CBFAD505E0B2
:1002300014F8016B01F8016B6D1EF9D59142D6D30C
:10024000704700000023002400250026103A28BF34
:1002500078C1FBD8520728BF30C148BF0B60704738
:10026000662922F03387642900F0C081752900F0E7
:10027000BD81782900F0F681632900F00C8773298D
:1002800000F01187002070471FB522F01AFF00F020
:10029000FCFA00F069FC04000020002122F036FD89
:1002A000401C60600020002122F046FDE0601FBD80
:1002B00010B510BD01F014F91146FFF7E5FF12F07B
:1002C000E5FD01F040F903B4FFF7F2FF03BC05F0D0
:1002D000FCFB00002C4B19680868B0E8F04F80F375
:1002E0000988BFF36F8F4FF0000080F311887047CB
:1002F0000000000008480068006880F308884FF09C
:10030000000080F3148862B661B6BFF34F8FBFF36D
:100310006F8F00DF00BF00BF08ED00E0DFF80C00CA
:10032000016841F470010160704700BF88ED00E092
:10033000EFF30980BFF36F8F134B1A681EF0100F95
:1003400008BF20ED108A20E9F04F106009B44FF08B
:10035000500080F31188BFF34F8FBFF36F8F21F0F0
:100360007FFA4FF0000080F3118809BC1968086813
:10037000B0E8F04F1EF0100F08BFB0EC108A80F309
:100380000988BFF36F8F704790030020EFF305805B
:10039000704700000B49D1F800C04A685CF8043B84
:1003A0001068184442F8040B8C4528BFA1F1DC0CFE
:1003B0008A4228BFA1F1DC02C1F800C04A6020F0E7
:1003C0000040704720A7022009488047094800479D
:1003D000FEE7FEE7FEE7FEE7FEE7FEE7FEE7FEE7F5
:1003E000FEE7FEE704480549054A064B7047000052
:1003F00061540008AD01000888A7022088B10220DE
:1004000088A9022088A902207047000010B500F0DA
:10041000ABFB001D10BD00BFF528020053EA020C23
:1004200000F069802DE9F04B4FF00006002B1FBF54
:10043000B3FA83F503FA05F424FA05F65E4012BF19
:100440001643B2FA82F502FA05F4C5F120051EBF83
:1004500022FA05FC44EA0C04203556EA044C4FEA23
:10046000144418BF641C4FF000084FF0000990427C
:1004700071EB030C39D3002919BFB1FA81F701FAE6
:1004800007F6B0FA80F700FA07F6C7F120071EBF9B
:1004900020FA07FC46EA0C062037B6FBF4FCA7EB73
:1004A0000507103F07F01F0BCBF120060CFA0BFBE2
:1004B0002CFA06F644BFB3460026202FA4BF5E46A2
:1004C0004FF0000B5BEA060C08BF4FF0010B19EB75
:1004D0000B09ABFB027C48EB0608C01B06FB02CCF9
:1004E0000BFB03CC71EB0C01C1E70B460246414606
:1004F0004846BDE8F08B13B54FF000004FF0000107
:10050000AFF30080BDE81C40704700000FB4044901
:1005100010B503AA029800F0CBFD10BC5DF814FBE7
:10052000180000200FB41CB5074B06AA7B4469468F
:100530000090059800F08DFD0020694600F09CFDBC
:100540001CBC5DF814FB0000490B000070B50446AC
:1005500085690068C10601D5302600E02026C00765
:1005600007D070BDD4E9012130469047206A401C75
:1005700020626D1EF6D570BD70B5044685690078A1
:10058000C00707D170BDD4E9012120209047206A1F
:10059000401C20626D1EF6D570BD70B50C46054638
:1005A000012A05D02878800600D5EA69002302E0F8
:1005B000012305E05B1C934202D2E05C0028F9D1E4
:1005C000A869E618C01AA861286A18442862284653
:1005D000FFF7BCFF04E0D5E9012114F8010B9047B7
:1005E000B442F8D32846FFF7C7FF70BD2DE9F041AC
:1005F0000646002410687529314616A510D0AFF3C1
:100600000080002802DA404213A507E031688A071B
:1006100001D512A502E0490704D511A5012401E086
:10062000AFF3008000210A2206F1240709E0B0FBA5
:10063000F2FCB0FBF2F302FB1C0030307854184699
:10064000491C0028F3D123462A463046BDE8F04134
:1006500000F092BA000000002D0000002B00000006
:100660002000000070B504460D4621461068AFF327
:1006700000802188090502D50F4A7A4402E00E4A1B
:100680007A440E32002104F1240305E000F00F0645
:100690000009965D5E54491C0028F7D1207800239C
:1006A000000704D5702D02D009B102231132204673
:1006B000BDE8704000F060BAA47302002DE9F05F5D
:1006C000894604464FF0000ADFF874B1FB44C0F8D5
:1006D00020A02046E1688847002874D0252806D04D
:1006E000D4E901219047206A401C2062F1E70026EE
:1006F0005F462046E16888472028054607DB312D04
:1007000005D2781910F8200C08B10643F1E7B007BC
:1007100001D526F00406C4F81CA00027C4F818A0D0
:100720002A2D09D0284605F0C9F938B304EB87080B
:10073000303DC8F8185019E059F8041B204604EB66
:1007400087029161E1688847012F054618D1E06969
:10075000002820DA26F020061DE0D8F8180000EB6B
:10076000800005EB40003038C8F818002046E168EA
:100770008847054605F0A2F90028EED1012F0AD0DE
:100780002E2D08D12046E16888477F1C0546022FA0
:1007900046F02006C4DBA069002803DA404246F098
:1007A0000106A061F00701D026F010066C2D0BD0D9
:1007B000682D09D04C2D39D06A2D35D0742D35D007
:1007C0007A2D33D016E038E0E1682F46204688477E
:1007D000B842054609D16C2F26D04FF48060E168FD
:1007E000064320468847054604E06C2F1AD04FF494
:1007F000807006430DB3A5F14100192802D82035B9
:1008000046F400664A462946204626604E46FFF7D3
:1008100027FD80B101280BD0F61D26F0070000F15E
:10082000080956E74020E4E78020D8E70020D6E713
:1008300006F104094DE7284652E7206ABDE8F09F1B
:100840007A73020070B5064600F092F90468054616
:1008500030460A22002100F03DFC2C6070BD0000F3
:100860000B4910B5A1F17C020A4CC2E937123721BD
:1008700006E000EB104342F82130074B00FB034039
:100880000B1EA1F10101F4DC10BD0120E8E700001E
:10089000C0A60220E119D666CD0D010040EA010391
:1008A00010B59B070FD1042A0DD310C808C9121F19
:1008B0009C42F8D020BA19BA884201D9012010BD53
:1008C0004FF0FF3010BD1AB1D30703D0521C07E020
:1008D000002010BD10F8013B11F8014B1B1B07D184
:1008E00010F8013B11F8014B1B1B01D1921EF1D1F5
:1008F000184610BD10B5431C02E010F8011B71B181
:100900008107FAD14FF0013202C88C1A8C4314EAE5
:10091000C211F9D0C01A0A0603D0C01E10BDC01AF9
:1009200010BD0A0401D0801E10BD0902FCD0401E7B
:1009300010BD421E12F8013F002BFBD111F8013B04
:10094000002B02F8013BF9D17047032A40F23080B6
:1009500010F0030C00F0158011F8013BBCF1020F00
:10096000624498BF11F801CB00F8013B38BF11F881
:10097000013BA2F1040298BF00F801CB38BF00F898
:10098000013B11F0030300F06780083AC0F00880D3
:1009900051F8043B083A51F804CBA0E80810F5E7F9
:1009A000121D5CBF51F8043B40F8043BAFF30080DC
:1009B000D20724BF11F8013B11F801CB48BF11F851
:1009C000012B24BF00F8013B00F801CB48BF00F821
:1009D000012B7047431A28BF9A427FF6B6AF032A0D
:1009E0001044114440F2268010F0030F1EBF11F88E
:1009F000013D521E00F8013D10F0030F7FF4F6AFE9
:100A000011F0030300F0B183083AC0F00B8051F8F5
:100A1000043D083A51F804CD40F8043D40F804CDB7
:100A2000FFF7F3BF121D5CBF51F8043D40F8043DD1
:100A3000AFF30080D20724BF11F8013D11F801CDBA
:100A400048BF11F8012C24BF00F8013D00F801CD8A
:100A500048BF00F8012C704710B5203AC0F00B8059
:100A6000B1E81850203AA0E81850B1E81850A0E8B2
:100A70001850BFF4F5AF5FEA027C24BFB1E818500C
:100A8000A0E8185044BF18C918C0BDE810405FEA7C
:100A9000827C24BF51F8043B40F8043B08BF7047F8
:100AA000D20728BF31F8023B48BF11F8012B28BFFD
:100AB00020F8023B48BF00F8012B704702F0FF030B
:100AC00043EA032242EA024200F002B84FF0000279
:100AD0000429C0F0128010F0030C00F01B80CCF150
:100AE000040CBCF1020F18BF00F8012BA8BF20F8BE
:100AF000022BA1EB0C0100F00DB85FEAC17C24BF12
:100B000000F8012B00F8012B48BF00F8012B7047BB
:100B10004FF0000200B5134694469646203922BF96
:100B2000A0E80C50A0E80C50B1F12001BFF4F7AFE1
:100B3000090728BFA0E80C5048BF0CC05DF804EBC3
:100B4000890028BF40F8042B08BF704748BF20F831
:100B5000022B11F0804F18BF00F8012B704770472F
:100B600070477047704700000048704748A7022050
:100B70000048704728A702202DE9F0470D46994606
:100B80009246044600F124080168880604D5E0690D
:100B900021F01001216000E00120A84201DD471B87
:100BA00000E00027A1697A1902EB0900081AA06188
:100BB0002078C00602D42046FFF7C8FC002608E0D3
:100BC000D4E901211AF806009047206A401C761CDF
:100BD00020624E45F4DB2078C0060AD52046FFF798
:100BE000B5FC06E0D4E9012130209047206A401C82
:100BF0002062381EA7F10107F4DC07E0D4E90121E7
:100C000018F805009047206A401C2062281EA5F1B4
:100C10000105F3DC2046FFF7AFFC2078000602D583
:100C20000220BDE8F0870120FBE770472DE9FF4F68
:100C30000C461E464FF0FF378BB0D2E90001DDF8BD
:100C400060800A908A46C1F30A5505B93D460021E5
:100C500008464FF00000BAF1000F00F4400005DA3A
:100C600000EB80004FF4400101EA50004FEA905938
:100C7000B9F1010F00DDB9460A9850EA4A000ED0DA
:100C800044F61050A5F2FF3545432F14B8F1000F7C
:100C90001ED07542291E1EDDC9F100021CE0B8F10C
:100CA000010F4FF0000001D0302103E0F24305E0D6
:100CB0002154401CB042FBDB30460022002121546D
:100CC0000B99C1F80880C1E900200FB0BDE8F08F92
:100CD000BD1B6D1CDEE74A4600DA694206A800F03B
:100CE00049FB06AB93E8070003AB83E807005046D7
:100CF0000A9900F031FC8DE80700A0F500501F387C
:100D000000900398002D0ADD42F21F014A46084474
:100D1000002303A90390684600F09AFE09E0A0F5BD
:100D200000504A461F38002303A90390684600F08C
:100D3000A4FE8DE807000004000C03D04FF0FF3044
:100D4000410800E01046B8F1000F03D000220092E5
:100D500015461EE0751E05D400F036FA3032625595
:100D60006D1EF9D5B3460122084302D000227F1C34
:100D700004E02078302801D100227F1E002A099744
:100D800084D01DE0112D07DA00F01EFA30326255D2
:100D90006D1C50EA0102F5D1084302D00098C8B199
:100DA0000EE00021681E05E0235C625C635422545F
:100DB000401E491C8142F7DBAB46A81B401E099030
:100DC000002004F80B000B98099AC0F80880C0E9CD
:100DD000002B7AE711264FF0000857E72DE9F04F76
:100DE00088460446D21D22F0070191B0D1E90001E6
:100DF000CDE90A0104F02EFE02460B98C00F01D087
:100E00002D2007E02068810701D52B2002E020215A
:100E100001EAC000032A099001D0072A05DB034636
:100E20004146204600F016FA0BE12078800601D5F5
:100E3000E06900E00620B8F1650F814606D0B8F100
:100E4000660F18D0B8F1670F70D131E00020B9F10A
:100E5000110F009001DB112301E009F101030AAA3F
:100E600001A90CA8FFF7E2FEDDE90C70002609F1EC
:100E70000105834647E001204B4600904FF00047B4
:100E80000AAA01A90CA8FFF7D1FEDDE90DB00C9963
:100E90005D46002610B909F101000D18B9EB0500F7
:100EA00003D4C0F1FF3609F10105A5EB09002BE0E1
:100EB000B9F1010F01DA4FF001090020B9F1110F6A
:100EC0000090484601DD112300E003460AAA01A96B
:100ED0000CA8FFF7ABFEDDE90C704D4600268346FB
:100EE000207800070AD4AB4500DA5D4601A8012D41
:100EF00004DD411911F8011C302907D04F4502DAF1
:100F000017F1040F04DA012082460FE06D1EEEE7B0
:100F1000002F02DCED1B3E4403E0781CA84200DDFC
:100F20007D1CB81B00F1010A4FF000472078000734
:100F300003D4AA4501DB4FF0FF3A0021B7F1004F7F
:100F40000DF143088DF8431024D002202B23002FED
:100F500001DA7F422D230A21021EA0F1010000DCEC
:100F60005FB197FBF1FC97FBF1F201FB1C7C17468C
:100F70000CF1300C08F801CDEEE7A8F10100037088
:100F80002188090501D5452100E06521A0F101086E
:100F900000F8011C09980FA9A1EB0807FF1D00B17B
:100FA0000120411901EBEA70A1693844081A401E7A
:100FB000A0612078C00602D42046FFF7C7FA09983E
:100FC00028B1D4E901219047206A401C2062207892
:100FD000C00622D52046FFF7B9FA1EE0002E04DB3A
:100FE000B34502DD01A8805D00E03020D4E9012195
:100FF0009047206A401C2062761CAAF101005FEA3B
:10100000000A0AD1FFF7B0FDC0680168405CD4E96E
:1010100001219047206A401C2062281EA5F101058D
:10102000DCDC07E0D4E9012118F8010B9047206AC5
:10103000401C2062381EA7F10107F3DC2046FFF7B1
:101040009BFA032011B041E601694A1C026108784D
:10105000704700B58FB0CDE90131002105910549F8
:101060007944CDE9031011466846FFF727FB0FB01E
:1010700000BD0000E5FFFFFF0A6802F8010B0A60EF
:10108000704710B5436913B1AFF3008001E0FFF77B
:1010900084FA012010BD127800F124010A700022A8
:1010A0004A700122EDE711684FF0FF32E9E70000D6
:1010B000074B70B50D467B44FFF7CBFF044628462F
:1010C00000F0CAF910B14FF0FF3070BD204670BD7E
:1010D0002B8400002DE9F04791460F4680460446D8
:1010E000002614F8015B2DB1FFF790F90068405D10
:1010F000C007F6D12B2D02D02D2D18D0641E4A46E4
:101100003946204600F0E6F827B13968A14201D1FE
:10111000C7F800804FF0020471050BD5404200284B
:1011200003DDFFF725FD0460A007BDE8F08746F466
:101130008066E4E70028F8DAFFF71AFD04606FF034
:101140000040F2E7431A28BF9A427FF685AC10446C
:1011500010F0030F11441EBF11F8013D521E00F89C
:10116000013D10F0030F7FF4F6AF103AC0F00A8093
:1011700010B531E91850103A20E91850BFF4F9AF12
:10118000BDE81040530724BF31E9081020E90810DA
:1011900044BF51F8043D40F8043D12F0030F08BF6E
:1011A0007047D20728BF31F8023D48BF11F8012C23
:1011B00028BF20F8023D48BF00F8012C704700000E
:1011C0000048704728A7022030B5B0F10A024FEA64
:1011D000900E71F100034EEA817EB0EB0E0061EBE0
:1011E00091014FEA101E4EEA017E10EB0E0041EB1A
:1011F00011114FEA102E4EEA016E10EB0E0041EB7A
:1012000011214FEA104E4EEA014E10EB0E0041EB59
:101210001141401841F100014FEAD00040EA41700D
:101220004FEAD10110EB80054FEA810444EA907443
:1012300044EB01046D1944EB0404521BA3414FF02D
:10124000000348BF0A3200D530BD401C41F1000107
:1012500030BD00002DE9F0411F4604460326016819
:10126000072A01F4006004DB08B116A505E016A505
:1012700003E008B115A500E015A521F010002060DD
:10128000A069C01EA0610FB1401EA0612046FFF7FB
:101290005DF94FB1D4E9012138469047206A401CDE
:1012A0002062C01C206206E0206AFAE7D4E901212E
:1012B00015F8010B9047761EF8D22046FFF75CF92F
:1012C000BDE8F0814E414E006E616E00494E460011
:1012D000696E66002DE9F05F824615468B46002751
:1012E0000AF10104B9460078302801D09DB113E01D
:1012F00014F8010B0127782803D0582801D045B1F4
:101300000AE00DB1102D07D1002714F8010B1025AC
:1013100002E0082500E00A250026B0460EE005FBA5
:10132000080005FB06F101271FFA80F801EB1046C3
:10133000B6F5803F00D3B94614F8010B294600F0FA
:10134000F4F80028EBDABBF1000F05D00FB1641EF2
:1013500000E05446CBF80040B9F1000F06D0FFF78B
:1013600007FC02210160C81EBDE8F09F48EA064064
:10137000FAE700002DE9F047814616468AB0354865
:1013800078440DC88DE80D0032487844801C03ACC9
:101390000DC884E80D0041F69B300844372190FBCE
:1013A000F1F290FBF1F5A5F1800501FB12041B3C65
:1013B00002D56442012000E00020DFF898A08046BA
:1013C0000027FA44AAF1BE0A0EE0E0070AD032462E
:1013D000684607EB470101230AEB810100F04DFB52
:1013E0008DE8070064107F1C002CEED1194F7F445C
:1013F000AE3F19E0E80715D007EB04100DF1180A0D
:1014000090E80E008AE80E00C068F04201D19819F9
:1014100008903246012306A903A800F02EFB03AB77
:1014200083E807006D10641C002DE3D14FF0010329
:1014300032466946B8F1000F03A802D000F008FB5D
:1014400001E000F01AFBC9E90001C9F808200AB060
:10145000BDE8F08754670200007B00F08000704711
:101460004FF0013C50F8042B51F8043B9A4221D133
:10147000A2EB0C03934313EACC1317D150F8042BBF
:1014800051F8043B9A4215D1A2EB0C03934313EAA3
:10149000CC130BD150F8042B51F8043B9A4209D1DC
:1014A000A2EB0C03934313EACC13DBD04FF0000004
:1014B000704700BFD01A01BAB1FA81F101F01801EA
:1014C00022FA01F0CB40C1F12001DBB2C0B2C01A58
:1014D0002CFA01F3D11A914311EAC311E6D17047F6
:1014E0007546FFF76DFEAE4605006946534620F08F
:1014F0000700854618B020B5FEF774FFBDE8204010
:101500004FF000064FF000074FF000084FF0000BBF
:1015100021F00701AC46ACE8C009ACE8C009ACE872
:10152000C009ACE8C0098D4670473A2800D230386F
:1015300020F02002412A01D3A2F13700884201D3D2
:101540004FF0FF30704710B50446AFF300802046DF
:10155000BDE81040FEF7B7BE5FEA400C08BF91F04F
:10156000000F4FEA8C234FEAC12243EA51514FEA60
:101570001C5018BF00F5F0404FEA300018BF41F092
:1015800000415FEA6C5C00F02980BCF1FF3F08BFBE
:1015900040F080407047130C06BF12044FF0100C4F
:1015A0004FF0000C130E04BF12020CF1080C130FC5
:1015B00004BF12010CF1040C930F04BF92000CF154
:1015C000020CD30F04BF52000CF1010C11464FF076
:1015D0000002A0F11F00A0EB0C00704711F0004FBB
:1015E00008BF704731F000413FF4D5AF0B0C06BF88
:1015F00009044FF0100C4FF0000C0B0E04BF090251
:101600000CF1080C0B0F04BF09010CF1040C8B0F3B
:1016100004BF89000CF1020CCB0F04BF49000CF190
:10162000010CCCF12003A0EB0C0022FA03F302FA28
:101630000CF241EA030100F10100704720F07F4CF9
:1016400080EA030023F07F47ACEB070303F57C53EC
:1016500000F0004003F1FF032DE980494FEA154BEC
:1016600009B44FEA144325EA0B4E24EA03480FF26B
:10167000042606EB132749083E785FEA320203FB93
:101680000667C7F5000707FB06F64FEA54374FEA2F
:10169000D64606F1020607FB066CCCF1005C4FEA69
:1016A0001C472CEA074C07FB06F40CFB06F504EB81
:1016B00015464FEA961634BF00204FF000404FEA1F
:1016C000D13706FB07FC4FEA1C4C0CFB0BF7D21B77
:1016D00003FB0CF761EB07010CFB0EF7B0EB0740C7
:1016E00072EB17420CFB08F734BFA2EB0742B2EBD8
:1016F000074261EB17414FEA0C444FEA910706FBA2
:1017000007FC4FEA1C4C0CFB0BF7B0EBC74072EB2D
:10171000573203FB0CF734BFA2EBC742B2EBC74210
:1017200061EB57310CFB0EF7B0EBC70072EB577251
:101730000CFB08F734BFA2EBC702B2EBC70261EBA8
:101740005771039F4FEA816141EA921104EBCC0487
:101750004FEAD1374FEA826206FB07FC42EA901259
:101760004FEA80604FEA1C4C0CFB0BF7D21B03FBCB
:101770000CF761EB07010CFB0EF7B0EB074072EBC7
:1017800017420CFB08F734BFA2EB0742B2EB07424B
:1017900061EB17414FEA8C554FEA910704EB9C240B
:1017A00006FB07FC4FEA1C4C0CFB0BF7B0EBC740E9
:1017B00072EB573203FB0CF734BFA2EBC742B2EB1C
:1017C000C74261EB57310CFB0EF7B0EBC70072EB71
:1017D00057720CFB08F734BFA2EBC702B2EBC7028B
:1017E00061EB577115EB4C254FEA816141EA92118B
:1017F0004FEA82624FEAD13742EA901206FB07FCB9
:1018000044F100044FEA80604FEA1C4C0CFB0BF7DC
:10181000D21B03FB0CF761EB07010CFB0EF7B0EBDF
:10182000074072EB17420CFB08F734BFA2EB0742EC
:10183000B2EB074261EB174115EB1C154FEA813102
:1018400041EA92414FEA823242EA90424FEA8030C6
:101850004FEA0C7644F1000448EA03434EEA0B4891
:101860004FF0000EB2EB080C71EB030724BF624689
:1018700039464EEB0E0E4FF0000B00185241494115
:101880004BEB0B0BB2EB080C71EB03077BF1000B7E
:1018900024BF624639464EEB0E0E4FF0000B001887
:1018A000524149414BEB0B0BB2EB080C71EB0307B8
:1018B0007BF1000B24BF624639464EEB0E0E51EA17
:1018C000020718BF46F0010616EB0E7655F100022E
:1018D00054F1000103D5BDE88901BDE80088BDE8E9
:1018E0008901BDE80048B619524141EB0101A3F15D
:1018F0000103704780807F7E7D7C7B7A7978777664
:1019000076757473727171706F6E6E6D6C6C6B6ADC
:101910006A6968686766666564646363626161607A
:10192000605F5F5E5E5D5D5C5C5B5B5A5A595958F7
:101930005857575656555555545453535252525161
:10194000515050504F4F4F4E4E4D4D4D4C4C4C4BB7
:101950004B4B4A4A4A4949494848484747474746FE
:10196000464645454544444444434343434242423A
:1019700042414141002B9C4630D477002BD01CB50E
:101980004FEA370703B44FF010004FF01001BAF1DF
:10199000000F06D0BCF1000FDCBF40F0080040F0A3
:1019A00008014FF000000FBCBDE810400BF1010B27
:1019B000BBF1010F08BF5FEA170722BF12F1010256
:1019C00011F101014FF0004143F1000300F000402C
:1019D00043EA00007047F9D35708D0E746EA0646C5
:1019E00013F1400F4FEA16461FDD13F1200FDFBF42
:1019F00016430A46002120335B42BED0C3F12007C4
:101A000046EA064602FA07F74FEA164646EA07068E
:101A1000C3F1200722FA03F201FA07F721FA03F1D2
:101A20004FF0000342EA0702A7E746EA020646EA49
:101A300006464FEA164646EA0106BCBF46EA064697
:101A4000360C4FF000034FF000024FF0000194E716
:101A50002DE9804C9A46934670B491E8380007C847
:101A600031EA400C48BF34EA430C03D5FFF7E6FDEA
:101A7000FFF780FFF0BCBDE8008C2DE9804C9A4652
:101A8000934670B491E8380007C810F0804F08BF43
:101A900013F0804F03D100F005F8FFF76BFFF0BCA7
:101AA000BDE8008C20F07F4780EA030023F07F4CE4
:101AB00007EB0C03A3F57C5300F00040A3F1FE03F9
:101AC00092F0000F00F0B38095F0000F00F07780E7
:101AD0002DE901494FEA11404FEA144621EA004836
:101AE00000FB06FC24EA064708FB06F607FB08F89D
:101AF00000FB07F718EB06484CEB164C4FEA124B6D
:101B000018EB07484FEA15464CEB174022EA0B4EFC
:101B10000BFB06FC25EA06470EFB06F607FB0EFE4E
:101B20000BFB07F71EEB064E4CEB164C4FF0000676
:101B30001EEB074E4CEB174B18EB0B0840F1000067
:101B400018EB0E0B58EB000840F100008F1A4FF015
:101B500000013CBFC943661B14BFB5EB040C002158
:101B60003CBFC943F61B4FEA17444EEA8E0E27EAE4
:101B700004454FEA1C4704FB07622CEA074C05FBAF
:101B800007F70CFB05F604FB0CFC16EB074642EBD3
:101B9000174216EB0C4642EB1C421BEB060658EBB9
:101BA0000202414146EA9E0601D5BDE80189B61907
:101BB000524141EB0101A3F10103BDE801894FEA64
:101BC00014454FEA114724EA054621EA074C05FB74
:101BD00007F406FB07F70CFB06F105FB0CFC11EB09
:101BE000074144EB17444FEA124711EB0C4144EB19
:101BF0001C4422EA074C05FB07F206FB07F70CFB27
:101C000006F605FB0CFC16EB074642EB174216EBFB
:101C10000C4642EB1C456A1854F1000148BF70475E
:101C2000B619524141EB0101A3F10103704795F050
:101C3000000F37D04FEA11424FEA144721EA02461B
:101C400024EA074C02FB07F106FB07F70CFB06F43E
:101C500002FB0CFC14EB074441EB17414FEA15471C
:101C600014EB0C4441EB1C4125EA074C02FB07F541
:101C700006FB07F70CFB06F602FB0CFC16EB07460F
:101C800045EB174516EB0C4645EB1C42121951F17A
:101C9000000148BF7047B619524141EB0101A3F161
:101CA000010370474FEA14454FEA114724EA0546FD
:101CB00021EA074C05FB07F106FB07F70CFB06F2D0
:101CC0004FF0000605FB0CFC12EB074241EB1741FD
:101CD00012EB0C4251EB1C4148BF7047921841EB8C
:101CE0000101A3F10103704700BFFEE7704710B583
:101CF0000146002226E002EB82040B6903EBC400DC
:101D00000023036043608360C360036243624FF05B
:101D10000043036044F2F8534360436823F00043F8
:101D2000436001F1480343F82200032A07D202EB83
:101D300082040B6903EBC4032833C36001E00B6921
:101D4000C360521C042AD6D30024CC650C668C6672
:101D5000CC668C650B6803F580530C69DC6010BDA4
:101D600010B50146002222E002EB8204CB6803EBAF
:101D7000C4000023036043608360C36001F1180363
:101D800043F82200036843F480130360032A07D258
:101D900002EB8204CB6803EBC4032833C36001E089
:101DA000CB68C360036843F440030360521C042AF9
:101DB000DAD300248C620B6803F58053CC681C6175
:101DC00010BD38B5044600200090206800F5805012
:101DD000806940F48011206800F58050816120689E
:101DE00000F5805080690090012000F067FC0099A8
:101DF000206800F58050816138BD000010B50248B0
:101E000000F010FD10BD0000B806002030B50346FC
:101E10001479557944EA0520084C0C442064D478A0
:101E20002406957844EA0544557844EA0524157853
:101E300044EA0500014C0C44606430BD008002405F
:101E400010B5A4B0044601208DF83C008DF83D008B
:101E500000200D908DF84B0001208DF84A000020E5
:101E60008DF8480001208DF8300000208DF84C00DE
:101E70008DF83B0014908DF854001D908DF878007B
:101E80001F908DF882008DF880004FF480401090F4
:101E9000C010119000208DF85C000BA9204600F0C6
:101EA00095F901208DF80C008DF80D008DF81D00BE
:101EB0008DF80E00002005908DF81C008DF81E0096
:101EC000089001208DF824008DF804000004029091
:101ED000800106904012049001208DF8250000201A
:101EE0000A9000906946204600F010F924B010BD19
:101EF0000020704710B501F0F3FA10BD10B502488C
:101F000001F046F8002010BDB806002070B5044668
:101F10000D46164633462A462146044800F058FF2F
:101F200010B14FF0FF3070BD0020FCE7B806002074
:101F300070B504460D46164633462A4621460448E7
:101F400001F073F910B14FF0FF3070BD0020FCE7D5
:101F5000B80600202DE9F04F80460C46164608F1E1
:101F600018031A69D3F810904FF0000C53F82210A0
:101F7000A568E246086800F00040B0F1004F04D0C8
:101F800003F1140050F8220010B10220BDE8F08FD8
:101F90000CF1010C2868886048686FF30C00D5F8D4
:101FA00004B040EA0B004860207800F0010038B12E
:101FB000086820F44000D4F814B040EA0B00086030
:101FC000207800F0200038B1086820F04060D4F894
:101FD00010B040EA0B000860207800F0040018B14F
:101FE000086840F080000860086840F08050086091
:101FF00000BF00BF00BFBFF35F8F00BF00BF00BFC7
:10200000086840F0004008605DE0086820F000507B
:10201000086026B1086840F08040086003E0086866
:1020200020F08040086000BF521C042A00D3121F19
:1020300000BF53F82210086820F08050086008683C
:1020400000F00040B0F1004F04D003F1140050F84C
:102050002200E8B14A4653F82210002714E000BFDE
:1020600000BF00BFBFF35F8F00BF00BF00BF0868A5
:1020700020F00040086000BF521C042A00D3121F49
:1020800000BF53F822107F1C6745E8D302207DE78C
:102090000CF1010CAD682868886048686FF30C008B
:1020A000D5F804B040EA0B0048600AF1010A00BF0D
:1020B00000BF00BFBFF35F8F00BF00BF00BF086855
:1020C00040F000400860A86800289ED126B108684A
:1020D00040F08040086003E0086820F0804008601D
:1020E000086840F00050086003F11400D3F824B0F1
:1020F00040F822B01A6172B60AF10100D3F828B094
:102100005844986262B6002040E7000070B505466A
:102110000C46286800F5805086692B480640207BD5
:1021200008B9012000E000208006617B40EA4160A0
:10213000617F09B9012100E0002140EA0150A17B43
:1021400040EA415061690843217F40EAC110A17F04
:1021500040EA8110216A084394F8241040EA810083
:102160000643286800F580508661286800F5805095
:102170008669012000F0A2FA286800F58050866187
:102180002179A06840EA4160A169084321690843B8
:1021900094F8251040EAC110A16A40EA8100216844
:1021A000084340F40001286800F580500160286869
:1021B00000F580500668012000F080FA286800F5DC
:1021C0008050066070BD0000233FDEF870B5054604
:1021D0000C462868066830480640207C08B9012073
:1021E00000E00020C005617C09B9012100E0002168
:1021F00040EA8150A1680843E17F40EA01406169FB
:102200000843A17F09B9012100E0002140EA4130E3
:10221000217F40EA0130A1690843217940EA812009
:1022200094F8201009B9012100E0002140EA412082
:10223000E17B40EAC110616A084394F8281040EA43
:10224000011006432868066028680668012000F02F
:1022500035FA28680660286886694FF6417006409E
:1022600094F84C00B4F8481040EA0140216D08434E
:1022700094F83010084394F85610084394F854101A
:10228000084306432868866128688669012000F0B3
:1022900015FA2868866170BD0F8120FF2DE9F8438B
:1022A0000446002000904FF00108A56E04F148009C
:1022B00050F82560E76E2EE0306A58B9684600F0A5
:1022C000F9FD009810B94FF0000803E00098306263
:1022D0000098B060B8F1000F1DD000BF00BF00BF74
:1022E000BFF35F8F00BF00BF00BF4FF00040306002
:1022F000A06D10B91048706002E044F2E8307060E0
:1023000000BF6D1C042D00D32D1F00BF04F1480039
:1023100050F825607F1E17B1B8F1000FCCD1E06EE8
:10232000B84206D00021206800F580508160A56683
:10233000E766BDE8F8830000E843008070B5044616
:10234000B3F5804F13D1D1E9000540EA05108D683F
:1023500040EA05208D6928438D8940EA054054F8FC
:102360002250064E3540284344F8220003E06FF027
:10237000704044F82200002070BD00000000F0CF43
:1023800070B50246086852F8200020F001000E687F
:1023900042F826008868082801D1402500E0002581
:1023A000486828438E683043CE6830430E69304316
:1023B0004E693043CE6930430E6A30434E6A304333
:1023C0008E6A3043CE6A30430E6B40EA060388695A
:1023D0000343486B0343C86B03430E4C44F48064CF
:1023E00044F4801444F4E024086852F82000A04328
:1023F00018430E6842F82600486BB0F5801F07D1DD
:10240000086828B1106820F480104E6B30431060CB
:10241000002070BD7FFB080030B50346D1E9000500
:1024200040EA05108D6840EA05208D8940EA05459F
:10243000088A401E45EA0055087D801E45EA006076
:102440008D692843551C53F8255005F04045284315
:10245000551C43F82500186800F48010B0F5801F63
:102460000BD1586820F47004088A401E44EA0054D6
:10247000586820F4700020435860002030BD0246A8
:102480000868B0B9D1E901031843CB6818430B6958
:1024900018434B6918438B691843CB6918430B6A7F
:1024A00018434B6A184313686FF30E031843106008
:1024B00019E0D1E9070318434B6A1843136823F462
:1024C000F84318431060D1E901031843CB6818435F
:1024D0000B6918434B6918438B69184353686FF3B2
:1024E0000E0318435060002070470246506943F6BF
:1024F000FE73984340EA41005061002070472DE987
:10250000F04105460C4616460027D4E90001084371
:10251000A168491E40EA4110E16840EA412029696A
:102520006FF315010843286100F0DAFF07460AE05F
:10253000701C40B126B100F0D3FFC01BB04202D9DD
:102540000320BDE8F081A86900F020002028EFD02A
:102550000020F6E730B50346FAB90868401E4C681B
:10256000641E40EA04148868401E44EA0024C868D7
:10257000401E44EA0034088A401E44EA0044888A27
:10258000401E44EA0054087E401E44EA00609C68F5
:1025900004F070442043986022E0C868401E0403A1
:1025A000888A401E44EA00509C680E4D2C4020430F
:1025B00098600868401E4C68641E40EA04148868ED
:1025C000401E44EA0024088A401E44EA0044087E73
:1025D000401E44EA0060DC6804F070442043D86088
:1025E000002030BDFF0F0FFF70B50446A56D00F051
:1025F00077FF064694F83500022808D080206065F1
:1026000000BF002084F8340000BF012070BD2068A6
:10261000006820F01600216808602068406920F0FA
:10262000800021684861206C08B9A06C28B120683E
:10263000006820F00800216808602068006820F029
:1026400001002168086010E000F04AFF801B0528A7
:102650000BD920206065032084F8350000BF0020DE
:1026600084F8340000BF0320D0E72068006800F041
:1026700001000028E8D194F85C103F208840A86051
:10268000012084F8350000BF002084F8340000BF2A
:1026900000BFBBE7014691F83500022803D0802037
:1026A000486501207047052081F8350008680068FA
:1026B00020F001000A6810600020F3E770B50446BE
:1026C00000F00EFF06462546681C10B1044800784D
:1026D000054400BF00F004FF801BA842FAD370BD80
:1026E0002C00002038B50446204600F01FF800F00A
:1026F0008000802815D100200090694609480068B4
:102700001FF000FC01280BD100BF009838B14FF03A
:10271000805005490860BFF34F8FBFF36F8F00BF34
:1027200000BF38BD6803002004ED00E00146D1F889
:102730008C007047024609B9012070471068006894
:10274000C0F3001081F828001068006800F06000F5
:10275000486210680068C0F3402080F0010081F8F2
:10276000200010680068C0F30040C8771068006857
:10277000C0F3403080F00100887710680068C0F333
:10278000003008771068006800F400608861106805
:10279000006800F48040486110680068C0F3805011
:1027A00080F00100487410680068C0F3C05080F0E9
:1027B0000100087410680068C0F3C010C873106886
:1027C000006800F4602088601068006800200871CC
:1027D00010688069C0F3400081F854001068806977
:1027E000C0F3C01080F0010081F84C0010688069CF
:1027F00000F03000086510688069000C886410687B
:102800008069C0F3800081F856001068806900F08C
:102810000800400808B1012000E0002081F85500C0
:1028200000208AE710B50446206800F58050406912
:1028300000F0400040280FD1206800F58050C069AA
:1028400000F04000402807D14249206800F5805040
:102850004161204600F052FB206800F5805040693D
:1028600000F0010078B1206800F58050C06900F0E8
:10287000010040B14FF00111206800F58050416126
:10288000204600F0AFFC206800F58050406900F45D
:102890000040B0F5004F3DD1206800F58050C06980
:1028A00000F40040B0F5004F34D1D4F8880040F077
:1028B0000800C4F88800206800F58050406900F4E2
:1028C0000050B0F5005F15D1206800F580504069D8
:1028D00021490840C4F88C00206800F58050C06988
:1028E00020F4C031206800F58050C161E020C4F8B8
:1028F00084000CE0206800F58050406948F2806157
:102900000840C4F88C00206800F5805041612046E2
:10291000FFF7E8FE2068806B00F0080008280BD164
:102920002068C06A00F06000C4F89400204600F0FF
:10293000CDF90020C4F894000848006800F4002095
:1029400030B14FF4002005490860204600F06CFCCF
:1029500010BD00004000010000207E00143C01403A
:1029600038B504460CB9012038BDD4F8840028B924
:102970002320C4F88400204600F05CF800BF00204B
:1029800000902A48006840F48040284908600846C2
:10299000006800F48040009000BF00BF2448006839
:1029A00020F400002249086008460068A168084336
:1029B0001F49086008460068206800F580500068DC
:1029C00040F00101206800F58050016000F088FDB2
:1029D00005460DE000F084FD401BB0F5FA7F07D9F5
:1029E0000420C4F88800E020C4F884000120BBE77C
:1029F000206800F58050006800F001000028E9D14F
:102A00002046FFF71DFA2046FFF7AAF92046FFF7F8
:102A10006EF9002120466268FFF7F8F90020C4F83B
:102A200088001020C4F8840000209DE7443802404C
:102A30000438014010B588B0044600BF00BF002034
:102A400001909C48006840F001009A4908600846DF
:102A5000006800F00100019000BF00BF00BF00BF90
:102A600000BF002001900846006840F001000860A7
:102A70000846006800F00100019000BF00BF00BFE1
:102A800000BF00BF002001900846006840F0010030
:102A900008600846006800F00100019000BF00BF18
:102AA00000BF00BF00BF002001900846006840F052
:102AB000040008600846006800F00400019000BFB0
:102AC00000BF00BF00BF00BF0020019008460068A3
:102AD00040F0040008600846006800F0040001901F
:102AE00000BF00BF00BF00BF00BF0020019008462C
:102AF000006840F0040008600846006800F0040028
:102B0000019000BF00BF00BF00BF00BF00200190C8
:102B10000846006840F0400008600846006800F081
:102B20004000019000BF00BF00BF00BF00BF0020F9
:102B300001900846006840F04000086008460068C0
:102B400000F04000019000BF00BF00BF00BF00BF09
:102B5000002001900846006840F0400008600846E8
:102B6000006800F04000019000BF00BF00BF00BF40
:102B700000BF002001900846006840F00070086027
:102B80000846006800F00070019000BF00BF00BF61
:102B9000002001900846006840F080600860084608
:102BA000006800F08060019000BF00BF00BF0020FF
:102BB00001900846006840F0006008600846006820
:102BC00000F00060019000BF00BF00BF0220039032
:102BD000049000200590032006900B20079003A985
:102BE000354800F057FB0420039003A9324800F059
:102BF00051FB8020039003A92F4800F04BFB0220DB
:102C0000039003A92D4800F045FB1020039003A971
:102C10002A4800F03FFB2020039003A9274800F03A
:102C200039FB4FF40060039003A9254800F032FB04
:102C30004FF40050039003A9224800F02BFB4FF4FF
:102C40008040039003A91F4800F024FB15F0FFF813
:102C500002AB022200211C4800F0BAF8029878B1B9
:102C600000BF0121072013F0D2FA642003F0A8F876
:102C70000021072013F0CBFA642003F0A1F80DE047
:102C80000021072013F0C3FA642003F099F8012112
:102C9000072013F0BCFA642003F092F815F0D9F87D
:102CA000002207213D2000F058FE3D2000F045FEA7
:102CB00008B010BD30380240000002400008024059
:102CC0000004024000180240B806002070472DE9B9
:102CD000F05F04460F464FF00008C34647B9D4F8EA
:102CE000880040F00100C4F888000120BDE8F09F92
:102CF000D4F88400232801D00120F7E7E66D04F121
:102D0000480050F82650E06EC0F1040942E02868FF
:102D100000F4807018B1A969A167E9696167286842
:102D200000F4007008B9E06F40B3286800F4007048
:102D300010B1002121666166D4F814A0286800F45F
:102D4000807040B12868C0F30D40A0F1040A2968E2
:102D500021674FF0010BA86828621FFA8AF304F17B
:102D60008001081F2A6A00F0E5F8206E401C2066EA
:102D7000606E00EB0A0161660020286200BF761CCD
:102D8000042E00D3361F00BF04F1480050F826502F
:102D900008F10108286800F0004020B9C84502D2B7
:102DA000BBF1000FB3D0E06E00EB0801E166E06E0E
:102DB00010B12046FFF772FAE665BBF1010F05D1AD
:102DC000E06F38600021E16700208FE701208DE788
:102DD0002DE9F04705460E461746984628680469CF
:102DE00004F01C044FF4784000EAC62004434FF47A
:102DF000F86000EA8710044324F0020444F0010460
:102E00002868046100F06CFB81460BE000F068FB71
:102E1000A0EB0900B0F5803F02D30120BDE8F087A8
:102E20002868046904F001000028EFD1286840698F
:102E300080B2C8F800000020F0E72DE9F047064610
:102E400006F11804A76AE56A4FF001082AE04FF07E
:102E500001097F1E04F1140050F8250020B9681CF8
:102E600000F003054FF00009B9F1000F1AD005EB8F
:102E70008501F06850F8310000F0004080B904F19D
:102E8000140151F8250000F0C9F9002104F11400E3
:102E900040F82510681C00F00305A762E56201E018
:102EA0004FF0000817B1B8F1000FD0D10020BDE8F5
:102EB000F08700007CB504460D4810F019FD05466A
:102EC00085B105F1200020600A48286140F2F451E4
:102ED00020682B464122CDE900010021084612F06E
:102EE000A9FA04E0012004490870002020607CBD9C
:102EF0000C7A0208395A01086003002038B50446EC
:102F0000002000906946094800681EF0FBFF012878
:102F10000BD100BF009838B14FF0805004490860D1
:102F2000BFF34F8FBFF36F8F00BF38BD6803002022
:102F300004ED00E0F0B504460D4621462E46002083
:102F4000A2F1200000270760078143810F680FB9B5
:102F5000086001E0376838603060086803E007897E
:102F60001F44078100680028F9D1F0BD70B5044600
:102F70000D460DB9012070BDD4F88400102805D18C
:102F800029462046FFF722F90020F4E70120F2E766
:102F900070B506463068056925F01C0500F0BAFFDB
:102FA00004461348844205D31248844202D245F0B5
:102FB00008051AE00F48844205D30F48844202D224
:102FC00045F00C0511E00C48844203D30B488442C1
:102FD00000D20AE00948844205D30948844202D25B
:102FE00045F0040501E045F010053068056170BD4D
:102FF000002D3101C00E16020087930300E1F50594
:1030000080D1F00810B50446D4F88400102851D1BE
:103010002320C4F884000121A1652068C06B40F41E
:1030200002702168C8632068D0F80C012249084367
:103030002168C1F80C012068D0F8100140F4031099
:103040002168C1F810010421E1662046FFF726F946
:103050002068006840F00800216808602068006867
:1030600040F00400216808602046FEF7AAFE2068B0
:1030700000F58050806940F40051206800F58050D0
:103080008161206800F58050806940F0020120686D
:1030900000F580508161206800F58050C0690749C3
:1030A0000843216801F58051C8612320C4F88400D9
:1030B000002010BD0120FCE760000200C1A001005B
:1030C00070B50446D4F8840023283ED1C4F88400A7
:1030D000206800F58050C0691D490840216801F54D
:1030E0008051C8612068006820F0080021680860ED
:1030F000206800F58050806920F00201206800F50A
:10310000805081612068006820F004002168086018
:103110002046FEF756FE2068006820F0080021686F
:103120000860002508E004F1480050F82560706848
:1031300040F0004070606D1C042DF4D30021A165A7
:103140001020C4F88400002070BD0120FCE70000BE
:103150003E5FFEFF70B504460D463DB9D4F88800C9
:1031600040F00100C4F88800012070BDD4F884004C
:10317000232835D1696BE163012229462046FEF7F9
:10318000E9FE38B1D4F8880040F00200C4F88800A5
:103190000120EAE700BF00BF00BFBFF34F8F00BFB1
:1031A00000BF00BF00BFA06A401CA062A06A042844
:1031B00002D3A06A001FA06200BF206800F5805003
:1031C000406900F0040048B10421206800F58050F7
:1031D00041610021206800F5805041600020C4E773
:1031E0000120C2E738B5044600200090694609482E
:1031F00000681EF087FE01280BD100BF009838B18F
:103200004FF0805004490860BFF34F8FBFF36F8FBA
:1032100000BF38BD6403002004ED00E010B5044693
:10322000204612F03BFB10BD70472DE9F0470546E4
:103230000E46174698462868046904F01C044FF4AB
:10324000784000EAC62004434FF4F86000EA871093
:10325000044344F0020444F001041FFA88F0296892
:1032600048612868046100F03BF981460BE000F0FA
:1032700037F9A0EB0900B0F5803F02D30120BDE88B
:10328000F0872868046904F001000028EFD100BF2E
:10329000F5E70000F8B502460B46002500240020A3
:1032A0000021E0E0012606FA01F51E6806EA0504A1
:1032B000AC4274D11E7906F00306012E04D01E79AB
:1032C00006F00306022E13D190684F000326BE407D
:1032D000B0434F00DE68BE40304390605068012626
:1032E0008E40B0431E79C6F300168E4030435060C6
:1032F0001E7906F00306032E09D0D0684F0003267E
:10330000BE40B0434F009E68BE403043D0601E793F
:1033100006F00306022E13D1CF0802F1200656F85C
:1033200027004E07F70E0F26BE40B0434F07FF0E93
:103330001E69BE403043CF0802F1200646F8270040
:1033400010684F000326BE40B0431E7906F0030606
:103350004F00BE40304310605E6806F44036002ED9
:103360001DD000BF00260096414E366846F48046C8
:103370003F4F3E603E46366806F48046009600BFEA
:1033800000BF3C4E8F0856F827008E07370F0F26D8
:10339000BE40B043384EB24202D100262EE061E07A
:1033A000364EB24201D1012628E0354EB24201D15B
:1033B000022623E0334EB24201D103261EE0324EF4
:1033C000B24201D1042619E0304EB24201D10526A5
:1033D00014E02F4EB24201D106260FE02D4EB2422C
:1033E00001D107260AE02C4EB24201D1082605E0A1
:1033F0002A4EB24201D1092600E00A268F073F0F6C
:10340000BE4030431B4E8F0846F82700244E3068DC
:10341000A0435E6806F4801606B12043204E30605B
:10342000361D3068A0435E6806F4001606B12043DE
:103430001B4E361D30601A4E361F3068A0435E6842
:1034400006F4003606B12043154E361F3060361F95
:103450003068A0435E6806F4803606B12043104E03
:10346000083E3060491C1029FFF41CAFF8BD000075
:103470004438024008380140000002400004024085
:1034800000080240000C02400010024000140240FC
:1034900000180240001C02400020024000240240AC
:1034A000083C0140024613690B400BB1012000E0CB
:1034B0000020704710B5426921EA020302EA0104C4
:1034C00043EA0443836110BD0AB1816101E00B044A
:1034D0008361704701480068000C7047002004E0D9
:1034E000014800687047000024000020034800687D
:1034F0000349097808440149086070472400002006
:103500002C00002010B50D48006840F400700B49F5
:1035100008600846006840F480600860084600685B
:1035200040F480700860032000F056FA0F2000F08D
:1035300007F800F001FA002010BD0000003C024036
:1035400070B504460E4800784FF47A71B1FBF0F084
:103550000C490968B1FBF0F5284601F039F908B1CA
:10356000012070BD102C07D200222146501E00F011
:10357000F4F90548046001E00120F2E70020F0E7DB
:103580002C000020000000202800002070B5044618
:103590000E46154600BF94F8A000012801D1022074
:1035A00070BD012084F8A00000BF022084F8A100B3
:1035B00005EB850101EBC50204F1380101EB820046
:1035C00034223146FDF748FA2A463146204601F0BA
:1035D00026FC01202168486284F8A10000BF002079
:1035E00084F8A00000BF00BFDAE7000070B5044611
:1035F0000CB9012070BD94F8A10028B9002084F80E
:10360000A000204600F07EF8022084F8A100206887
:10361000806920F0704021688861D4E90101084385
:10362000E1680843216908432168896908432168E2
:103630008861206880683249084021688860A08AD3
:10364000050420688068A1692943084321688860CF
:103650002068C0682A4908402168C860A08B05041A
:103660002068C068216A294308432168C86020682F
:1036700000692349084021680861A08C050420687E
:103680000069A16A294308432168086120684069EC
:103690001B49084021684861A08D050420684069E5
:1036A000216B294308432168486194F835000502DD
:1036B00094F8360006042068C06A00F07F40216854
:1036C000C86246EA050094F8341008432168C96AC4
:1036D00008432168C8622068406B40F006002168FA
:1036E00048632068806940F00100216888610020FB
:1036F000C4F8A400012084F8A10000207AE70000AB
:1037000000F800F010B586B0044600BF002000901D
:103710004D48006840F080604B49086008460068EA
:1037200000F08060009000BF00BF00BF002000904C
:1037300045481438006840F40000434914390860D3
:103740000846006800F40000009000BF00BF00BF02
:10375000002000900846006840F00200086008461B
:10376000006800F00200009000BF00BF00BF002012
:1037700000900846006840F0200008600846006895
:1037800000F02000009000BF00BF00BF00200090AC
:103790000846006840F0400008600846006800F0F5
:1037A0004000009000BF00BF00BF0020009008460E
:1037B000006840F0800008600846006800F0800063
:1037C000009000BF00BF00BF0020009008460068C6
:1037D00040F4807008600846006800F48070009033
:1037E00000BF00BF20200190012002900390032021
:1037F000049001A91548FFF74DFD4FF4806001903A
:103800000220029000200390032004900E200590D7
:1038100001A90F48FFF73EFD4FF40C60019001A98C
:103820000C48FFF737FD4FF47E40019001A90A488C
:10383000FFF730FD40F2F760019001A90748FFF75C
:1038400029FD06B010BD00004438024000040240CB
:103850000014024000180240001C024000200240F8
:103860002DE9F04104460E461746984600BF94F8ED
:10387000A000012802D10220BDE8F081012084F8D7
:10388000A00000BF022084F8A10008EB880000EB34
:10389000C80104F1380000EB81052E60A86A3044AD
:1038A0006860AF60E86A3844E860424629462046CE
:1038B00001F0B5FA01202168486284F8A10000BF38
:1038C000002084F8A00000BF00BFD5E72DE9F0413B
:1038D00004460E461746984600BF94F8A0000128FB
:1038E00002D10220BDE8F081012084F8A00000BFD1
:1038F000022084F8A10008EB880000EBC80104F165
:10390000380000EB8105286830446860A8683844B6
:10391000E860AE62EF6242462946204601F07FFA37
:1039200001202168486284F8A10000BF002084F8CB
:10393000A00000BF00BFD5E7704701460846002839
:1039400009DB00F01F0301229A4043099B0003F1A9
:10395000E023C3F8002100BF70472DE9F05F8046E7
:103960000D461646002702F08DF8074639462A46CE
:10397000334601F00700C0F1070ABAF1040F02D97B
:103980004FF0040A01E0C0F1070AD14600F1040A31
:10399000BAF1070F02D24FF0000A01E0A0F1030ACA
:1039A000D4464FF0010A0AFA09FAAAF1010A0AEA12
:1039B000020A0AFA0CFA4FF0010B0BFA0CFBABF1FE
:1039C000010B0BEA030B4AEA0B042146404602F0C6
:1039D00061F8BDE8F09F000000BF00F00702064B51
:1039E00019684FF6FF031940044B0B4343EA0221C9
:1039F000014B196000BF70470CED00E00000FA05B4
:103A000038B5002400BF002000901D48006840F039
:103A100080501B4908600846006800F08050009004
:103A200000BF00BF012017490864FFF759FD044695
:103A300007E0FFF755FD001BB0F57A7F01D90320A1
:103A400038BD1148406800F48030B0F5803FF0D1B7
:103A500001200C494864FFF743FD044607E0FFF7E7
:103A60003FFD001BB0F57A7F01D90320E8E7064847
:103A7000406800F40030B0F5003FF0D10020DFE7EF
:103A80004038024000000E4200700040F8B5044685
:103A900000250026207800F0010048B9207800F0C9
:103AA0000200022804D0207800F04000402862D1B3
:103AB0000020B1498866FFF713FD054606E0FFF7D1
:103AC0000FFD401B022801D90320F8BDAB48006858
:103AD000C0F3C0600028F2D1207800F0010038B1B6
:103AE00060688101207A41EA0070A449843108604D
:103AF000207800F00200022819D1A0488430006824
:103B0000C0F3027660688101207B41EA006040EAF0
:103B100006709A498431086098488C30006820F01B
:103B20001F00E169491E084394498C3108602078E0
:103B300000F0400040280AD160688101207B41EA02
:103B40000061207A41EA00708C49843108600120CC
:103B500089498866FFF7C4FC054606E0FFF7C0FC0C
:103B6000401B022801D90320AFE784480068C0F356
:103B7000C0600028F2D0207800F00400042804D0AF
:103B8000207800F00800082863D100207A490867EF
:103B9000FFF7A6FC054606E0FFF7A2FC401B022843
:103BA00001D9032091E775480068C0F340700028F0
:103BB000F2D1207800F00400042819D16F48883031
:103BC0000068C0F3027620698101207D41EA00602F
:103BD00040EA0670694988310860081D006820F4D1
:103BE000F851206A401E41EA002064498C31086087
:103BF000207800F00800082817D160488830006855
:103C0000C0F303662069800140EA0661207E41EA34
:103C100000705A4988310860081D006820F440305F
:103C2000616A084355498C31086001205249086790
:103C3000FFF756FC054606E0FFF752FC401B022842
:103C400001D9032041E74D480068C0F340700028C7
:103C5000F2D0207800F0200020287DD100BF002085
:103C6000009046484030006840F080504349403161
:103C700008600846006800F08050009000BF00BF58
:103C80003F48006840F480703D490860FFF728FC19
:103C9000054606E0FFF724FC401B022801D903205B
:103CA00013E73748006800F480700028F2D03348EA
:103CB0007030006800F440764EB3208D00F4407000
:103CC000B04224D02D487030006820F440760120A6
:103CD0002C490860002008602848703006600068A1
:103CE00000F0010098B1FFF7FBFB054608E0FFF785
:103CF000F7FB401B41F28831884201D90320E4E6FA
:103D00001E4870300068C0F340000028EFD000BFAC
:103D1000208D00F44070B0F5407F0CD1174808307A
:103D2000006820F4F810184AA16A114008431349AA
:103D30000831086007E011480830006820F4F810E6
:103D40000E49083108600D4870300068218DC1F3BC
:103D50000B010843094900E002E07031086000BF30
:103D6000207800F01000102803D194F82C000749A7
:103D700008600020A9E60000000047420038024029
:103D800000700040400E4742FFFCFF0FE011474229
:103D900070B504460D460CB9012070BD5848006846
:103DA00000F00F00A84209D255490D70084600687E
:103DB00000F00F00A84201D00120EEE7207800F0CB
:103DC000020002281DD1207800F00400042805D14B
:103DD0004C48006840F4E0504A490860207800F000
:103DE0000800082805D14748006840F4604045496C
:103DF00008604448006820F0F000A1680843414989
:103E00000860207800F00100A8B36068012807D19D
:103E10003C4808380068C0F34040B8B90120BCE70E
:103E20006068022802D06068032807D13548083846
:103E30000068C0F3406048B90120AEE73148083857
:103E40000068C0F3400008B90120A6E72D480068CB
:103E500020F00300616808432A490860FFF740FB2F
:103E6000064609E0FFF73CFB801B41F2883188429F
:103E700002D9032091E707E02248006800F00C0017
:103E80006168B0EB810FEDD11D48006800F00F00B4
:103E9000A84209D91A490D700846006800F00F00C1
:103EA000A84201D0012078E7207800F0040004281F
:103EB00007D11448006820F4E050E1680843114934
:103EC0000860207800F00800082808D10D48006834
:103ED00020F46040216940EAC1000A49086000F00E
:103EE0003FF808490968C1F30311074A515CC8400B
:103EF0000649086006480068FFF722FB00204CE7EF
:103F0000003C024008380240D03002080000002087
:103F100028000020014800687047000000000020D1
:103F200000B5FFF7F7FF04490968C1F38221034A8E
:103F3000515CC84000BD000008380240E030020873
:103F400000B5FFF7E7FF04490968C1F34231034AAE
:103F5000515CC84000BD000008380240E030020853
:103F60002DE9F047002400250026A14625480068D9
:103F700000F00C0020B1042805D008283AD105E053
:103F8000DFF8849039E0DFF8849036E01D48001FA8
:103F9000006800F03F041B48001F006800F4800028
:103FA00078B11A481749091F0968C1F38811A0FBA5
:103FB00001700146224600233846FCF72FFA0546D9
:103FC0000EE011480F49091F0968C1F38811A0FBD1
:103FD00001700146224600233846FCF71FFA0546C9
:103FE0000848001F0068C0F30140401C4600B5FBB4
:103FF000F6F902E0DFF8109000BF00BF4846BDE8C8
:10400000F0870000083802400024F40040787D0169
:10401000F8B504460CB90120F8BD207800F0010085
:10402000002874D0F948006800F00C0004280DD076
:10403000F648006800F00C00082813D1F348001F70
:10404000006800F48000B0F5800F0BD1EF4808380D
:104050000068C0F34040002859D06068002856D15D
:104060000120D9E700BF6068B0F5803F08D1E7487C
:104070000838006840F48030E449083908601EE0E0
:104080006068B0F5A02F0DD1E0480838006840F412
:104090008020DE49083908600846006840F4803016
:1040A00008600CE0D9480838006820F48030D7490F
:1040B000083908600846006820F48020086000BFC6
:1040C000606890B1FFF70CFA054606E0FFF708FAC2
:1040D000401B642801D903209EE7CC4808380068BB
:1040E000C0F340400028F1D011E0FFF7F9F9054690
:1040F00006E0FFF7F5F9401B642801D903208BE7A0
:10410000C24808380068C0F340400028F1D1207848
:1041100000F0020002285FD1BC48006800F00C00EB
:1041200058B1BA48006800F00C0008281CD1B74804
:10413000001F006800F48000B0B9B4480838006877
:10414000C0F3400020B1E068012801D0012063E7FE
:10415000AE480838006820F0F800216940EAC10044
:10416000AA490839086037E0E06800B30120A8498F
:104170000860FFF7B5F9054606E0FFF7B1F9401B07
:10418000022801D9032047E7A04808380068C0F397
:1041900040000028F1D09D480838006820F0F80061
:1041A000216940EAC10099490839086014E00020FB
:1041B00097490860FFF794F9054606E0FFF790F984
:1041C000401B022801D9032026E7904808380068E0
:1041D000C0F340000028F1D1207800F00800082842
:1041E0002CD16069A8B101208A490860FFF778F9ED
:1041F000054606E0FFF774F9401B022801D90320A9
:104200000AE782486C300068C0F340000028F1D013
:1042100014E000207F490860FFF762F9054606E0D8
:10422000FFF75EF9401B022801D90320F4E6774826
:104230006C300068C0F340000028F1D1207800F015
:104240000400042870D1002770483830006800F05E
:10425000805090B900BF002000906C483830006852
:1042600040F080506949383108600846006800F025
:104270008050009000BF00BF01276748006800F42D
:104280008070B0B96448006840F48070624908608A
:10429000FFF726F9054606E0FFF722F9401B022842
:1042A00001D90320B8E65C48006800F4807000285B
:1042B000F2D000BFA068012808D1544868300068D7
:1042C00040F001005149683108601DE0A0680528F0
:1042D0000DD14E486830006840F004004B49683109
:1042E00008600846006840F0010008600CE047489C
:1042F0006830006820F001004449683108600846D1
:10430000006820F00400086000BFA068A8B1FFF7B3
:10431000E7F8054609E0FFF7E3F8401B41F2883172
:10432000884202D9032077E626E0384868300068E2
:10433000C0F340000028EED013E0FFF7D1F80546A7
:1043400008E0FFF7CDF8401B41F28831884201D9DF
:10435000032061E62D4868300068C0F34000002863
:10436000EFD1012F07D129483830006820F0805064
:1043700026493831086000BFA069002845D023488D
:10438000006800F00C0008285DD0A069022845D123
:1043900000201F490866FFF7A3F8054606E0FFF76F
:1043A0009FF8401B022801D9032035E6174808383A
:1043B0000068C0F340600028F1D1D4E90701084348
:1043C000616A40EA81110122A06AC2EB500041EA11
:1043D00000412C20005D41EA00600C49091F086083
:1043E00001200B490866FFF77BF8054606E0FFF75A
:1043F00077F8401B022801D903200DE6034808384E
:104400000068C0F340600028F1D049E0083802405D
:1044100000004742800E47420070004000202149C2
:104420000866FFF75DF8054606E0FFF759F8401B00
:10443000022801D90320EFE51B480068C0F3406063
:104440000028F2D12CE0A069012800D1E4E516484B
:10445000001D0668A069012820D006F48001E069EB
:1044600081421BD106F03F01206A814216D147F6F6
:10447000C0703040616AB0EB811F0FD106F440314B
:104480000122A06AC2EB5000B1EB004F06D106F04A
:1044900070612C20005DB1EB006F01D00120BBE505
:1044A0000020B9E5000047420038024070B50446DC
:1044B0000D460CB9012070BD94F82C0028B90020DD
:1044C00084F82D00204600F011F8022084F82C001A
:1044D000211D2068FDF7D3FF2946D4E90002FEF72D
:1044E00039F8012084F82C000020E4E710B586B0EC
:1044F000044600BF002000904348006840F00100DF
:10450000414908600846006800F00100009000BFC3
:1045100000BF00BF002000903B480838006840F012
:1045200004003949083908600846006800F00400B2
:10453000009000BF00BF00BF002000900846006848
:1045400040F0080008600846006800F0080000908D
:1045500000BF00BF00BF002000900846006840F088
:10456000100008600846006800F01000009000BFCE
:1045700000BF00BF002000900846006840F0200007
:1045800008600846006800F02000009000BF00BFEF
:1045900000BF002000900846006840F0400008601E
:1045A0000846006800F04000009000BF00BF0D20EA
:1045B00001900220029001200390032004900C201F
:1045C000059001A91148FEF765FE4CF203700190B9
:1045D00001A90F48FEF75EFE4FF68370019001A916
:1045E0000C48FEF757FE4FF63F00019001A90A481C
:1045F000FEF750FE48F23710019001A90748FEF778
:1046000049FE06B010BD00003838024000080240E4
:10461000000C02400010024000140240001802404A
:1046200070B504460D4694F82C00022800D170BDE8
:1046300094F82C0001280AD1022084F82C00294685
:104640002068FDF752FF012084F82C0001E00120D2
:10465000EDE70020EBE72DE9F04104460E46174652
:1046600094F82C50022D02D10220BDE8F081012DDA
:1046700001D0052D12D1022084F82C003A46314693
:104680002068FDF73CFF3068022803D1052084F83C
:104690002C0005E0012084F82C0001E00120E4E773
:1046A0000020E2E770B504460E4615460CB901201D
:1046B00070BD94F8490028B9002084F848002046CD
:1046C00000F020F804F108012068FDF759FE31469A
:1046D000A2682068FDF7A0FE2946236BD4E90102F9
:1046E000FDF72CFEA168206850F8210040F0010081
:1046F000A268216841F82200012084F849000020C6
:10470000D6E7000010B586B0044600BF0020009038
:104710002248006840F0010020490860084600680F
:1047200000F00100009000BF00BF00BF002000901B
:104730001A480838006840F008001849083908602D
:104740000846006800F00800009000BF00BF00BFEE
:10475000002000900846006840F0100008600846FD
:10476000006800F01000009000BF00BF4EF2B37070
:1047700001900220029001200390022004900C205E
:10478000059001A90648FEF785FD4FF6807001905F
:1047900001A90448FEF77EFD06B010BD383802407E
:1047A000000C024000100240042808D14FF0E02124
:1047B000096941F004014FF0E022116107E04FF078
:1047C000E021096921F004014FF0E02211617047F6
:1047D00070B504462546681EB0F1807F01D30120E4
:1047E0000FE0681E4FF0E02148610F214FF0FF30CD
:1047F00001F050F900204FF0E021886107200861A6
:10480000002070BD10B504460CB9012010BD94F80D
:104810003D0028B9002084F83C00204600F025F82F
:10482000022084F83D00211D206800F045FE012093
:1048300084F8460000BF84F83E0001213F20015566
:10484000402001554120015500BF00BF012084F8E0
:10485000420043200155442001554520015500BF29
:10486000012084F83D000020D0E77047014691F810
:104870003D00012801D001207047022081F83D0051
:104880000868C06840F001000B68D8601A4B0868DF
:1048900098421BD00868B0F1804F17D0174B0868BA
:1048A000984213D0164B086898420FD0154B0868F1
:1048B00098420BD0144B0868984207D0134B0868F5
:1048C000984203D0124B086898420CD1086880685F
:1048D00000F00702062A0CD00868006840F00100CA
:1048E0000B68186005E00868006840F001000B687C
:1048F00018600020C0E700000000014000040040F4
:1049000000080040000C004000040140004001404D
:10491000001800407047704701460022002391F8BC
:104920003D2091F83E3042EA030070472DE9F84FF0
:104930000446206805682068C668206847694FF00B
:104940000009CA4605F00F09B9F1000F0AD105F0B8
:10495000200038B106F0200020B1204600F068FEAB
:10496000BDE8F88FB9F1000F7CD007F0010018B94D
:1049700006F49070002875D005F0010030B106F4FF
:10498000807018B1206C40F00100206405F0040034
:1049900030B107F0010018B1206C40F00200206433
:1049A00005F0020030B107F0010018B1206C40F0B2
:1049B0000400206405F0080048B106F0200010B99A
:1049C00007F0010018B1206C40F008002064206C52
:1049D000002846D005F0200028B106F0200010B1D4
:1049E000204600F025FE20684069C0F3801A206C44
:1049F00000F0080010B9BAF1000F2DD0204600F0E9
:104A0000D1FD2068406900F04000402820D100BF5F
:104A100000BF2168143151E8001F21F040002168D7
:104A2000143141E80002002AF3D100BFA06B50B15D
:104A30007548A16B0865A06BFDF72CFE88B1A06BD3
:104A4000016D88470DE02046FFF765FF09E009E0AA
:104A50002046FFF760FF04E02046FFF75CFF0020E0
:104A600020647DE7206B012876D105F01000002836
:104A700072D006F010000028FAD000BF002000908D
:104A800020680068009020684068009000BF00BF68
:104A90002068406900F0400040285ED1A06B0068AB
:104AA00040681FFA80F8B8F1000F54D0A08D40453F
:104AB00051DDA4F82E80A06BC069B0F5807F43D093
:104AC00000BF00BF21680C3151E8001F21F4807045
:104AD00021680C3141E80002002AF3D100BF00BF79
:104AE00000BF2168143151E8001F21F00100216846
:104AF000143141E80002002AF3D100BF00BF00BF1B
:104B00002168143151E8001F21F040002168143160
:104B100041E80002002AF3D100BF202084F83E00C3
:104B20000020206300BF00BF21680C3151E8001F46
:104B300021F0100021680C3141E80002002AF3D175
:104B400000BFA06BFDF750FDA08DE28D801A81B2F1
:104B50002046FFF7DFFE03E740E0A08DE18D401A1D
:104B60001FFA80F8E08DC0B3B8F1000F35D000BF58
:104B700000BF21680C3151E8001F21F490702168BA
:104B80000C3141E80002002AF3D100BF00BF00BF92
:104B90002168143151E8001F21F00100216814310F
:104BA00041E80002002AF3D100BF202084F83E0033
:104BB0000020206300BF00BF21680C3151E8001FB6
:104BC00021F0100021680C3141E80002002AF3D1E5
:104BD00000BF41462046FFF79DFEC1E605F080007C
:104BE00030B106F0800018B1204600F0D8FEB7E6DC
:104BF00005F0400030B106F0400018B1204600F04A
:104C000007FDADE600BFABE69155000810B50446C0
:104C10000CB9012010BDA06900B100E000BF94F8FC
:104C20003D0028B9002084F83C00204600F028F818
:104C3000242084F83D002068C06820F400502168DA
:104C4000C860204600F070FD2068006920F49040A4
:104C5000216808612068406920F02A0021684861C5
:104C60002068C06840F400502168C86000202064BB
:104C7000202084F83D0084F83E000020CAE70000B0
:104C800010B586B004462E492068884255D100BF31
:104C900000BF002000902B48006840F01000294918
:104CA00008600846006800F01000009000BF00BFD8
:104CB00000BF00BF00BF00200090224814380068E9
:104CC00040F001001F49143908600846006800F0F0
:104CD0000100009000BF00BF00BF00BF00BF002068
:104CE00000900846006840F001000860084600682F
:104CF00000F00100009000BF00BF00BF4815019008
:104D000002200290012003900220049007200590C9
:104D100001A90D48FEF7BEFA4FF48060019007200C
:104D2000059001A90848FEF7B5FA2520FEF705FE13
:104D3000032211462520FEF710FE06B010BD00002C
:104D400000100140443802400000024070B50446A3
:104D50000D46164694F83E00202816D105B10EB92E
:104D6000012070BD00BF94F83C00012801D1022051
:104D7000F7E7012084F83C0000BF002020633246A2
:104D80002946204600F0E6FDEBE70220E9E70000B7
:104D90001D4A0168914236D11C49098801F400413D
:104DA00089BB1A49098801F4804171B11849097811
:104DB0000A2903D00021154A118024E013490988EB
:104DC00041F40041114A11801DE0114909780D2973
:104DD00006D10E49098841F480410C4A118012E045
:104DE0000B490978094A1288C2F30D02094B9954FC
:104DF00006490988491C054A118011460988C729B6
:104E000001DD002111807047001001401C000020CE
:104E10001E00002010040020704700BFFEE7F0B520
:104E20008E880768FF68C7F30B473E443304066863
:104E30008436802707FB0266766806F470470668AA
:104E400084364FF0800C0CFB026677600E680768B2
:104E5000FF68C7F30B473E44761C1E430768843740
:104E60000CFB02777E608E890768FF68C7F30A072C
:104E70003E44330406688436802707FB0266B66822
:104E800006F47047066884360CFB0266B7608E68CD
:104E90000768FF68C7F30A073E44761C46EA030723
:104EA000066884360CFB0266B76006688436802785
:104EB00007FB0266366926F00707066884360CFB96
:104EC000026637610F69066884360CFB026637613B
:104ED0003126765C33023226765C34040E7E35064B
:104EE00006688436802707FB0266B66900270668D5
:104EF00084360CFB0266B76191F830601E4326438E
:104F000046EA0507066884360CFB0266B761066848
:104F10008436802707FB0266766926F0FF0706685D
:104F200084360CFB026677614F69066884360CFB99
:104F30000266776106688436802707FB0266F66999
:104F400040F20777BE43076884370CFB0277FE61A7
:104F5000D1E907763743066884360CFB0266F761B1
:104F600006688436802707FB0266B66A0027066853
:104F700084360CFB0266B7624F6A066884360CFB07
:104F80000266B7620E690EB9042313E00E69012EA2
:104F900001D103230EE00E69042E08D00E69022E03
:104FA00005D00E69032E02D00E69072E01D102230F
:104FB00000E0012306688436802707FB0266F66A54
:104FC00006F0E027066884364FF0800C0CFB026682
:104FD000F762D1E90076F61B5E43F61C0F8D5F4346
:104FE00046EA0747066884360CFB0266F7620668E5
:104FF0008436802707FB0266366BF70AFF020668D5
:1050000084360CFB02663763CF6A066884360CFB75
:105010000266376306688436D701F65946F0010701
:10502000066884364FEAC21C46F80C70F0BD00BF1B
:10503000FEE7000010B506480068002807DB0449B9
:1050400008680AF04FFA4FF0FF300149086010BDC0
:10505000BCA5022070B588B006460C462B480068F7
:10506000002803DB294908680AF03CFA00220121E4
:1050700002200DF09DFC25490860084600680028C4
:1050800005DA23A0FBF742FA002008B070BD032028
:1050900002900020039008201C49009002AB41F2CE
:1050A00006020868D11F0DF0EBF90020049005906E
:1050B0000690079002208DF8110020460AF0ABFC04
:1050C000ADF81200304606F005F805900F491022A1
:1050D000086804A90AF00AFB0546002D0CDA15A0A1
:1050E000FBF714FA094908680AF0FCF94FF0FF30A1
:1050F000064908600020C8E700200449888022464D
:10510000314614A0FBF702FA0120BEE7BCA502203D
:105110005B4D6F646275735443505D20736F636BB6
:10512000657420637265617465206661696C65648D
:105130000D0A00005B4D6F646275735443505D202F
:10514000636F6E6E656374206661696C65640D0AD9
:10515000000000005B4D6F646275735443505D2026
:10516000636F6E6E656374656420746F2025733A97
:1051700025750D0A0000000010B5FFF75BFF4BF628
:105180000B6102A0FFF766FF10BD00003135312E24
:105190003234322E38352E38390000002DE9F84FE0
:1051A0008146514C04F14005A01F8088401CA11F7E
:1051B0008880084680880012207008460079607058
:1051C0000020A070E0704FF00A0A0AF1060000907B
:1051D00000202071009860710120A0711020E07102
:1051E000002020726072A0720520E07284F80CA08A
:1051F00000200EE039F8101009120D2202EB4002D7
:10520000A15419F810200D2101EB4001491C6254F2
:10521000401C0528EEDB3449891F0023182208684A
:1052200021460DF053F80746182F06D039462FA017
:10523000FBF76CF90020BDE8F88F00264FF00C0852
:1052400023E02949891F086840F6B8311CF064FB47
:10525000012804D02DA0FBF759F90020EBE7A9198C
:10526000214A921F0023106842460CF0C3F983467E
:10527000BBF1000F05DC59462BA0FBF747F90020D6
:10528000D9E75E44A8EB0B0800BFB8F1000FD8DCEB
:105290000C2E05DA31462CA0FBF738F90020CAE7BE
:1052A000A87808B9E87820B130A0FBF72FF90020E2
:1052B000C1E7287910B96879062806D06A79297972
:1052C00033A0FBF723F90020B5E7E879102808D0D0
:1052D000E87900F07F0B59463AA0FBF717F9002058
:1052E000A9E70120A7E70000C2A502205B4D6F647B
:1052F0006275735443505D2073656E642066616906
:105300006C65643A2025640D0A0000005B4D6F64F3
:105310006275735443505D20726563762074696DC5
:10532000656F75740D0A00005B4D6F646275735490
:1053300043505D2072656376206572726F723A2009
:1053400025640D0A000000005B4D6F6462757354A4
:1053500043505D207265737020746F6F2073686FA7
:1053600072743A2025640D0A000000005B4D6F64E2
:105370006275735443505D20696E76616C69642078
:1053800070726F746F636F6C2049440D0A000000E7
:105390005B4D6F646275735443505D20696E766136
:1053A0006C6964206C656E67746820696E20726534
:1053B00073703A20307825303258253032580D0A33
:1053C000000000005B4D6F646275735443505D20B4
:1053D00073657276657220657863657074696F6E47
:1053E0003A203078253032580D0A0000704700000E
:1053F00027E014480068D0F8C40118B100201CF060
:105400000DF81EE00F480068D0F894010A2815D95D
:105410000D48006820F400000B4908600846006849
:1054200040F40000086007480068D0F8000140F030
:10543000010004490968C1F8000102E0C8201BF01E
:10544000ABFFD6E7B80600200438014010B5FEF7E0
:105450004DF81DF09DF8012801D01CF06FFB10BD28
:105460000348006840F4700001490860704700007C
:1054700088ED00E010B50E480068C06800F001003B
:1054800078B10C49086980470020094909684862D9
:1054900000BF642006490968C86264210448C160ED
:1054A00000BF6FF0010002490968086110BD0000EB
:1054B000B80800205801002010B50268294B984216
:1054C0000ED0B0F1804F0BD0274B984208D0274B1D
:1054D000984205D0264B984202D0264B984203D1E1
:1054E00022F070024B681A431E4B984220D0B0F154
:1054F000804F1DD01C4B98421AD01C4B984217D09D
:105500001B4B984214D01B4B984211D01A4B984217
:105510000ED01A4B98420BD0194B984208D0194B19
:10552000984205D0184B984202D0184B984203D1AC
:1055300022F44072CB681A4322F080034C6943EA9C
:10554000040202608B68C3620B688362054B984259
:1055500002D0084B984201D10B69036301234361D8
:1055600010BD0000000001400004004000080040A1
:10557000000C004000040140004001400044014094
:105580000048014000180040001C0040002000407E
:1055900070B50546AC6B0020E085E0842046FFF73F
:1055A000BAF970BD00BF00BF02680C3252E8002F8C
:1055B00022F4907102680C3242E80013002BF3D100
:1055C00000BF00BF00BF0268143252E8002F22F073
:1055D00001010268143242E80013002BF3D100BF2E
:1055E000016B01290ED100BF00BF02680C3252E8E6
:1055F000002F22F0100102680C3242E80013002B49
:10560000F3D100BF202180F83E10002101637047D4
:1056100010B504462068C06820F040002168C860CA
:10562000202084F83D002046FFF7F6FB002010BD47
:10563000F8B5044694F83E00222873D1A068B0F56E
:10564000805F0CD1206950B90025A66A20684068A7
:10565000C0F308003080A06A801CA06215E0A56A33
:105660000026A068B0F5805F03D0A06828B9206943
:1056700018B920684068287004E02068406800F08D
:105680007F002870A06A401CA062E08D401E80B29E
:10569000E085002844D12068C06820F020002168FF
:1056A000C8602068C06820F480702168C8602068E5
:1056B000406920F0010021684861202084F83E0004
:1056C000206B012826D10020206300BF00BF216885
:1056D0000C3151E8001F21F0100021680C3141E825
:1056E0000002002AF3D100BF2068006800F010001B
:1056F00010280AD100BF00200090206800680090A8
:1057000020684068009000BF00BFA18D2046FFF7D1
:1057100001F902E02046FFF73BFB0020F8BD01E065
:105720000020FBE70220F9E72DE9F84F0446206846
:10573000006920F44050E16808432168086121694C
:10574000A068084361690843E16908430090206844
:10575000C06849F20C618843009908432168C86019
:105760002068406920F44070A169084321684861BD
:1057700076492068884203D075492068884203D161
:10578000FEF7DEFB814602E0FEF7CAFB8146E069D8
:10579000B0F5004F6CD102206168A0FB01500346B8
:1057A0001920A9FB007001462A463846FAF736FE52
:1057B0006421B0FBF1F04FEA001A02206168A0FBFF
:1057C00001510B461920A9FB00712A463846FAF709
:1057D00025FE834602206168A0FB01500346192084
:1057E000A9FB00712A463846FAF718FE6421B0FB7F
:1057F000F1F000EBC00101EB0010ABEB80003221B7
:1058000001EBC0006421B0FBF1F000F0F8000AEBFE
:10581000400A02206168A0FB015003461920A9FB41
:10582000007001462A463846FAF7F8FD8346022002
:105830006168A0FB015003461920A9FB00712A46AC
:105840003846FAF7EBFD6421B0FBF1F000EBC00144
:1058500001EB0010ABEB8000322101EBC0006421B2
:10586000B0FBF1F000F007005044216888606AE066
:1058700004206168A0FB015003461920A9FB0070B9
:1058800001462A463846FAF7C9FD82460420616877
:10589000A0FB015003461920A9FB007001462A46CF
:1058A0003846FAF7BBFD6421B0FBF1F000EBC00114
:1058B00001EB0010AAEB8000322101EB0010642103
:1058C000B0FBF1F000F0F00A04206168A0FB017069
:1058D00003461920A9FB00513A462846FAF79EFDD7
:1058E0006421B0FBF1F00AEB001A04206168A0FB10
:1058F00001510B461920A9FB00712A463846FAF7D8
:105900008DFD834604206168A0FB015003461920E9
:10591000A9FB007001462A463846FAF77FFD64214C
:10592000B0FBF1F000EBC00101EB0010ABEB80002D
:10593000322101EB00106421B0FBF1F000F00F0008
:10594000504421688860BDE8F88F000000100140D5
:105950000014014010B5034699629A85DA8500204B
:105960001864222083F83E0000BF002083F83C002A
:1059700000BF186928B11868C06840F480701C68BE
:10598000E0601868406940F001001C6860611868B8
:10599000C06840F020001C68E060002010BD014697
:1059A00091F83D00212828D18868B0F5805F0BD19F
:1059B000086948B90A6A1088C0F308000B68586083
:1059C000086A801C086205E00B6A581C0862187897
:1059D0000B685860C88C401E80B2C88458B90868EB
:1059E000C06820F080000B68D8600868C06840F08C
:1059F00040000B68D860002070470220FCE70000E0
:105A000070B500240F4D1048FEF790FF00BF03E073
:105A1000641CAC4200D904E00B48FEF77DFF20284F
:105A2000F6D100BF002403E0641CAC4200D906E0BC
:105A3000012206490448FFF789F90028F4D100BF84
:105A400070BD0000FFFF0100D80400201E000020F0
:105A500000BFFEE703B401984100009850EAC1205E
:105A600018BF04204A0D18BF40F0010040F2FF7239
:105A7000B2EB515F08BF40F00200012808BF0520CB
:105A800002B0704702480068C0F30220704700006F
:105A90000CED00E010B5002804DB0A07130E054AE0
:105AA000135406E00A07140E034A00F00F031B1FED
:105AB000D45410BD00E400E018ED00E030380A28AE
:105AC00001D2012070470020704700BF70470000DE
:105AD0002DE9F04706460F46904634461CB96FF054
